:020000040800F2
:10000000A0090020750200086D070008CD06000851
:1000100069070008AD050008CD0B000800000000CE
:10002000000000000000000000000000DD010008EA
:10003000B10500080000000021020008D1090008F5
:100040008F0200088F0200088F0200088F0200084C
:100050008F0200088F0200088F0200088F0200083C
:100060008F0200088F0200088F0200088F0200082C
:100070008F0200088F0200088F0200088F0200081C
:100080008F0200088F0200088F0200088F0200080C
:100090008F0200088F0200088F0200088F020008FC
:1000A0008F0200088F0200088F0200088F020008EC
:1000B0008F0200088F0200088F0200088F020008DC
:1000C0008F0200088F0200088F0200088F020008CC
:1000D0008F0200088F0200088F0200088F020008BC
:1000E0008F0200088F0200088F0200088F020008AC
:1000F0008F0200088F0200088F0200088F0200089C
:100100008F0200088F0200088F0200088F0200088B
:100110008F0200088F0200088F0200088F0200087B
:100120008F0200088F0200088F0200088F0200086B
:1001300000F002F800F042F80AA090E8000C8244B7
:100140008344AAF10107DA4501D100F037F8AFF294
:10015000090EBAE80F0013F0010F18BFFB1A43F0A5
:1001600001031847280E0000480E0000103A24BF73
:1001700078C878C1FAD8520724BF30C830C144BF0C
:1001800004680C607047000000230024002500264E
:10019000103A28BF78C1FBD8520728BF30C148BFEA
:1001A0000B607047642900F0F180732900F0B28180
:1001B000002070471FB51FBD10B510BD00F0C4F979
:1001C0001146FFF7F7FF00F03FFD00F0E2F903B43E
:1001D000FFF7F2FF03BC00F0FBFC0000224B1968A4
:1001E0000868B0E8F00F80F30988BFF36F8F4FF015
:1001F000000080F311884EF00D0E704700000000E3
:1002000006480068006880F3088862B661B6BFF3EC
:100210004F8FBFF36F8F00DF00BF00BF08ED00E01E
:10022000EFF30980BFF36F8F0F4B1A6820E9F00FCF
:10023000106008B54FF0500080F31188BFF34F8F66
:10024000BFF36F8F00F036FD4FF0000080F3118890
:10025000BDE8084019680868B0E8F00F80F3098825
:10026000BFF36F8F704700BF1C000020EFF30580C5
:10027000704700000948804709480047FEE7FEE74D
:10028000FEE7FEE7FEE7FEE7FEE7FEE7FEE7FEE746
:1002900004480549054A064B70470000E10900087B
:1002A00031010008A0030020A0090020A0050020C3
:1002B000A0050020704700000FB4044910B503AA40
:1002C000029800F02BF910BC5DF814FB140000201C
:1002D0002DE9F0410E460446002020622046E168E8
:1002E000884730B3252805D0D4E901219047206AFA
:1002F000401CF2E7E168204600278847050018D037
:10030000A5F14100192802D820354FF40067324684
:10031000294620462760FFF745FF40B1012804D059
:10032000F61D26F007060836D8E7361DD6E728461C
:10033000DAE7206ABDE8F08170B50C460546012A6F
:1003400005D02878800600D5EA69002302E0012361
:1003500005E05B1C934202D2E05C0028F9D1A86959
:10036000E618C01AA861286A184428622846AFF324
:10037000008004E0D5E9012114F8010B9047B44254
:10038000F8D32846AFF3008070BD00002DE9F0419E
:100390000646002410687529314616A510D0AFF323
:1003A0000080002802DA404213A507E031688A077E
:1003B00001D512A502E0490704D511A5012401E0E9
:1003C000AFF3008000210A2206F1240709E0B0FB08
:1003D000F2FCB0FBF2F302FB1C00303078541846FC
:1003E000491C0028F3D123462A463046BDE8F04197
:1003F00000F00CB8000000002D0000002B000000F1
:100400002000000070477047704770472DE9F047A3
:100410000D4699469246044600F124080168880674
:1004200004D5E06921F01001216000E00120A8421C
:1004300001DD471B00E00027A1697A1902EB0900E2
:10044000081AA0612078C00602D42046AFF30080CD
:10045000002608E0D4E901211AF806009047206A36
:10046000401C761C20624E45F4DB2078C0060AD57D
:100470002046AFF3008006E0D4E901213020904708
:10048000206A401C2062381EA7F10107F4DC07E057
:10049000D4E9012118F805009047206A401C206229
:1004A000281EA5F10105F3DC2046AFF3008020787B
:1004B000000602D50220BDE8F0870120FBE700001E
:1004C00001694A1C02610878704700B58FB0CDE918
:1004D00001310021059105497944CDE90310114608
:1004E0006846FFF7F5FE0FB000BD0000E5FFFFFF17
:1004F00010B5436913B1AFF3008001E0FFF71CFFB3
:10050000012010BD127800F124010A7000224A7007
:100510000122EDE711684FF0FF32E9E7074B70B5B4
:100520000D467B44FFF7D1FF0446284600F008F84B
:1005300010B14FF0FF3070BD204670BD07070000BE
:10054000007B00F080007047754600F02BF8AE4647
:1005500005006946534620F00700854618B020B5CF
:10056000FFF796FEBDE820404FF000064FF0000771
:100570004FF000084FF0000B21F00701AC46ACE84B
:10058000C009ACE8C009ACE8C009ACE8C0098D46B8
:10059000704710B50446AFF300802046BDE8104018
:1005A000FFF715BE004870474003002000BFFEE77C
:1005B00070472DE9F0410246002500260020002367
:1005C0000024002791F803C00CF00F0591F803C038
:1005D0000CF0100CBCF1000F03D091F802C04CEAF3
:1005E000050591F800C0BCF1000F31D0146800205F
:1005F0002BE04FF0010C0CFA00F3B1F800C00CEA4C
:1006000003069E4220D183004FF00F0C0CFA03F733
:10061000BC4305FA03FC4CEA040491F803C0BCF1A6
:10062000280F06D14FF0010C0CFA00FCC2F814C0E0
:100630000AE091F803C0BCF1480F05D14FF0010C5E
:100640000CFA00FCC2F810C0401C0828D1D314607A
:10065000B1F800C0BCF1FF0F34DD546800202EE07B
:1006600000F1080C4FF0010808FA0CF3B1F800C0D3
:100670000CEA03069E4221D183004FF00F0C0CFAC6
:1006800003F7BC4305FA03FC4CEA040491F803C0E9
:10069000BCF1280F05D100F1080C08FA0CF8C2F8DB
:1006A000148091F803C0BCF1480F07D100F1080C89
:1006B0004FF0010808FA0CF8C2F81080401C082816
:1006C000CED35460BDE8F0810161704700BFFEE702
:1006D00008B50121042000F08DF80121402000F030
:1006E00089F81820ADF8000048208DF8030069460D
:1006F0000648FFF75EFF0120ADF8000028208DF8C6
:10070000030069460248FFF754FF08BD0018014086
:100710000008014008B50121082000F06BF8012114
:10072000402000F067F82020ADF8000010208DF880
:10073000030003208DF8020069460948FFF739FFDE
:100740002020ADF8000069460648FFF732FF20215F
:100750000348FFF7B9FF20210248FFF7B5FF08BDA6
:10076000000C01400018014000BFFEE77047000088
:1007700070B5002100230F22C47804B3154C2468FF
:1007800004F4E064C4F5E064210AC1F10403CA4042
:10079000447804FA03F184781440214309010E4C93
:1007A0000678A155047804F01F050124AC400578B3
:1007B0006D11AD0005F1E025C5F8004109E00478B0
:1007C00004F01F050124AC40044D0678761145F86D
:1007D000264070BD0CED00E000E400E080E100E0A8
:1007E00002490143024A1160704700000000FA0507
:1007F0000CED00E029B1064A92690243044B9A616C
:1008000004E0034A92698243014B9A6170470000F9
:100810000010024030B500210022002400232D4D9D
:100820006D6805F00C0121B1042905D0082923D1F8
:1008300005E0294D056022E0274D05601FE0254DAC
:100840006D6805F47012234D6D6805F4803402253F
:1008500005EB92421CB9214D554305600BE01D4D3F
:100860006D6805F400351DB11C4D5543056002E06F
:10087000194D5543056002E0174D056000BF00BFEC
:10088000144D6D6805F0F0010909154D6B5C0568A4
:10089000DD4045600F4D6D6805F4E061090A104DBB
:1008A0006B5C4568DD4085600A4D6D6805F46051FC
:1008B000C90A0B4D6B5C4568DD40C560054D6D6830
:1008C00005F44041890B074D6B5CC568B5FBF3F53A
:1008D000056130BD0010024000127A0000093D00A1
:1008E000000000201000002010B500F001F810BD3D
:1008F0000CB50020019000903348006840F480302F
:100900003149086000BF3048006800F400300090B2
:100910000198401C0190009818B90198B0F5A06F9B
:10092000F1D12948006800F4003010B10120009096
:1009300001E0002000900098012843D1234800687E
:1009400040F01000214908600846006820F00300CC
:1009500008600846006840F0020008601A484068D5
:10096000194948600846406848600846406840F4B5
:10097000806048600846406820F47C104860084663
:10098000406840F4E81048600846006840F0807015
:10099000086000BF0C48006800F000700028F9D023
:1009A0000948406820F0030007494860084640684D
:1009B00040F00200486000BF0348406800F00C00AF
:1009C0000828F9D10CBD00000010024000200240B0
:1009D00010B500F0DFF9012801D000F0C1F910BD19
:1009E00010B51348006840F001001149086008463E
:1009F0004068104908400E494860084600680E49A2
:100A000008400B4908600846006820F48020086010
:100A10000846406820F4FE0048604FF41F008860DC
:100A2000FFF762FF4FF000600449086010BD00004E
:100A3000001002400000FFF8FFFFF6FE08ED00E0A6
:100A400010B586B00446012144F20400FFF7D2FE3F
:100A50004FF40070ADF8140018208DF81700032033
:100A60008DF8160005A91B48FFF7A3FD4FF4806021
:100A7000ADF8140004208DF8170003208DF816003F
:100A800005A91448FFF795FD01940020ADF8080072
:100A9000ADF80A00ADF80C00ADF810000C20ADF870
:100AA0000E0001A90C4800F025F825208DF8000063
:100AB00003208DF801008DF8020001208DF803005D
:100AC0006846FFF755FE0121034800F007F806B01D
:100AD00010BD0000000801400038014021B18289AA
:100AE00042F40052828104E082894DF6FF731A407D
:100AF000828170472DE9F04786B005460E460024F6
:100B0000A24600BFA1460027B08900B100BF2F4612
:100B10002C8A4CF6FF700440F08804432C82AC8988
:100B20004EF6F3100440B0883189084371890843B8
:100B30000443AC81AC8A4FF6FF400440B0890443C3
:100B4000AC8201A8FFF766FE1F48874202D1DDF89C
:100B500010A001E0DDF80CA0A88900F4004040B12D
:100B60000AEBCA0000EB0A1031684900B0FBF1F84B
:100B700007E00AEBCA0000EB0A1031688900B0FBFD
:100B8000F1F86420B8FBF0F004012009642101FBB6
:100B90001089A88900F4004040B1322000EBC90060
:100BA000B0FBF1F000F00700044308E0322000EB56
:100BB00009106421B0FBF1F000F00F0004432C8118
:100BC00006B0BDE8F08700000038014000BFFEE736
:100BD000014600BF7047000010B500224FF0E0232F
:100BE0001A611A46126922F004021A61C31700EB57
:100BF0005373C3F3CF030C4C2380C31700EB537321
:100C0000D9104FF47A7251434FF0E022126942F04A
:100C100002024FF0E0231A611A465161126942F054
:100C200001021A6110BD00001800002000BF054A33
:100C3000128802F04002002AF9D0C2B2014B1B1DFB
:100C40001A807047003801404FF44070FFF7C8FD2C
:100C50004FF4E130FFF7F4FE4820FFF7BDFFFFF748
:100C600037FDFFF757FD20210448FFF72DFD202118
:100C70000348FFF729FD00BFFEE70000000C01401C
:100C80000018014009480068006808B9012000E028
:100C9000002020B14FF0FF300549086005E003480F
:100CA0000068C068006802490860704720000020A2
:100CB0004C00002010B51B48006818B101201A49EB
:100CC00008602DE000201849086018480068B0FA54
:100CD00080F0C0F11F0404EB8400154951F8200096
:100CE00008B1012000E0002028B940F6024211A11D
:100CF00016A0FFF7E1FA04EB84010D4A02EB810034
:100D000041684968416000F1080142688A4202D1A5
:100D10004168496841604168C968104A116000BF74
:100D200010BD0000580000204000002034000020CA
:100D30005C0000202E2E5C4672656552544F535C59
:100D40007372635C7461736B732E63004572726FB0
:100D5000723A2025732C2025640D0A001C00002007
:100D600010B500BF502080F31188BFF34F8FBFF341
:100D70006F8F00BF00F01EF818B14FF0805004498B
:100D8000086000BF002080F3118800BF10BD000084
:100D900004ED00E00549096809B9012005E00449AE
:100DA000096809B9022000E00020704738000020DF
:100DB000580000202DE9F0414FF000085E4800681F
:100DC00000287DD15D480068451C5C480560EDB990
:100DD0005B480068006808B9012000E0002028B9DD
:100DE00040F6C72257A15DA0FFF766FA544807688E
:100DF0005E480068524908605C4807605C480068CB
:100E0000401C5B490860FFF73DFF00BF5948006880
:100E1000854277D300BF4A480068006808B90120BE
:100E200000E0002020B14FF0FF305249086068E038
:100E300043480068C068C4686668B54202D24D483D
:100E400006605EE06069D4E902128A60D4E902219A
:100E50004A60211D42688A4201D1E1684160002256
:100E600062610168491E0160A06A98B1A06AD4E974
:100E700007128A60D4E907214A6004F11801426828
:100E80008A4201D1216A41600022A2620168491EA2
:100E9000016000BF94F82C10012088403649096891
:100EA000084335490860E16A01EB8101334A02EBEE
:100EB00081014868A0608268E260211D826800E0CC
:100EC00032E051608160E16A01EB81012B4A02EB63
:100ED00081026261E16A01EB8101284A52F8211026
:100EE000491CE26A02EB8202244B43F82210244997
:100EF000E06A0968C96A88428DD34FF001088AE721
:100F000000E000BF1E480068C06A00EB80001B497B
:100F100051F82000012801D94FF001081948006854
:100F200008B14FF0010804E017480068401C16495A
:100F300008604046BDE8F0815800002030000020E5
:100F4000200000202E2E5C4672656552544F535C83
:100F50007372635C7461736B732E63004572726F9E
:100F6000723A2025732C2025640D0A0024000020ED
:100F7000440000204C000020340000205C000020D1
:100F80001C000020400000203C000020AC0F0008A6
:100F9000000000205C0000006C0100080810000840
:100FA0005C000020440900008801000800000000E7
:100FB00001020304010203040607080902040608EB
:100FC0000000000000000000000000000000000021
:100FD0000000000000000000000000000000000011
:100FE0000000000000000000000000000000000001
:100FF00000000000000000000000000000000000F1
:081000001F00000000000000C9
:0400000508000131BD
:00000001FF
