:020000040800F2
:1000000090970020E101000829080008AF070008C8
:100010002508000889030008950C0008000000006E
:10002000000000000000000000000000490100087E
:100030008D030008000000008D0100088D0A0008F3
:10004000FB010008FB010008FB010008FB010008A0
:10005000FB010008FB010008FB010008FB01000890
:10006000FB01000841040008C1040008FB0100086E
:10007000FB010008FB010008FB010008FB01000870
:10008000FB010008FB010008FB010008FB01000860
:10009000FB010008FB010008FB010008FB01000850
:1000A000FB010008FB010008FB010008FB01000840
:1000B000FB010008FB010008FB010008FB01000830
:1000C000FB010008FB010008FB010008FB01000820
:1000D000FB010008FB010008FB010008FB01000810
:1000E000FB010008FB010008FB010008FB01000800
:1000F000FB010008FB010008FB010008FB010008F0
:10010000FB010008FB010008FB010008FB010008DF
:10011000FB010008FB010008FB010008FB010008CF
:10012000FB010008FB010008FB010008FB010008BF
:10013000DFF810D000F08EF800480047CD0E000820
:10014000AFF3008090970020224B19680868B0E850
:10015000F00F80F30988BFF36F8F4FF0000080F33A
:1001600011884EF00D0E7047000000000648006830
:10017000006880F3088862B661B6BFF34F8FBFF3A3
:100180006F8F00DF00BF00BF08ED00E0EFF30980D4
:10019000BFF36F8F0F4B1A6820E9F00F106008B59E
:1001A0004FF0500080F31188BFF34F8FBFF36F8F74
:1001B00001F06EFD4FF0000080F31188BDE80840AB
:1001C00019680868B0E8F00F80F30988BFF36F8FF3
:1001D000704700BF3C000020EFF30580704700002F
:1001E0000648804706480047FEE7FEE7FEE7FEE7D1
:1001F000FEE7FEE7FEE7FEE7FEE7FEE79D0A0008F2
:100200003101000840EA01039B0703D009E008C957
:10021000121F08C0042AFAD203E011F8013B00F8CB
:10022000013B521EF9D2704730B50B460146002003
:100230002022012409E021FA02F59D4205D303FAA8
:1002400002F5491B04FA02F52844151EA2F1010229
:10025000F1DC30BD064C074D06E0E06840F00103DC
:1002600094E8070098471034AC42F6D3FFF764FFD8
:1002700054260008742600081CB5012401F05EFA1B
:1002800000220421084601F0C3FD17490860084612
:10029000006810B115A000F0FFFC1C4801210023EC
:1002A0008022CDE900101AA11C4801F0F3FF04469A
:1002B000012C02D11AA000F0EFFC1F4802210023FC
:1002C0008022CDE900101DA11F4801F0E3FF044684
:1002D000012C02D11DA000F0DFFC2348006801F0D2
:1002E00099FB01F06DFA1CBD340000205465737455
:1002F0005F5175657565CFFBCFA2B6D3C1D0B4B4DD
:10030000BDA8B3C9B9A6210D0A0000002C00002029
:100310004C45445F5461736B0000000009080008FD
:100320004C45445F5461736BC8CECEF1B4B4BDA8E4
:10033000B3C9B9A6210D0A003000002045787469C0
:100340005F5461736B000000ED0500084578746927
:100350005F5461736BC8CECEF1B4B4BDA8B3C9B954
:10036000A6210D0A000000002800002010B54FF45F
:10037000407000F093FA4FF4E13000F0BFFB00F062
:1003800019FA00F005F810BD00BFFEE77047000045
:100390001FB50121084600F08BFA0121402000F032
:1003A00087FA1820ADF80C0048208DF80F0003A93B
:1003B000224800F06FF909208DF8080005208DF81B
:1003C000090000208DF80A0001208DF80B0002A81A
:1003D00000F02CFA0A208DF8080005208DF809009D
:1003E00000208DF80A0001208DF80B0002A800F013
:1003F0001DFA0321042000F02DF90421084600F025
:1004000029F90820009000208DF804000C208DF8B8
:10041000050001208DF80600684600F09DF81020C8
:10042000009000208DF804000C208DF805000120BC
:100430008DF80600684600F08FF81FBD00180140D7
:1004400038B500BF5021EFF3118081F31188BFF35D
:100450004F8FBFF36F8F00BF0446082000F070F885
:10046000012818D13C2000F013FD1048006800F06E
:10047000080080B900236A460D490E48006801F063
:1004800035FE009838B14FF080500B490860BFF33B
:100490004F8FBFF36F8F0948006840F0080007498D
:1004A000086000BF84F3118800BF38BD0818014000
:1004B0009C0000203400002004ED00E01404014002
:1004C00038B500BF5021EFF3118081F31188BFF3DD
:1004D0004F8FBFF36F8F00BF0446102000F030F83D
:1004E000012818D13C2000F0D3FC1048006800F02F
:1004F000100080B900236A460D490E48006801F0DB
:10050000F5FD009838B14FF080500B490860BFF3FB
:100510004F8FBFF36F8F0948006840F01000074904
:10052000086000BF84F3118800BF38BD081801407F
:10053000A00000203400002004ED00E0140401407D
:1005400001460020034A12680A400AB1012000E077
:100550000020704714040140002123498279002AB9
:100560003AD00A46126803689A430B461A600A1D7D
:10057000126803689A430B1D1A60027911440A68D5
:1005800003681A430A60184A0832126803689A43DB
:10059000154B08331A601A1D126803689A43124BF0
:1005A0000C331A604279102A0ED11A1F12680368A0
:1005B0001A430D4B08331A601A1D126803681A4358
:1005C000094B0C331A600DE00749427911440A685F
:1005D00003681A430A6005E0027911440A68036857
:1005E0009A430A60704700000004014008B50124E6
:1005F00017E000235A1E69460A48006801F044FCCF
:100600000446012C04D108A0009900F045FB02E04B
:100610000BA000F041FB0E48006880F020000C4960
:100620000860E6E734000020B4A5B7A2D6D0B6CF64
:10063000B5C4CAC7204B4559256420210D0A0000C6
:10064000CAFDBEDDBDD3CAD5B3F6B4ED0D0A0000B8
:100650000C18014030B500228B071C0F0F2303FA42
:1006600004F20B4B8C1053F824309343084C8D103C
:1006700044F8253023468C1053F824308C07240F7F
:1006800000FA04F42343024C8D1044F8253030BDA9
:10069000080001402DE9F041024600250026002017
:1006A00000230024002791F803C00CF00F0591F8F7
:1006B00003C00CF0100CBCF1000F03D091F802C085
:1006C0004CEA050591F800C0BCF1000F31D0146868
:1006D00000202BE04FF0010C0CFA00F3B1F800C041
:1006E0000CEA03069E4220D183004FF00F0C0CFA57
:1006F00003F7BC4305FA03FC4CEA040491F803C079
:10070000BCF1280F06D14FF0010C0CFA00FCC2F826
:1007100014C00AE091F803C0BCF1480F05D14FF0B6
:10072000010C0CFA00FCC2F810C0401C0828D1D300
:100730001460B1F800C0BCF1FF0F34DD5468002034
:100740002EE000F1080C4FF0010808FA0CF3B1F8A4
:1007500000C00CEA03069E4221D183004FF00F0C2B
:100760000CFA03F7BC4305FA03FC4CEA040491F8C5
:1007700003C0BCF1280F05D100F1080C08FA0CF8F1
:10078000C2F8148091F803C0BCF1480F07D100F102
:10079000080C4FF0010808FA0CF8C2F81080401C51
:1007A0000828CED35460BDE8F0810161704700BFD6
:1007B000FEE7000008B50121082000F079F80121CA
:1007C000402000F075F82020ADF8000010208DF8D2
:1007D000030003208DF8020069460948FFF75AFF1D
:1007E0002020ADF8000069460648FFF753FF20219E
:1007F0000348FFF7DAFF20210248FFF7D6FF08BDC4
:10080000000C01400018014009E00548006880F034
:100810002000034908604FF4FA7001F0BFF8F4E7D4
:100820000C0C014000BFFEE77047000070B50021CE
:1008300000230F22C47804B3154C246804F4E06448
:10084000C4F5E064210AC1F10403CA40447804FA03
:1008500003F184781440214309010E4C0678A15518
:10086000047804F01F050124AC4005786D11AD003B
:1008700005F1E025C5F8004109E0047804F01F0502
:100880000124AC40044D0678761145F8264070BD31
:100890000CED00E000E400E080E100E002490143EB
:1008A000024A1160704700000000FA050CED00E0FC
:1008B00029B1064A92690243044B9A6104E0034A53
:1008C00092698243014B9A61704700000010024018
:1008D00030B500210022002400232D4D6D6805F065
:1008E0000C0121B1042905D0082923D105E0294DA7
:1008F000056022E0274D05601FE0254D6D6805F479
:100900007012234D6D6805F48034022505EB924288
:100910001CB9214D554305600BE01D4D6D6805F474
:1009200000351DB11C4D5543056002E0194D55437E
:10093000056002E0174D056000BF00BF144D6D68F3
:1009400005F0F0010909154D6B5C0568DD40456057
:100950000F4D6D6805F4E061090A104D6B5C456848
:10096000DD4085600A4D6D6805F46051C90A0B4D84
:100970006B5C4568DD40C560054D6D6805F4404120
:10098000890B074D6B5CC568B5FBF3F5056130BDA0
:100990000010024000127A0000093D0014000020FF
:1009A0002400002010B500F001F810BD0CB50020A7
:1009B000019000903348006840F48030314908606D
:1009C00000BF3048006800F4003000900198401CDF
:1009D0000190009818B90198B0F5A06FF1D129489D
:1009E000006800F4003010B10120009001E0002008
:1009F00000900098012843D12348006840F010007F
:100A0000214908600846006820F003000860084695
:100A1000006840F0020008601A48406819494860C0
:100A20000846406848600846406840F48060486076
:100A30000846406820F47C1048600846406840F44E
:100A4000E81048600846006840F08070086000BF09
:100A50000C48006800F000700028F9D00948406890
:100A600020F00300074948600846406840F0020053
:100A7000486000BF0348406800F00C000828F9D126
:100A80000CBD0000001002400020024010B501F033
:100A900031FC012801D001F0A1F910BD10B51348B7
:100AA000006840F00100114908600846406810499C
:100AB00008400E494860084600680E4908400B4946
:100AC00008600846006820F48020086008464068F6
:100AD00020F4FE0048604FF41F008860FFF762FFBB
:100AE0004FF000600449086010BD00000010024093
:100AF0000000FFF8FFFFF6FE08ED00E010B586B03D
:100B0000044601210420FFF7D3FE01218803FFF7EB
:100B1000CFFE4FF40070ADF8140018208DF81700C8
:100B200003208DF8160005A91348FFF7B3FD4FF415
:100B30008060ADF8140004208DF8170003208DF8B4
:100B4000160005A90C48FFF7A5FD01940020ADF89B
:100B50000800ADF80A00ADF80C00ADF810000C204C
:100B6000ADF80E0001A9054800F024F80121034862
:100B700000F006F806B010BD000801400038014042
:100B800021B1828942F40052828104E082894DF6CB
:100B9000FF731A408281704702460020B1F5007F42
:100BA00000D100BF13880B400BB1012000E00020F2
:100BB000704700002DE9F04786B005460E46002438
:100BC000A24600BFA1460027B08900B100BF2F4652
:100BD0002C8A4CF6FF700440F08804432C82AC89C8
:100BE0004EF6F3100440B0883189084371890843F8
:100BF0000443AC81AC8A4FF6FF400440B089044303
:100C0000AC8201A8FFF764FE1F48874202D1DDF8DD
:100C100010A001E0DDF80CA0A88900F4004040B16C
:100C20000AEBCA0000EB0A1031684900B0FBF1F88A
:100C300007E00AEBCA0000EB0A1031688900B0FB3C
:100C4000F1F86420B8FBF0F004012009642101FBF5
:100C50001089A88900F4004040B1322000EBC9009F
:100C6000B0FBF1F000F00700044308E0322000EB95
:100C700009106421B0FBF1F000F00F0004432C8157
:100C800006B0BDE8F087000000380140C1F308025B
:100C90008280704700BFFEE70FB4054B10B503A973
:100CA000044A029800F018F810BC5DF814FB00002C
:100CB000A90E0008A400002002E008C8121F08C105
:100CC000002AFAD170477047002001E001C1121FCD
:100CD000002AFBD1704700002DE9FF4F8BB09A46E8
:100CE0000F460546002606E025280BD052460D99F2
:100CF00090476D1C761C28780028F5D10FB030463F
:100D0000BDE8F08F0024A0460122604900E00443C2
:100D100015F8013F203B02FA03F00842F7D128788A
:100D20002E2817D115F8010F44F004042A280ED0FC
:100D30006FF02F022878A0F1300109290AD808EBBA
:100D4000880102EB410100EB01086D1CF2E757F846
:100D5000048B6D1C287869283ED006DC0028CDD095
:100D600063280BD0642804D136E0732810D075288E
:100D70004BD052460D999047761C85E017F8040B2E
:100D80008DF8000000208DF80100E946012003E005
:100D900057F8049B4FF0FF3061074FF0000401D477
:100DA0000AE0641C44450DDA8442FADB19F80410A9
:100DB0000029F6D106E0641C8442FCDB19F804101B
:100DC0000029F8D1264404E019F8010B52460D9988
:100DD0009047641EF8D257E001CF4FF00A0B00286D
:100DE00002DA40422D2102E0210504D52B218DF8A5
:100DF0002410012103E0E10705D02021F7E70DF1E0
:100E0000200908910CE00021F9E701CF4FF00A0B0F
:100E1000F9E75946FFF708FA01F1300209F8012D08
:100E20000028F6D1ADEB090000F1200B600701D4DA
:100E30004FF00108D84502DDA8EB0B0000E00020D0
:100E40008046002406E009A85246005D0D999047AF
:100E5000641C761C08988442F5DB04E0302052467E
:100E60000D999047761CB8F10001A8F10108F5DC56
:100E700005E019F8010B52460D999047761CBBF11D
:100E80000001ABF1010BF4DC6D1C34E70928010013
:100E9000002100E0491C00EBC00202EB0012B1EBA4
:100EA000820FF7D37047000070B504460D46E1B2DB
:100EB0000548FFF7EBFE00BF80210348FFF76CFEFB
:100EC0000028F9D0204670BD003801401CB501242F
:100ED000FFF74CFA0BA0FFF7DFFE0F4801210023BC
:100EE0008022CDE900100DA1104801F0D3F904468D
:100EF000012C02D100F070FE02E00DA0FFF7CCFE45
:100F000000BFFEE7D3B2BCFEB3F5CABCBBAFCDEAAF
:100F1000B3C90D0A00000000280000204170705481
:100F200061736B43726561746500000079020008AB
:100F3000C8CECEF1B4B4BDA8CAA7B0DC0D0A00007B
:100F40002DE9F04105460E461C4807681C4800681C
:100F5000001D00F0A9FB50B91948006890F82C104A
:100F60000120884017490968814316480160681CC0
:100F700038B936B112480168091D134800F0D2FB98
:100F80001AE07C190E4800684460BC4207D20C4845
:100F90000168091D0D48006800F0AAFB0CE0084834
:100FA0000168091D0A48006800F0A2FB09480068B2
:100FB000844201D207480460BDE8F081500000205F
:100FC0003C00002054000020780300204400002052
:100FD000400000206C00002010B5044600F0AEFB7D
:100FE00023480068401C224908602248006840B934
:100FF000204804600846006801280DD100F094F9EB
:101000000AE01D48006838B91A480068C06AE16AF9
:10101000884201D81748046018480068401C1749E6
:10102000086094F82C10012088401549096808438D
:1010300013490860E16A01EB8101124A02EB810069
:10104000211D00F06FFB00F0BBFB0B48006868B18E
:1010500008480068C06AE16A884207D24FF08050B1
:1010600009490860BFF34F8FBFF36F8F10BD0000B9
:101070004C0000203C0000205800002068000020A8
:1010800054000020A800002004ED00E070B523E02B
:1010900000F0F6FD1348006808B9012000E00020C8
:1010A000054601F045FABDB900F048FB0D48C0689F
:1010B000C468201D00F0F8FA0B480068401E0A4979
:1010C00008600A480068401E0849086000F078FB84
:1010D000204600F057F800BF044800680028D7D128
:1010E00070BD0000640300204C0000204800002078
:1010F00070B504460D46206C70B1216CE068084460
:10110000E0606168E068884201D32068E0602846BA
:10111000226CE168FFF776F870BD2DE9F0410446D6
:101120000F4615464FF00008A66B206C28B37DB91A
:101130003946226CA068FFF765F8216CA068084466
:10114000A060D4E90110884217D32068A06014E0A1
:101150003946226CE068FFF755F8216CE068401AC8
:10116000E0602168E068884203D2216C6068401A20
:10117000E060022D01D106B1761E701CA0634046CE
:10118000BDE8F08110B50446206B00F04FFB20460F
:1011900000F04CFB10BD000030B54FF41043174871
:1011A00000F007042CB1C01D20F00700134C041BF5
:1011B0001B1B0246124C22600024114D6C60D0189B
:1011C000083820F007000F4C206000240D4D2D68DA
:1011D0006C600C4D2D682C601146441A4C60094C13
:1011E00024680C60084D4C682C60084D4C682C60DD
:1011F0004FF00044064D2C6030BD00008C030020F1
:10120000780000208000002088000020840000205A
:101210008C00002000BFFFF739FF06480068012856
:10122000F9D94FF0805004490860BFF34F8FBFF3E6
:101230006F8FF0E7A800002004ED00E02DE9F041F9
:1012400006460D4617469846069C0DB9246000E0F8
:101250002760E66325640121204600F0EDFEBDE82D
:10126000F08100002DE9FF5F81460E469246DDE9E0
:101270000E7B109CAAF10100216B01EB800828F085
:10128000070808F0070008B9012000E0002028B98D
:1012900040F22B321AA120A0FFF7FEFC002507E048
:1012A000715D04F134004155705D00B902E06D1CC0
:1012B000102DF5D300BF002143200155202F00D36E
:1012C0001F27E762201D00F010FA04F1180000F05B
:1012D0000CFA2461C7F12000A06164620020606400
:1012E00084F8480049464046039A00F0CBF9206054
:1012F000BBF1000F01D0CBF80040BDE8FF9F00001C
:101300002E2E5C4672656552544F535C7372635C5B
:101310007461736B732E63004572726F723A25733A
:101320002C25640D0A00000010B5002407E004EB32
:1013300084010F4A02EB810000F0CAF9641C202CE2
:10134000F5D30C4800F0C4F90B4800F0C1F90B4884
:1013500000F0BEF90A4800F0BBF90A4800F0B8F9FD
:1013600004480949086004480849086010BD0000A5
:10137000A8000020280300203C0300205003002088
:101380006403002078030020400000204400002077
:1013900010B50146164800E0006803688B42FBD395
:1013A0000246436813448B4204D143684C6823448B
:1013B000436001460A464B6813440468A34211D1B6
:1013C0000C4C03682468A34208D04B680468646826
:1013D00023444B6003681B680B6005E0054B1B68EA
:1013E0000B6001E003680B60884200D0016010BD13
:1013F000780000208000002070B5054600F09EF9BE
:10140000A86B08B9012400E0002400F0D9F92046B7
:1014100070BD00000A490968096809B9012100E0A6
:10142000002121B14FF0FF31064A116006E0044966
:101430000968C968C868034A4168116070470000BC
:10144000400000206C0000200B480068401C08B9D8
:10145000012000E0002020B9F42208A111A0FFF72C
:101460001BFC00BF502080F31188BFF34F8FBFF3E8
:101470006F8F00BF00BFFEE7900000202E2E5C465D
:1014800072656552544F535C706F72745C5256446F
:10149000535C41524D5F434D335C706F72742E63E9
:1014A000000000004572726F723A25732C25640D9E
:1014B0000A00000070B5044600F040F994F9455068
:1014C00010E0606A08B9012000E0002038B904F19A
:1014D000240000F0D1FF18B100F024FB00E003E08D
:1014E000681E45B2002DECDC00BFFF2084F84500EB
:1014F00000F066F900F022F994F9445010E02069F8
:1015000008B9012000E0002048B904F1100000F003
:10151000B3FF08B100F006FB681E45B200E001E031
:10152000002DECDC00BFFF2084F8440000F048F9F7
:1015300070BD00002DE9F04104464FF0000800F0B6
:101540009FFB3E48006808B9FFF726FE3C4800684C
:10155000204000285FD1A4B1083404F0070080B116
:1015600004F00700C0F10800044404F0070008B9C3
:10157000012000E0002020B9BF2232A13AA0FFF7ED
:101580008BFB002C47D03C480068844243D83B4E3C
:101590003046056801E02E462D686868A04202D2F8
:1015A00028680028F7D125480068854233D0306884
:1015B00000F10808286830606868001B102813D9FB
:1015C0002F1907F0070008B9012000E0002020B91A
:1015D000EC221CA124A0FFF75FFB6868001B786069
:1015E0006C603846FFF7D4FE234968680968081A1A
:1015F000214908600846006821490968884203D2E9
:101600001D4800681E4908600D496868096808435C
:1016100068600020286000F08BFF08F0070008B920
:10162000012000E0002028B94FF4967205A10EA019
:10163000FFF732FB4046BDE8F0810000800000204B
:101640008C0000202E2E5C4672656552544F535C10
:10165000706F72745C4D656D4D616E675C6865613D
:10166000705F342E630000004572726F723A25730A
:101670002C25640D0A000000840000207800002062
:1016800088000020001F4FF080730360001F21F0CE
:1016900001030360001F034B03601438026020380D
:1016A000704700004914000801460A69D1E9013079
:1016B0009860D1E9010358605068884201D1886878
:1016C0005060002008611068401E1060106870476C
:1016D00000F1080141604FF0FF31816000F1080125
:1016E000C160016100210160704700210161704704
:1016F00010B502460B685C1C0CB9106907E002F1DA
:10170000080000E04068446824689C42FAD94468B4
:101710004C604C68A160886041600A611468641C78
:10172000146010BD42684A6093688B60936859608A
:101730009160086103685B1C0360704710B500BFCF
:10174000502080F31188BFF34F8FBFF36F8F00BF1E
:101750000B480068401C0A490860084600680128D8
:101760000DD108480068C0B208B9012000E000208F
:1017700028B94FF4BD7204A10DA0FFF78DFA10BD7A
:101780009000002004ED00E02E2E5C46726565524C
:10179000544F535C706F72745C525644535C4152A8
:1017A0004D5F434D335C706F72742E630000000018
:1017B0004572726F723A25732C25640D0A00000081
:1017C00010B50B48006828B940F2811209A113A096
:1017D000FFF762FA06480068401E0549086008469F
:1017E000006820B9002080F3118800BF00BF10BD41
:1017F000900000202E2E5C4672656552544F535C5B
:10180000706F72745C525644535C41524D5F434D4D
:10181000335C706F72742E63000000004572726F4B
:10182000723A25732C25640D0A00000070B5064637
:101830003546002E35D0083D2C461A4960680968A7
:10184000084008B1012000E0002028B94FF4A07240
:1018500015A11EA0FFF720FA206808B9012000E0BA
:10186000002028B940F241120FA118A0FFF714FA86
:101870000C4960680968084098B1206888B909492E
:10188000606809688843606000F0FAF9134960688D
:1018900009680844114908602046FFF779FD00F007
:1018A00047FE70BD8C0000202E2E5C46726565528E
:1018B000544F535C706F72745C4D656D4D616E6713
:1018C0005C686561705F342E630000004572726F62
:1018D000723A25732C25640D0A0000008400002054
:1018E000064800684FF47A71B0FBF1F0401E4FF0EB
:1018F000E0214861072008617047000000000020D7
:1019000070B5FEF769FC0546102D11D305F1E020F6
:1019100090F8F04310480078844201DB012000E099
:10192000002028B94FF42A720CA116A0FFF7B4F9D1
:101930001848006800F4E06017490968884201D837
:10194000012000E0002028B94FF42E7203A10DA061
:10195000FFF7A2F970BD0000940000202E2E5C4617
:1019600072656552544F535C706F72745C5256448A
:10197000535C41524D5F434D335C706F72742E6304
:10198000000000004572726F723A25732C25640DB9
:101990000A0000000CED00E09800002070B504463D
:1019A0000025ACB10F48006808B9012000E0002014
:1019B00028B940F2CF420CA111A0FFF76DF900F059
:1019C0005FF900212046FFF7BBFA00F0B1FD0546A4
:1019D0003DB94FF080500E490860BFF34F8FBFF301
:1019E0006F8F70BD740000202E2E5C4672656552AC
:1019F000544F535C7372635C7461736B732E63003A
:101A00004572726F723A25732C25640D0A0000002E
:101A100004ED00E070B50546FFF790FE15B92D48BE
:101A2000006800E028460446201DFFF73DFE78B917
:101A3000E06A00EB8000284951F8200040B994F892
:101A40002C10012088402549096881432348016002
:101A5000A06A18B104F11800FFF726FE20480068BC
:101A6000401C1F4908601B480068844209D1211DA1
:101A70001C48FFF757FE1C480068401C1A490860C4
:101A800009E01A480068401E184908602046FFF720
:101A900079FBFFF7BFFCFFF793FE15480068C0B164
:101AA0000C480068844214D11248006808B901202B
:101AB00000E0002028B940F265420FA114A0FFF712
:101AC000EBF84FF0805016490860BFF34F8FBFF31B
:101AD0006F8F70BD3C000020A80000205400002043
:101AE0006800002064030020480000204C00002013
:101AF00058000020740000202E2E5C46726565524E
:101B0000544F535C7372635C7461736B732E630028
:101B10004572726F723A25732C25640D0A0000001D
:101B200004ED00E0012001490860704760000020DA
:101B300070B504460D462CB940F6063207A10DA03B
:101B4000FFF7AAF80F48016818312046FFF7D0FDCB
:101B500001212846FFF7F4F970BD00002E2E5C46E7
:101B600072656552544F535C7372635C7461736B3E
:101B7000732E63004572726F723A25732C25640DC3
:101B80000A0000003C00002010B504462CB940F6C5
:101B9000C13205A10AA0FFF77FF80D480068206058
:101BA0000C480068606010BD2E2E5C467265655260
:101BB000544F535C7372635C7461736B732E630078
:101BC0004572726F723A25732C25640D0A0000006D
:101BD00064000020500000201CB5184800210B466E
:101BE0008022CDE9001016A1174800F053FB0446EF
:101BF000012C15D100BF502080F31188BFF34F8F07
:101C0000BFF36F8F00BF4FF0FF3010490860012015
:101C10000F49086000200F49086000F08FF80BE0C2
:101C2000601C08B1012000E0002028B940F2847255
:101C300009A10FA0FFF730F81CBD000070000020C4
:101C400049444C4500000000151200086C000020BB
:101C500058000020500000202E2E5C467265655210
:101C6000544F535C7372635C7461736B732E6300C7
:101C70004572726F723A25732C25640D0A000000BC
:101C800002480068401C0149086070477400002049
:101C900010B51B48006818B101201A4908602DE0F2
:101CA00000201849086018480068B0FA80F0C0F1B8
:101CB0001F0404EB8400154951F8200008B10120ED
:101CC00000E0002028B940F6F62211A116A0FEF788
:101CD000E3FF04EB84010D4A02EB8100416849688F
:101CE000416000F1080142688A4202D141684968B6
:101CF00041604168C968104A116000BF10BD000012
:101D0000740000206000002054000020A800002083
:101D10002E2E5C4672656552544F535C7372635C41
:101D20007461736B732E63004572726F723A257320
:101D30002C25640D0A0000003C0000201CB5224840
:101D4000014609780191FF21024611700146097888
:101D500000919DF8001001F050011C4A11700721FC
:101D60001B4A116009E01A490968491E184A1160A6
:101D70009DF800104906090E00919DF8001001F031
:101D800080018029EFD0124909680902104A1160C8
:101D90001146098801F4E06111600B4A0199117044
:101DA0000C48006840F470000A4908600846006862
:101DB00040F070400860FFF793FD0020064908607E
:101DC000FEF7D4F900201CBD00E400E094000020E0
:101DD0009800002020ED00E09000002010B500BF2A
:101DE000502080F31188BFF34F8FBFF36F8F00BF78
:101DF00000F090FA18B14FF080500449086000BF1D
:101E0000002080F3118800BF10BD000004ED00E049
:101E10002DE9F84305460E4690460DB1012000E03D
:101E2000002028B94FF4C4720DA113A0FEF734FFAF
:101E30000EB9002701E005FB06F707F14800FFF7A0
:101E400079FB044644B104F1480943464A46314609
:101E500028460094FFF7F2F92046BDE8F883000019
:101E60002E2E5C4672656552544F535C7372635CF0
:101E700071756575652E63004572726F723A2573D0
:101E80002C25640D0A0000002DE9FF4782B00546AD
:101E90000E461F464FF0000A2C462CB940F2DC4299
:101EA0005AA160A0FEF7F8FE0EB9206C08B9012017
:101EB00000E0002028B940F2DD4254A159A0FEF70D
:101EC000EBFE00F017FA08B9049808B9012000E009
:101ED000002028B94FF49C624CA152A0FEF7DCFE12
:101EE00000BFFFF72BFCD4F83890B9F1000F38D0C1
:101EF000D4F80C8031462046FFF7FAF8B7B9A9F1BB
:101F00000100A063206908B9012000E0002010BB97
:101F100004F1100000F0B0FAE8B14FF080504549EC
:101F20000860BFF34F8FBFF36F8F14E0C4F80C80CD
:101F3000606A08B9012000E0002060B904F12400C3
:101F400000F09AFA38B14FF080503A490860BFF378
:101F50004F8FBFF36F8FFFF733FC012006B0BDE852
:101F6000F087049818B9FFF72BFC0020F6E7BAF1C8
:101F7000000F04D16846FFF707FE4FF0010AFFF794
:101F80001FFCFFF77DFEFFF7D9FB94F94400401CCE
:101F900010B9002084F8440094F94500401C10B9A1
:101FA000002084F84500FFF70BFC04A9684600F008
:101FB0001FF9F0B92046FFF71FFAA0B104F1240081
:101FC0000499FFF7B5FD2046FFF774FA00F0B0FA68
:101FD000002886D14FF0805016490860BFF34F8F1C
:101FE000BFF36F8F7DE72046FFF764FA00F0A0FA99
:101FF00077E72046FFF75EFA00F09AFA2046FFF7EF
:10200000FBF90028EED00020A8E700002E2E5C4649
:1020100072656552544F535C7372635C717565757C
:10202000652E63004572726F723A25732C25640D1C
:102030000A00000004ED00E070B505460E462C468F
:102040002CB940F21B121EA123A0FEF725FEFFF7BC
:1020500075FBD4E90F12206801FB020060600020CC
:10206000A0632068A060E06B401E226C216800FB2A
:102070000210E060FF2084F8440084F845009EB917
:10208000206908B9012000E00020A8B904F110007F
:1020900000F0F2F980B14FF0805013490860BFF3AF
:1020A0004F8FBFF36F8F07E004F11000FFF710FBB5
:1020B00004F12400FFF70CFBFFF782FB012070BD49
:1020C0002E2E5C4672656552544F535C7372635C8E
:1020D00071756575652E63004572726F723A25736E
:1020E0002C25640D0A00000004ED00E02DE9F05FEE
:1020F00007468A4690461E463C462CB940F29F321F
:1021000031A137A0FEF7C8FDBAF1000F01D1206C54
:1021100008B9012000E0002028B94FF468722AA114
:102120002FA0FEF7B9FD022E02D1E06B012801D1EC
:10213000012000E0002028B940F2A13222A128A00D
:10214000FEF7AAFDFFF7DCFB00BF5021EFF3118083
:1021500081F31188BFF34F8FBFF36F8F00BF054628
:10216000A06BE16B884201D3022E23D194F945B0D4
:10217000324651462046FEF7D0FF0BF1010088B9E8
:10218000606A08B9012000E0002080B904F1240051
:1021900000F072F958B1B8F1000F08D00120C8F86A
:1021A000000004E00BF1010040B284F845004FF05C
:1021B000010901E04FF0000900BF85F3118800BF5D
:1021C0004846BDE8F09F00002E2E5C4672656552C1
:1021D000544F535C7372635C71756575652E630053
:1021E0004572726F723A25732C25640D0A00000047
:1021F0002DE9F04104460D462CB940F6CB3219A129
:102200001EA0FEF749FD2DB940F6CC3215A11BA04A
:10221000FEF742FDFFF792FA1C4807682868401C49
:1022200008B9002619E01A4920680968884204D0D4
:102230006068B84201D801260FE06068381A296842
:10224000884209D228686168791A401A28602046B5
:10225000FFF79AFC002600E00126FFF7B1FA3046AE
:10226000BDE8F0812E2E5C4672656552544F535C7A
:102270007372635C7461736B732E63004572726F6B
:10228000723A25732C25640D0A00000050000020CE
:10229000640000202DE9FF4F85B08046894617462F
:1022A000DDE912ABB800FFF745F9064656B14C2000
:1022B000FFF740F904460CB1266304E03046FFF70F
:1022C000B5FA00E000247CB10020CDE900ABCDE9F7
:1022D00002403A4649464046089BFEF7C3FF204667
:1022E000FEF77AFE012501E04FF0FF35284609B0E0
:1022F000BDE8F08F0549096809B9012005E00449E6
:10230000096809B9022000E0002070475800002049
:10231000740000202DE9F0414FF0000841480068AA
:10232000002872D140480068451C3F480560EDB95F
:102330003E480068006808B9012000E0002028B984
:1023400040F6D9123AA140A0FEF7A6FC374807682C
:1023500041480068354908603F4807603F480068C9
:10236000401C3E490860FFF755F800BF3C48006834
:1023700085423CD300BF2D480068006808B90120A1
:1023800000E0002020B14FF0FF30354908602DE01B
:1023900026480068C068C4686668B54202D2304802
:1023A000066023E0201DFFF77FF9A06A18B104F151
:1023B0001800FFF779F994F82C100120884029497A
:1023C0000968084327490860E16A01EB8101264A50
:1023D00002EB8100211DFFF7A5F92449E06A096895
:1023E000C96A8842C7D34FF00108C4E700BF1F483D
:1023F0000068C06A00EB80001B4951F820000128EA
:1024000001D94FF0010805E0FFE719480068401CBA
:10241000174908601748006808B14FF001084046A6
:10242000BDE8F08174000020500000204000002032
:102430002E2E5C4672656552544F535C7372635C1A
:102440007461736B732E63004572726F723A2573F9
:102450002C25640D0A0000004400002064000020C8
:102460006C00002054000020A80000203C00002048
:102470005C0000206000002070B50646F068C4686B
:102480002CB940F661321AA11FA0FEF705FC04F139
:102490001800FFF709F920480068A8B9201DFFF7C8
:1024A00003F994F82C10012088401C49096808435E
:1024B0001A490860E16A01EB8101194A02EB8100C7
:1024C000211DFFF72FF904E004F118011548FFF76B
:1024D00029F91549E06A0968C96A884204D90125C1
:1024E00001201249086000E00025284670BD000068
:1024F0002E2E5C4672656552544F535C7372635C5A
:102500007461736B732E63004572726F723A257338
:102510002C25640D0A0000007400002054000020E7
:10252000A8000020500300203C0000206000002094
:1025300070B5002400263448006828B94FF4FD62C5
:1025400032A138A0FEF7A8FBFFF7F8F82E48006884
:10255000401E2D4908600846006800284FD13548C4
:10256000006800284BD024E03348C068C46804F1F8
:102570001800FFF799F8201DFFF796F894F82C1033
:10258000012088402D49096808432C490860E16A08
:1025900001EB81012A4A02EB8100211DFFF7C2F8FD
:1025A0002849E06A0968C96A884202D3012026499D
:1025B00008602148006808B9012000E000200028D8
:1025C000D2D00CB1FEF726FF2048056865B100BFE8
:1025D000FFF7A0FE10B101201B4908606D1E002D01
:1025E000F6D10020194908601748006838B1012663
:1025F000300717490860BFF34F8FBFF36F8FFFF7A6
:10260000DFF8304670BD0000740000202E2E5C46BE
:1026100072656552544F535C7372635C7461736B83
:10262000732E63004572726F723A25732C25640D08
:102630000A0000004C00002050030020540000203D
:10264000A80000203C000020600000205C0000206A
:1026500004ED00E07426000800000020A80000003F
:10266000B80C00081C270008A8000020E89600000D
:10267000C80C000800A24A0400000000000000008E
:102680000102030406070809000000000102030418
:1026900001020304060708090204060800000000FE
:1026A000000000000000000000000000000000002A
:1026B000000000000000000000000000000000001A
:1026C000000000000000000000000000000000000A
:1026D00000000000000000000000000000000000FA
:1026E00000000000000000000000000000000000EA
:1026F00000000000000000000000000000000000DA
:1027000000000000AAAAAAAA000000000000000021
:0C271000010000000200000000000000BA
:0400000508000131BD
:00000001FF
