:020000040800F2
:10000000E0320020B5020008B1090008AB08000882
:10001000AD0900087D070008BD10000800000000C1
:100020000000000000000000000000001D020008A9
:10003000810700080000000061020008F90C0008B8
:10004000CF020008CF020008CF020008CF0200084C
:10005000CF020008CF020008CF020008CF0200083C
:10006000CF020008CF020008CF020008CF0200082C
:10007000CF020008CF020008CF020008CF0200081C
:10008000CF020008CF020008CF020008CF0200080C
:10009000CF020008CF020008CF020008CF020008FC
:1000A000CF020008CF020008CF020008CF020008EC
:1000B000CF020008CF020008CF020008CF020008DC
:1000C000CF020008CF020008CF020008CF020008CC
:1000D000CF020008CF020008CF020008CF020008BC
:1000E000CF020008CF020008CF020008CF020008AC
:1000F000CF020008CF020008CF020008CF0200089C
:10010000CF020008CF020008CF020008CF0200088B
:10011000CF020008CF020008CF020008CF0200087B
:10012000CF020008CF020008CF020008CF0200086B
:1001300000F002F800F062F80AA090E8000C824497
:100140008344AAF10107DA4501D100F057F8AFF274
:10015000090EBAE80F0013F0010F18BFFB1A43F0A5
:1001600001031847AC340000CC3400000A444FF0BF
:10017000000C10F8013B13F0070408BF10F8014B06
:100180001D1108BF10F8015B641E05D010F8016B4B
:10019000641E01F8016BF9D113F0080F1EBF10F8AF
:1001A000014BAD1C0C1B09D16D1E58BF01F801CBD2
:1001B000FAD505E014F8016B01F8016B6D1EF9D555
:1001C0009142D6D37047000000230024002500266A
:1001D000103A28BF78C1FBD8520728BF30C148BFAA
:1001E0000B607047642900F0F180732900F02682CB
:1001F000002070471FB51FBD10B510BD00F08CFA70
:100200001146FFF7F7FF01F047F800F0AAFA03B430
:10021000FFF7F2FF03BC00F053FF0000224B196808
:100220000868B0E8F00F80F30988BFF36F8F4FF0D4
:10023000000080F311884EF00D0E704700000000A2
:1002400006480068006880F3088862B661B6BFF3AC
:100250004F8FBFF36F8F00DF00BF00BF08ED00E0DE
:10026000EFF30980BFF36F8F0F4B1A6820E9F00F8F
:10027000106008B54FF0500080F31188BFF34F8F26
:10028000BFF36F8F02F03CFA4FF0000080F311884B
:10029000BDE8084019680868B0E8F00F80F30988E5
:1002A000BFF36F8F704700BFB0000020EFF30580F1
:1002B000704700000948804709480047FEE7FEE70D
:1002C000FEE7FEE7FEE7FEE7FEE7FEE7FEE7FEE706
:1002D00004480549054A064B704700005D0D0008BB
:1002E00031010008E02C0020E0320020E02E002048
:1002F000E02E0020704700000FB4044910B503AA97
:10030000029800F09FF910BC5DF814FB1800002063
:100310002DE9F0410E460446002020622046E168A7
:10032000884730B3252805D0D4E901219047206AB9
:10033000401CF2E7E168204600278847050018D0F6
:10034000A5F14100192802D820354FF40067324644
:10035000294620462760FFF745FF40B1012804D019
:10036000F61D26F007060836D8E7361DD6E72846DC
:10037000DAE7206ABDE8F08170B50C460546012A2F
:1003800005D02878800600D5EA69002302E0012321
:1003900005E05B1C934202D2E05C0028F9D1A86919
:1003A000E618C01AA861286A184428622846AFF3E4
:1003B000008004E0D5E9012114F8010B9047B44214
:1003C000F8D32846AFF3008070BD00002DE9F0415E
:1003D0000646002410687529314616A510D0AFF3E3
:1003E0000080002802DA404213A507E031688A073E
:1003F00001D512A502E0490704D511A5012401E0A9
:10040000AFF3008000210A2206F1240709E0B0FBC7
:10041000F2FCB0FBF2F302FB1C00303078541846BB
:10042000491C0028F3D123462A463046BDE8F04156
:1004300000F080B8000000002D0000002B0000003C
:1004400020000000032A40F2308010F0030C00F07E
:10045000158011F8013BBCF1020F624498BF11F8FE
:1004600001CB00F8013B38BF11F8013BA2F10402B7
:1004700098BF00F801CB38BF00F8013B11F003032F
:1004800000F0F280083AC0F0088051F8043B083AC6
:1004900051F804CBA0E80810F5E7121D5CBF51F835
:1004A000043B40F8043BAFF30080D20724BF11F8AF
:1004B000013B11F801CB48BF11F8012B24BF00F814
:1004C000013B00F801CB48BF00F8012B704702F058
:1004D000FF0343EA032242EA024200F0F9B84FF078
:1004E000000200B5134694469646203922BFA0E884
:1004F0000C50A0E80C50B1F12001BFF4F7AF090790
:1005000028BFA0E80C5048BF0CC05DF804EB890080
:1005100028BF40F8042B08BF704748BF20F8022BC3
:1005200011F0804F18BF00F8012B704770477047DB
:10053000704770472DE9F0470D46994692460446AC
:1005400000F124080168880604D5E06921F0100153
:10055000216000E00120A84201DD471B00E00027E8
:10056000A1697A1902EB0900081AA0612078C00677
:1005700002D42046AFF30080002608E0D4E9012130
:100580001AF806009047206A401C761C20624E45EF
:10059000F4DB2078C0060AD52046AFF3008006E0E1
:1005A000D4E9012130209047206A401C2062381E87
:1005B000A7F10107F4DC07E0D4E9012118F80500F0
:1005C0009047206A401C2062281EA5F10105F3DC3B
:1005D0002046AFF300802078000602D50220BDE857
:1005E000F0870120FBE7000001694A1C02610878DE
:1005F000704700B58FB0CDE9013100210591054963
:100600007944CDE9031011466846FFF781FE0FB02B
:1006100000BD0000E5FFFFFF10B5436913B1AFF364
:10062000008001E0FFF7A8FE012010BD127800F164
:1006300024010A7000224A700122EDE711684FF090
:10064000FF32E9E7074B70B50D467B44FFF7D1FF5A
:100650000446284600F05CF810B14FF0FF3070BD42
:10066000204670BDD70A000010B5203AC0F00B80BC
:10067000B1E81850203AA0E81850B1E81850A0E8A6
:100680001850BFF4F5AF5FEA027C24BFB1E8185000
:10069000A0E8185044BF18C918C0BDE810405FEA70
:1006A000827C24BF51F8043B40F8043B08BF7047EC
:1006B000D20728BF31F8023B48BF11F8012B28BFF1
:1006C00020F8023B48BF00F8012B70474FF00002B2
:1006D0000429C0F0128010F0030C3FF402AFCCF1FB
:1006E000040CBCF1020F18BF00F8012BA8BF20F8C2
:1006F000022BA1EB0C01FFF7F4BE5FEAC17C24BF23
:1007000000F8012B00F8012B48BF00F8012B7047BF
:10071000007B00F080007047754600F02BF8AE4675
:1007200005006946534620F00700854618B020B5FD
:10073000FFF7CEFDBDE820404FF000064FF0000768
:100740004FF000084FF0000B21F00701AC46ACE879
:10075000C009ACE8C009ACE8C009ACE8C0098D46E6
:10076000704710B50446AFF300802046BDE8104046
:10077000FFF74DBD004870477C2C002000BFFEE70E
:1007800070472DE9F0410246002500260020002395
:100790000024002791F803C00CF00F0591F803C066
:1007A0000CF0100CBCF1000F03D091F802C04CEA21
:1007B000050591F800C0BCF1000F31D0146800208D
:1007C0002BE04FF0010C0CFA00F3B1F800C00CEA7A
:1007D00003069E4220D183004FF00F0C0CFA03F762
:1007E000BC4305FA03FC4CEA040491F803C0BCF1D5
:1007F000280F06D14FF0010C0CFA00FCC2F814C00F
:100800000AE091F803C0BCF1480F05D14FF0010C8C
:100810000CFA00FCC2F810C0401C0828D1D31460A8
:10082000B1F800C0BCF1FF0F34DD546800202EE0A9
:1008300000F1080C4FF0010808FA0CF3B1F800C001
:100840000CEA03069E4221D183004FF00F0C0CFAF4
:1008500003F7BC4305FA03FC4CEA040491F803C017
:10086000BCF1280F05D100F1080C08FA0CF8C2F809
:10087000148091F803C0BCF1480F07D100F1080CB7
:100880004FF0010808FA0CF8C2F81080401C082844
:10089000CED35460BDE8F0810246002093680B403F
:1008A0000BB1012000E00020704700BFFEE7000010
:1008B00008B50121042000F087F80121402000F054
:1008C00083F81820ADF8000048208DF80300694631
:1008D0000648FFF756FF0120ADF8000028208DF8EC
:1008E000030069460248FFF74CFF08BD00180140AD
:1008F0000008014010B500242948007800283AD0AB
:1009000001212848FFF7C8FF012809D010212648F7
:10091000FFF7C2FF20B108212348FFF7BDFF10BB3E
:100920000A2000F0CFFB01211E48FFF7B5FF012888
:1009300009D010211C48FFF7AFFF20B108211A4849
:10094000FFF7AAFF78B90020154908701021164852
:10095000FFF7A2FF08B901240DE008211248FFF7B4
:100960009BFF08B9022406E001210E48FFF794FF1F
:10097000012800D1032401210A48FFF78DFF68B93F
:1009800010210948FFF788FF012807D108210648F0
:10099000FFF782FF012801D101490870204610BDF0
:1009A00030000020000801400018014000BFFEE7B1
:1009B0007047000002490143024A1160704700007D
:1009C0000000FA050CED00E029B1064A92690243E5
:1009D000044B9A6104E0034A92698243014B9A6195
:1009E000704700000010024030B5002100220024B2
:1009F00000232D4D6D6805F00C0121B1042905D0AF
:100A0000082923D105E0294D056022E0274D056026
:100A10001FE0254D6D6805F47012234D6D6805F4D7
:100A20008034022505EB92421CB9214D55430560E7
:100A30000BE01D4D6D6805F400351DB11C4D55438F
:100A4000056002E0194D5543056002E0174D056051
:100A500000BF00BF144D6D6805F0F0010909154D88
:100A60006B5C0568DD4045600F4D6D6805F4E06125
:100A7000090A104D6B5C4568DD4085600A4D6D6864
:100A800005F46051C90A0B4D6B5C4568DD40C560DB
:100A9000054D6D6805F44041890B074D6B5CC568D9
:100AA000B5FBF3F5056130BD0010024000127A007D
:100AB00000093D001C0000202C00002010B500F0B3
:100AC00001F810BD0CB5002001900090334800687B
:100AD00040F480303149086000BF3048006800F4BD
:100AE000003000900198401C0190009818B90198BE
:100AF000B0F5A06FF1D12948006800F4003010B1C2
:100B00000120009001E0002000900098012843D1CE
:100B10002348006840F0100021490860084600683A
:100B200020F0030008600846006840F002000860FA
:100B30001A484068194948600846406848600846B5
:100B4000406840F4806048600846406820F47C10AB
:100B500048600846406840F4E8104860084600686D
:100B600040F08070086000BF0C48006800F0007022
:100B70000028F9D00948406820F003000749486080
:100B80000846406840F00200486000BF03484068E3
:100B900000F00C000828F9D10CBD00000010024044
:100BA000002002407CB50546012401F05FFA21488F
:100BB000012100234022CDE900101FA1204802F0AE
:100BC000A5F90446012C03D11EA0FFF795FB02E016
:100BD00022A0FFF791FB2748022100234022CDE904
:100BE000001025A1264802F091F90446012C03D1FA
:100BF00024A0FFF781FB02E028A0FFF77DFB2D4832
:100C0000032100234022CDE900102BA12C4802F043
:100C10007DF90446012C03D12AA0FFF76DFB02E009
:100C20002EA0FFF769FB3348006801F0DBFB01F001
:100C300067FA7CBD400000205461736B31000000F6
:100C4000BD0D00085461736B31C8CECEF1B4B4BD94
:100C5000A8B3C9B9A6210D0A000000005461736B46
:100C600031C8CECEF1B4B4BDA8CAA7B0DC210D0AFC
:100C700000000000440000205461736B320000004B
:100C8000710E00085461736B32C8CECEF1B4B4BD9E
:100C9000A8B3C9B9A6210D0A000000005461736B06
:100CA00032C8CECEF1B4B4BDA8CAA7B0DC210D0ABB
:100CB00000000000480000205461736B3300000006
:100CC000E90E00085461736B33C8CECEF1B4B4BDE5
:100CD000A8B3C9B9A6210D0A000000005461736BC6
:100CE00033C8CECEF1B4B4BDA8CAA7B0DC210D0A7A
:100CF000000000003C00002010B502F037F9012888
:100D000001D001F001FE10BD10B500224FF0E0232C
:100D10001A611A46126922F004021A61C31700EB25
:100D20005373C3F3CF030C4C2380C31700EB5373EF
:100D3000D9104FF47A7251434FF0E022126942F019
:100D400002024FF0E0231A611A465161126942F023
:100D500001021A6110BD00001400002010B51348F4
:100D6000006840F0010011490860084640681049D9
:100D700008400E494860084600680E4908400B4983
:100D800008600846006820F4802008600846406833
:100D900020F4FE0048604FF41F008860FFF78EFECD
:100DA0004FF000600449086010BD000000100240D0
:100DB0000000FFF8FFFFF6FE08ED00E01CB5002084
:100DC000019000241B48009032E0FFF793FD019052
:100DD0009DF80400012802D0022824D111E000234C
:100DE0005A1E01A91448006801F072FE0446012C45
:100DF00003D012A0FFF780FA02E016A0FFF77CFAFA
:100E000012E000235A1E69461848006801F060FE8F
:100E10000446012C03D009A0FFF76EFA02E00DA0F2
:100E2000FFF76AFA00E000BF00BF0A2001F096FA5F
:100E3000CBE700004C000020340000206B65795F98
:100E40007175657565B6D3C1D0B7A2CBCDCAA7B051
:100E5000DC0D0A006B65795F7175657565B6D3C188
:100E6000D0B7A2CBCDB3C9B9A60D0A003800002077
:100E700008B500200090002415E04FF0FF326946CD
:100E80000948006801F018FF0446012C03D007A0B0
:100E9000FFF732FA04E09DF800100AA0FFF72CFAE1
:100EA000642001F05BFAE8E7340000206B65795FAD
:100EB0007175657565B6D3C1D0B6C1C8A1CAA7B0F2
:100EC000DC0D0A006B65795F7175657565B6C1C823
:100ED000A1B6D3C1D0B3C9B9A6A3ACCAFDBEDDA328
:100EE000BA25640D0A00000008B5002414E04FF094
:100EF000FF3269460948006801F0DEFE0446012C15
:100F000003D007A0FFF7F8F903E00DA00099FFF761
:100F1000F3F9642001F022FAE9E70000380000202C
:100F20006269675F646174655F7175657565B6D385
:100F3000C1D0B6C1C8A1CAA7B0DC0D0A000000002C
:100F4000CAFDBEDDA3BA25730D0A000010B586B038
:100F50000446012144F20400FFF736FD4FF400700F
:100F6000ADF8140018208DF8170003208DF8160036
:100F700005A91448FFF705FC4FF48060ADF8140094
:100F800004208DF8170003208DF8160005A90D48E0
:100F9000FFF7F7FB01940020ADF80800ADF80A0058
:100FA000ADF80C00ADF810000C20ADF80E0001A952
:100FB000054800F017F80121034800F007F806B0D3
:100FC00010BD0000000801400038014021B18289B5
:100FD00042F40052828104E082894DF6FF731A4088
:100FE000828170472DE9F04786B005460E46002401
:100FF000A24600BFA1460027B08900B100BF2F461E
:101000002C8A4CF6FF700440F08804432C82AC8993
:101010004EF6F3100440B0883189084371890843C3
:101020000443AC81AC8A4FF6FF400440B0890443CE
:10103000AC8201A8FFF7D8FC1F48874202D1DDF837
:1010400010A001E0DDF80CA0A88900F4004040B138
:101050000AEBCA0000EB0A1031684900B0FBF1F856
:1010600007E00AEBCA0000EB0A1031688900B0FB08
:10107000F1F86420B8FBF0F004012009642101FBC1
:101080001089A88900F4004040B1322000EBC9006B
:10109000B0FBF1F000F00700044308E0322000EB61
:1010A00009106421B0FBF1F000F00F0004432C8123
:1010B00006B0BDE8F08700000038014000BFFEE741
:1010C00000BF704730B50446002504E04FF47A7045
:1010D00000F004F86D1CA542F8D330BD70B503468E
:1010E00000224FF0E02675690D4E368803FB06F4AA
:1010F0004FF0E026B16910E04FF0E026B069884279
:101100000BD0884202D20E1A324402E02E1A0E444C
:1011100032440146A24200D300E0EDE700BF70BDBB
:101120001400002000BF054A128802F04002002A85
:10113000F9D0C2B2014B1B1D1A8070470038014024
:101140001CB5012400220121022001F0F7FB1A49FD
:1011500008600846006818B118A0FFF7CDF802E053
:101160001DA0FFF7C9F800220421012001F0E6FBD1
:10117000204908600846006818B11FA0FFF7BCF8B6
:1011800002E026A0FFF7B8F82D48012100234022F5
:10119000CDE900102BA12F4801F0B8FE0446012C28
:1011A00003D12DA0FFF7A8F802E033A0FFF7A4F8C1
:1011B00001F03AFA1CBD0000340000206B65795F35
:1011C0007175657565B6D3C1D0B4B4BDA8B3C9B9DE
:1011D000A6A3A1A3A10D0A006B65795F7175657562
:1011E00065B6D3C1D0B4B4BDA8CAA7B0DCA3A1A3CF
:1011F000A10D0A00380000206269675F64617465B0
:101200005F7175657565B6D3C1D0B4B4BDA8B3C9F7
:10121000B9A6A3A1A3A10D0A000000006269675F3F
:10122000646174655F7175657565B6D3C1D0B4B41A
:10123000BDA8CAA7B0DCA3A1A3A10D0A00000000AD
:101240003C00002053746172745461736B43726587
:1012500061746500A50B0008537461727454617366
:101260006B437265617465C8CECEF1B4B4BDA8B3EA
:10127000C9B9A6210D0A00005374617274546173D8
:101280006B437265617465C8CECEF1B4B4BDA8CAB3
:10129000A7B0DC210D0A000010B54FF44070FFF735
:1012A00089FB4820FFF730FD4FF4E130FFF74EFE99
:1012B000FFF7FEFAFFF744FF002010BD2DE9F041D3
:1012C00005460E462948076800202949096881F823
:1012D000590027480068001D00F07EFE50B92448E0
:1012E000006890F82C100120884022490968814349
:1012F00020480160681CD8B9D6B11F4948681C490C
:10130000096888601A4982680968CA6018490968CA
:10131000091D8268516016490968091D8160164AD5
:10132000134909684A6111460968491C11601AE0AD
:101330007C190F4800684460BC4207D20C48016821
:10134000091D0E48006800F06BFE0CE008480168BB
:10135000091D0B48006800F063FE0A4800688442DB
:1013600001D208480460BDE8F0810000C4000020FC
:10137000B0000020C800002040040020B800002079
:10138000B4000020E000002010B5044600F06EFE1E
:1013900031480068401C304908603048006840B956
:1013A0002E4804600846006801280DD100F018FAA4
:1013B0000AE02B48006838B928480068C06AE16A2A
:1013C000884201D82548046026480068401C254909
:1013D000086008460068606494F82C10012088407A
:1013E00021490968084320490860E16A01EB81014D
:1013F0001E4A02EB81014868A0608268E260211DFC
:10140000826851608160E16A01EB8101174A02EB59
:1014100081026261E16A01EB8101144A52F82110F4
:10142000491CE26A02EB8202104B43F8221000F0E2
:1014300067FE0B48006868B108480068C06AE16A46
:10144000884207D24FF0805009490860BFF34F8FA0
:10145000BFF36F8F10BD0000C0000020B00000205F
:10146000CC000020DC000020C8000020700100201B
:1014700004ED00E010B500F0F9FD10480068D0B9A7
:101480000F4800F0BDFD0F4800F0BAFD0C480E49B2
:1014900008600C480D49086000221021052001F069
:1014A0004DFA064908600846006820B108A10348C3
:1014B000006800F0E5FE00F023FE10BDF8000020FB
:1014C0005404002068040020F0000020F4000020F4
:1014D000546D72510000000010B516E000F0C6FD1A
:1014E0000C48C068C468201D00F076FD0A480068FA
:1014F000401E0949086009480068401E0749086005
:1015000000F0FEFD204600F05FF804480068002867
:10151000E4D110BD2C040020C0000020BC0000203D
:1015200070B504460D46206C70B1216CE068014432
:10153000E160D4E90210884201D32168E1602846C5
:10154000226CE168FEF77EFF70BD2DE9F041044694
:101550000F4615464FF00008A66B206C48B920686E
:1015600000282CD1A06801F00DFE80460020A0606C
:1015700025E07DB93946226C6068FEF763FF216C77
:10158000606808446060D4E90101884217D320688C
:10159000606014E03946226CE068FEF753FF216C6E
:1015A000E068411AE1602168E068884203D2216C5A
:1015B000A068411AE160022D01D106B1761E701CAF
:1015C000A0634046BDE8F08110B50446206B00F0F2
:1015D000D5FD204600F0D2FD10BD00000146084AAE
:1015E000126812680AB9012200E000220A600A6843
:1015F00022B9034A1268D268106800E000207047E0
:10160000F000002030B54FF42053174800F00704D5
:101610002CB1C01D20F00700134C041B1B1B0246FD
:10162000124C22600024114D6C60D018083820F054
:1016300007000F4C206000240D4D2D686C600C4D90
:101640002D682C601146441A4C60094C24680C60CB
:10165000084D4C682C60084D4C682C604FF00044DD
:10166000064D2C6030BD00007C04002010010020DD
:1016700018010020200100201C0100202C01002066
:1016800000BFFFF729FF064800680128F9D94FF08D
:10169000805004490860BFF34F8FBFF36F8FF0E7AE
:1016A0007001002004ED00E02DE9F04106460D46F2
:1016B00017469846069C0DB9246000E02760E66353
:1016C00025640121204601F083F984F85080002030
:1016D000A064BDE8F08100002DE9F05F82460F466E
:1016E00090469B460A9E0C9C4FEA8801A522206BDF
:1016F000FEF7EDFEA8F10100216B01EB800929F056
:10170000070909F0070008B9012000E0002028B906
:101710004FF4587224A12EA0FEF7EEFD87B10025EC
:1017200007E0795D04F134004155785D00B902E0CD
:101730006D1C102DF5D300BF00214320015502E0A0
:10174000002084F83400202E01D2012000E0002087
:1017500028B940F2973214A11DA0FEF7CDFD202E2E
:1017600000D31F26E662E66400202065201D00F0FD
:1017700054FC04F1180000F050FC2461C6F1200074
:10178000A06164620020606584F8580084F8590004
:101790005A465146484600F00DFC20600B9808B1AF
:1017A0000B980460BDE8F09F2E2E5C2E2E5C4D69D8
:1017B00064646C6577617265735C467265655254EA
:1017C0004F535C7372635C7461736B732E630000C0
:1017D0004572726F723A2025732C2025640D0A0021
:1017E00010B5002407E004EB84010F4A02EB8100EE
:1017F00000F006FC641C202CF5D30C4800F000FC23
:101800000B4800F0FDFB0B4800F0FAFB0A4800F023
:10181000F7FB0A4800F0F4FB044809490860044853
:101820000849086010BD000070010020F00300208E
:1018300004040020180400202C0400204004002090
:10184000B4000020B800002010B50146164800E0A2
:10185000006803688B42FBD30246436813448B4203
:1018600004D143684C682344436001460A464B68F0
:1018700013440468A34211D10C4C03682468A342AA
:1018800008D04B680468646823444B6003681B6895
:101890000B6005E0054B1B680B6001E003680B6003
:1018A000884200D0016010BD100100201801002006
:1018B0002DE9F04104460D4616461F464FF000083C
:1018C00065602461B5420CD8F01BA169884202D33F
:1018D0004FF0010811E0211D0948006800F0A0FB4D
:1018E0000BE0BE4204D2BD4202D34FF0010804E037
:1018F000211D0448006800F093FB4046BDE8F081DC
:10190000F4000020F000002070B5054600F0AEFBAA
:10191000A86B08B9012400E0002400F0F1FB204688
:1019200070BD70B5054600F0A1FBA86BE96B88425D
:1019300001D1012400E0002400F0E2FB204670BD4C
:10194000F1B50098846C00262CB940F6D43220A161
:1019500029A0FEF7D1FCA06BE16B884201D20120E7
:1019600000E0002028B940F6D53219A122A0FEF7E8
:10197000C3FCA06BE16B884227D294F9455000224A
:1019800069462046FFF7E1FD0646681C60B9606ABB
:1019900008B9012000E00020B0B904F1240001F0F2
:1019A0007BFC88B101260FE07F2D01D0012000E0F3
:1019B000002028B940F6F53205A10FA0FEF79CFCE7
:1019C000681C40B284F8450000BF3046F8BD0000F6
:1019D0002E2E5C2E2E5C4D6964646C657761726599
:1019E000735C4672656552544F535C7372635C71ED
:1019F000756575652E6300004572726F723A202519
:101A0000732C2025640D0A0070B505460E460E485D
:101A10000068C068C468201D00F0DEFA94F8280051
:101A200000F0040028B132462946204600F000F9B3
:101A300005E094F8280000F0FE0084F82800204615
:101A4000216A884770BD0000F000002070B586B0A4
:101A50008AE0029800280CDA03AE2EB940F2063272
:101A600047A151A0FEF748FCD6E90020B168904795
:101A700000BF0298002877DB049C606908B9012048
:101A800000E0002010B9201D00F0A6FA01A800F027
:101A9000FBF8054602980A2864D2DFE800F06305E7
:101AA000072E365306082F3700BF00BF00BF94F83B
:101AB000280040F0010084F828000398A2698118EA
:101AC00003462A462046FFF7F3FEA8B194F8280003
:101AD00000F0040038B10398A26981182A46204614
:101AE00000F0A6F805E094F8280000F0FE0084F865
:101AF00028002046216A884735E000BF94F8280076
:101B000000F0FE0084F828002DE000BF94F82800C3
:101B100040F0010084F828000398A061A06908B192
:101B2000012000E0002028B940F2593214A11EA083
:101B3000FEF7E2FBA06941192B462A462046FFF733
:101B4000B7FE10E094F8280000F0020018B9204613
:101B500000F014FB05E094F8280000F0FE0084F883
:101B6000280000E000BF00BF002202A91248006860
:101B700001F0A2F800287FF46CAF06B070BD000041
:101B80002E2E5C2E2E5C4D6964646C6577617265E7
:101B9000735C4672656552544F535C7372635C7438
:101BA000696D6572732E63004572726F723A2025FB
:101BB000732C2025640D0A00F8000020F8B50546B6
:101BC0000C4600F095FD684600F05EF80646009869
:101BD00020BB44B9B54206D801F006FC3146284680
:101BE000FFF712FF1CE03CB10E480068006808B91E
:101BF000012000E000200446A91B22460A48006894
:101C000000F086FB01F0F0FB50B94FF0805007491F
:101C10000860BFF34F8FBFF36F8F01E001F0E4FB6B
:101C2000F8BD0000F4000020F800002004ED00E002
:101C300070B504460D46164604E0A06905442046EA
:101C4000216A8847A06941192B4632462046FFF792
:101C50002FFE0028F1D170BD09480068006808B95E
:101C6000012000E0002020B14FF0FF30054908605E
:101C700005E003480068C0680068024908607047D2
:101C8000B4000020E000002070B5044601F07EF9A9
:101C9000054607480068854204D200F00BF8012091
:101CA000206001E00020206001480560284670BDEA
:101CB0000001002070B508E00D480068C0680468A5
:101CC0004FF0FF312046FFF79FFE0948006800688B
:101CD00008B9012000E000200028EDD00448056884
:101CE00004480068024908600248056070BD0000B1
:101CF000F0000020F40000200B480068401C08B9E8
:101D0000012000E0002020B9CE2208A115A0FEF796
:101D1000F3FA00BF502080F31188BFF34F8FBFF359
:101D20006F8F00BF00BFFEE7040100202E2E5C2E47
:101D30002E5C4D6964646C6577617265735C467294
:101D4000656552544F535C706F727461626C655C70
:101D5000525644535C41524D5F434D335C706F7239
:101D6000742E63004572726F723A2025732C202501
:101D7000640D0A0008B500BF6846FFF72FFC044653
:101D800020460099FFF71AFFFFF760FEF4E770B5F1
:101D9000044600F06BF994F9455019E0A06C30B19D
:101DA0002046FFF7CDFD88B100F0BCFB0EE0606A75
:101DB00008B9012000E0002038B904F1240001F046
:101DC0006BFA18B100F0AEFB00E003E0681E45B20C
:101DD000002DE3DC00BFFF2084F8450000F090F9FF
:101DE00000F044F994F9445010E0206908B901204A
:101DF00000E0002048B904F1100001F04DFA08B1EC
:101E000000F090FB681E45B200E001E0002DECDC24
:101E100000BFFF2084F8440000F072F970BD00009C
:101E20002DE9F04104464FF0000800F061FC4948FC
:101E3000006808B9FFF7E6FB474800682040002823
:101E400075D1002C23D004F10800A0421FD908341A
:101E500004F0070000281BD004F00700C0F10800C0
:101E60002044A04211D904F00700C0F10800044446
:101E700004F0070008B9012000E0002040B99C22CE
:101E800036A144A0FEF738FA02E0002400E0002466
:101E9000002C4CD043480068844248D8424E30461B
:101EA000056801E02E462D686868A04202D22868C5
:101EB0000028F7D127480068854238D0306800F103
:101EC0000808286830606868001B102813D92F198B
:101ED00007F0070008B9012000E0002020B9CF2258
:101EE0001EA12CA0FEF708FA6868001B78606C60E1
:101EF0003846FFF7A9FC2B4968680968081A294980
:101F000008600846006829490968884203D22548C4
:101F100000682649086010496868096808436860D5
:101F20000020286022480068401C2149086001F018
:101F30005BFA08F0070008B9012000E0002028B98A
:101F40004FF4887205A113A0FEF7D6F94046BDE80C
:101F5000F0810000180100202C0100202E2E5C2EA4
:101F60002E5C4D6964646C6577617265735C467262
:101F7000656552544F535C706F727461626C655C3E
:101F80004D656D4D616E675C686561705F342E6391
:101F9000000000004572726F723A2025732C2025D4
:101FA000640D0A001C010020100100202001002007
:101FB00024010020001F4FF080730360001F21F0F8
:101FC00001030360001F034B0360143802602038D4
:101FD00070470000F91C000801460A69D1E9013088
:101FE0009860D1E9010358605068884201D188683F
:101FF0005060002008611068401E10601068704733
:1020000000F1080141604FF0FF31816000F10801EB
:10201000C1600161002101607047002101617047CA
:1020200010B502460B685C1C0CB9106907E002F1A0
:10203000080000E04068446824689C42FAD944687B
:102040004C604C68A160886041600A611468641C3F
:10205000146010BD42684A6093688B609368596051
:102060009160086103685B1C0360704710B500BF96
:10207000502080F31188BFF34F8FBFF36F8F00BFE5
:102080000B480068401C0A4908600846006801289F
:102090000DD108480068C0B208B9012000E0002056
:1020A00028B940F2751204A111A0FEF725F910BD60
:1020B0000401002004ED00E02E2E5C2E2E5C4D6904
:1020C00064646C6577617265735C467265655254D1
:1020D0004F535C706F727461626C655C525644530E
:1020E0005C41524D5F434D335C706F72742E6300E0
:1020F0004572726F723A2025732C2025640D0A00F8
:1021000010B50B48006828B94FF4BE7209A117A09A
:10211000FEF7F2F806480068401E054908600846C8
:10212000006820B9002080F3118800BF00BF10BDF7
:10213000040100202E2E5C2E2E5C4D6964646C65BB
:1021400077617265735C4672656552544F535C707B
:102150006F727461626C655C525644535C41524DBF
:102160005F434D335C706F72742E63004572726F03
:10217000723A2025732C2025640D0A0070B506469E
:102180003546002E3AD0083D2C461D496068096846
:10219000084008B1012000E0002028B94FF49272F5
:1021A00018A126A0FEF7A8F8206808B9012000E0D1
:1021B000002028B940F2251212A120A0FEF79CF8B9
:1021C0000F49606809680840C0B12068B0B90C497F
:1021D000606809688843606000F08AFA1B4960689B
:1021E00009680844194908602046FFF72DFB184884
:1021F0000068401C1649086001F0F6F870BD000048
:102200002C0100202E2E5C2E2E5C4D6964646C65C2
:1022100077617265735C4672656552544F535C70AA
:102220006F727461626C655C4D656D4D616E675C6B
:10223000686561705F342E63000000004572726F44
:10224000723A2025732C2025640D0A001C01002001
:102250002801002000204FF0E02108618861074834
:102260000068C0084FF47A71B0FBF1F0401E4FF0E7
:10227000E021486103200861704700000000002051
:102280002DE9F04105460F4600262DB940F6C9223A
:1022900010A11AA0FEF730F8BFB1002412E01B48CD
:1022A00000EBC4004068A84203D1184800EBC40604
:1022B0000AE036B9154850F8340010B9134800EB5D
:1022C000C406641C082CEAD300BF0EB137607560E9
:1022D000BDE8F0812E2E5C2E2E5C4D6964646C6529
:1022E00077617265735C4672656552544F535C73D7
:1022F00072635C71756575652E6300004572726F5F
:10230000723A2025732C2025640D0A00300100202C
:102310002DE9F04105460E4617462C46FFF7A6FE6E
:1023200094F94400401C10B9002084F8440094F94A
:102330004500401C10B9002084F84500FFF7E0FE7E
:10234000A06B28B93A46314604F1240000F024F984
:102350002046FFF71CFDBDE8F081000070B5044683
:102360000025ACB10F48006808B9012000E000204A
:1023700028B940F249520CA115A0FDF7BDFF00F0AD
:10238000B7F900212046FEF799FF01F02DF8054628
:102390003DB94FF0805012490860BFF34F8FBFF333
:1023A0006F8F70BDEC0000202E2E5C2E2E5C4D69D0
:1023B00064646C6577617265735C467265655254DE
:1023C0004F535C7372635C7461736B732E630000B4
:1023D0004572726F723A2025732C2025640D0A0015
:1023E00004ED00E070B50546FFF740FE15B92F4833
:1023F000006800E028460446201DFFF7EDFD78B98F
:10240000E06A00EB80002A4951F8200040B994F8B6
:102410002C10012088402749096881432548016024
:10242000A06A18B104F11800FFF7D6FD2248006831
:10243000401C214908601D480068844209D1211DC3
:102440001E48FFF707FE1E480068401C1C49086034
:1024500006E01C480068401E1A490860FFF7FCFBB4
:10246000FFF74EFE11480068844202D02046FFF775
:10247000ABF815480068C0B10C480068844214D11C
:102480001248006808B9012000E0002028B940F295
:10249000DC420FA118A0FDF72FFF4FF080501A4922
:1024A0000860BFF34F8FBFF36F8F70BDB000002087
:1024B00070010020C8000020DC0000202C04002057
:1024C000BC000020C0000020CC000020EC00002058
:1024D0002E2E5C2E2E5C4D6964646C65776172658E
:1024E000735C4672656552544F535C7372635C74DF
:1024F00061736B732E6300004572726F723A202510
:10250000732C2025640D0A0004ED00E003490968DE
:10251000016003490968416070470000D80000204D
:10252000C40000200120014908607047D400002049
:1025300070B504460D462CB940F61C4207A111A007
:10254000FDF7DAFE1348016818312046FFF768FDF1
:1025500001212846FEF7B2FE70BD00002E2E5C2E33
:102560002E5C4D6964646C6577617265735C46725C
:10257000656552544F535C7372635C7461736B7323
:102580002E6300004572726F723A2025732C20254D
:10259000640D0A00B000002070B504460E461546D2
:1025A0002CB940F6524211A11AA0FDF7A5FE6068B1
:1025B0001C490968C8611B49826809680A6219498F
:1025C00009681831826851601649096818318160BC
:1025D000144909688C622168491C21600DB14FF0D3
:1025E000FF3629463046FEF769FE70BD2E2E5C2E62
:1025F0002E5C4D6964646C6577617265735C4672CC
:10260000656552544F535C7372635C7461736B7392
:102610002E6300004572726F723A2025732C2025BC
:10262000640D0A00B00000201CB51B4800210B46B9
:102630008022CDE9001019A11A4800F067FC044679
:10264000012C02D100F0A2FF0446012C15D100BFDD
:10265000502080F31188BFF34F8FBFF36F8F00BFFF
:102660004FF0FF3010490860012010490860002039
:102670000F49086000F0A2F80BE0601C08B10120CF
:1026800000E0002028B94FF404620AA113A0FDF76E
:1026900033FE164800681CBDE400002049444C4548
:1026A0000000000081160008E0000020CC0000209F
:1026B000C40000202E2E5C2E2E5C4D6964646C6577
:1026C00077617265735C4672656552544F535C73F3
:1026D00072635C7461736B732E6300004572726F7A
:1026E000723A2025732C2025640D0A00E800002092
:1026F00002480068401C014908607047EC00002057
:1027000010B51B48006818B101201A4908602DE077
:1027100000201849086018480068B0FA80F0C0F13D
:102720001F0404EB8400154951F8200008B1012072
:1027300000E0002028B940F6024211A11AA0FDF7DE
:10274000DBFD04EB84010D4A02EB8100416849681E
:10275000416000F1080142688A4202D1416849683B
:1027600041604168C968144A116000BF10BD000093
:10277000EC000020D4000020C800002070010020E0
:102780002E2E5C2E2E5C4D6964646C6577617265DB
:10279000735C4672656552544F535C7372635C742C
:1027A00061736B732E6300004572726F723A20255D
:1027B000732C2025640D0A00B00000201CB53B4C92
:1027C000204600780190FF202146087008460078D6
:1027D00000909DF8000000F0F0009DF80010884285
:1027E00001D1012000E0002028B940F21F1230A1E1
:1027F0003DA0FDF781FD9DF8000000F050003E492E
:10280000087007203D49086009E03C480068401E08
:102810003A4908609DF800004006000E00909DF8BF
:10282000000000F080008028EFD034480068C0F13C
:102830000700042801D1012000E0002028B940F25F
:1028400033121BA128A0FDF757FD2C480068C0F1EA
:102850000700042801D1012000E0002028B94FF42E
:102860009E7213A120A0FDF747FD244800680002D6
:10287000224908600846008800F4E06008600B49BF
:10288000019808701E48006840F470001C490860F8
:102890000846006840F070400860FFF7DBFC00204D
:1028A00018490860FDF7CCFC00201CBD00E400E0E6
:1028B0002E2E5C2E2E5C4D6964646C6577617265AA
:1028C000735C4672656552544F535C706F727461ED
:1028D000626C655C525644535C41524D5F434D33CC
:1028E0005C706F72742E63004572726F723A2025AD
:1028F000732C2025640D0A00080100200C01002023
:1029000020ED00E00401002010B500BF502080F34E
:102910001188BFF34F8FBFF36F8F00BF00F03CFBF8
:1029200018B14FF080500449086000BF002080F3C8
:10293000118800BF10BD000004ED00E02DE9F84350
:1029400005460E4617460024E5B1601EB0FBF5F0C3
:10295000B04217D305FB06F010F1550F12D805FB56
:1029600006F909F15400FFF75BFA04468CB1A04662
:1029700008F154083B464246314628460094FEF78B
:1029800093FE06E02CB94FF4E37203A10CA0FDF70F
:10299000B3FC2046BDE8F8832E2E5C2E2E5C4D69DC
:1029A00064646C6577617265735C467265655254E8
:1029B0004F535C7372635C71756575652E630000BF
:1029C0004572726F723A2025732C2025640D0A001F
:1029D0002DE9F04105460E4601272C462CB94FF44F
:1029E00088722CA135A0FDF787FC002C42D0E06B4B
:1029F00000283FD04FF0FF31E06BB1FBF0F0216CCD
:102A0000884237D3FFF732FBD4E90F12206801FB6D
:102A10000200A0600020A06320686060E06B401EA0
:102A2000226C216800FB0211E160FF2084F8440061
:102A300084F845009EB9206908B9012000E0002013
:102A4000A8B904F1100000F027FC80B14FF08050CD
:102A50001E490860BFF34F8FBFF36F8F07E004F18B
:102A60001000FFF7CDFA04F12400FFF7C9FAFFF7D1
:102A700047FB00E000270FB1012000E0002028B94B
:102A800040F2451203A10DA0FDF736FC3846BDE823
:102A9000F08100002E2E5C2E2E5C4D6964646C6506
:102AA00077617265735C4672656552544F535C730F
:102AB00072635C71756575652E6300004572726F97
:102AC000723A2025732C2025640D0A0004ED00E0E5
:102AD0002DE9FF4782B0064688461D464FF00009A3
:102AE00034462CB940F22E3264A16EA0FDF704FCEE
:102AF000B8F1000F01D1206C08B9012000E00020DE
:102B000028B940F22F325DA166A0FDF7F5FB022D3A
:102B100002D1E06B012801D1012000E0002028B99A
:102B20004FF44C7255A15FA0FDF7E6FB00F01EFAD2
:102B300008B9049808B9012000E0002028B940F243
:102B400033324EA157A0FDF7D7FB00BFFFF78EFA37
:102B5000A06BE16B884201D3022D3ED1D4F838A09E
:102B60002A4641462046FEF7F0FC0746A06C88B195
:102B7000022D02D1BAF1000F29D12046FEF7E0FE66
:102B800028B34FF080504B490860BFF34F8FBFF31D
:102B90006F8F1CE0606A08B9012000E0002068B96E
:102BA00004F1240000F078FB88B14FF080504149D7
:102BB0000860BFF34F8FBFF36F8F08E03FB14FF056
:102BC00080503C490860BFF34F8FBFF36F8FFFF712
:102BD00097FA012006B0BDE8F087049818B9FFF70E
:102BE0008FFA0020F6E7B9F1000F04D16846FFF72D
:102BF0008DFC4FF00109FFF783FAFFF779FDFFF72E
:102C000035FA94F94400401C10B9002084F84400BF
:102C100094F94500401C10B9002084F84500FFF7E6
:102C20006FFA04A9684600F009F9F8B92046FEF7E2
:102C300078FEA8B104F110000499FFF779FC204652
:102C4000FFF7A5F800F0D0FB00287FF47FAF4FF02E
:102C5000805018490860BFF34F8FBFF36F8F75E73F
:102C60002046FFF794F800F0BFFB6FE72046FFF720
:102C70008EF800F0B9FB0020ACE700002E2E5C2E91
:102C80002E5C4D6964646C6577617265735C467235
:102C9000656552544F535C7372635C7175657565FD
:102CA0002E6300004572726F723A2025732C202526
:102CB000640D0A0004ED00E02DE9F74183B00546FC
:102CC0000E464FF000082C462CB940F251524CA150
:102CD00055A0FDF711FB0EB9206C08B9012000E0EA
:102CE000002028B940F2555245A14FA0FDF704FB42
:102CF00000F03CF908B9059808B9012000E000206F
:102D000028B940F25A523EA147A0FDF7F5FA00BF9C
:102D1000FFF7ACF9A76BF7B131462046FEF700FC90
:102D2000781EA063206908B9012000E0002060B986
:102D300004F1100000F0B0FA38B14FF080503E4975
:102D40000860BFF34F8FBFF36F8FFFF7D9F90120F2
:102D500006B0BDE8F081059818B9FFF7D1F9002059
:102D6000F6E7B8F1000F04D101A8FFF7CFFB4FF051
:102D70000108FFF7C5F9FFF7BBFCFFF777F994F9F6
:102D80004400401C10B9002084F8440094F9450028
:102D9000401C10B9002084F84500FFF7B1F905A9DF
:102DA00001A800F04BF8F0B92046FEF7ADFDA0B148
:102DB00004F124000599FFF7BBFB2046FEF7E7FF6F
:102DC00000F012FB0028A3D14FF080501A49086090
:102DD000BFF34F8FBFF36F8F9AE72046FEF7D7FF01
:102DE00000F002FB94E72046FEF7D1FF00F0FCFA6A
:102DF0002046FEF789FD00288AD00020A8E70000C1
:102E00002E2E5C2E2E5C4D6964646C657761726554
:102E1000735C4672656552544F535C7372635C71A8
:102E2000756575652E6300004572726F723A2025D4
:102E3000732C2025640D0A0004ED00E070B50646F1
:102E40000C462EB940F6FD421FA129A0FDF754FA09
:102E50002CB940F6FE421CA125A0FDF74DFAFFF764
:102E600005F9274802687068131A2648006890F828
:102E7000590030B100202349096881F85900012523
:102E80001EE02068401C08B9002519E01E49306882
:102E90000968884206D07068904203D80125002056
:102EA00020600DE02068984207D92068C01A206091
:102EB0003046FFF72BFB002502E0002020600125B3
:102EC000FFF71EF9284670BD2E2E5C2E2E5C4D6934
:102ED00064646C6577617265735C467265655254B3
:102EE0004F535C7372635C7461736B732E63000089
:102EF0004572726F723A2025732C2025640D0A00EA
:102F0000C4000020B0000020D80000202DE9FF4FB1
:102F100085B0804689461746DDE912ABB800FEF75A
:102F20007FFF064656B15C20FEF77AFF04460CB1DF
:102F3000266304E03046FFF721F900E000247CB16D
:102F40000020CDE900ABCDE902403A464946404673
:102F5000089BFEF7C1FB2046FEF716FA012501E0AB
:102F60004FF0FF35284609B0BDE8F08F05490968E4
:102F700009B9012005E00449096809B9022000E007
:102F800000207047CC000020EC00002001490868B8
:102F900070470000C40000202DE9F0414FF0000808
:102FA0005F48006800287DD15E480068451C5D4888
:102FB0000560002D1DD15C480068006808B901203B
:102FC00000E0002028B940F6C72258A161A0FDF713
:102FD00093F9554807686348006853490860614899
:102FE000076061480068401C5F490860FEF734FED6
:102FF00000BF5E480068854277D300BF4A4800683A
:10300000006808B9012000E0002020B14FF0FF3037
:103010005649086068E044480068C068C46866684B
:10302000B54202D2514806605EE06069D4E90212FE
:103030008A60D4E902214A60211D42688A4201D196
:10304000E1684160002262610168491E0160A06A76
:1030500098B1A06AD4E907128A60D4E907214A60CE
:1030600004F1180142688A4201D1216A41600022BC
:10307000A2620168491E016000BF94F82C10012073
:1030800088403B490968084339490860E16A01EB17
:103090008101384A02EB81014868A0608268E260E1
:1030A000211D00E033E0826851608160E16A01EB3C
:1030B0008101304A02EB81026261E16A01EB810128
:1030C0002C4A52F82110491CE26A02EB8202294B79
:1030D00043F822102849E06A0968C96A88428DD3FA
:1030E0004FF001088AE700E000BF23480068C06A8B
:1030F00000EB80001F4951F82000012801D94FF052
:1031000001081E48006808B14FF0010804E01C489F
:103110000068401C1A4908604046BDE8F081000084
:10312000EC000020C4000020B40000202E2E5C2EF5
:103130002E5C4D6964646C6577617265735C467280
:10314000656552544F535C7372635C7461736B7347
:103150002E6300004572726F723A2025732C202571
:10316000640D0A00B8000020D8000020E000002014
:10317000C800002070010020B0000020D400002012
:10318000D000002070B505462C460026002D5ED0EC
:1031900030480068844201D1012000E0002028B9B5
:1031A00041F24F022CA136A0FDF7A6F8206D28B9F8
:1031B00041F2500228A132A0FDF79EF8206D401E7A
:1031C0002065E16CE06A884241D0206D00283ED144
:1031D000201DFEF701FF40B994F82C100120884013
:1031E0002B49096881432A480160E06CE062E06A8B
:1031F000C0F12000A06194F82C10012088402449DF
:103200000968084322490860E16A01EB8101214A0B
:1032100002EB81014868A0608268E260211D82683B
:1032200051608160E16A01EB81011A4A02EB81027F
:103230006261E16A01EB8101164A52F82110491CD2
:10324000E26A02EB8202134B43F822100126304659
:1032500070BD0000B00000202E2E5C2E2E5C4D694B
:1032600064646C6577617265735C4672656552541F
:103270004F535C7372635C7461736B732E630000F5
:103280004572726F723A2025732C2025640D0A0056
:10329000C80000207001002070B50646F068C468C0
:1032A0002CB940F682423CA145A0FDF725F8A06A62
:1032B000D4E907128A60D4E907214A6004F11801B1
:1032C00042688A4201D1216A41600022A2620168FB
:1032D000491E01603E48006800283DD16069D4E97C
:1032E00002128A60D4E902214A60211D42688A42A2
:1032F00001D1E1684160002262610168491E0160FC
:1033000094F82C100120884032490968084331495B
:103310000860E16A01EB81012F4A02EB81014868F4
:10332000A0608268E260211D826851608160E16A6C
:1033300001EB8101284A02EB81026261E16A01EB43
:103340008101254A52F82110491CE26A02EB8202EF
:10335000214B43F8221010E020494868E061826860
:10336000226204F118018268516081601B4AA262E6
:1033700011460968491C116000BF1949E06A0968D3
:10338000C96A884204D9012501201649086000E075
:103390000025284670BD00002E2E5C2E2E5C4D6947
:1033A00064646C6577617265735C467265655254DE
:1033B0004F535C7372635C7461736B732E630000B4
:1033C0004572726F723A2025732C2025640D0A0015
:1033D000EC000020C800002070010020180400202C
:1033E000B0000020D400002070B500240026504812
:1033F000006828B940F6B3024EA158A0FCF77CFF44
:10340000FEF734FE4A480068401E494908600846F5
:10341000006800287ED15548006800287AD05BE01B
:103420005348C068C468A06AD4E907128A60D4E926
:1034300007214A6004F1180142688A4201D1216AD9
:1034400041600022A2620168491E01606069D4E9FE
:1034500002128A60D4E902214A60211D42688A4230
:1034600001D1E1684160002262610168491E01608A
:1034700094F82C10012088403E49096808433D49D2
:103480000860E16A01EB81013B4A02EB8101486877
:10349000A0608268E260211D826851608160E16AFB
:1034A00001EB8101344A02EB81026261E16A01EBC6
:1034B0008101314A52F82110491CE26A02EB820272
:1034C0002D4B43F822102D49E06A0968C96A8842E9
:1034D00002D301202A4908602548006808B9012064
:1034E00000E0002000289BD00CB1FEF7B5FB25487A
:1034F000056865B100BFFFF74FFD10B101202049FD
:1035000008606D1E002DF6D100201E4908601C4881
:10351000006800E008E038B1012630071A49086069
:10352000BFF34F8FBFF36F8FFEF7EAFD304670BDDC
:10353000EC0000202E2E5C2E2E5C4D6964646C65C0
:1035400077617265735C4672656552544F535C7364
:1035500072635C7461736B732E6300004572726FEB
:10356000723A2025732C2025640D0A00C00000202B
:1035700018040020C800002070010020B0000020C6
:10358000D4000020D000002004ED00E01CB5002491
:10359000FDF770FF0B48006858B10B481F2100234E
:1035A0004FF48072CDE9001008A10A48FFF7AEFC85
:1035B00004462CB940F2191207A111A0FCF79CFE99
:1035C00020461CBDF8000020FC000020546D722035
:1035D00053766300751D00082E2E5C2E2E5C4D69FF
:1035E00064646C6577617265735C4672656552549C
:1035F0004F535C7372635C74696D6572732E630004
:103600004572726F723A2025732C2025640D0A00D2
:103610003036000800000020300100006C01000876
:103620009036000830010020B0310000C8010008C9
:103630001184A24A04C009010203040607080929EB
:10364000146918061B02040608012817CED2CAC73F
:10365000D2BBB8F6B4F3CAFDD7E9A3ACB4F3B4F364
:10366000B5C40C0020632031323432313420756807
:1036700073696468616B736A68646B6C73616468B6
:1036800073616B6C6A021B1F1AAA010128000000FB
:0400000508000131BD
:00000001FF
