:020000040800F2
:100000007032002075020008710900086B080008B2
:100010006D0900083D070008910F0008000000006E
:10002000000000000000000000000000DD010008EA
:10003000410700080000000021020008B90C000878
:100040008F0200088F0200088F0200088F0200084C
:100050008F0200088F0200088F0200088F0200083C
:100060008F0200088F0200088F0200088F0200082C
:100070008F0200088F0200088F0200088F0200081C
:100080008F0200088F0200088F0200088F0200080C
:100090008F0200088F0200088F0200088F020008FC
:1000A0008F0200088F0200088F0200088F020008EC
:1000B0008F0200088F0200088F0200088F020008DC
:1000C0008F0200088F0200088F0200088F020008CC
:1000D0008F0200088F0200088F0200088F020008BC
:1000E0008F0200088F0200088F0200088F020008AC
:1000F0008F0200088F0200088F0200088F0200089C
:100100008F0200088F0200088F0200088F0200088B
:100110008F0200088F0200088F0200088F0200087B
:100120008F0200088F0200088F0200088F0200086B
:1001300000F002F800F042F80AA090E8000C8244B7
:100140008344AAF10107DA4501D100F037F8AFF294
:10015000090EBAE80F0013F0010F18BFFB1A43F0A5
:10016000010318475C3300007C330000103A24BFC1
:1001700078C878C1FAD8520724BF30C830C144BF0C
:1001800004680C607047000000230024002500264E
:10019000103A28BF78C1FBD8520728BF30C148BFEA
:1001A0000B607047642900F0F180732900F026820B
:1001B000002070471FB51FBD10B510BD00F08CFAB0
:1001C0001146FFF7F7FF00F06BFF00F0AAFA03B447
:1001D000FFF7F2FF03BC00F0DDFE0000224B1968C0
:1001E0000868B0E8F00F80F30988BFF36F8F4FF015
:1001F000000080F311884EF00D0E704700000000E3
:1002000006480068006880F3088862B661B6BFF3EC
:100210004F8FBFF36F8F00DF00BF00BF08ED00E01E
:10022000EFF30980BFF36F8F0F4B1A6820E9F00FCF
:10023000106008B54FF0500080F31188BFF34F8F66
:10024000BFF36F8F02F0A8FA4FF0000080F311881F
:10025000BDE8084019680868B0E8F00F80F3098825
:10026000BFF36F8F704700BF44000020EFF305809D
:10027000704700000948804709480047FEE7FEE74D
:10028000FEE7FEE7FEE7FEE7FEE7FEE7FEE7FEE746
:1002900004480549054A064B704700001D0D00083B
:1002A00031010008702C002070320020702E0020D8
:1002B000702E0020704700000FB4044910B503AA47
:1002C000029800F09FF910BC5DF814FB18000020A4
:1002D0002DE9F0410E460446002020622046E168E8
:1002E000884730B3252805D0D4E901219047206AFA
:1002F000401CF2E7E168204600278847050018D037
:10030000A5F14100192802D820354FF40067324684
:10031000294620462760FFF745FF40B1012804D059
:10032000F61D26F007060836D8E7361DD6E728461C
:10033000DAE7206ABDE8F08170B50C460546012A6F
:1003400005D02878800600D5EA69002302E0012361
:1003500005E05B1C934202D2E05C0028F9D1A86959
:10036000E618C01AA861286A184428622846AFF324
:10037000008004E0D5E9012114F8010B9047B44254
:10038000F8D32846AFF3008070BD00002DE9F0419E
:100390000646002410687529314616A510D0AFF323
:1003A0000080002802DA404213A507E031688A077E
:1003B00001D512A502E0490704D511A5012401E0E9
:1003C000AFF3008000210A2206F1240709E0B0FB08
:1003D000F2FCB0FBF2F302FB1C00303078541846FC
:1003E000491C0028F3D123462A463046BDE8F04197
:1003F00000F080B8000000002D0000002B0000007D
:1004000020000000032A40F2308010F0030C00F0BE
:10041000158011F8013BBCF1020F624498BF11F83E
:1004200001CB00F8013B38BF11F8013BA2F10402F7
:1004300098BF00F801CB38BF00F8013B11F003036F
:1004400000F0F280083AC0F0088051F8043B083A06
:1004500051F804CBA0E80810F5E7121D5CBF51F875
:10046000043B40F8043BAFF30080D20724BF11F8EF
:10047000013B11F801CB48BF11F8012B24BF00F854
:10048000013B00F801CB48BF00F8012B704702F098
:10049000FF0343EA032242EA024200F0F9B84FF0B8
:1004A000000200B5134694469646203922BFA0E8C4
:1004B0000C50A0E80C50B1F12001BFF4F7AF0907D0
:1004C00028BFA0E80C5048BF0CC05DF804EB8900C1
:1004D00028BF40F8042B08BF704748BF20F8022B04
:1004E00011F0804F18BF00F8012B7047704770471C
:1004F000704770472DE9F0470D46994692460446ED
:1005000000F124080168880604D5E06921F0100193
:10051000216000E00120A84201DD471B00E0002728
:10052000A1697A1902EB0900081AA0612078C006B7
:1005300002D42046AFF30080002608E0D4E9012170
:100540001AF806009047206A401C761C20624E452F
:10055000F4DB2078C0060AD52046AFF3008006E021
:10056000D4E9012130209047206A401C2062381EC7
:10057000A7F10107F4DC07E0D4E9012118F8050030
:100580009047206A401C2062281EA5F10105F3DC7B
:100590002046AFF300802078000602D50220BDE897
:1005A000F0870120FBE7000001694A1C026108781E
:1005B000704700B58FB0CDE90131002105910549A3
:1005C0007944CDE9031011466846FFF781FE0FB06C
:1005D00000BD0000E5FFFFFF10B5436913B1AFF3A5
:1005E000008001E0FFF7A8FE012010BD127800F1A5
:1005F00024010A7000224A700122EDE711684FF0D1
:10060000FF32E9E7074B70B50D467B44FFF7D1FF9A
:100610000446284600F05CF810B14FF0FF3070BD82
:10062000204670BDEB09000010B5203AC0F00B80E9
:10063000B1E81850203AA0E81850B1E81850A0E8E6
:100640001850BFF4F5AF5FEA027C24BFB1E8185040
:10065000A0E8185044BF18C918C0BDE810405FEAB0
:10066000827C24BF51F8043B40F8043B08BF70472C
:10067000D20728BF31F8023B48BF11F8012B28BF31
:1006800020F8023B48BF00F8012B70474FF00002F2
:100690000429C0F0128010F0030C3FF402AFCCF13B
:1006A000040CBCF1020F18BF00F8012BA8BF20F802
:1006B000022BA1EB0C01FFF7F4BE5FEAC17C24BF63
:1006C00000F8012B00F8012B48BF00F8012B704700
:1006D000007B00F080007047754600F02BF8AE46B6
:1006E00005006946534620F00700854618B020B53E
:1006F000FFF7CEFDBDE820404FF000064FF00007A9
:100700004FF000084FF0000B21F00701AC46ACE8B9
:10071000C009ACE8C009ACE8C009ACE8C0098D4626
:10072000704710B50446AFF300802046BDE8104086
:10073000FFF74DBD00487047102C002000BFFEE7BA
:1007400070472DE9F04102460025002600200023D5
:100750000024002791F803C00CF00F0591F803C0A6
:100760000CF0100CBCF1000F03D091F802C04CEA61
:10077000050591F800C0BCF1000F31D014680020CD
:100780002BE04FF0010C0CFA00F3B1F800C00CEABA
:1007900003069E4220D183004FF00F0C0CFA03F7A2
:1007A000BC4305FA03FC4CEA040491F803C0BCF115
:1007B000280F06D14FF0010C0CFA00FCC2F814C04F
:1007C0000AE091F803C0BCF1480F05D14FF0010CCD
:1007D0000CFA00FCC2F810C0401C0828D1D31460E9
:1007E000B1F800C0BCF1FF0F34DD546800202EE0EA
:1007F00000F1080C4FF0010808FA0CF3B1F800C042
:100800000CEA03069E4221D183004FF00F0C0CFA34
:1008100003F7BC4305FA03FC4CEA040491F803C057
:10082000BCF1280F05D100F1080C08FA0CF8C2F849
:10083000148091F803C0BCF1480F07D100F1080CF7
:100840004FF0010808FA0CF8C2F81080401C082884
:10085000CED35460BDE8F0810246002093680B407F
:100860000BB1012000E00020704700BFFEE7000050
:1008700008B50121042000F087F80121402000F094
:1008800083F81820ADF8000048208DF80300694671
:100890000648FFF756FF0120ADF8000028208DF82C
:1008A000030069460248FFF74CFF08BD00180140ED
:1008B0000008014010B500242948007800283AD0EB
:1008C00001212848FFF7C8FF012809D01021264838
:1008D000FFF7C2FF20B108212348FFF7BDFF10BB7F
:1008E0000A2000F059FB01211E48FFF7B5FF01283F
:1008F00009D010211C48FFF7AFFF20B108211A488A
:10090000FFF7AAFF78B90020154908701021164892
:10091000FFF7A2FF08B901240DE008211248FFF7F4
:100920009BFF08B9022406E001210E48FFF794FF5F
:10093000012800D1032401210A48FFF78DFF68B97F
:1009400010210948FFF788FF012807D10821064830
:10095000FFF782FF012801D101490870204610BD30
:1009600030000020000801400018014000BFFEE7F1
:100970007047000002490143024A116070470000BD
:100980000000FA050CED00E029B1064A9269024325
:10099000044B9A6104E0034A92698243014B9A61D5
:1009A000704700000010024030B5002100220024F2
:1009B00000232D4D6D6805F00C0121B1042905D0EF
:1009C000082923D105E0294D056022E0274D056067
:1009D0001FE0254D6D6805F47012234D6D6805F418
:1009E0008034022505EB92421CB9214D5543056028
:1009F0000BE01D4D6D6805F400351DB11C4D5543D0
:100A0000056002E0194D5543056002E0174D056091
:100A100000BF00BF144D6D6805F0F0010909154DC8
:100A20006B5C0568DD4045600F4D6D6805F4E06165
:100A3000090A104D6B5C4568DD4085600A4D6D68A4
:100A400005F46051C90A0B4D6B5C4568DD40C5601B
:100A5000054D6D6805F44041890B074D6B5CC56819
:100A6000B5FBF3F5056130BD0010024000127A00BD
:100A700000093D001C0000202C00002010B500F0F3
:100A800001F810BD0CB500200190009033480068BB
:100A900040F480303149086000BF3048006800F4FD
:100AA000003000900198401C0190009818B90198FE
:100AB000B0F5A06FF1D12948006800F4003010B102
:100AC0000120009001E0002000900098012843D10F
:100AD0002348006840F0100021490860084600687B
:100AE00020F0030008600846006840F0020008603B
:100AF0001A484068194948600846406848600846F6
:100B0000406840F4806048600846406820F47C10EB
:100B100048600846406840F4E810486008460068AD
:100B200040F08070086000BF0C48006800F0007062
:100B30000028F9D00948406820F0030007494860C0
:100B40000846406840F00200486000BF0348406823
:100B500000F00C000828F9D10CBD00000010024084
:100B6000002002407CB50546012401F0B9F9214876
:100B7000012100234022CDE900101FA1204802F0EE
:100B80001DF90446012C03D11EA0FFF795FB02E0DE
:100B900022A0FFF791FB2748022100234022CDE944
:100BA000001025A1264802F009F90446012C03D1C2
:100BB00024A0FFF781FB02E028A0FFF77DFB2D4872
:100BC000032100234022CDE900102BA12C4802F084
:100BD000F5F80446012C03D12AA0FFF76DFB02E0D3
:100BE0002EA0FFF769FB3348006801F035FB01F0E8
:100BF000C1F97CBD380000205461736B31000000E6
:100C00007D0D00085461736B31C8CECEF1B4B4BD14
:100C1000A8B3C9B9A6210D0A000000005461736B86
:100C200031C8CECEF1B4B4BDA8CAA7B0DC210D0A3C
:100C3000000000003C0000205461736B3200000093
:100C4000A10D00085461736B32C8CECEF1B4B4BDAF
:100C5000A8B3C9B9A6210D0A000000005461736B46
:100C600032C8CECEF1B4B4BDA8CAA7B0DC210D0AFB
:100C700000000000400000205461736B330000004E
:100C8000C50D00085461736B33C8CECEF1B4B4BD4A
:100C9000A8B3C9B9A6210D0A000000005461736B06
:100CA00033C8CECEF1B4B4BDA8CAA7B0DC210D0ABA
:100CB000000000003400002010B502F0AFF8012859
:100CC00001D001F06DFE10BD10B500224FF0E02301
:100CD0001A611A46126922F004021A61C31700EB66
:100CE0005373C3F3CF030C4C2380C31700EB537330
:100CF000D9104FF47A7251434FF0E022126942F05A
:100D000002024FF0E0231A611A465161126942F063
:100D100001021A6110BD00001400002010B5134834
:100D2000006840F001001149086008464068104919
:100D300008400E494860084600680E4908400B49C3
:100D400008600846006820F4802008600846406873
:100D500020F4FE0048604FF41F008860FFF78EFE0D
:100D60004FF000600449086010BD00000010024010
:100D70000000FFF8FFFFF6FE08ED00E006E004A02B
:100D8000FFF79AFA4FF4487001F022FAF7E70000F3
:100D9000B6AFCCACB4B4BDA8C8CECEF1310D0A000C
:100DA00006E004A0FFF788FA4FF4487001F010FA4B
:100DB000F7E70000B6AFCCACB4B4BDA8C8CECEF156
:100DC000320D0A0000241CE0FFF774FD0446012CDC
:100DD00002D0022C10D107E00A48006801F03CFC68
:100DE00009A0FFF769FA08E00648006801F056FB21
:100DF00008A0FFF761FA00E000BF00BF0A2001F081
:100E0000E7F9E1E738000020B9D2C6F0C8CECEF14C
:100E1000310D0A00BBD6B8B4C8CECEF1310D0A00F0
:100E200010B586B00446012144F20400FFF7ACFD82
:100E30004FF40070ADF8140018208DF8170003204F
:100E40008DF8160005A91448FFF77BFC4FF480606D
:100E5000ADF8140004208DF8170003208DF816005B
:100E600005A90D48FFF76DFC01940020ADF80800BE
:100E7000ADF80A00ADF80C00ADF810000C20ADF88C
:100E80000E0001A9054800F017F80121034800F001
:100E900007F806B010BD000000080140003801400E
:100EA00021B1828942F40052828104E082894DF6A8
:100EB000FF731A40828170472DE9F04786B00546DE
:100EC0000E460024A24600BFA1460027B08900B10B
:100ED00000BF2F462C8A4CF6FF700440F088044374
:100EE0002C82AC894EF6F3100440B0883189084357
:100EF000718908430443AC81AC8A4FF6FF4004403B
:100F0000B0890443AC8201A8FFF74EFD1F48874219
:100F100002D1DDF810A001E0DDF80CA0A88900F4F2
:100F2000004040B10AEBCA0000EB0A1031684900EA
:100F3000B0FBF1F807E00AEBCA0000EB0A103168D9
:100F40008900B0FBF1F86420B8FBF0F0040120093F
:100F5000642101FB1089A88900F4004040B13220CF
:100F600000EBC900B0FBF1F000F00700044308E01B
:100F7000322000EB09106421B0FBF1F000F00F000B
:100F800004432C8106B0BDE8F08700000038014022
:100F900000BFFEE700BF704730B50446002504E0FF
:100FA0004FF47A7000F004F86D1CA542F8D330BD00
:100FB00070B5034600224FF0E02675690D4E368865
:100FC00003FB06F44FF0E026B16910E04FF0E02695
:100FD000B06988420BD0884202D20E1A324402E035
:100FE0002E1A0E4432440146A24200D300E0EDE73F
:100FF00000BF70BD1400002000BF054A128802F037
:101000004002002AF9D0C2B2014B1B1D1A80704762
:10101000003801401CB501240B4801210023402267
:10102000CDE9001009A10D4801F0C8FE0446012CCD
:1010300003D10BA0FFF740F902E011A0FFF73CF944
:1010400001F0A6FA1CBD0000340000205374617248
:10105000745461736B43726561746500650B0008BD
:1010600053746172745461736B437265617465C8C3
:10107000CECEF1B4B4BDA8B3C9B9A6210D0A000003
:1010800053746172745461736B437265617465C8A3
:10109000CECEF1B4B4BDA8CAA7B0DC210D0A0000C1
:1010A00010B54FF44070FFF765FC4820FFF70CFEC9
:1010B0004FF4E130FFF7B4FEFFF7DAFBFFF7AAFFCA
:1010C000002010BD2DE9F04105460E46294807686D
:1010D00000202949096881F8590027480068001D47
:1010E00000F0B4FE50B92448006890F82C1001209C
:1010F000884022490968814320480160681CD8B9AA
:10110000D6B11F4948681C49096888601A49826835
:101110000968CA6018490968091D82685160164942
:101120000968091D8160164A134909684A61114618
:101130000968491C11601AE07C190F480068446076
:10114000BC4207D20C480168091D0E48006800F037
:10115000A1FE0CE008480168091D0B48006800F07A
:1011600099FE0A480068844201D208480460BDE83C
:10117000F081000058000020440000205C000020A6
:10118000D40300204C000020480000207400002000
:1011900010B5044600F0A4FE31480068401C3049F8
:1011A00008603048006840B92E480460084600686E
:1011B00001280DD100F018FA0AE02B48006838B970
:1011C00028480068C06AE16A884201D8254804605E
:1011D00026480068401C254908600846006860648D
:1011E00094F82C10012088402149096808432049BF
:1011F0000860E16A01EB81011E4A02EB8101486847
:10120000A0608268E260211D826851608160E16AAD
:1012100001EB8101174A02EB81026261E16A01EB95
:101220008101144A52F82110491CE26A02EB820241
:10123000104B43F8221000F09DFE0B48006868B187
:1012400008480068C06AE16A884207D24FF08050BF
:1012500009490860BFF34F8FBFF36F8F10BD0000C7
:101260005400002044000020600000207000002096
:101270005C0000200401002004ED00E010B500F047
:101280002FFE10480068D0B90F4800F0F3FD0F485A
:1012900000F0F0FD0C480E4908600C480D4908604C
:1012A00000221021052001F095FB06490860084640
:1012B000006820B108A10348006800F01BFF00F09F
:1012C00059FE10BD8C000020E8030020FC03002024
:1012D0008400002088000020546D7251000000003E
:1012E00010B516E000F0FCFD0C48C068C468201D75
:1012F00000F0ACFD0A480068401E09490860094832
:101300000068401E0749086000F034FE204600F0E7
:101310005FF8044800680028E4D110BDC003002035
:10132000540000205000002070B504460D46206C8B
:1013300070B1216CE0680144E160D4E90210884298
:1013400001D32168E1602846226CE168FFF75AF872
:1013500070BD2DE9F04104460F4615464FF00008D8
:10136000A66B206C48B9206800282CD1A06801F039
:1013700061FE80460020A06025E07DB93946226CE0
:101380006068FFF73FF8216C606808446060D4E94A
:101390000101884217D32068606014E03946226C4E
:1013A000E068FFF72FF8216CE068411AE1602168DE
:1013B000E068884203D2216CA068411AE160022DE6
:1013C00001D106B1761E701CA0634046BDE8F081D5
:1013D00010B50446206B00F00BFE204600F008FE1E
:1013E00010BD00000146084A126812680AB90122BD
:1013F00000E000220A600A6822B9034A1268D26833
:10140000106800E0002070478400002030B54FF4E1
:101410002053174800F007042CB1C01D20F007002E
:10142000134C041B1B1B0246124C22600024114D5E
:101430006C60D018083820F007000F4C20600024A2
:101440000D4D2D686C600C4D2D682C601146441AB2
:101450004C60094C24680C60084D4C682C60084DA9
:101460004C682C604FF00044064D2C6030BD0000ED
:1014700010040020A4000020AC000020B4000020D4
:10148000B0000020C000002000BFFFF729FF064881
:1014900000680128F9D94FF0805004490860BFF373
:1014A0004F8FBFF36F8FF0E70401002004ED00E0E1
:1014B0002DE9F04106460D4617469846069C0DB9A3
:1014C000246000E02760E66325640121204601F0E6
:1014D000CBFA84F850800020A064BDE8F0810000C1
:1014E0002DE9F05F82460F4690469B460A9E0C9C73
:1014F0004FEA8801A522206BFEF7C9FFA8F1010081
:10150000216B01EB800929F0070909F0070008B9F0
:10151000012000E0002028B94FF4587224A12EA029
:10152000FEF7CAFE87B1002507E0795D04F13400BB
:101530004155785D00B902E06D1C102DF5D300BF58
:1015400000214320015502E0002084F83400202EC1
:1015500001D2012000E0002028B940F2973214A106
:101560001DA0FEF7A9FE202E00D31F26E662E6642A
:1015700000202065201D00F08AFC04F1180000F016
:1015800086FC2461C6F12000A061646200206065D1
:1015900084F8580084F859005A465146484600F0ED
:1015A00043FC20600B9808B10B980460BDE8F09FE5
:1015B0002E2E5C2E2E5C4D6964646C6577617265BD
:1015C000735C4672656552544F535C7372635C740E
:1015D00061736B732E6300004572726F723A20253F
:1015E000732C2025640D0A0010B5002407E004EBDD
:1015F00084010F4A02EB810000F03CFC641C202CAB
:10160000F5D30C4800F036FC0B4800F033FC0B48D7
:1016100000F030FC0A4800F02DFC0A4800F02AFCDB
:1016200004480949086004480849086010BD0000E2
:10163000040100208403002098030020AC03002054
:10164000C0030020D4030020480000204C000020EC
:1016500010B50146164800E0006803688B42FBD3D2
:101660000246436813448B4204D143684C682344C8
:10167000436001460A464B6813440468A34211D1F3
:101680000C4C03682468A34208D04B680468646863
:1016900023444B6003681B680B6005E0054B1B6827
:1016A0000B6001E003680B60884200D0016010BD50
:1016B000A4000020AC0000202DE9F04104460D46B6
:1016C00016461F464FF0000865602461B5420CD8ED
:1016D000F01BA169884202D34FF0010811E0211DDF
:1016E0000948006800F0D6FB0BE0BE4204D2BD42C0
:1016F00002D34FF0010804E0211D0448006800F007
:10170000C9FB4046BDE8F08188000020840000202D
:1017100070B5054600F0E4FBA86B08B9012400E0B1
:10172000002400F027FC204670BD0000F1B50098B1
:10173000846C00262CB940F6D43220A129A0FEF7F3
:10174000BBFDA06BE16B884201D2012000E00020CC
:1017500028B940F6D53219A122A0FEF7ADFDA06B45
:10176000E16B884227D294F9455000226946204611
:10177000FFF7EFFD0646681C60B9606A08B90120F2
:1017800000E00020B0B904F1240001F0DDFC88B1D4
:1017900001260FE07F2D01D0012000E0002028B9B4
:1017A00040F6F53205A10FA0FEF786FD681C40B299
:1017B00084F8450000BF3046F8BD00002E2E5C2E98
:1017C0002E5C4D6964646C6577617265735C46720A
:1017D000656552544F535C7372635C7175657565D2
:1017E0002E6300004572726F723A2025732C2025FB
:1017F000640D0A0070B505460E460E480068C068C4
:10180000C468201D00F022FB94F8280000F00400BA
:1018100028B132462946204600F000F905E094F848
:10182000280000F0FE0084F828002046216A88473E
:1018300070BD00008400002070B586B08AE0029878
:1018400000280CDA03AE2EB940F2063247A151A0AF
:10185000FEF732FDD6E90020B168904700BF02983C
:10186000002877DB049C606908B9012000E00020B3
:1018700010B9201D00F0EAFA01A800F0FBF80546B7
:1018800002980A2864D2DFE800F06305072E365379
:1018900006082F3700BF00BF00BF94F8280040F0B3
:1018A000010084F828000398A269811803462A469B
:1018B0002046FFF701FFA8B194F8280000F00400CB
:1018C00038B10398A26981182A46204600F0A6F88C
:1018D00005E094F8280000F0FE0084F82800204677
:1018E000216A884735E000BF94F8280000F0FE0028
:1018F00084F828002DE000BF94F8280040F0010093
:1019000084F828000398A061A06908B1012000E0D4
:10191000002028B940F2593214A11EA0FEF7CCFCD9
:10192000A06941192B462A462046FFF7C5FE10E064
:1019300094F8280000F0020018B9204600F058FB87
:1019400005E094F8280000F0FE0084F8280000E08C
:1019500000BF00BF002202A91248006801F004F98C
:1019600000287FF46CAF06B070BD00002E2E5C2EF8
:101970002E5C4D6964646C6577617265735C467258
:10198000656552544F535C7372635C74696D657224
:10199000732E63004572726F723A2025732C2025D6
:1019A000640D0A008C000020F8B505460C4600F0D6
:1019B000EBFE684600F05EF80646009820BB44B98E
:1019C000B54206D801F068FC31462846FFF712FF01
:1019D0001CE03CB10E480068006808B9012000E036
:1019E00000200446A91B22460A48006800F0CAFBF2
:1019F00001F052FC50B94FF0805007490860BFF326
:101A00004F8FBFF36F8F01E001F046FCF8BD00007F
:101A1000880000208C00002004ED00E070B5044632
:101A20000D46164604E0A06905442046216A884711
:101A3000A06941192B4632462046FFF73DFE00289B
:101A4000F1D170BD09480068006808B9012000E0C4
:101A5000002020B14FF0FF300549086005E0034841
:101A60000068C068006802490860704748000020AC
:101A70007400002070B5044601F0E0F905460748FF
:101A80000068854204D200F00BF80120206001E0DC
:101A90000020206001480560284670BD94000020A9
:101AA00070B508E00D480068C06804684FF0FF3169
:101AB0002046FFF79FFE09480068006808B901202A
:101AC00000E000200028EDD00448056804480068C4
:101AD000024908600248056070BD000084000020D3
:101AE000880000200B480068401C08B9012000E075
:101AF000002020B9CE2208A115A0FEF7DDFB00BF13
:101B0000502080F31188BFF34F8FBFF36F8F00BF5A
:101B100000BFFEE7980000202E2E5C2E2E5C4D6943
:101B200064646C6577617265735C46726565525476
:101B30004F535C706F727461626C655C52564453B3
:101B40005C41524D5F434D335C706F72742E630085
:101B50004572726F723A2025732C2025640D0A009D
:101B600070B5054600262C462DB940F227720EA10D
:101B700017A0FEF7A1FB1A496069884201D1012034
:101B800000E0002070B11749A06A884201D101200D
:101B900000E0002030B9A06A08B9012000E0002070
:101BA00000B10126304670BD2E2E5C2E2E5C4D6994
:101BB00064646C6577617265735C467265655254E6
:101BC0004F535C7372635C7461736B732E630000BC
:101BD0004572726F723A2025732C2025640D0A001D
:101BE000D4030020AC03002008B500BF6846FFF70F
:101BF000F9FB044620460099FFF7D6FEFFF71CFECE
:101C0000F4E770B5044600F06BF994F9455019E01B
:101C1000A06C30B12046FFF789FD88B100F0BCFB15
:101C20000EE0606A08B9012000E0002038B904F134
:101C3000240001F089FA18B100F0AEFB00E003E0E7
:101C4000681E45B2002DE3DC00BFFF2084F845008C
:101C500000F090F900F044F994F9445010E0206944
:101C600008B9012000E0002048B904F1100001F09B
:101C70006BFA08B100F090FB681E45B200E001E08D
:101C8000002DECDC00BFFF2084F8440000F072F966
:101C900070BD00002DE9F04104464FF0000800F04F
:101CA00073FD4948006808B9FFF7B0FB4748006872
:101CB0002040002875D1002C23D004F10800A04258
:101CC0001FD9083404F0070000281BD004F00700D7
:101CD000C0F108002044A04211D904F00700C0F16F
:101CE0000800044404F0070008B9012000E00020C7
:101CF00040B99C2236A144A0FEF7DEFA02E000249F
:101D000000E00024002C4CD043480068844248D8AE
:101D1000424E3046056801E02E462D686868A042B4
:101D200002D228680028F7D127480068854238D0B9
:101D3000306800F10808286830606868001B1028C7
:101D400013D92F1907F0070008B9012000E000207F
:101D500020B9CF221EA12CA0FEF7AEFA6868001BA6
:101D600078606C603846FFF773FC2B496868096837
:101D7000081A294908600846006829490968884204
:101D800003D2254800682649086010496868096838
:101D9000084368600020286022480068401C2149F0
:101DA000086001F079FA08F0070008B9012000E0A6
:101DB000002028B94FF4887205A113A0FEF77CFA21
:101DC0004046BDE8F0810000AC000020C0000020CB
:101DD0002E2E5C2E2E5C4D6964646C657761726595
:101DE000735C4672656552544F535C706F727461D8
:101DF000626C655C4D656D4D616E675C68656170B8
:101E00005F342E63000000004572726F723A202525
:101E1000732C2025640D0A00B0000020A4000020CF
:101E2000B4000020B8000020001F4FF08073036052
:101E3000001F21F001030360001F034B03601438EF
:101E40000260203870470000E51A000801460A6960
:101E5000D1E901309860D1E90103586050688842A7
:101E600001D188685060002008611068401E106031
:101E70001068704700F1080141604FF0FF31816048
:101E800000F10801C160016100210160704700217B
:101E90000161704710B502460B685C1C0CB91069F3
:101EA00007E002F1080000E04068446824689C42B2
:101EB000FAD944684C604C68A160886041600A614E
:101EC0001468641C146010BD42684A6093688B609B
:101ED000936859609160086103685B1C03607047F8
:101EE00010B500BF502080F31188BFF34F8FBFF3B0
:101EF0006F8F00BF0B480068401C0A490860084605
:101F0000006801280DD108480068C0B208B9012056
:101F100000E0002028B940F2751204A111A0FEF7DC
:101F2000CBF910BD9800002004ED00E02E2E5C2EB1
:101F30002E5C4D6964646C6577617265735C467292
:101F4000656552544F535C706F727461626C655C6E
:101F5000525644535C41524D5F434D335C706F7237
:101F6000742E63004572726F723A2025732C2025FF
:101F7000640D0A0010B50B48006828B94FF4BE7212
:101F800009A117A0FEF798F906480068401E054908
:101F900008600846006820B9002080F3118800BF5F
:101FA00000BF10BD980000202E2E5C2E2E5C4D69C7
:101FB00064646C6577617265735C467265655254E2
:101FC0004F535C706F727461626C655C525644531F
:101FD0005C41524D5F434D335C706F72742E6300F1
:101FE0004572726F723A2025732C2025640D0A0009
:101FF00070B506463546002E3AD0083D2C461D49A0
:1020000060680968084008B1012000E0002028B994
:102010004FF4927218A126A0FEF74EF9206808B975
:10202000012000E0002028B940F2251212A120A0D2
:10203000FEF742F90F49606809680840C0B120689E
:10204000B0B90C49606809688843606000F09CFB87
:102050001B49606809680844194908602046FFF771
:10206000F7FA18480068401C1649086001F014F996
:1020700070BD0000C00000202E2E5C2E2E5C4D692D
:1020800064646C6577617265735C46726565525411
:102090004F535C706F727461626C655C4D656D4D21
:1020A000616E675C686561705F342E6300000000DC
:1020B0004572726F723A2025732C2025640D0A0038
:1020C000B0000020BC00002000204FF0E02108619B
:1020D000886107480068C0084FF47A71B0FBF1F0DE
:1020E000401E4FF0E0214861032008617047000066
:1020F000000000202DE9F04105460F4600262DB9CD
:1021000040F6C92210A11AA0FEF7D6F8BFB10024EC
:1021100012E01B4800EBC4004068A84203D11848F5
:1021200000EBC4060AE036B9154850F8340010B97F
:10213000134800EBC406641C082CEAD300BF0EB1A0
:1021400037607560BDE8F0812E2E5C2E2E5C4D69E7
:1021500064646C6577617265735C46726565525440
:102160004F535C7372635C71756575652E63000017
:102170004572726F723A2025732C2025640D0A0077
:10218000C40000202DE9F04105460E4617462C46B6
:10219000FFF7A6FE94F94400401C10B9002084F813
:1021A000440094F94500401C10B9002084F8450013
:1021B000FFF7E0FEA06B28B93A46314604F124004F
:1021C00000F024F92046FFF71CFDBDE8F081000077
:1021D00070B504460025ACB10F48006808B901206D
:1021E00000E0002028B940F249520CA115A0FEF7EA
:1021F00063F800F0C9FA00212046FEF763FF01F002
:102200004BF805463DB94FF0805012490860BFF3C6
:102210004F8FBFF36F8F70BD800000202E2E5C2E7D
:102220002E5C4D6964646C6577617265735C46729F
:10223000656552544F535C7372635C7461736B7366
:102240002E6300004572726F723A2025732C202590
:10225000640D0A0004ED00E070B50546FFF740FE8E
:1022600015B92F48006800E028460446201DFFF7F6
:10227000EDFD78B9E06A00EB80002A4951F82000B2
:1022800040B994F82C1001208840274909688143FF
:1022900025480160A06A18B104F11800FFF7D6FDC7
:1022A00022480068401C214908601D48006884429B
:1022B00009D1211D1E48FFF707FE1E480068401C7B
:1022C0001C49086006E01C480068401E1A49086066
:1022D000FFF7B8FBFFF74EFE11480068844202D0BA
:1022E0002046FFF775F815480068C0B10C48006833
:1022F000844214D11248006808B9012000E000208F
:1023000028B940F2DC420FA118A0FDF7D5FF4FF02D
:1023100080501A490860BFF34F8FBFF36F8F70BDB5
:1023200044000020040100205C0000207000002018
:10233000C003002050000020540000206000002056
:10234000800000202E2E5C2E2E5C4D6964646C652E
:1023500077617265735C4672656552544F535C7366
:1023600072635C7461736B732E6300004572726FED
:10237000723A2025732C2025640D0A0004ED00E03C
:10238000034909680160034909684160704700001A
:102390006C000020580000200120014908607047AF
:1023A0006800002070B504460D462CB940F61C426A
:1023B00007A111A0FDF780FF1348016818312046DE
:1023C000FFF768FD01212846FEF77CFE70BD000086
:1023D0002E2E5C2E2E5C4D6964646C65776172658F
:1023E000735C4672656552544F535C7372635C74E0
:1023F00061736B732E6300004572726F723A202511
:10240000732C2025640D0A004400002070B504469A
:102410000E4615462CB940F6524211A11AA0FDF7FE
:102420004BFF60681C490968C8611B4982680968DC
:102430000A621949096818318268516016490968A9
:1024400018318160144909688C622168491C216037
:102450000DB14FF0FF3629463046FEF733FE70BD12
:102460002E2E5C2E2E5C4D6964646C6577617265FE
:10247000735C4672656552544F535C7372635C744F
:1024800061736B732E6300004572726F723A202580
:10249000732C2025640D0A004400002070B5054609
:1024A0002C462DB940F2517227A131A0FDF704FF4F
:1024B00033480068844245D0002C43D0FFF710FD1C
:1024C0002046FFF74DFBD8B3201DFFF7BFFC94F863
:1024D0002C10012088402B490968084329490860CD
:1024E000E16A01EB8101284A02EB81014868A060A2
:1024F0008268E260211D826851608160E16A01EBBF
:102500008101214A02EB81026261E16A01EB8101F2
:102510001D4A52F82110491CE26A02EB82021A4B52
:1025200043F822101649E06A0968C96A884207D34D
:102530004FF0805015490860BFF34F8FBFF36F8F86
:10254000FFF718FD70BD00002E2E5C2E2E5C4D692D
:1025500064646C6577617265735C4672656552543C
:102560004F535C7372635C7461736B732E63000012
:102570004572726F723A2025732C2025640D0A0073
:10258000440000205C0000200401002004ED00E075
:102590001CB51B4800210B468022CDE9001019A173
:1025A0001A4800F00BFC0446012C02D100F046FF53
:1025B0000446012C15D100BF502080F31188BFF3D1
:1025C0004F8FBFF36F8F00BF4FF0FF30104908608F
:1025D00001201049086000200F49086000F03AF916
:1025E0000BE0601C08B1012000E0002028B94FF486
:1025F00004620AA113A0FDF75FFE164800681CBD27
:102600007800002049444C4500000000891400086F
:102610007400002060000020580000202E2E5C2E48
:102620002E5C4D6964646C6577617265735C46729B
:10263000656552544F535C7372635C7461736B7362
:102640002E6300004572726F723A2025732C20258C
:10265000640D0A007C00002070B50546FFF740FCC1
:1026600015B93348006800E028460446201DFFF7EE
:10267000EDFB78B9E06A00EB80002E4951F82000AC
:1026800040B994F82C10012088402B4909688143F7
:1026900029480160A06A18B104F11800FFF7D6FBC1
:1026A000211D2648FFF710FC002009E004F1580125
:1026B000095C012903D1002204F158010A54401C8D
:1026C0000128F3DBFFF756FC1D48006828B1FFF72F
:1026D00007FCFFF7B7F9FFF74DFC15480068844287
:1026E00024D117480068A8B11648006808B901202D
:1026F00000E0002028B940F2FD6213A11CA0FDF704
:10270000DBFD4FF080501E490860BFF34F8FBFF3D1
:102710006F8F0BE0094800681A490968884203D1A5
:1027200000200349086001E000F036F870BD0000A9
:1027300044000020040100205C000020D40300209D
:1027400060000020800000202E2E5C2E2E5C4D6943
:1027500064646C6577617265735C4672656552543A
:102760004F535C7372635C7461736B732E63000010
:102770004572726F723A2025732C2025640D0A0071
:1027800004ED00E05400002002480068401C0149AC
:10279000086070478000002010B51B48006818B121
:1027A00001201A4908602DE00020184908601848E7
:1027B0000068B0FA80F0C0F11F0404EB84001549F2
:1027C00051F8200008B1012000E0002028B940F6AF
:1027D000024211A11AA0FDF76FFD04EB84010D4A1E
:1027E00002EB810041684968416000F108014268DC
:1027F0008A4202D14168496841604168C968144A07
:10280000116000BF10BD00008000002068000020A3
:102810005C000020040100202E2E5C2E2E5C4D69F1
:1028200064646C6577617265735C46726565525469
:102830004F535C7372635C7461736B732E6300003F
:102840004572726F723A2025732C2025640D0A00A0
:10285000440000201CB53B4C204600780190FF202E
:10286000214608700846007800909DF8000000F0AE
:10287000F0009DF80010884201D1012000E0002006
:1028800028B940F21F1230A13DA0FDF715FD9DF8BB
:10289000000000F050003E49087007203D490860E4
:1028A00009E03C480068401E3A4908609DF8000075
:1028B0004006000E00909DF8000000F08000802887
:1028C000EFD034480068C0F10700042801D101208E
:1028D00000E0002028B940F233121BA128A0FDF728
:1028E000EBFC2C480068C0F10700042801D101204E
:1028F00000E0002028B94FF49E7213A120A0FDF73C
:10290000DBFC244800680002224908600846008871
:1029100000F4E06008600B49019808701E480068E8
:1029200040F470001C4908600846006840F07040A0
:102930000860FFF7C9FB002018490860FDF760FC3C
:1029400000201CBD00E400E02E2E5C2E2E5C4D69A4
:1029500064646C6577617265735C46726565525438
:102960004F535C706F727461626C655C5256445375
:102970005C41524D5F434D335C706F72742E630047
:102980004572726F723A2025732C2025640D0A005F
:102990009C000020A000002020ED00E09800002016
:1029A00010B500BF502080F31188BFF34F8FBFF3E5
:1029B0006F8F00BF00F048FA18B14FF08050044903
:1029C000086000BF002080F3118800BF10BD000028
:1029D00004ED00E02DE9F84305460E4617460024B5
:1029E000E5B1601EB0FBF5F0B04217D305FB06F071
:1029F00010F1550F12D805FB06F909F15400FFF745
:102A000049F904468CB1A04608F154083B464246B9
:102A1000314628460094FEF74BFD06E02CB94FF4F2
:102A2000E37203A10CA0FDF747FC2046BDE8F88344
:102A30002E2E5C2E2E5C4D6964646C657761726528
:102A4000735C4672656552544F535C7372635C717C
:102A5000756575652E6300004572726F723A2025A8
:102A6000732C2025640D0A002DE9F04105460E4621
:102A700001272C462CB94FF488722CA135A0FDF704
:102A80001BFC002C42D0E06B00283FD04FF0FF3100
:102A9000E06BB1FBF0F0216C884237D3FFF720FAEE
:102AA000D4E90F12206801FB0200A0600020A0639F
:102AB00020686060E06B401E226C216800FB021100
:102AC000E160FF2084F8440084F845009EB9206945
:102AD00008B9012000E00020A8B904F1100000F0BE
:102AE00033FB80B14FF080501E490860BFF34F8F19
:102AF000BFF36F8F07E004F11000FFF7BBF904F19B
:102B00002400FFF7B7F9FFF735FA00E000270FB10F
:102B1000012000E0002028B940F2451203A10DA0D9
:102B2000FDF7CAFB3846BDE8F08100002E2E5C2E72
:102B30002E5C4D6964646C6577617265735C467286
:102B4000656552544F535C7372635C71756575654E
:102B50002E6300004572726F723A2025732C202577
:102B6000640D0A0004ED00E02DE9F74183B005464D
:102B70000E464FF000082C462CB940F251524CA1A1
:102B800055A0FDF799FB0EB9206C08B9012000E0B3
:102B9000002028B940F2555245A14FA0FDF78CFB0B
:102BA00000F03CF908B9059808B9012000E00020C0
:102BB00028B940F25A523EA147A0FDF77DFB00BF65
:102BC000FFF78EF9A76BF7B131462046FEF7ACFB55
:102BD000781EA063206908B9012000E0002060B9D8
:102BE00004F1100000F0B0FA38B14FF080503E49C7
:102BF0000860BFF34F8FBFF36F8FFFF7BBF9012062
:102C000006B0BDE8F081059818B9FFF7B3F90020C8
:102C1000F6E7B8F1000F04D101A8FFF7B1FB4FF0C0
:102C20000108FFF7A7F9FFF7AFFDFFF759F994F98E
:102C30004400401C10B9002084F8440094F9450079
:102C4000401C10B9002084F84500FFF793F905A94E
:102C500001A800F04BF8F0B92046FEF759FDA0B1ED
:102C600004F124000599FFF79DFB2046FEF7C9FFFC
:102C700000F012FB0028A3D14FF080501A490860E1
:102C8000BFF34F8FBFF36F8F9AE72046FEF7B9FF70
:102C900000F002FB94E72046FEF7B3FF00F0FCFAD9
:102CA0002046FEF735FD00288AD00020A8E7000066
:102CB0002E2E5C2E2E5C4D6964646C6577617265A6
:102CC000735C4672656552544F535C7372635C71FA
:102CD000756575652E6300004572726F723A202526
:102CE000732C2025640D0A0004ED00E070B5064643
:102CF0000C462EB940F6FD421FA129A0FDF7DCFAD3
:102D00002CB940F6FE421CA125A0FDF7D5FAFFF72D
:102D1000E7F8274802687068131A2648006890F898
:102D2000590030B100202349096881F85900012574
:102D30001EE02068401C08B9002519E01E493068D3
:102D40000968884206D07068904203D801250020A7
:102D500020600DE02068984207D92068C01A2060E2
:102D60003046FFF70DFB002502E000202060012522
:102D7000FFF700F9284670BD2E2E5C2E2E5C4D69A3
:102D800064646C6577617265735C46726565525404
:102D90004F535C7372635C7461736B732E630000DA
:102DA0004572726F723A2025732C2025640D0A003B
:102DB00058000020440000206C0000202DE9FF4F47
:102DC00085B0804689461746DDE912ABB800FEF7AC
:102DD00061FF064656B15C20FEF75CFF04460CB16D
:102DE000266304E03046FFF703F900E000247CB1DD
:102DF0000020CDE900ABCDE902403A4649464046C5
:102E0000089BFEF76DFB2046FEF7C2F9012501E0A5
:102E10004FF0FF35284609B0BDE8F08F0549096835
:102E200009B9012005E00449096809B9022000E058
:102E300000207047600000208000002001490868E1
:102E400070470000580000202DE9F0414FF00008C5
:102E50005F48006800287DD15E480068451C5D48D9
:102E60000560002D1DD15C480068006808B901208C
:102E700000E0002028B940F6C72258A161A0FDF764
:102E80001BFA554807686348006853490860614861
:102E9000076061480068401C5F490860FEF7D2FD8A
:102EA00000BF5E480068854277D300BF4A4800688B
:102EB000006808B9012000E0002020B14FF0FF3089
:102EC0005649086068E044480068C068C46866689D
:102ED000B54202D2514806605EE06069D4E9021250
:102EE0008A60D4E902214A60211D42688A4201D1E8
:102EF000E1684160002262610168491E0160A06AC8
:102F000098B1A06AD4E907128A60D4E907214A601F
:102F100004F1180142688A4201D1216A416000220D
:102F2000A2620168491E016000BF94F82C100120C4
:102F300088403B490968084339490860E16A01EB68
:102F40008101384A02EB81014868A0608268E26032
:102F5000211D00E033E0826851608160E16A01EB8D
:102F60008101304A02EB81026261E16A01EB810179
:102F70002C4A52F82110491CE26A02EB8202294BCA
:102F800043F822102849E06A0968C96A88428DD34B
:102F90004FF001088AE700E000BF23480068C06ADC
:102FA00000EB80001F4951F82000012801D94FF0A3
:102FB00001081E48006808B14FF0010804E01C48F1
:102FC0000068401C1A4908604046BDE8F0810000D6
:102FD0008000002058000020480000202E2E5C2E8B
:102FE0002E5C4D6964646C6577617265735C4672D2
:102FF000656552544F535C7372635C7461736B7399
:103000002E6300004572726F723A2025732C2025C2
:10301000640D0A004C0000206C00002074000020A9
:103020005C00002004010020440000206800002013
:103030006400002070B505462C460026002D5ED0A9
:1030400030480068844201D1012000E0002028B906
:1030500041F24F022CA136A0FDF72EF9206D28B9C0
:1030600041F2500228A132A0FDF726F9206D401E42
:103070002065E16CE06A884241D0206D00283ED195
:10308000201DFEF7E3FE40B994F82C100120884083
:103090002B49096881432A480160E06CE062E06ADC
:1030A000C0F12000A06194F82C1001208840244930
:1030B0000968084322490860E16A01EB8101214A5D
:1030C00002EB81014868A0608268E260211D82688D
:1030D00051608160E16A01EB81011A4A02EB8102D1
:1030E0006261E16A01EB8101164A52F82110491C24
:1030F000E26A02EB8202134B43F8221001263046AB
:1031000070BD0000440000202E2E5C2E2E5C4D6908
:1031100064646C6577617265735C46726565525470
:103120004F535C7372635C7461736B732E63000046
:103130004572726F723A2025732C2025640D0A00A7
:103140005C0000200401002070B50646F068C468E9
:103150002CB940F682423CA145A0FDF7ADF8A06A2B
:10316000D4E907128A60D4E907214A6004F1180102
:1031700042688A4201D1216A41600022A26201684C
:10318000491E01603E48006800283DD16069D4E9CD
:1031900002128A60D4E902214A60211D42688A42F3
:1031A00001D1E1684160002262610168491E01604D
:1031B00094F82C10012088403249096808433149AD
:1031C0000860E16A01EB81012F4A02EB8101486846
:1031D000A0608268E260211D826851608160E16ABE
:1031E00001EB8101284A02EB81026261E16A01EB95
:1031F0008101254A52F82110491CE26A02EB820241
:10320000214B43F8221010E020494868E0618268B1
:10321000226204F118018268516081601B4AA26237
:1032200011460968491C116000BF1949E06A096824
:10323000C96A884204D9012501201649086000E0C6
:103240000025284670BD00002E2E5C2E2E5C4D6998
:1032500064646C6577617265735C4672656552542F
:103260004F535C7372635C7461736B732E63000005
:103270004572726F723A2025732C2025640D0A0066
:10328000800000205C00002004010020AC0300202E
:10329000440000206800002070B50024002650483B
:1032A000006828B940F6B3024EA158A0FDF704F813
:1032B000FEF716FE4A480068401E49490860084665
:1032C000006800287ED15548006800287AD05BE06D
:1032D0005348C068C468A06AD4E907128A60D4E978
:1032E00007214A6004F1180142688A4201D1216A2B
:1032F00041600022A2620168491E01606069D4E950
:1033000002128A60D4E902214A60211D42688A4281
:1033100001D1E1684160002262610168491E0160DB
:1033200094F82C10012088403E49096808433D4923
:103330000860E16A01EB81013B4A02EB81014868C8
:10334000A0608268E260211D826851608160E16A4C
:1033500001EB8101344A02EB81026261E16A01EB17
:103360008101314A52F82110491CE26A02EB8202C3
:103370002D4B43F822102D49E06A0968C96A88423A
:1033800002D301202A4908602548006808B90120B5
:1033900000E0002000289BD00CB1FEF753FB25482D
:1033A000056865B100BFFFF74FFD10B1012020494E
:1033B00008606D1E002DF6D100201E4908601C48D3
:1033C000006800E008E038B1012630071A490860BB
:1033D000BFF34F8FBFF36F8FFEF7CCFD304670BD4C
:1033E000800000202E2E5C2E2E5C4D6964646C657E
:1033F00077617265735C4672656552544F535C73B6
:1034000072635C7461736B732E6300004572726F3C
:10341000723A2025732C2025640D0A0054000020E8
:10342000AC0300205C0000200401002044000020C8
:10343000680000206400002004ED00E01CB50024BA
:10344000FDF71CFF0B48006858B10B481F210023F3
:103450004FF48072CDE9001008A10A48FFF7AEFCD6
:1034600004462CB940F2191207A111A0FCF724FF61
:1034700020461CBD8C00002090000020546D72205E
:1034800053766300E91B00082E2E5C2E2E5C4D69DE
:1034900064646C6577617265735C467265655254ED
:1034A0004F535C7372635C74696D6572732E630055
:1034B0004572726F723A2025732C2025640D0A0024
:1034C000E034000800000020C40000006C01000887
:1034D000A4350008C4000020AC31000088010008B9
:1034E00000A24A04000000000000000001020304E2
:1034F00006070809000000000000000000000000AE
:103500000102030401020304060708090204060875
:1035100001000000000000000000000000000000AA
:10352000000000000000000000000000000000009B
:10353000000000000000000000000000000000008B
:10354000000000000000000000000000000000007B
:103550000000000000000000000000001F0000004C
:10356000000000000000000000000000000000005B
:103570000000000000000000AAAAAAAA00000000A3
:10358000000000000000000000000000000000003B
:10359000000000000000000000000000000000002B
:0435A0000000000027
:0400000508000131BD
:00000001FF
