:020000040800F2
:1000000088970020E10100087D0600087D050008B2
:100010007906000891030008C50A000800000000E6
:10002000000000000000000000000000490100087E
:1000300095030008000000008D0100087108000809
:10004000FB010008FB010008FB010008FB010008A0
:10005000FB010008FB010008FB010008FB01000890
:10006000FB010008FB010008FB010008FB01000880
:10007000FB010008FB010008FB010008FB01000870
:10008000FB010008FB010008FB010008FB01000860
:10009000FB010008FB010008FB010008FB01000850
:1000A000FB010008FB010008FB010008FB01000840
:1000B000FB010008FB010008FB010008FB01000830
:1000C000FB010008FB010008FB010008FB01000820
:1000D000FB010008FB010008FB010008FB01000810
:1000E000FB010008FB010008FB010008FB01000800
:1000F000FB010008FB010008FB010008FB010008F0
:10010000FB010008FB010008FB010008FB010008DF
:10011000FB010008FB010008FB010008FB010008CF
:10012000FB010008FB010008FB010008FB010008BF
:10013000DFF810D000F08EF800480047FD0C0008F2
:10014000AFF3008088970020224B19680868B0E858
:10015000F00F80F30988BFF36F8F4FF0000080F33A
:1001600011884EF00D0E7047000000000648006830
:10017000006880F3088862B661B6BFF34F8FBFF3A3
:100180006F8F00DF00BF00BF08ED00E0EFF30980D4
:10019000BFF36F8F0F4B1A6820E9F00F106008B59E
:1001A0004FF0500080F31188BFF34F8FBFF36F8F74
:1001B00001F046FC4FF0000080F31188BDE80840D4
:1001C00019680868B0E8F00F80F30988BFF36F8FF3
:1001D000704700BF38000020EFF305807047000033
:1001E0000648804706480047FEE7FEE7FEE7FEE7D1
:1001F000FEE7FEE7FEE7FEE7FEE7FEE78108000810
:100200003101000840EA01039B0703D009E008C957
:10021000121F08C0042AFAD203E011F8013B00F8CB
:10022000013B521EF9D2704730B50B460146002003
:100230002022012409E021FA02F59D4205D303FAA8
:1002400002F5491B04FA02F52844151EA2F1010229
:10025000F1DC30BD064C074D06E0E06840F00103DC
:1002600094E8070098471034AC42F6D3FFF764FFD8
:10027000A8240008C82400081CB5012401F084F952
:1002800003220021012001F09BFC17490860084669
:10029000006810B115A000F017FC1E4801210023D2
:1002A0008022CDE900101CA11E4801F01DFF04466C
:1002B000012C02D11CA000F007FC224802210023DF
:1002C0008022CDE9001020A1224801F00DFF044654
:1002D000012C02D120A000F0F7FB2648006801F0B5
:1002E00071FA01F093F91CBD34000020B4B4BDA82C
:1002F00042696E61727953656D5F48616E646C65C9
:10030000B6FED6B5D0C5BAC5C1BFB3C9B9A6210D11
:100310000A0000002C00002054616B655F5461737B
:100320006B000000E108000854616B655F54617365
:100330006BC8CECEF1B4B4BDA8B3C9B9A6210D0A1D
:100340000000000030000020476976655F5461734B
:100350006B000000C1040008476976655F54617353
:100360006BC8CECEF1B4B4BDA8B3C9B9A6210D0AED
:10037000000000002800002010B54FF4407000F08D
:100380007FF94FF4E13000F0D1FA00F0F9F810BD38
:1003900000BFFEE770472DE9F04102460025002628
:1003A000002000230024002791F803C00CF00F0563
:1003B00091F803C00CF0100CBCF1000F03D091F8C1
:1003C00002C04CEA050591F800C0BCF1000F31D025
:1003D000146800202BE04FF0010C0CFA00F3B1F888
:1003E00000C00CEA03069E4220D183004FF00F0CA0
:1003F0000CFA03F7BC4305FA03FC4CEA040491F839
:1004000003C0BCF1280F06D14FF0010C0CFA00FC20
:10041000C2F814C00AE091F803C0BCF1480F05D13E
:100420004FF0010C0CFA00FCC2F810C0401C082868
:10043000D1D31460B1F800C0BCF1FF0F34DD5468B3
:1004400000202EE000F1080C4FF0010808FA0CF330
:10045000B1F800C00CEA03069E4221D183004FF0A0
:100460000F0C0CFA03F7BC4305FA03FC4CEA040436
:1004700091F803C0BCF1280F05D100F1080C08FA6F
:100480000CF8C2F8148091F803C0BCF1480F07D1F2
:1004900000F1080C4FF0010808FA0CF8C2F81080BF
:1004A000401C0828CED35460BDE8F08102460020ED
:1004B00093680B400BB1012000E000207047000062
:1004C00001242FE000F07EF8012802D0022824D178
:1004D00011E000231A4619461348006801F0DEFCBB
:1004E0000446012C03D111A000F0EEFA02E019A09D
:1004F00000F0EAFA12E000231A4619460A4800689A
:1005000001F0CCFC0446012C03D108A000F0DCFA79
:1005100002E010A000F0D8FA00E000BF00BF1420F5
:1005200001F014F9CEE700003400002042696E614A
:10053000727953656D5F48616E646C65B6FED6B5C1
:10054000D0C5BAC5C1BFCACDB7C5B3C9B9A6210DFB
:100550000A00000042696E61727953656D5F4861FF
:100560006E646C65B6FED6B5D0C5BAC5C1BFCACD7E
:10057000B7C5CAA7B0DC210D0A00000000BFFEE726
:1005800008B50121042000F085F80121402000F089
:1005900081F81820ADF8000048208DF80300694666
:1005A0000648FFF7F8FE0120ADF8000028208DF87E
:1005B000030069460248FFF7EEFE08BD001801403F
:1005C0000008014010B5002428480078002837D0E2
:1005D00001212748FFF76AFF48B908212548FFF79E
:1005E00065FF20B110212348FFF760FF08BB0A20F8
:1005F00000F066FB01211E48FFF758FF48B90821AB
:100600001C48FFF753FF20B110211A48FFF74EFF97
:1006100078B900201549087010211648FFF746FFE9
:1006200008B901240CE008211248FFF73FFF08B980
:10063000022405E001210E48FFF738FF00B1032432
:1006400001210B48FFF732FF68B908210948FFF77D
:100650002DFF40B107480830006800F0100010B1CD
:10066000012002490870204610BD000098000020BB
:10067000000801400018014000BFFEE7704700007D
:1006800002490143024A1160704700000000FA0568
:100690000CED00E029B1064A92690243044B9A61CD
:1006A00004E0034A92698243014B9A61704700005B
:1006B0000010024030B500210022002400232D4DFF
:1006C0006D6805F00C0121B1042905D0082923D15A
:1006D00005E0294D056022E0274D05601FE0254D0E
:1006E0006D6805F47012234D6D6805F480340225A1
:1006F00005EB92421CB9214D554305600BE01D4DA1
:100700006D6805F400351DB11C4D5543056002E0D0
:10071000194D5543056002E0174D056000BF00BF4D
:10072000144D6D6805F0F0010909154D6B5C056805
:10073000DD4045600F4D6D6805F4E061090A104D1C
:100740006B5C4568DD4085600A4D6D6805F460515D
:10075000C90A0B4D6B5C4568DD40C560054D6D6891
:1007600005F44041890B074D6B5CC568B5FBF3F59B
:10077000056130BD0010024000127A0000093D0002
:10078000140000202400002010B500F001F810BD76
:100790000CB50020019000903348006840F4803090
:1007A0003149086000BF3048006800F40030009014
:1007B0000198401C0190009818B90198B0F5A06FFD
:1007C000F1D12948006800F4003010B101200090F8
:1007D00001E0002000900098012843D123480068E0
:1007E00040F01000214908600846006820F003002E
:1007F00008600846006840F0020008601A48406837
:10080000194948600846406848600846406840F416
:10081000806048600846406820F47C1048600846C4
:10082000406840F4E81048600846006840F0807076
:10083000086000BF0C48006800F000700028F9D084
:100840000948406820F003000749486008464068AE
:1008500040F00200486000BF0348406800F00C0010
:100860000828F9D10CBD0000001002400020024011
:1008700010B501F069FC012801D001F087F910BD25
:1008800010B51348006840F001001149086008469F
:100890004068104908400E494860084600680E4903
:1008A00008400B4908600846006820F48020086072
:1008B0000846406820F4FE0048604FF41F0088603E
:1008C000FFF762FF4FF000600449086010BD0000B0
:1008D000001002400000FFF8FFFFF6FE08ED00E008
:1008E00001240CE000235A1E19460548006801F057
:1008F000A3F90446012C02D102A000F0E5F8F1E7CB
:100900003400002042696E61727953656D5F486101
:100910006E646C65B6FED6B5D0C5BAC5C1BFBBF1B5
:10092000C8A1B3C9B9A6210D0A0D0A0010B586B039
:10093000044601210420FFF7ADFE01218803FFF7E3
:10094000A9FE4FF40070ADF8140018208DF81700C0
:1009500003208DF8160005A91348FFF71CFD4FF47E
:100960008060ADF8140004208DF8170003208DF886
:10097000160005A90C48FFF70EFD01940020ADF804
:100980000800ADF80A00ADF80C00ADF810000C201E
:10099000ADF80E0001A9054800F024F80121034834
:1009A00000F006F806B010BD000801400038014014
:1009B00021B1828942F40052828104E082894DF69D
:1009C000FF731A408281704702460020B1F5007F14
:1009D00000D100BF13880B400BB1012000E00020C4
:1009E000704700002DE9F04786B005460E4600240A
:1009F000A24600BFA1460027B08900B100BF2F4624
:100A00002C8A4CF6FF700440F08804432C82AC8999
:100A10004EF6F3100440B0883189084371890843C9
:100A20000443AC81AC8A4FF6FF400440B0890443D4
:100A3000AC8201A8FFF73EFE1F48874202D1DDF8D5
:100A400010A001E0DDF80CA0A88900F4004040B13E
:100A50000AEBCA0000EB0A1031684900B0FBF1F85C
:100A600007E00AEBCA0000EB0A1031688900B0FB0E
:100A7000F1F86420B8FBF0F004012009642101FBC7
:100A80001089A88900F4004040B1322000EBC90071
:100A9000B0FBF1F000F00700044308E0322000EB67
:100AA00009106421B0FBF1F000F00F0004432C8129
:100AB00006B0BDE8F087000000380140C1F308022D
:100AC0008280704700BFFEE70FB4054B10B503A945
:100AD000044A029800F018F810BC5DF814FB0000FE
:100AE000D90C00089C00002002E008C8121F08C1B1
:100AF000002AFAD170477047002001E001C1121F9F
:100B0000002AFBD1704700002DE9FF4F8BB09A46B9
:100B10000F460546002606E025280BD052460D99C3
:100B200090476D1C761C28780028F5D10FB0304610
:100B3000BDE8F08F0024A0460122604900E0044394
:100B400015F8013F203B02FA03F00842F7D128785C
:100B50002E2817D115F8010F44F004042A280ED0CE
:100B60006FF02F022878A0F1300109290AD808EB8C
:100B7000880102EB410100EB01086D1CF2E757F818
:100B8000048B6D1C287869283ED006DC0028CDD067
:100B900063280BD0642804D136E0732810D0752860
:100BA0004BD052460D999047761C85E017F8040B00
:100BB0008DF8000000208DF80100E946012003E0D7
:100BC00057F8049B4FF0FF3061074FF0000401D449
:100BD0000AE0641C44450DDA8442FADB19F804107B
:100BE0000029F6D106E0641C8442FCDB19F80410ED
:100BF0000029F8D1264404E019F8010B52460D995A
:100C00009047641EF8D257E001CF4FF00A0B00283E
:100C100002DA40422D2102E0210504D52B218DF876
:100C20002410012103E0E10705D02021F7E70DF1B1
:100C3000200908910CE00021F9E701CF4FF00A0BE1
:100C4000F9E75946FFF7F0FA01F1300209F8012DF2
:100C50000028F6D1ADEB090000F1200B600701D4AC
:100C60004FF00108D84502DDA8EB0B0000E00020A2
:100C70008046002406E009A85246005D0D99904781
:100C8000641C761C08988442F5DB04E03020524650
:100C90000D999047761CB8F10001A8F10108F5DC28
:100CA00005E019F8010B52460D999047761CBBF1EF
:100CB0000001ABF1010BF4DC6D1C34E709280100E5
:100CC000002100E0491C00EBC00202EB0012B1EB76
:100CD000820FF7D37047000070B504460D46E1B2AD
:100CE0000548FFF7EBFE00BF80210348FFF76CFECD
:100CF0000028F9D0204670BD003801401CB5002402
:100D0000FFF73AFB0BA0FFF7DFFE0F48012100239E
:100D10008022CDE900100DA1104801F0E5F904464C
:100D2000012C02D100F030FE02E00DA0FFF7CCFE56
:100D300000BFFEE7D3B2BCFEB3F5CABCBBAFCDEA81
:100D4000B3C90D0A00000000280000204170705453
:100D500061736B437265617465000000790200087D
:100D6000C8CECEF1B4B4BDA8CAA7B0DC0D0A00004D
:100D70002DE9F04105460E461C4807681C480068EE
:100D8000001D00F0B7FB50B91948006890F82C100E
:100D90000120884017490968814316480160681C92
:100DA00038B936B112480168091D134800F0E0FB5C
:100DB0001AE07C190E4800684460BC4207D20C4817
:100DC0000168091D0D48006800F0B8FB0CE00848F8
:100DD0000168091D0A48006800F0B0FB0948006876
:100DE000844201D207480460BDE8F0814C00002035
:100DF0003800002050000020700300204000002038
:100E00003C0000206800002010B5044600F0BCFB48
:100E100023480068401C224908602248006840B905
:100E2000204804600846006801280DD100F094F9BC
:100E30000AE01D48006838B91A480068C06AE16ACB
:100E4000884201D81748046018480068401C1749B8
:100E5000086094F82C10012088401549096808435F
:100E600013490860E16A01EB8101124A02EB81003B
:100E7000211D00F07DFB00F0C9FB0B48006868B144
:100E800008480068C06AE16A884207D24FF0805083
:100E900009490860BFF34F8FBFF36F8F10BD00008B
:100EA000480000203800002054000020640000208A
:100EB00050000020A000002004ED00E070B523E009
:100EC00000F0B6FD1348006808B9012000E00020DA
:100ED000054601F057FABDB900F056FB0D48C06851
:100EE000C468201D00F006FB0B480068401E0A493C
:100EF00008600A480068401E0849086000F086FB48
:100F0000204600F057F800BF044800680028D7D1F9
:100F100070BD00005C030020480000204400002059
:100F200070B504460D46206C70B1216CE068084431
:100F3000E0606168E068884201D32068E06028468C
:100F4000226CE168FFF75EF970BD2DE9F0410446BF
:100F50000F4615464FF00008A66B206C28B37DB9EC
:100F60003946226CA068FFF74DF9216CA06808444F
:100F7000A060D4E90110884217D32068A06014E073
:100F80003946226CE068FFF73DF9216CE068401AB1
:100F9000E0602168E068884203D2216C6068401AF2
:100FA000E060022D01D106B1761E701CA0634046A0
:100FB000BDE8F08110B50446206B00F05DFB2046D3
:100FC00000F05AFB10BD000030B54FF41043174835
:100FD00000F007042CB1C01D20F00700134C041BC7
:100FE0001B1B0246124C22600024114D6C60D0186D
:100FF000083820F007000F4C206000240D4D2D68AC
:101000006C600C4D2D682C601146441A4C60094CE4
:1010100024680C60084D4C682C60084D4C682C60AE
:101020004FF00044064D2C6030BD000084030020CA
:10103000740000207C00002084000020800000203C
:101040008800002000BFFFF739FF0648006801282C
:10105000F9D94FF0805004490860BFF34F8FBFF3B8
:101060006F8FF0E7A000002004ED00E02DE9F041D3
:1010700006460D4617469846069C0DB9246000E0CA
:101080002760E66325640121204600F0ADFEBDE83F
:10109000F08100002DE9FF5F81460E469246DDE9B2
:1010A0000E7B109CAAF10100216B01EB800828F057
:1010B000070808F0070008B9012000E0002028B95F
:1010C00040F22B321AA120A0FFF7FEFC002507E01A
:1010D000715D04F134004155705D00B902E06D1C92
:1010E000102DF5D300BF002143200155202F00D340
:1010F0001F27E762201D00F01EFA04F1180000F01F
:101100001AFA2461C7F12000A061646200206064C3
:1011100084F8480049464046039A00F0D9F9206017
:10112000BBF1000F01D0CBF80040BDE8FF9F0000ED
:101130002E2E5C4672656552544F535C7372635C2D
:101140007461736B732E63004572726F723A25730C
:101150002C25640D0A00000010B5002407E004EB04
:1011600084010F4A02EB810000F0D8F9641C202CA6
:10117000F5D30C4800F0D2F90B4800F0CFF90B483A
:1011800000F0CCF90A4800F0C9F90A4800F0C6F9A5
:1011900004480949086004480849086010BD000077
:1011A000A00000202003002034030020480300207A
:1011B0005C030020700300203C0000204000002061
:1011C00010B50146164800E0006803688B42FBD367
:1011D0000246436813448B4204D143684C6823445D
:1011E000436001460A464B6813440468A34211D188
:1011F0000C4C03682468A34208D04B6804686468F8
:1012000023444B6003681B680B6005E0054B1B68BB
:101210000B6001E003680B60884200D0016010BDE4
:10122000740000207C00002070B5054600F0ACF989
:10123000A86B08B9012400E0002400F0E7F920467B
:1012400070BD70B5054600F09FF9A86BE96B884248
:1012500001D1012400E0002400F0D8F9204670BD3F
:101260000A490968096809B9012100E0002121B192
:101270004FF0FF31064A116006E004490968C96869
:10128000C868034A41681160704700003C000020B4
:10129000680000200B480068401C08B9012000E0ED
:1012A000002020B9F42208A111A0FFF70DFC00BF17
:1012B000502080F31188BFF34F8FBFF36F8F00BFB3
:1012C00000BFFEE78C0000202E2E5C467265655242
:1012D000544F535C706F72745C525644535C41526D
:1012E0004D5F434D335C706F72742E6300000000DD
:1012F0004572726F723A25732C25640D0A00000046
:1013000070B5044600F040F994F9455010E0606A69
:1013100008B9012000E0002038B904F1240000F0F1
:10132000D5FF18B100F0D6FA00E003E0681E45B220
:10133000002DECDC00BFFF2084F8450000F066F9CA
:1013400000F022F994F9445010E0206908B9012016
:1013500000E0002048B904F1100000F0B7FF08B128
:1013600000F0B8FA681E45B200E001E0002DECDCA8
:1013700000BFFF2084F8440000F048F970BD000071
:101380002DE9F04104464FF0000800F051FB3E48C3
:10139000006808B9FFF718FE3C48006820400028A4
:1013A0005FD1A4B1083404F0070080B104F0070055
:1013B000C0F10800044404F0070008B9012000E06F
:1013C000002020B9BF2232A13AA0FFF77DFB002CFC
:1013D00047D03C480068844243D83B4E30460568BD
:1013E00001E02E462D686868A04202D228680028D5
:1013F000F7D125480068854233D0306800F10808ED
:10140000286830606868001B102813D92F1907F06E
:10141000070008B9012000E0002020B9EC221CA13F
:1014200024A0FFF751FB6868001B78606C603846A9
:10143000FFF7C6FE234968680968081A2149086051
:101440000846006821490968884203D21D4800689F
:101450001E4908600D4968680968084368600020F3
:10146000286000F08FFF08F0070008B9012000E0B5
:10147000002028B94FF4967205A10EA0FFF724FBB7
:101480004046BDE8F08100007C000020880000207C
:101490002E2E5C4672656552544F535C706F7274A9
:1014A0005C4D656D4D616E675C686561705F342E83
:1014B000630000004572726F723A25732C25640D2B
:1014C0000A0000008000002074000020840000203A
:1014D000001F4FF080730360001F21F001030360C1
:1014E000001F034B0360143802602038704700006F
:1014F0009512000801460A69D1E901309860D1E9E6
:10150000010358605068884201D18868506000200B
:1015100008611068401E10601068704700F10801F3
:1015200041604FF0FF31816000F10801C16001614D
:1015300000210160704700210161704710B502462B
:101540000B685C1C0CB9106907E002F1080000E0B0
:101550004068446824689C42FAD944684C604C68EE
:10156000A160886041600A611468641C146010BD49
:1015700042684A6093688B60936859609160086123
:1015800003685B1C0360704710B500BF502080F3F8
:101590001188BFF34F8FBFF36F8F00BF0B480068F8
:1015A000401C0A4908600846006801280DD1084817
:1015B0000068C0B208B9012000E0002028B94FF44B
:1015C000BD7204A10DA0FFF77FFA10BD8C000020B2
:1015D00004ED00E02E2E5C4672656552544F535C5C
:1015E000706F72745C525644535C41524D5F434D70
:1015F000335C706F72742E63000000004572726F6E
:10160000723A25732C25640D0A00000010B50B48B2
:10161000006828B940F2811209A113A0FFF754FA1B
:1016200006480068401E054908600846006820B961
:10163000002080F3118800BF00BF10BD8C00002087
:101640002E2E5C4672656552544F535C706F7274F7
:101650005C525644535C41524D5F434D335C706F56
:1016600072742E63000000004572726F723A257327
:101670002C25640D0A00000070B506463546002E84
:1016800035D0083D2C461A4960680968084008B101
:10169000012000E0002028B94FF4A07215A11EA07F
:1016A000FFF712FA206808B9012000E0002028B9ED
:1016B00040F241120FA118A0FFF706FA0C4960682A
:1016C0000968084098B1206888B9094960680968C4
:1016D0008843606000F0ACF9134960680968084409
:1016E000114908602046FFF76BFD00F04BFE70BD0E
:1016F000880000202E2E5C4672656552544F535C64
:10170000706F72745C4D656D4D616E675C6865618C
:10171000705F342E630000004572726F723A257359
:101720002C25640D0A000000800000200648006897
:101730004FF47A71B0FBF1F0401E4FF0E0214861A8
:1017400007200861704700000000002070B50446C3
:101750000025ACB10F48006808B9012000E0002066
:1017600028B940F2CF420CA111A0FFF7ADF900F06B
:101770005FF900212046FFF7FBFA00F003FE054663
:101780003DB94FF080500E490860BFF34F8FBFF353
:101790006F8F70BD700000202E2E5C467265655202
:1017A000544F535C7372635C7461736B732E63008C
:1017B0004572726F723A25732C25640D0A00000081
:1017C00004ED00E070B50546FFF7DEFE15B92D48C3
:1017D000006800E028460446201DFFF78BFE78B91C
:1017E000E06A00EB8000284951F8200040B994F8E5
:1017F0002C10012088402549096881432348016055
:10180000A06A18B104F11800FFF774FE20480068C0
:10181000401C1F4908601B480068844209D1211DF3
:101820001C48FFF7A5FE1C480068401C1A490860C8
:1018300009E01A480068401E184908602046FFF772
:10184000B9FBFFF70DFDFFF7E1FE15480068C0B1D9
:101850000C480068844214D11248006808B901207D
:1018600000E0002028B940F265420FA114A0FFF764
:101870002BF94FF0805016490860BFF34F8FBFF32C
:101880006F8F70BD38000020A000002050000020A5
:10189000640000205C030020440000204800002079
:1018A00054000020700000202E2E5C4672656552A8
:1018B000544F535C7372635C7461736B732E63007B
:1018C0004572726F723A25732C25640D0A00000070
:1018D00004ED00E001200149086070475C00002031
:1018E00070B504460D462CB940F6063207A10DA08E
:1018F000FFF7EAF80F48016818312046FFF71EFE8F
:1019000001212846FFF734FA70BD00002E2E5C46F8
:1019100072656552544F535C7372635C7461736B90
:10192000732E63004572726F723A25732C25640D15
:101930000A0000003800002010B504462CB940F61B
:10194000C13205A10AA0FFF7BFF80D48006820606A
:101950000C480068606010BD2E2E5C4672656552B2
:10196000544F535C7372635C7461736B732E6300CA
:101970004572726F723A25732C25640D0A000000BF
:10198000600000204C0000201CB5184800210B46C8
:101990008022CDE9001016A1174800F0A5FB0446EF
:1019A000012C15D100BF502080F31188BFF34F8F59
:1019B000BFF36F8F00BF4FF0FF3010490860012068
:1019C0000F49086000200F49086000F08FF80BE015
:1019D000601C08B1012000E0002028B940F28472A8
:1019E00009A10FA0FFF770F81CBD00006C000020DB
:1019F00049444C45000000004510000868000020E4
:101A0000540000204C0000202E2E5C46726565526A
:101A1000544F535C7372635C7461736B732E630019
:101A20004572726F723A25732C25640D0A0000000E
:101A300002480068401C014908607047700000209F
:101A400010B51B48006818B101201A4908602DE044
:101A500000201849086018480068B0FA80F0C0F10A
:101A60001F0404EB8400154951F8200008B101203F
:101A700000E0002028B940F6F62211A116A0FFF7D9
:101A800023F804EB84010D4A02EB810041684968A8
:101A9000416000F1080142688A4202D14168496808
:101AA00041604168C968104A116000BF10BD000064
:101AB000700000205C00002050000020A0000020EA
:101AC0002E2E5C4672656552544F535C7372635C94
:101AD0007461736B732E63004572726F723A257373
:101AE0002C25640D0A000000380000201CB5224897
:101AF000014609780191FF210246117001460978DB
:101B000000919DF8001001F050011C4A117007214E
:101B10001B4A116009E01A490968491E184A1160F8
:101B20009DF800104906090E00919DF8001001F083
:101B300080018029EFD0124909680902104A11601A
:101B40001146098801F4E06111600B4A0199117096
:101B50000C48006840F470000A49086008460068B4
:101B600040F070400860FFF7E1FD00200649086082
:101B7000FEF7FCFA00201CBD00E400E0900000200D
:101B80009400002020ED00E08C00002010B500BF84
:101B9000502080F31188BFF34F8FBFF36F8F00BFCA
:101BA00000F0E2FA18B14FF080500449086000BF1D
:101BB000002080F3118800BF10BD000004ED00E09C
:101BC0002DE9F84305460E4690460DB1012000E090
:101BD000002028B94FF4C4720DA113A0FEF774FFC2
:101BE0000EB9002701E005FB06F707F14800FFF7F3
:101BF000C7FB044644B104F1480943464A4631460E
:101C000028460094FFF732FA2046BDE8F88300002A
:101C10002E2E5C4672656552544F535C7372635C42
:101C200071756575652E63004572726F723A257322
:101C30002C25640D0A0000002DE9FF4782B00546FF
:101C40000E461F464FF0000A2C462CB940F2DC42EB
:101C50005AA160A0FEF738FF0EB9206C08B9012028
:101C600000E0002028B940F2DD4254A159A0FEF75F
:101C70002BFF00F069FA08B9049808B9012000E0C8
:101C8000002028B94FF49C624CA152A0FEF71CFF23
:101C900000BFFFF779FCD4F83890B9F1000F38D0C5
:101CA000D4F80C8031462046FFF73AF9B7B9A9F1CC
:101CB0000100A063206908B9012000E0002010BBEA
:101CC00004F1100000F002FBE8B14FF080504549EC
:101CD0000860BFF34F8FBFF36F8F14E0C4F80C8020
:101CE000606A08B9012000E0002060B904F1240016
:101CF00000F0ECFA38B14FF080503A490860BFF379
:101D00004F8FBFF36F8FFFF781FC012006B0BDE856
:101D1000F087049818B9FFF779FC0020F6E7BAF1CC
:101D2000000F04D16846FFF707FE4FF0010AFFF7E6
:101D30006DFCFFF77DFEFFF727FC94F94400401C83
:101D400010B9002084F8440094F94500401C10B9F3
:101D5000002084F84500FFF759FC04A9684600F00C
:101D600071F9F0B92046FFF75FFAA0B104F1240041
:101D70000499FFF7B5FD2046FFF7C2FA00F002FB19
:101D8000002886D14FF0805016490860BFF34F8F6E
:101D9000BFF36F8F7DE72046FFF7B2FA00F0F2FA4B
:101DA00077E72046FFF7ACFA00F0ECFA2046FFF7A1
:101DB0003BFA0028EED00020A8E700002E2E5C465B
:101DC00072656552544F535C7372635C71756575CF
:101DD000652E63004572726F723A25732C25640D6F
:101DE0000A00000004ED00E070B505460E462C46E2
:101DF0002CB940F21B121EA123A0FEF765FEFFF7CF
:101E0000C3FBD4E90F12206801FB020060600020D0
:101E1000A0632068A060E06B401E226C216800FB7C
:101E20000210E060FF2084F8440084F845009EB969
:101E3000206908B9012000E00020A8B904F11000D1
:101E400000F044FA80B14FF0805013490860BFF3AE
:101E50004F8FBFF36F8F07E004F11000FFF75EFBB9
:101E600004F12400FFF75AFBFFF7D0FB012070BDFF
:101E70002E2E5C4672656552544F535C7372635CE0
:101E800071756575652E63004572726F723A2573C0
:101E90002C25640D0A00000004ED00E02DE9FF434D
:101EA00083B0064688461D464FF0000934462CB9DB
:101EB00040F2D92258A15EA0FEF706FEB8F1000F4D
:101EC00001D1206C08B9012000E0002028B940F2BF
:101ED000DA2251A156A0FEF7F7FD022D02D1E06BE8
:101EE000012801D1012000E0002028B940F2DB22C6
:101EF00049A14FA0FEF7E8FD00F026F908B90598C2
:101F000008B9012000E0002028B940F2DE2242A1F9
:101F100047A0FEF7D9FD00BFFFF736FBA06BE16BD2
:101F2000884201D3022D28D12A4641462046FFF798
:101F30000CF80746606A08B9012000E0002068B983
:101F400004F1240000F0C2F988B14FF080503C4900
:101F50000860BFF34F8FBFF36F8F08E03FB14FF0C2
:101F6000805037490860BFF34F8FBFF36F8FFFF783
:101F70004DFB012007B0BDE8F083059818B9FFF7C5
:101F800045FB0020F6E7B9F1000F04D101A8FFF7E7
:101F9000D3FC4FF00109FFF739FBFFF749FDFFF7CD
:101FA000F3FA94F94400401C10B9002084F844006E
:101FB00094F94500401C10B9002084F84500FFF753
:101FC00025FB05A901A800F03DF8F0B92046FFF770
:101FD00038F9A0B104F110000599FFF781FC204603
:101FE000FFF78EF900F0CEF9002895D14FF0805020
:101FF00013490860BFF34F8FBFF36F8F8CE7204604
:10200000FFF77EF900F0BEF986E72046FFF778F982
:1020100000F0B8F90020ADE72E2E5C4672656552DF
:10202000544F535C7372635C71756575652E630004
:102030004572726F723A25732C25640D0A000000F8
:1020400004ED00E02DE9F04104460D462CB940F6C0
:10205000CB3219A11EA0FEF737FD2DB940F6CC32C8
:1020600015A11BA0FEF730FDFFF78EFA1C4807688C
:102070002868401C08B9002619E01A492068096838
:10208000884204D06068B84201D801260FE0606839
:10209000381A2968884209D228686168791A401A72
:1020A00028602046FFF748FC002600E00126FFF7E5
:1020B000ADFA3046BDE8F0812E2E5C467265655261
:1020C000544F535C7372635C7461736B732E630063
:1020D0004572726F723A25732C25640D0A00000058
:1020E0004C000020600000202DE9FF4F85B08046A5
:1020F00089461746DDE912ABB800FFF741F90646FD
:1021000056B14C20FFF73CF904460CB1266304E0BD
:102110003046FFF7B1FA00E000247CB10020CDE9A1
:1021200000ABCDE902403A4649464046089BFEF7DF
:10213000B1FF2046FEF768FE012501E04FF0FF35B4
:10214000284609B0BDE8F08F0549096809B90120A2
:1021500005E00449096809B9022000E00020704741
:1021600054000020700000202DE9F0414FF00008DD
:1021700041480068002872D140480068451C3F482B
:102180000560EDB93E480068006808B9012000E02C
:10219000002028B940F6D9123AA140A0FEF794FCDD
:1021A0003748076841480068354908603F4807607C
:1021B0003F480068401C3E490860FFF751F800BFE7
:1021C0003C48006885423CD300BF2D480068006849
:1021D00008B9012000E0002020B14FF0FF30354960
:1021E00008602DE026480068C068C4686668B5428B
:1021F00002D23048066023E0201DFFF77BF9A06A79
:1022000018B104F11800FFF775F994F82C100120AB
:10221000884029490968084327490860E16A01EBB9
:102220008101264A02EB8100211DFFF7A1F9244913
:10223000E06A0968C96A8842C7D34FF00108C4E759
:1022400000BF1F480068C06A00EB80001B4951F8BE
:102250002000012801D94FF0010805E0FFE71948E7
:102260000068401C174908601748006808B14FF023
:1022700001084046BDE8F081700000204C000020BD
:102280003C0000202E2E5C4672656552544F535C14
:102290007372635C7461736B732E63004572726F4B
:1022A000723A25732C25640D0A00000040000020BE
:1022B000600000206800002050000020A0000020E6
:1022C00038000020580000205C00002070B5064651
:1022D000F068C4682CB940F661321AA11FA0FEF75D
:1022E000F3FB04F11800FFF705F920480068A8B9CE
:1022F000201DFFF7FFF894F82C10012088401C499E
:10230000096808431A490860E16A01EB8101194A2A
:1023100002EB8100211DFFF72BF904E004F1180105
:102320001548FFF725F91549E06A0968C96A884226
:1023300004D9012501201249086000E00025284643
:1023400070BD00002E2E5C4672656552544F535C82
:102350007372635C7461736B732E63004572726F8A
:10236000723A25732C25640D0A00000070000020CD
:1023700050000020A000002048030020380000206A
:102380005C00002070B5002400263448006828B99D
:102390004FF4FD6232A138A0FEF796FBFFF7F4F888
:1023A0002E480068401E2D49086008460068002835
:1023B0004FD13548006800284BD024E03348C0682E
:1023C000C46804F11800FFF795F8201DFFF792F894
:1023D00094F82C10012088402D49096808432C49A5
:1023E0000860E16A01EB81012A4A02EB8100211DAC
:1023F000FFF7BEF82849E06A0968C96A884202D333
:102400000120264908602148006808B9012000E041
:1024100000200028D2D00CB1FEF722FF204805682A
:1024200065B100BFFFF7A0FE10B101201B49086095
:102430006D1E002DF6D1002019490860174800686C
:1024400038B10126300717490860BFF34F8FBFF33B
:102450006F8FFFF7DBF8304670BD00007000002082
:102460002E2E5C4672656552544F535C7372635CEA
:102470007461736B732E63004572726F723A2573C9
:102480002C25640D0A0000004800002048030020AD
:1024900050000020A0000020380000205C00002038
:1024A0005800002004ED00E0C824000800000020CF
:1024B000A0000000E80A000868250008A00000202D
:1024C000E8960000F80A000800A24A040000000094
:1024D00000000000010203040607080900000000D4
:1024E00001020304010203040607080902040608A6
:1024F00000000000000000000000000000000000DC
:1025000000000000000000000000000000000000CB
:1025100000000000000000000000000000000000BB
:1025200000000000000000000000000000000000AB
:10253000000000000000000000000000000000009B
:10254000000000000000000000000000000000008B
:1025500000000000AAAAAAAA0000000000000000D3
:08256000010000000000000072
:0400000508000131BD
:00000001FF
