:020000040800F2
:1000000070340020790200089D0A000843090008A6
:10001000990A0008F9070008111200080000000002
:10002000000000000000000000000000E1010008E6
:100030001508000800000000250200080D0E000849
:10004000930200089302000893020008930200083C
:10005000930200089302000893020008930200082C
:10006000930200089302000893020008930200081C
:10007000930200089302000893020008930200080C
:1000800093020008930200089302000893020008FC
:1000900093020008930200089302000893020008EC
:1000A00093020008930200089302000893020008DC
:1000B00093020008930200089302000893020008CC
:1000C00093020008930200089302000893020008BC
:1000D00093020008930200089302000893020008AC
:1000E000930200089302000893020008930200089C
:1000F000930200089302000893020008930200088C
:10010000930200089302000893020008930200087B
:100110009302000893020008D10E00089302000821
:10012000930200089302000893020008930200085B
:1001300000F002F800F045F80AA090E8000C8244B4
:100140008344AAF10107DA4501D100F03AF8AFF291
:10015000090EBAE80F0013F0010F18BFFB1A43F0A5
:1001600001031847F436000014370000103A24BF8A
:1001700078C878C1FAD8520724BF30C830C144BF0C
:1001800004680C607047000000230024002500264E
:10019000103A28BF78C1FBD8520728BF30C148BFEA
:1001A0000B607047642900F00781752900F0048115
:1001B000732900F08082002070471FB51FBD10B565
:1001C00010BD00F0E7FA1146FFF7F7FF01F010F954
:1001D00000F005FB03B4FFF7F2FF03BC01F01AF8CF
:1001E000224B19680868B0E8F00F80F30988BFF364
:1001F0006F8F4FF0000080F311884EF00D0E7047A6
:100200000000000006480068006880F3088862B6B5
:1002100061B6BFF34F8FBFF36F8F00DF00BF00BF2A
:1002200008ED00E0EFF30980BFF36F8F0F4B1A6802
:1002300020E9F00F106008B54FF0500080F31188EE
:10024000BFF34F8FBFF36F8F02F052FC4FF00000EF
:1002500080F31188BDE8084019680868B0E8F00F1D
:1002600080F30988BFF36F8F704700BF4400002000
:10027000EFF30580704700000948804709480047B0
:10028000FEE7FEE7FEE7FEE7FEE7FEE7FEE7FEE746
:10029000FEE7FEE704480549054A064B70470000A3
:1002A000710E000831010008702E0020703400200B
:1002B0007030002070300020704700000FB40449F7
:1002C00010B503AA029800F0FBF910BC5DF814FB0E
:1002D000180000200FB41CB5074B06AA7B446946E2
:1002E0000090059800F0BDF90020694600F0CCF9B7
:1002F0001CBC5DF814FB0000A90300002DE9F041CF
:100300000E460446002020622046E168884730B34C
:10031000252805D0D4E901219047206A401CF2E746
:10032000E168204600278847050018D0A5F1410064
:10033000192802D820354FF4006732462946204656
:100340002760FFF72FFF40B1012804D0F61D26F0EB
:1003500007060836D8E7361DD6E72846DAE7206ACA
:10036000BDE8F08170B50C460546012A05D0287815
:10037000800600D5EA69002302E0012305E05B1C4A
:10038000934202D2E05C0028F9D1A869E618C01AAD
:10039000A861286A184428622846AFF3008004E068
:1003A000D5E9012114F8010B9047B442F8D328464F
:1003B000AFF3008070BD00002DE9F0410646002437
:1003C00010687529314616A510D0AFF300800028BB
:1003D00002DA404213A507E031688A0701D512A569
:1003E00002E0490704D511A5012401E0AFF3008024
:1003F00000210A2206F1240709E0B0FBF2FCB0FB61
:10040000F2F302FB1C00303078541846491C0028D7
:10041000F3D123462A463046BDE8F04100F0C3B888
:10042000000000002D0000002B0000002000000054
:1004300040EA0103024630B59B0710D14FF001346A
:1004400000E008C208C91D1B9D4315EAC41FF8D06F
:1004500013F0FF0102F8011B0DD01B0AF8E711F899
:10046000013B002B02F8013B05D011F8013B002BAA
:1004700002F8013BF3D130BD10B5431C02E010F887
:10048000011B71B18107FAD14FF0013202C88C1AF9
:100490008C4314EAC211F9D0C01A0A0603D0C01E58
:1004A00010BDC01A10BD0A0401D0801E10BD090283
:1004B000FCD0401E10BD032A40F2308010F0030C27
:1004C00000F0158011F8013BBCF1020F624498BFA7
:1004D00011F801CB00F8013B38BF11F8013BA2F144
:1004E000040298BF00F801CB38BF00F8013B11F0BF
:1004F000030300F0F780083AC0F0088051F8043B8D
:10050000083A51F804CBA0E80810F5E7121D5CBFCB
:1005100051F8043B40F8043BAFF30080D20724BFFE
:1005200011F8013B11F801CB48BF11F8012B24BF92
:1005300000F8013B00F801CB48BF00F8012B7047E1
:1005400002F0FF0343EA032242EA024200F0FEB84F
:100550004FF0000200B5134694469646203922BF5C
:10056000A0E80C50A0E80C50B1F12001BFF4F7AFA7
:10057000090728BFA0E80C5048BF0CC05DF804EB89
:10058000890028BF40F8042B08BF704748BF20F8F7
:10059000022B11F0804F18BF00F8012B70477047F5
:1005A0007047704770472DE9F0470D4699469246CF
:1005B000044600F124080168880604D5E06921F0AA
:1005C0001001216000E00120A84201DD471B00E08E
:1005D0000027A1697A1902EB0900081AA0612078A6
:1005E000C00602D42046AFF30080002608E0D4E91C
:1005F00001211AF806009047206A401C761C2062F0
:100600004E45F4DB2078C0060AD52046AFF30080C3
:1006100006E0D4E9012130209047206A401C206286
:10062000381EA7F10107F4DC07E0D4E9012118F82E
:1006300005009047206A401C2062281EA5F1010594
:10064000F3DC2046AFF300802078000602D50220BC
:10065000BDE8F0870120FBE701694A1C02610878C8
:10066000704700B58FB0CDE90131002105910549F2
:100670007944CDE9031011466846FFF73FFE0FB0FD
:1006800000BD0000E5FFFFFF0A6802F8010B0A60E9
:10069000704710B5436913B1AFF3008001E0FFF775
:1006A00061FE012010BD127800F124010A700022C1
:1006B0004A700122EDE711684FF0FF32E9E70000D0
:1006C000074B70B50D467B44FFF7CBFF0446284629
:1006D00000F05CF810B14FF0FF3070BD204670BDE7
:1006E0007F0C000010B5203AC0F00B80B1E8185024
:1006F000203AA0E81850B1E81850A0E81850BFF40C
:10070000F5AF5FEA027C24BFB1E81850A0E81850AA
:1007100044BF18C918C0BDE810405FEA827C24BFFE
:1007200051F8043B40F8043B08BF7047D20728BF8C
:1007300031F8023B48BF11F8012B28BF20F8023BDB
:1007400048BF00F8012B70474FF000020429C0F0A9
:10075000128010F0030C3FF4FDAECCF1040CBCF1A0
:10076000020F18BF00F8012BA8BF20F8022BA1EB45
:100770000C01FFF7EFBE5FEAC17C24BF00F8012B3C
:1007800000F8012B48BF00F8012B7047007B00F0F8
:1007900080007047754600F02BF8AE4605006946AC
:1007A000534620F00700854618B020B5FFF772FDCC
:1007B000BDE820404FF000064FF000074FF0000862
:1007C0004FF0000B21F00701AC46ACE8C009ACE8E3
:1007D000C009ACE8C009ACE8C0098D46704710B547
:1007E0000446AFF300802046BDE81040FFF7F2BC9E
:1007F000004870470C2E002000BFFEE710B54821CE
:10080000092000F079FB00200149086010BD0000BC
:100810003400002070472DE9F041024600250026F3
:10082000002000230024002791F803C00CF00F05DE
:1008300091F803C00CF0100CBCF1000F03D091F83C
:1008400002C04CEA050591F800C0BCF1000F31D0A0
:10085000146800202BE04FF0010C0CFA00F3B1F803
:1008600000C00CEA03069E4220D183004FF00F0C1B
:100870000CFA03F7BC4305FA03FC4CEA040491F8B4
:1008800003C0BCF1280F06D14FF0010C0CFA00FC9C
:10089000C2F814C00AE091F803C0BCF1480F05D1BA
:1008A0004FF0010C0CFA00FCC2F810C0401C0828E4
:1008B000D1D31460B1F800C0BCF1FF0F34DD54682F
:1008C00000202EE000F1080C4FF0010808FA0CF3AC
:1008D000B1F800C00CEA03069E4221D183004FF01C
:1008E0000F0C0CFA03F7BC4305FA03FC4CEA0404B2
:1008F00091F803C0BCF1280F05D100F1080C08FAEB
:100900000CF8C2F8148091F803C0BCF1480F07D16D
:1009100000F1080C4FF0010808FA0CF8C2F810803A
:10092000401C0828CED35460BDE8F0810246002068
:1009300093680B400BB1012000E00020704701617B
:10094000704700BFFEE7000008B50121042000F059
:10095000F9F80121402000F0F5F81820ADF800006A
:1009600048208DF8030069460648FFF754FF012030
:10097000ADF8000028208DF8030069460248FFF713
:100980004AFF08BD001801400008014010B50024CE
:100990002948007800283AD001212848FFF7C6FFEF
:1009A000012809D010212648FFF7C0FF20B10821F7
:1009B0002348FFF7BBFF10BB0A2000F02DFC0121EC
:1009C0001E48FFF7B3FF012809D010211C48FFF78C
:1009D000ADFF20B108211A48FFF7A8FF78B9002021
:1009E0001549087010211648FFF7A0FF08B9012427
:1009F0000DE008211248FFF799FF08B9022406E02C
:100A000001210E48FFF792FF012800D103240121A4
:100A10000A48FFF78BFF68B910210948FFF786FFE6
:100A2000012807D108210648FFF780FF012801D1DE
:100A300001490870204610BD300000200008014028
:100A40000018014008B50121082000F07BF80121C1
:100A5000402000F077F82020ADF8000010208DF83D
:100A6000030003208DF8020069460948FFF7D3FE12
:100A70002020ADF8000069460648FFF7CCFE202193
:100A80000348FFF75CFF20210248FFF758FF08BD2D
:100A9000000C01400018014000BFFEE77047000055
:100AA00070B5002100230F22C47804B3154C2468CC
:100AB00004F4E064C4F5E064210AC1F10403CA400F
:100AC000447804FA03F184781440214309010E4C60
:100AD0000678A155047804F01F050124AC40057880
:100AE0006D11AD0005F1E025C5F8004109E004787D
:100AF00004F01F050124AC40044D0678761145F83A
:100B0000264070BD0CED00E000E400E080E100E074
:100B100002490143024A1160704700000000FA05D3
:100B20000CED00E029B1064AD2690243044BDA61B8
:100B300004E0034AD2698243014BDA617047000046
:100B40000010024029B1064A92690243044B9A619F
:100B500004E0034A92698243014B9A6170470000A6
:100B60000010024030B500210022002400232D4D4A
:100B70006D6805F00C0121B1042905D0082923D1A5
:100B800005E0294D056022E0274D05601FE0254D59
:100B90006D6805F47012234D6D6805F480340225EC
:100BA00005EB92421CB9214D554305600BE01D4DEC
:100BB0006D6805F400351DB11C4D5543056002E01C
:100BC000194D5543056002E0174D056000BF00BF99
:100BD000144D6D6805F0F0010909154D6B5C056851
:100BE000DD4045600F4D6D6805F4E061090A104D68
:100BF0006B5C4568DD4085600A4D6D6805F46051A9
:100C0000C90A0B4D6B5C4568DD40C560054D6D68DC
:100C100005F44041890B074D6B5CC568B5FBF3F5E6
:100C2000056130BD0010024000127A0000093D004D
:100C30001C0000202C00002010B500F001F810BDB1
:100C40000CB50020019000903348006840F48030DB
:100C50003149086000BF3048006800F4003000905F
:100C60000198401C0190009818B90198B0F5A06F48
:100C7000F1D12948006800F4003010B10120009043
:100C800001E0002000900098012843D1234800682B
:100C900040F01000214908600846006820F0030079
:100CA00008600846006840F0020008601A48406882
:100CB000194948600846406848600846406840F462
:100CC000806048600846406820F47C104860084610
:100CD000406840F4E81048600846006840F08070C2
:100CE000086000BF0C48006800F000700028F9D0D0
:100CF0000948406820F003000749486008464068FA
:100D000040F00200486000BF0348406800F00C005B
:100D10000828F9D10CBD000000100240002002405C
:100D20007CB50546012401F0F3FA174801210023A0
:100D30004022CDE9001015A1164802F00BFA044636
:100D4000012C03D114A0FFF7B9FA02E018A0FFF7B5
:100D5000B5FA1D48022100234022CDE900101BA155
:100D60001C4802F0F7F90446012C03D11AA0FFF742
:100D7000A5FA02E01EA0FFF7A1FA2348006801F0DF
:100D800083FC01F00FFB7CBD3C0000205461736BC1
:100D900031000000451000085461736B31C8CECE9D
:100DA000F1B4B4BDA8B3C9B9A6210D0A0000000072
:100DB0005461736B31C8CECEF1B4B4BDA8CAA7B02C
:100DC000DC210D0A00000000400000205461736B1C
:100DD00032000000751000085461736B32C8CECE2B
:100DE000F1B4B4BDA8B3C9B9A6210D0A0000000032
:100DF0005461736B32C8CECEF1B4B4BDA8CAA7B0EB
:100E0000DC210D0A000000003800002010B502F0BF
:100E1000D1F9012801D001F08FFF10BD10B50022DB
:100E20004FF0E0231A611A46126922F004021A6197
:100E3000C31700EB5373C3F3CF030C4C2380C317CA
:100E400000EB5373D9104FF47A7251434FF0E02204
:100E5000126942F002024FF0E0231A611A46516112
:100E6000126942F001021A6110BD00001400002056
:100E700010B51348006840F00100114908600846A9
:100E80004068104908400E494860084600680E490D
:100E900008400B4908600846006820F4802008607C
:100EA0000846406820F4FE0048604FF41F00886048
:100EB000FFF7C2FE4FF000600449086010BD00005B
:100EC000001002400000FFF8FFFFF6FE08ED00E012
:100ED00010B50121064800F048F840B1012104484E
:100EE00000F034F803480068401C0249086010BD57
:100EF00000100040340000207FB505460C4601215B
:100F00001020FFF70FFEADF80850ADF8044001A91E
:100F10000D4800F045F836208DF8000006208DF8C9
:100F2000010000208DF8020001208DF803006846C2
:100F3000FFF7B6FD01221146034800F027F8012112
:100F4000014800F006F87FBD00100040CA4302824D
:100F5000704721B1028842F00102028004E0028859
:100F60004FF6FE731A400280704730B502460020EB
:100F700000230024158A05EA0103958905EA010486
:100F800013B10CB1012000E0002030BD1AB18389FB
:100F90000B43838102E083898B4383817047000088
:100FA000002202881D4B98420ED01D4B98420BD058
:100FB000B0F1804F08D01B4B984205D01A4B984295
:100FC00002D01A4B984204D14FF68F731A404B88C7
:100FD0001A43174B984207D0164B984204D04FF64D
:100FE000FF431A40CB881A4302808B8883850B8885
:100FF00003850A4B98420BD0094B984208D00E4B00
:10100000984205D00D4B984202D00D4B984201D129
:101010000B7A03860123838270470000002C014075
:10102000003401400004004000080040000C004073
:101030000010004000140040004001400044014006
:101040000048014000240DE0FFF7A0FC044634B145
:10105000054801F0EFFB044904A0FFF72FF90A202F
:1010600001F0CEFAF0E70000CC00002025730D0A55
:10107000000000000FE00848006880F020000649EA
:1010800008600648006880F02000044908604FF4BA
:10109000487001F0B5FAEEE70C0C01400C18014065
:1010A00010B586B00446012144F20400FFF74AFD62
:1010B0004FF40070ADF8140018208DF817000320CD
:1010C0008DF8160005A91448FFF7A5FB4FF48060C2
:1010D000ADF8140004208DF8170003208DF81600D9
:1010E00005A90D48FFF797FB01940020ADF8080013
:1010F000ADF80A00ADF80C00ADF810000C20ADF80A
:101100000E0001A9054800F017F80121034800F07E
:1011100007F806B010BD000000080140003801408B
:1011200021B1828942F40052828104E082894DF625
:10113000FF731A40828170472DE9F04786B005465B
:101140000E460024A24600BFA1460027B08900B188
:1011500000BF2F462C8A4CF6FF700440F0880443F1
:101160002C82AC894EF6F3100440B08831890843D4
:10117000718908430443AC81AC8A4FF6FF400440B8
:10118000B0890443AC8201A8FFF7ECFC1F488742FA
:1011900002D1DDF810A001E0DDF80CA0A88900F470
:1011A000004040B10AEBCA0000EB0A103168490068
:1011B000B0FBF1F807E00AEBCA0000EB0A10316857
:1011C0008900B0FBF1F86420B8FBF0F004012009BD
:1011D000642101FB1089A88900F4004040B132204D
:1011E00000EBC900B0FBF1F000F00700044308E099
:1011F000322000EB09106421B0FBF1F000F00F0089
:1012000004432C8106B0BDE8F0870000003801409F
:1012100000BFFEE700BF704730B50446002504E07C
:101220004FF47A7000F004F86D1CA542F8D330BD7D
:1012300070B5034600224FF0E02675690D4E3688E2
:1012400003FB06F44FF0E026B16910E04FF0E02612
:10125000B06988420BD0884202D20E1A324402E0B2
:101260002E1A0E4432440146A24200D300E0EDE7BC
:1012700000BF70BD140000202DE9F04707463E4630
:101280002EB940F275521DA126A0FFF717F8294884
:101290000068864201D100242DE001F039F875691B
:1012A0002548D0F800802548D0F8009001F07AF861
:1012B000454501D04D4501D102241CE0204885421E
:1012C00012D1B06A70B90324002007E006F15C0176
:1012D000095C012901D1022402E0401C0128F5DB50
:1012E00000BF08E0022406E01648854200D00DB990
:1012F000042400E001242046BDE8F0872E2E5C2E59
:101300002E5C4D6964646C6577617265735C4672CE
:10131000656552544F535C7372635C7461736B7395
:101320002E6300004572726F723A2025732C2025BF
:10133000640D0A0044000020480000204C000020FA
:10134000D0050020BC05002000BF054A128802F02D
:101350004002002AF9D0C2B2014B1B1D1A8070470F
:10136000003801401CB501240B4801210023402214
:10137000CDE9001009A10D4801F0ECFE0446012C56
:1013800003D10BA0FEF79AFF02E011A0FEF796FF33
:1013900001F040FB1CBD0000380000205374617256
:1013A000745461736B43726561746500210D0008AC
:1013B00053746172745461736B437265617465C870
:1013C000CECEF1B4B4BDA8B3C9B9A6210D0A0000B0
:1013D00053746172745461736B437265617465C850
:1013E000CECEF1B4B4BDA8CAA7B0DC210D0A00006E
:1013F00010B54FF44070FFF78BFB4820FFF70EFD50
:101400004FF4E130FFF74CFEFFF71CFBFFF79CFAAF
:10141000FFF7A8FF002010BD2DE9F04105460E465C
:101420002948076800202949096881F85D00274894
:101430000068001D00F0C6FE50B92448006890F80E
:101440002C1001208840224909688143204801600E
:10145000681CD8B9D6B11F4948681C49096888601A
:101460001A4982680968CA6018490968091D8268B2
:10147000516016490968091D8160164A13490968B7
:101480004A6111460968491C11601AE07C190F482D
:1014900000684460BC4207D20C480168091D0E4830
:1014A000006800F00FFF0CE008480168091D0B48B8
:1014B000006800F007FF0A480068844201D208482B
:1014C0000460BDE8F08100005800002044000020C6
:1014D0005C000020D00500204C00002048000020C7
:1014E0007400002010B5044600F012FF3148006877
:1014F000401C304908603048006840B92E480460FC
:101500000846006801280DD100F01AFA0AE02B48BD
:10151000006838B928480068C06AE16A884201D882
:101520002548046026480068401C25490860084694
:101530000068606494F82C100120884021490968F3
:10154000084320490860E16A01EB81011E4A02EB71
:1015500081014868A0608268E260211D8268516054
:101560008160E16A01EB8101174A02EB810262614D
:10157000E16A01EB8101144A52F82110491CE26A28
:1015800002EB8202104B43F8221000F00BFF0B48D5
:10159000006868B108480068C06AE16A884207D2FA
:1015A0004FF0805009490860BFF34F8FBFF36F8F32
:1015B00010BD000054000020440000206000002006
:1015C000700000205C0000200003002004ED00E01B
:1015D00010B500F09DFE10480068D0B90F4800F02B
:1015E00061FE0F4800F05EFE0C480E4908600C4892
:1015F0000D49086000221021052001F0B7FB0649C3
:1016000008600846006820B108A10348006800F09F
:1016100089FF00F0C7FE10BD94000020E405002003
:10162000F80500208C00002090000020546D7251BD
:101630000000000010B516E000F06AFE0C48C0681B
:10164000C468201D00F0BEFD0A480068401E09491C
:10165000086009480068401E0749086000F0A2FEC3
:10166000204600F05FF8044800680028E4D110BD6F
:10167000BC050020540000205000002070B5044636
:101680000D46206C70B1216CE0680144E160D4E942
:101690000210884201D32168E1602846226CE1688B
:1016A000FEF709FF70BD2DE9F04104460F461546CF
:1016B0004FF00008A66B206C48B9206800282CD198
:1016C000A06801F083FE80460020A06025E07DB97F
:1016D0003946226C6068FEF7EEFE216C60680844B3
:1016E0006060D4E90101884217D32068606014E08B
:1016F0003946226CE068FEF7DEFE216CE068411A94
:10170000E1602168E068884203D2216CA068411A38
:10171000E160022D01D106B1761E701CA063404627
:10172000BDE8F08110B50446206B00F079FE20463C
:1017300000F076FE10BD00000146084A12681268EB
:101740000AB9012200E000220A600A6822B9034AAD
:101750001268D268106800E0002070478C000020FA
:1017600030B54FF42053174800F007042CB1C01DCA
:1017700020F00700134C041B1B1B0246124C226076
:101780000024114D6C60D018083820F007000F4C71
:10179000206000240D4D2D686C600C4D2D682C6070
:1017A0001146441A4C60094C24680C60084D4C6882
:1017B0002C60084D4C682C604FF00044064D2C60A6
:1017C00030BD00000C060020AC000020B40000205A
:1017D000BC000020B8000020C800002000BFFFF7B8
:1017E00029FF064800680128F9D94FF080500449C4
:1017F0000860BFF34F8FBFF36F8FF0E70003002047
:1018000004ED00E02DE9F04106460D4617469846E6
:10181000069C0DB9246000E02760E6632564012181
:10182000204601F0EDFA84F850800020A064BDE865
:10183000F08100002DE9F05F82460F4690469B46FE
:101840000A9E0C9C4FEA8801A522206BFEF778FEC9
:10185000A8F10100216B01EB800929F0070909F0CB
:10186000070008B9012000E0002028B94FF45872A1
:1018700025A12FA0FEF722FD87B1002507E0795DA5
:1018800004F134004155785D00B902E06D1C102D63
:10189000F5D300BF00214320015502E0002084F869
:1018A0003400202E01D2012000E0002028B940F2AF
:1018B000973215A11EA0FEF701FD202E00D31F2692
:1018C000E662E66400202065201D00F0F8FC04F1CB
:1018D000180000F0F4FC2461C6F12000A0616462ED
:1018E00000206065A06584F85C0084F85D005A46BD
:1018F0005146484600F054FC20600B9808B10B9804
:101900000460BDE8F09F00002E2E5C2E2E5C4D6919
:1019100064646C6577617265735C46726565525488
:101920004F535C7372635C7461736B732E6300005E
:101930004572726F723A2025732C2025640D0A00BF
:1019400010B5002407E004EB84010F4A02EB81008C
:1019500000F0A8FC641C202CF5D30C4800F0A2FC7D
:101960000B4800F09FFC0B4800F09CFC0A4800F07C
:1019700099FC0A4800F096FC0448094908600448AC
:101980000849086010BD0000000300208005002009
:1019900094050020A8050020BC050020D0050020EB
:1019A000480000204C00002010B50146164800E019
:1019B000006803688B42FBD30246436813448B42A2
:1019C00004D143684C682344436001460A464B688F
:1019D00013440468A34211D10C4C03682468A34249
:1019E00008D04B680468646823444B6003681B6834
:1019F0000B6005E0054B1B680B6001E003680B60A2
:101A0000884200D0016010BDAC000020B40000206E
:101A10002DE9F04104460D4616461F464FF00008DA
:101A200065602461B5420CD8F01BA169884202D3DD
:101A30004FF0010811E0211D0948006800F042FC48
:101A40000BE0BE4204D2BD4202D34FF0010804E0D5
:101A5000211D0448006800F035FC4046BDE8F081D7
:101A6000900000208C00002070B5054600F050FC6E
:101A7000A86B08B9012400E0002400F093FC204684
:101A800070BD2DE9F04707460C46904600262068B9
:101A900048B3204641684968416000F10801426846
:101AA0008A4202D14168496841604168D1F80C908E
:101AB00000BF204641684968416000F10801426862
:101AC0008A4202D14168496841604168CD6806EBAD
:101AD000C60007EB800143460122284600F068FE5D
:101AE000761C4D45E5D13046BDE8F087F1B500984C
:101AF000846C00262CB940F6D43220A129A0FEF730
:101B0000DDFBA06BE16B884201D2012000E00020E8
:101B100028B940F6D53219A122A0FEF7CFFBA06B61
:101B2000E16B884227D294F945500022694620464D
:101B3000FFF7B9FD0646681C60B9606A08B9012064
:101B400000E00020B0B904F1240001F0C9FC88B124
:101B500001260FE07F2D01D0012000E0002028B9F0
:101B600040F6F53205A10FA0FEF7A8FB681C40B2B5
:101B700084F8450000BF3046F8BD00002E2E5C2ED4
:101B80002E5C4D6964646C6577617265735C467246
:101B9000656552544F535C7372635C71756575650E
:101BA0002E6300004572726F723A2025732C202537
:101BB000640D0A0070B505460E460E480068C06800
:101BC000C468201D00F0FEFA94F8280000F004001C
:101BD00028B132462946204600F000F905E094F885
:101BE000280000F0FE0084F828002046216A88477B
:101BF00070BD00008C00002070B586B08AE00298AD
:101C000000280CDA03AE2EB940F2063247A151A0EB
:101C1000FEF754FBD6E90020B168904700BF029858
:101C2000002877DB049C606908B9012000E00020EF
:101C300010B9201D00F0C6FA01A800F0FBF8054617
:101C400002980A2864D2DFE800F06305072E3653B5
:101C500006082F3700BF00BF00BF94F8280040F0EF
:101C6000010084F828000398A269811803462A46D7
:101C70002046FFF7CDFEA8B194F8280000F004003C
:101C800038B10398A26981182A46204600F0A6F8C8
:101C900005E094F8280000F0FE0084F828002046B3
:101CA000216A884735E000BF94F8280000F0FE0064
:101CB00084F828002DE000BF94F8280040F00100CF
:101CC00084F828000398A061A06908B1012000E011
:101CD000002028B940F2593214A11EA0FEF7EEFAF6
:101CE000A06941192B462A462046FFF791FE10E0D5
:101CF00094F8280000F0020018B9204600F090FB8C
:101D000005E094F8280000F0FE0084F8280000E0C8
:101D100000BF00BF002202A91248006801F0F0F8DD
:101D200000287FF46CAF06B070BD00002E2E5C2E34
:101D30002E5C4D6964646C6577617265735C467294
:101D4000656552544F535C7372635C74696D657260
:101D5000732E63004572726F723A2025732C202512
:101D6000640D0A0094000020F8B505460C4600F00A
:101D7000B7FE684600F05EF80646009820BB44B9FE
:101D8000B54206D801F054FC31462846FFF712FF51
:101D90001CE03CB10E480068006808B9012000E072
:101DA00000200446A91B22460A48006800F002FCF5
:101DB00001F03EFC50B94FF0805007490860BFF376
:101DC0004F8FBFF36F8F01E001F032FCF8BD0000D0
:101DD000900000209400002004ED00E070B504465F
:101DE0000D46164604E0A06905442046216A88474E
:101DF000A06941192B4632462046FFF709FE00280C
:101E0000F1D170BD09480068006808B9012000E000
:101E1000002020B14FF0FF300549086005E003487D
:101E20000068C068006802490860704748000020E8
:101E30007400002070B5044601F0CCF9054607484F
:101E40000068854204D200F00BF80120206001E018
:101E50000020206001480560284670BD9C000020DD
:101E600070B508E00D480068C06804684FF0FF31A5
:101E70002046FFF79FFE09480068006808B9012066
:101E800000E000200028EDD0044805680448006800
:101E9000024908600248056070BD00008C00002007
:101EA000900000200246002101E0521C491C1078DD
:101EB000A528FAD0890888B2704700000B4800684E
:101EC000401C08B9012000E0002020B9CE2208A162
:101ED00015A0FEF7F3F900BF502080F31188BFF37F
:101EE0004F8FBFF36F8F00BF00BFFEE7A000002041
:101EF0002E2E5C2E2E5C4D6964646C657761726574
:101F0000735C4672656552544F535C706F727461B6
:101F1000626C655C525644535C41524D5F434D3395
:101F20005C706F72742E63004572726F723A202576
:101F3000732C2025640D0A0008B500BF6846FFF722
:101F4000FBFB044620460099FFF70EFFFFF754FE07
:101F5000F4E770B5044600F0DBF994F9455019E058
:101F6000A06C30B12046FFF7C1FD88B100F0D0FC75
:101F70000EE0606A08B9012000E0002038B904F1E1
:101F8000240001F0ADFA18B100F0C2FC00E003E05B
:101F9000681E45B2002DE3DC00BFFF2084F8450039
:101FA00000F000FA00F0B4F994F9445010E0206910
:101FB00008B9012000E0002048B904F1100001F048
:101FC0008FFA08B100F0A4FC681E45B200E001E001
:101FD000002DECDC00BFFF2084F8440000F0E2F9A3
:101FE00070BD70B505460E4631462846FEF720FA0C
:101FF0002846FEF741FA044602E020202855641CDA
:102000000F2CFAD300202855281970BD2DE9F04176
:1020100004464FF0000800F063FD4948006808B925
:10202000FFF79EFB474800682040002875D1002C30
:1020300023D004F10800A0421FD9083404F007009F
:1020400000281BD004F00700C0F108002044A04283
:1020500011D904F00700C0F10800044404F007009F
:1020600008B9012000E0002040B99C2236A144A01C
:10207000FEF724F902E0002400E00024002C4CD0FC
:1020800043480068844248D8424E3046056801E023
:102090002E462D686868A04202D228680028F7D131
:1020A00027480068854238D0306800F10808286861
:1020B00030606868001B102813D92F1907F007003B
:1020C00008B9012000E0002020B9CF221EA12CA0D9
:1020D000FEF7F4F86868001B78606C603846FFF71C
:1020E00063FC2B4968680968081A29490860084692
:1020F000006829490968884203D2254800682649B2
:102100000860104968680968084368600020286012
:1021100022480068401C2149086001F089FA08F053
:10212000070008B9012000E0002028B94FF48872A8
:1021300005A113A0FEF7C2F84046BDE8F0810000FB
:10214000B4000020C80000202E2E5C2E2E5C4D69AD
:1021500064646C6577617265735C46726565525440
:102160004F535C706F727461626C655C4D656D4D50
:10217000616E675C686561705F342E63000000000B
:102180004572726F723A2025732C2025640D0A0067
:10219000B8000020AC000020BC000020C0000020DF
:1021A000001F4FF080730360001F21F001030360E4
:1021B000001F034B03601438026020387047000092
:1021C000BD1E000801460A69D1E901309860D1E9D5
:1021D000010358605068884201D18868506000202F
:1021E00008611068401E1060106870472DE9F041CA
:1021F0000546884616460024202700F071FC224838
:10220000006880453AD300BF7F1E07EB87021F4B53
:1022100003EB820104EBC40205EB82000122FFF70D
:1022200030FC0444002FEFD104EBC40105EB810026
:10223000022217490968FFF724FC044404EBC40197
:1022400005EB8100022213490968FFF71AFC0444D8
:1022500004EBC40105EB810004220F49FFF711FCD8
:10226000044404EBC40105EB810003220B49FFF792
:1022700008FC044416B10A480068306001F0D8F93F
:102280002046BDE8F081000054000020000300203B
:10229000480000204C000020BC050020D005002094
:1022A0003400002000F1080141604FF0FF318160EF
:1022B00000F10801C1600161002101607047002147
:1022C0000161704710B502460B685C1C0CB91069BF
:1022D00007E002F1080000E04068446824689C427E
:1022E000FAD944684C604C68A160886041600A611A
:1022F0001468641C146010BD42684A6093688B6067
:10230000936859609160086103685B1C03607047C3
:1023100010B500BF502080F31188BFF34F8FBFF37B
:102320006F8F00BF0B480068401C0A4908600846D0
:10233000006801280DD108480068C0B208B9012022
:1023400000E0002028B940F2751204A111A0FDF7A9
:10235000B5FF10BDA000002004ED00E02E2E5C2E85
:102360002E5C4D6964646C6577617265735C46725E
:10237000656552544F535C706F727461626C655C3A
:10238000525644535C41524D5F434D335C706F7203
:10239000742E63004572726F723A2025732C2025CB
:1023A000640D0A0010B50B48006828B94FF4BE72DE
:1023B00009A117A0FDF782FF06480068401E0549E5
:1023C00008600846006820B9002080F3118800BF2B
:1023D00000BF10BDA00000202E2E5C2E2E5C4D698B
:1023E00064646C6577617265735C467265655254AE
:1023F0004F535C706F727461626C655C52564453EB
:102400005C41524D5F434D335C706F72742E6300BC
:102410004572726F723A2025732C2025640D0A00D4
:1024200070B506463546002E3AD0083D2C461D496B
:1024300060680968084008B1012000E0002028B960
:102440004FF4927218A126A0FDF738FF206808B952
:10245000012000E0002028B940F2251212A120A09E
:10246000FDF72CFF0F49606809680840C0B120687B
:10247000B0B90C49606809688843606000F030FBBF
:102480001B49606809680844194908602046FFF73D
:102490008BFA18480068401C1649086001F0C8F81B
:1024A00070BD0000C80000202E2E5C2E2E5C4D69F1
:1024B00064646C6577617265735C467265655254DD
:1024C0004F535C706F727461626C655C4D656D4DED
:1024D000616E675C686561705F342E6300000000A8
:1024E0004572726F723A2025732C2025640D0A0004
:1024F000B8000020C400002000204FF0E021086157
:10250000886107480068C0084FF47A71B0FBF1F0A9
:10251000401E4FF0E0214861032008617047000031
:10252000000000202DE9F04105460F4600262DB998
:1025300040F6C92210A11AA0FDF7C0FEBFB10024C9
:1025400012E01B4800EBC4004068A84203D11848C1
:1025500000EBC4060AE036B9154850F8340010B94B
:10256000134800EBC406641C082CEAD300BF0EB16C
:1025700037607560BDE8F0812E2E5C2E2E5C4D69B3
:1025800064646C6577617265735C4672656552540C
:102590004F535C7372635C71756575652E630000E3
:1025A0004572726F723A2025732C2025640D0A0043
:1025B000C00200202DE9F04105460E4617462C4684
:1025C000FFF7A6FE94F94400401C10B9002084F8DF
:1025D000440094F94500401C10B9002084F84500DF
:1025E000FFF7E0FEA06B28B93A46314604F124001B
:1025F00000F0C8F92046FFF7ACFCBDE8F081000010
:1026000070B504460025ACB10F48006808B9012038
:1026100000E0002028B940F249520CA115A0FDF7B6
:102620004DFE00F05DFA00212046FEF7F5FE00F0B9
:10263000FFFF05463DB94FF0805012490860BFF3D7
:102640004F8FBFF36F8F70BD800000202E2E5C2E49
:102650002E5C4D6964646C6577617265735C46726B
:10266000656552544F535C7372635C7461736B7332
:102670002E6300004572726F723A2025732C20255C
:10268000640D0A0004ED00E070B50546FFF740FE5A
:1026900015B92F48006800E028460446201DFFF7C2
:1026A00091FD78B9E06A00EB80002A4951F82000DA
:1026B00040B994F82C1001208840274909688143CB
:1026C00025480160A06A18B104F11800FFF77AFDEF
:1026D00022480068401C214908601D480068844267
:1026E00009D1211D1E48FFF707FE1E480068401C47
:1026F0001C49086006E01C480068401E1A49086032
:10270000FFF780FBFFF74EFE11480068844202D0BD
:102710002046FFF707F815480068C0B10C4800686C
:10272000844214D11248006808B9012000E000205A
:1027300028B940F2DC420FA118A0FDF7BFFD4FF011
:1027400080501A490860BFF34F8FBFF36F8F70BD81
:1027500044000020000300205C00002070000020E6
:10276000BC05002050000020540000206000002024
:10277000800000202E2E5C2E2E5C4D6964646C65FA
:1027800077617265735C4672656552544F535C7332
:1027900072635C7461736B732E6300004572726FB9
:1027A000723A2025732C2025640D0A0004ED00E008
:1027B0002DE9F04107460C4690461E4617B91C48C5
:1027C000006800E038460546256005F13400606089
:1027D000E86A2061286BE061686CA060E86C606169
:1027E000686DA061052E12D011480068854202D1A3
:1027F000002020730FE02673032E0CD100F070F937
:10280000A86A08B10220207300F012FF03E02846F6
:10281000FEF732FD2073B8F1000F04D0286BFFF7EC
:1028200041FB208401E000202084BDE8F08100000D
:10283000440000202DE9F843064600203070274868
:10284000D0F800800146096801EBC1018800FFF75C
:10285000DDFB0546002D3FD06A4641462846FFF77E
:10286000C5FC804664210098B0FBF1F00090009810
:1028700000282ED000242AE004EBC40005EB8000E1
:1028800080690099B0FBF1F704EBC40005EB800010
:1028900041683046FFF7A5FB064657B104EBC4007C
:1028A00005EB80003B460EA182693046FDF712FD24
:1028B00008E004EBC40005EB80000CA182693046FF
:1028C000FDF708FD3046FDF7D7FD0644641C44457E
:1028D000D2D32846FFF7A4FDBDE8F88354000020BA
:1028E0000925750909257525250D0A00092575098C
:1028F000093C3125250D0A00034909680160034997
:1029000009684160704700006C00002058000020FA
:1029100001200149086070476800002070B5044636
:102920000D462CB940F61C4207A111A0FDF7C6FCCC
:102930001348016818312046FFF7C4FC01212846DE
:10294000FEF76AFD70BD00002E2E5C2E2E5C4D69D8
:1029500064646C6577617265735C46726565525438
:102960004F535C7372635C7461736B732E6300000E
:102970004572726F723A2025732C2025640D0A006F
:102980004400002070B504460E4615462CB940F6AA
:10299000524211A11AA0FDF791FC60681C49096818
:1029A000C8611B49826809680A62194909681831B7
:1029B00082685160164909681831816014490968B4
:1029C0008C622168491C21600DB14FF0FF36294609
:1029D0003046FEF721FD70BD2E2E5C2E2E5C4D691B
:1029E00064646C6577617265735C467265655254A8
:1029F0004F535C7372635C7461736B732E6300007E
:102A00004572726F723A2025732C2025640D0A00DE
:102A1000440000201CB51C4800210B468022CDE953
:102A200000101AA11B4800F095FB0446012C02D1AE
:102A300000F0D0FE0446012C17D100BF502080F3D7
:102A40001188BFF34F8FBFF36F8F00BF4FF0FF3080
:102A500011490860012011490860002010490860F0
:102A6000FDF7CCFE00F0C2F80BE0601C08B10120BD
:102A700000E0002028B94FF404620AA113A0FDF77A
:102A80001DFC164800681CBD7800002049444C45D8
:102A900000000000DD170008740000206000002026
:102AA000580000202E2E5C2E2E5C4D6964646C65EF
:102AB00077617265735C4672656552544F535C73FF
:102AC00072635C7461736B732E6300004572726F86
:102AD000723A2025732C2025640D0A007C0000200A
:102AE00002480068401C01490860704780000020CF
:102AF00010B52848006818B101202749086047E050
:102B000000202549086025480068254908600846D6
:102B100000682449096888420BD92349096801F1F2
:102B20005400496D1E4A12681E4B1B68D21A11448C
:102B300001601B4800681B4908601C480068B0FA27
:102B400080F0C0F11F0404EB8400194951F8200003
:102B500008B1012000E0002028B940F6024215A18A
:102B60001EA0FDF7ABFB04EB8401114A02EB8100D0
:102B700041684968416000F1080142688A4202D117
:102B80004168496841604168C968074A116000BFEF
:102B900010BD0000800000206800002034000020EC
:102BA0008800002084000020440000205C000020F9
:102BB000000300202E2E5C2E2E5C4D6964646C6533
:102BC00077617265735C4672656552544F535C73EE
:102BD00072635C7461736B732E6300004572726F75
:102BE000723A2025732C2025640D0A001CB53B4C3D
:102BF000204600780190FF202146087008460078A2
:102C000000909DF8000000F0F0009DF80010884250
:102C100001D1012000E0002028B940F21F1230A1AC
:102C20003DA0FDF74BFB9DF8000000F050003E4931
:102C3000087007203D49086009E03C480068401ED4
:102C40003A4908609DF800004006000E00909DF88B
:102C5000000000F080008028EFD034480068C0F108
:102C60000700042801D1012000E0002028B940F22B
:102C700033121BA128A0FDF721FB2C480068C0F1EE
:102C80000700042801D1012000E0002028B94FF4FA
:102C90009E7213A120A0FDF711FB244800680002DA
:102CA000224908600846008800F4E06008600B498B
:102CB000019808701E48006840F470001C490860C4
:102CC0000846006840F070400860FFF715FC0020DF
:102CD00018490860FDF796FA00201CBD00E400E0EA
:102CE0002E2E5C2E2E5C4D6964646C657761726576
:102CF000735C4672656552544F535C706F727461B9
:102D0000626C655C525644535C41524D5F434D3397
:102D10005C706F72742E63004572726F723A202578
:102D2000732C2025640D0A00A4000020A8000020B8
:102D300020ED00E0A000002010B500BF502080F37F
:102D40001188BFF34F8FBFF36F8F00BF00F048FAB9
:102D500018B14FF080500449086000BF002080F394
:102D6000118800BF10BD000004ED00E02DE9F8431C
:102D700005460E4617460024E5B1601EB0FBF5F08F
:102D8000B04217D305FB06F010F1550F12D805FB22
:102D900006F909F15400FFF739F904468CB1A04651
:102DA00008F154083B464246314628460094FEF757
:102DB00029FD06E02CB94FF4E37203A10CA0FDF746
:102DC0007DFA2046BDE8F8832E2E5C2E2E5C4D69E0
:102DD00064646C6577617265735C467265655254B4
:102DE0004F535C7372635C71756575652E6300008B
:102DF0004572726F723A2025732C2025640D0A00EB
:102E00002DE9F04105460E4601272C462CB94FF41A
:102E100088722CA135A0FDF751FA002C42D0E06B4E
:102E200000283FD04FF0FF31E06BB1FBF0F0216C98
:102E3000884237D3FFF76CFAD4E90F12206801FB00
:102E40000200A0600020A06320686060E06B401E6C
:102E5000226C216800FB0211E160FF2084F844002D
:102E600084F845009EB9206908B9012000E00020DF
:102E7000A8B904F1100000F033FB80B14FF080508E
:102E80001E490860BFF34F8FBFF36F8F07E004F157
:102E90001000FFF707FA04F12400FFF703FAFFF729
:102EA00081FA00E000270FB1012000E0002028B9DE
:102EB00040F2451203A10DA0FDF700FA3846BDE827
:102EC000F08100002E2E5C2E2E5C4D6964646C65D2
:102ED00077617265735C4672656552544F535C73DB
:102EE00072635C71756575652E6300004572726F63
:102EF000723A2025732C2025640D0A0004ED00E0B1
:102F00002DE9F74183B005460E464FF000082C46E8
:102F10002CB940F251524CA155A0FDF7CFF90EB992
:102F2000206C08B9012000E0002028B940F2555279
:102F300045A14FA0FDF7C2F900F03CF908B905988A
:102F400008B9012000E0002028B940F25A523EA101
:102F500047A0FDF7B3F900BFFFF7DAF9A76BF7B1A8
:102F600031462046FEF78AFB781EA063206908B927
:102F7000012000E0002060B904F1100000F0B0FA78
:102F800038B14FF080503E490860BFF34F8FBFF318
:102F90006F8FFFF707FA012006B0BDE8F0810598B2
:102FA00018B9FFF7FFF90020F6E7B8F1000F04D1D8
:102FB00001A8FFF7A1FC4FF00108FFF7F3F9FFF7B5
:102FC0008FFDFFF7A5F994F94400401C10B90020CB
:102FD00084F8440094F94500401C10B9002084F89E
:102FE0004500FFF7DFF905A901A800F04BF8F0B99B
:102FF0002046FEF739FDA0B104F124000599FFF742
:103000008DFC2046FEF7A5FF00F012FB0028A3D19F
:103010004FF080501A490860BFF34F8FBFF36F8F96
:103020009AE72046FEF795FF00F002FB94E7204662
:10303000FEF78FFF00F0FCFA2046FEF715FD002892
:103040008AD00020A8E700002E2E5C2E2E5C4D6951
:1030500064646C6577617265735C46726565525431
:103060004F535C7372635C71756575652E63000008
:103070004572726F723A2025732C2025640D0A0068
:1030800004ED00E070B506460C462EB940F6FD4250
:103090001FA129A0FDF712F92CB940F6FE421CA190
:1030A00025A0FDF70BF9FFF733F927480268706890
:1030B000131A2648006890F85D0030B100202349BB
:1030C000096881F85D0001251EE02068401C08B9F0
:1030D000002519E01E4930680968884206D07068EA
:1030E000904203D80125002020600DE0206898421E
:1030F00007D92068C01A20603046FFF7FDFB002585
:1031000002E0002020600125FFF74CF9284670BD41
:103110002E2E5C2E2E5C4D6964646C657761726541
:10312000735C4672656552544F535C7372635C7492
:1031300061736B732E6300004572726F723A2025C3
:10314000732C2025640D0A00580000204400002044
:103150006C0000202DE9FF4F85B080468946174658
:10316000DDE912ABB800FEF751FF064656B160200C
:10317000FEF74CFF04460CB1266304E03046FFF72F
:103180004FF900E000247CB10020CDE900ABCDE98F
:1031900002403A4649464046089BFEF74BFB204614
:1031A000FEF7A0F9012501E04FF0FF35284609B0F0
:1031B000BDE8F08F0549096809B9012005E0044917
:1031C000096809B9022000E0002070476000002073
:1031D0008000002001490868704700005800002066
:1031E0002DE9F0414FF000085F48006800287DD1CC
:1031F0005E480068451C5D480560002D1DD15C4897
:103200000068006808B9012000E0002028B940F6F5
:10321000C72258A161A0FDF751F8554807686348D7
:103220000068534908606148076061480068401CB5
:103230005F490860FEF7E6FD00BF5E480068854212
:1032400077D300BF4A480068006808B9012000E051
:10325000002020B14FF0FF305649086068E0444834
:103260000068C068C4686668B54202D2514806600A
:103270005EE06069D4E902128A60D4E902214A6002
:10328000211D42688A4201D1E168416000226261E9
:103290000168491E0160A06A98B1A06AD4E90712CA
:1032A0008A60D4E907214A6004F1180142688A4221
:1032B00001D1216A41600022A2620168491E0160B9
:1032C00000BF94F82C10012088403B49096808434E
:1032D00039490860E16A01EB8101384A02EB81015A
:1032E0004868A0608268E260211D00E033E08268E7
:1032F00051608160E16A01EB8101304A02EB810299
:103300006261E16A01EB81012C4A52F82110491CEB
:10331000E26A02EB8202294B43F822102849E06A54
:103320000968C96A88428DD34FF001088AE700E036
:1033300000BF23480068C06A00EB80001F4951F8B5
:103340002000012801D94FF001081E48006808B18B
:103350004FF0010804E01C480068401C1A4908604E
:103360004046BDE8F08100008000002058000020A9
:10337000480000202E2E5C2E2E5C4D6964646C6526
:1033800077617265735C4672656552544F535C7326
:1033900072635C7461736B732E6300004572726FAD
:1033A000723A2025732C2025640D0A004C00002061
:1033B0006C000020740000205C000020000300204E
:1033C00044000020680000206400002070B505461D
:1033D0002C460026002D5ED030480068844201D182
:1033E000012000E0002028B941F24F022CA136A0B4
:1033F000FCF764FF206D28B941F2500228A132A0E9
:10340000FCF75CFF206D401E2065E16CE06A88429D
:1034100041D0206D00283ED1201DFEF7D3FE40B9DB
:1034200094F82C10012088402B49096881432A48D0
:103430000160E06CE062E06AC0F12000A06194F8F5
:103440002C1001208840244909680843224908605B
:10345000E16A01EB8101214A02EB81014868A06029
:103460008268E260211D826851608160E16A01EB3F
:1034700081011A4A02EB81026261E16A01EB81017A
:10348000164A52F82110491CE26A02EB8202134BE1
:1034900043F822100126304670BD00004400002091
:1034A0002E2E5C2E2E5C4D6964646C6577617265AE
:1034B000735C4672656552544F535C7372635C74FF
:1034C00061736B732E6300004572726F723A202530
:1034D000732C2025640D0A005C00002000030020EE
:1034E00070B50646F068C4682CB940F682423CA12B
:1034F00045A0FCF7E3FEA06AD4E907128A60D4E98C
:1035000007214A6004F1180142688A4201D1216A08
:1035100041600022A2620168491E01603E480068C5
:1035200000283DD16069D4E902128A60D4E9022101
:103530004A60211D42688A4201D1E168416000224F
:1035400062610168491E016094F82C1001208840D6
:1035500032490968084331490860E16A01EB810199
:103560002F4A02EB81014868A0608268E260211D59
:10357000826851608160E16A01EB8101284A02EBB7
:1035800081026261E16A01EB8101254A52F8211052
:10359000491CE26A02EB8202214B43F8221010E040
:1035A00020494868E0618268226204F1180182685B
:1035B000516081601B4AA26211460968491C116072
:1035C00000BF1949E06A0968C96A884204D901251F
:1035D00001201649086000E00025284670BD000063
:1035E0002E2E5C2E2E5C4D6964646C65776172656D
:1035F000735C4672656552544F535C7372635C74BE
:1036000061736B732E6300004572726F723A2025EE
:10361000732C2025640D0A00800000205C0000202F
:1036200000030020A80500204400002068000020BE
:1036300070B5002400265048006828B940F6B3024F
:103640004EA158A0FCF73AFEFEF762FE4A48006819
:10365000401E494908600846006800287ED1554848
:10366000006800287AD05BE05348C068C468A06A4C
:10367000D4E907128A60D4E907214A6004F11801ED
:1036800042688A4201D1216A41600022A262016837
:10369000491E01606069D4E902128A60D4E90221FE
:1036A0004A60211D42688A4201D1E16841600022DE
:1036B00062610168491E016094F82C100120884065
:1036C0003E49096808433D490860E16A01EB810110
:1036D0003B4A02EB81014868A0608268E260211DDC
:1036E000826851608160E16A01EB8101344A02EB3A
:1036F00081026261E16A01EB8101314A52F82110D5
:10370000491CE26A02EB82022D4B43F822102D493C
:10371000E06A0968C96A884202D301202A49086020
:103720002548006808B9012000E0002000289BD04F
:103730000CB1FEF767FB2548056865B100BFFFF7D0
:103740004FFD10B10120204908606D1E002DF6D1FB
:1037500000201E4908601C48006800E008E038B1FD
:10376000012630071A490860BFF34F8FBFF36F8FF0
:10377000FEF718FE304670BD800000202E2E5C2E15
:103780002E5C4D6964646C6577617265735C46722A
:10379000656552544F535C7372635C7461736B73F1
:1037A0002E6300004572726F723A2025732C20251B
:1037B000640D0A0054000020A80500205C000020D1
:1037C0000003002044000020680000206400002066
:1037D00004ED00E01CB50024FDF7FAFE0B4800687C
:1037E00058B10B481F2100234FF48072CDE900101F
:1037F00008A10A48FFF7AEFC04462CB940F21912A2
:1038000007A111A0FCF75AFD20461CBD9400002022
:1038100098000020546D722053766300391F000811
:103820002E2E5C2E2E5C4D6964646C65776172652A
:10383000735C4672656552544F535C7372635C747B
:10384000696D6572732E63004572726F723A20253E
:10385000732C2025640D0A00783800080000002031
:10386000CC0000006C01000844390008CC000020A6
:10387000A43300008801000800A24A0400000000F0
:103880000000000001020304060708090000000010
:103890000000000000000000010203040102030414
:1038A00006070809020406080100000000000000E5
:1038B0000000000000000000000000000000000008
:1038C00000000000000000000000000000000000F8
:1038D00000000000000000000000000000000000E8
:1038E00000000000000000000000000000000000D8
:1038F000000000001F0000000000000000000000A9
:1039000000000000000000000000000000000000B7
:103910000000000000000000AAAAAAAA00000000FF
:103920000000000000000000000000000000000097
:103930000000000000000000000000000000000087
:043940000000000083
:0400000508000131BD
:00000001FF
