:020000040800F2
:1000000070320020750200086108000859080008D5
:100010005D0800083D0700082D0F000800000000E3
:10002000000000000000000000000000DD010008EA
:10003000410700080000000021020008A90B000889
:100040008F0200088F0200088F0200088F0200084C
:100050008F0200088F0200088F0200088F0200083C
:100060008F0200088F0200088F0200088F0200082C
:100070008F0200088F0200088F0200088F0200081C
:100080008F0200088F0200088F0200088F0200080C
:100090008F0200088F0200088F0200088F020008FC
:1000A0008F0200088F0200088F0200088F020008EC
:1000B0008F0200088F0200088F0200088F020008DC
:1000C0008F0200088F0200088F0200088F020008CC
:1000D0008F0200088F0200088F0200088F020008BC
:1000E0008F0200088F0200088F0200088F020008AC
:1000F0008F0200088F0200088F0200088F0200089C
:100100008F0200088F0200088F0200088F0200088B
:100110008F0200088F0200088F0200088F0200087B
:100120008F0200088F0200088F0200088F0200086B
:1001300000F002F800F042F80AA090E8000C8244B7
:100140008344AAF10107DA4501D100F037F8AFF294
:10015000090EBAE80F0013F0010F18BFFB1A43F0A5
:10016000010318470837000028370000103A24BF61
:1001700078C878C1FAD8520724BF30C830C144BF0C
:1001800004680C607047000000230024002500264E
:10019000103A28BF78C1FBD8520728BF30C148BFEA
:1001A0000B607047642900F0F180732900F026820B
:1001B000002070471FB51FBD10B510BD00F08CFAB0
:1001C0001146FFF7F7FF00F065FF00F0AAFA03B44D
:1001D000FFF7F2FF03BC00F0ABFE0000224B1968F2
:1001E0000868B0E8F00F80F30988BFF36F8F4FF015
:1001F000000080F311884EF00D0E704700000000E3
:1002000006480068006880F3088862B661B6BFF3EC
:100210004F8FBFF36F8F00DF00BF00BF08ED00E01E
:10022000EFF30980BFF36F8F0F4B1A6820E9F00FCF
:10023000106008B54FF0500080F31188BFF34F8F66
:10024000BFF36F8F02F01EFA4FF0000080F31188A9
:10025000BDE8084019680868B0E8F00F80F3098825
:10026000BFF36F8F704700BF44000020EFF305809D
:10027000704700000948804709480047FEE7FEE74D
:10028000FEE7FEE7FEE7FEE7FEE7FEE7FEE7FEE746
:1002900004480549054A064B704700000D0C00084C
:1002A00031010008702C002070320020702E0020D8
:1002B000702E0020704700000FB4044910B503AA47
:1002C000029800F09FF910BC5DF814FB18000020A4
:1002D0002DE9F0410E460446002020622046E168E8
:1002E000884730B3252805D0D4E901219047206AFA
:1002F000401CF2E7E168204600278847050018D037
:10030000A5F14100192802D820354FF40067324684
:10031000294620462760FFF745FF40B1012804D059
:10032000F61D26F007060836D8E7361DD6E728461C
:10033000DAE7206ABDE8F08170B50C460546012A6F
:1003400005D02878800600D5EA69002302E0012361
:1003500005E05B1C934202D2E05C0028F9D1A86959
:10036000E618C01AA861286A184428622846AFF324
:10037000008004E0D5E9012114F8010B9047B44254
:10038000F8D32846AFF3008070BD00002DE9F0419E
:100390000646002410687529314616A510D0AFF323
:1003A0000080002802DA404213A507E031688A077E
:1003B00001D512A502E0490704D511A5012401E0E9
:1003C000AFF3008000210A2206F1240709E0B0FB08
:1003D000F2FCB0FBF2F302FB1C00303078541846FC
:1003E000491C0028F3D123462A463046BDE8F04197
:1003F00000F080B8000000002D0000002B0000007D
:1004000020000000032A40F2308010F0030C00F0BE
:10041000158011F8013BBCF1020F624498BF11F83E
:1004200001CB00F8013B38BF11F8013BA2F10402F7
:1004300098BF00F801CB38BF00F8013B11F003036F
:1004400000F0F280083AC0F0088051F8043B083A06
:1004500051F804CBA0E80810F5E7121D5CBF51F875
:10046000043B40F8043BAFF30080D20724BF11F8EF
:10047000013B11F801CB48BF11F8012B24BF00F854
:10048000013B00F801CB48BF00F8012B704702F098
:10049000FF0343EA032242EA024200F0F9B84FF0B8
:1004A000000200B5134694469646203922BFA0E8C4
:1004B0000C50A0E80C50B1F12001BFF4F7AF0907D0
:1004C00028BFA0E80C5048BF0CC05DF804EB8900C1
:1004D00028BF40F8042B08BF704748BF20F8022B04
:1004E00011F0804F18BF00F8012B7047704770471C
:1004F000704770472DE9F0470D46994692460446ED
:1005000000F124080168880604D5E06921F0100193
:10051000216000E00120A84201DD471B00E0002728
:10052000A1697A1902EB0900081AA0612078C006B7
:1005300002D42046AFF30080002608E0D4E9012170
:100540001AF806009047206A401C761C20624E452F
:10055000F4DB2078C0060AD52046AFF3008006E021
:10056000D4E9012130209047206A401C2062381EC7
:10057000A7F10107F4DC07E0D4E9012118F8050030
:100580009047206A401C2062281EA5F10105F3DC7B
:100590002046AFF300802078000602D50220BDE897
:1005A000F0870120FBE7000001694A1C026108781E
:1005B000704700B58FB0CDE90131002105910549A3
:1005C0007944CDE9031011466846FFF781FE0FB06C
:1005D00000BD0000E5FFFFFF10B5436913B1AFF3A5
:1005E000008001E0FFF7A8FE012010BD127800F1A5
:1005F00024010A7000224A700122EDE711684FF0D1
:10060000FF32E9E7074B70B50D467B44FFF7D1FF9A
:100610000446284600F05CF810B14FF0FF3070BD82
:10062000204670BD8709000010B5203AC0F00B804D
:10063000B1E81850203AA0E81850B1E81850A0E8E6
:100640001850BFF4F5AF5FEA027C24BFB1E8185040
:10065000A0E8185044BF18C918C0BDE810405FEAB0
:10066000827C24BF51F8043B40F8043B08BF70472C
:10067000D20728BF31F8023B48BF11F8012B28BF31
:1006800020F8023B48BF00F8012B70474FF00002F2
:100690000429C0F0128010F0030C3FF402AFCCF13B
:1006A000040CBCF1020F18BF00F8012BA8BF20F802
:1006B000022BA1EB0C01FFF7F4BE5FEAC17C24BF63
:1006C00000F8012B00F8012B48BF00F8012B704700
:1006D000007B00F080007047754600F02BF8AE46B6
:1006E00005006946534620F00700854618B020B53E
:1006F000FFF7CEFDBDE820404FF000064FF00007A9
:100700004FF000084FF0000B21F00701AC46ACE8B9
:10071000C009ACE8C009ACE8C009ACE8C0098D4626
:10072000704710B50446AFF300802046BDE8104086
:10073000FFF74DBD00487047102C002000BFFEE7BA
:1007400070472DE9F04102460025002600200023D5
:100750000024002791F803C00CF00F0591F803C0A6
:100760000CF0100CBCF1000F03D091F802C04CEA61
:10077000050591F800C0BCF1000F31D014680020CD
:100780002BE04FF0010C0CFA00F3B1F800C00CEABA
:1007900003069E4220D183004FF00F0C0CFA03F7A2
:1007A000BC4305FA03FC4CEA040491F803C0BCF115
:1007B000280F06D14FF0010C0CFA00FCC2F814C04F
:1007C0000AE091F803C0BCF1480F05D14FF0010CCD
:1007D0000CFA00FCC2F810C0401C0828D1D31460E9
:1007E000B1F800C0BCF1FF0F34DD546800202EE0EA
:1007F00000F1080C4FF0010808FA0CF3B1F800C042
:100800000CEA03069E4221D183004FF00F0C0CFA34
:1008100003F7BC4305FA03FC4CEA040491F803C057
:10082000BCF1280F05D100F1080C08FA0CF8C2F849
:10083000148091F803C0BCF1480F07D100F1080CF7
:100840004FF0010808FA0CF8C2F81080401C082884
:10085000CED35460BDE8F08100BFFEE700BFFEE7E5
:100860007047000002490143024A116070470000CE
:100870000000FA050CED00E029B1064A9269024336
:10088000044B9A6104E0034A92698243014B9A61E6
:10089000704700000010024030B500210022002403
:1008A00000232D4D6D6805F00C0121B1042905D000
:1008B000082923D105E0294D056022E0274D056078
:1008C0001FE0254D6D6805F47012234D6D6805F429
:1008D0008034022505EB92421CB9214D5543056039
:1008E0000BE01D4D6D6805F400351DB11C4D5543E1
:1008F000056002E0194D5543056002E0174D0560A3
:1009000000BF00BF144D6D6805F0F0010909154DD9
:100910006B5C0568DD4045600F4D6D6805F4E06176
:10092000090A104D6B5C4568DD4085600A4D6D68B5
:1009300005F46051C90A0B4D6B5C4568DD40C5602C
:10094000054D6D6805F44041890B074D6B5CC5682A
:10095000B5FBF3F5056130BD0010024000127A00CE
:1009600000093D001C0000202C00002010B500F004
:1009700001F810BD0CB500200190009033480068CC
:1009800040F480303149086000BF3048006800F40E
:10099000003000900198401C0190009818B901980F
:1009A000B0F5A06FF1D12948006800F4003010B113
:1009B0000120009001E0002000900098012843D120
:1009C0002348006840F0100021490860084600688C
:1009D00020F0030008600846006840F0020008604C
:1009E0001A48406819494860084640684860084607
:1009F000406840F4806048600846406820F47C10FD
:100A000048600846406840F4E810486008460068BE
:100A100040F08070086000BF0C48006800F0007073
:100A20000028F9D00948406820F0030007494860D1
:100A30000846406840F00200486000BF0348406834
:100A400000F00C000828F9D10CBD00000010024095
:100A5000002002407CB50546012401F02BFA214814
:100A6000012100234022CDE900101FA1204802F0FF
:100A700005FB0446012C03D11EA0FFF71DFC02E07C
:100A800022A0FFF719FC2748022100234022CDE9CC
:100A9000001025A1264802F0F1FA0446012C03D1EA
:100AA00024A0FFF709FC02E028A0FFF705FC2D4871
:100AB000032100234022CDE900102BA12C4802F095
:100AC000DDFA0446012C03D12AA0FFF7F5FB02E072
:100AD0002EA0FFF7F1FB3348006801F0A7FB01F0FF
:100AE00033FA7CBD380000205461736B3100000084
:100AF0006D0C00085461736B31C8CECEF1B4B4BD37
:100B0000A8B3C9B9A6210D0A000000005461736B97
:100B100031C8CECEF1B4B4BDA8CAA7B0DC210D0A4D
:100B2000000000003C0000205461736B32000000A4
:100B3000FD0C00085461736B32C8CECEF1B4B4BD65
:100B4000A8B3C9B9A6210D0A000000005461736B57
:100B500032C8CECEF1B4B4BDA8CAA7B0DC210D0A0C
:100B600000000000400000205461736B330000005F
:100B70002D0D00085461736B33C8CECEF1B4B4BDF3
:100B8000A8B3C9B9A6210D0A000000005461736B17
:100B900033C8CECEF1B4B4BDA8CAA7B0DC210D0ACB
:100BA000000000003400002010B502F097FA012880
:100BB00001D001F06BFE10BD10B500224FF0E02314
:100BC0001A611A46126922F004021A61C31700EB77
:100BD0005373C3F3CF030C4C2380C31700EB537341
:100BE000D9104FF47A7251434FF0E022126942F06B
:100BF00002024FF0E0231A611A465161126942F075
:100C000001021A6110BD00001400002010B5134845
:100C1000006840F00100114908600846406810492A
:100C200008400E494860084600680E4908400B49D4
:100C300008600846006820F4802008600846406884
:100C400020F4FE0048604FF41F008860FFF78EFE1E
:100C50004FF000600449086010BD00000010024021
:100C60000000FFF8FFFFF6FE08ED00E01DE00FA01A
:100C7000FFF722FB4FF0FF311248006802F0B2F894
:100C800011A0FFF719FB40F6B83000F053F915A09A
:100C9000FFF712FB00231A4619460A48006801F0C4
:100CA000EBFE4FF47A7001F07DFAE0E76C6F775F4E
:100CB0007461736BBBF1C8A1D0C5BAC5C1BF0D0AC1
:100CC00000000000300000206C6F775F7461736B70
:100CD000D5FDD4DAD4CBD0D0A3A1A3A1A3A10D0A72
:100CE000000000006C6F775F7461736BCACDB7C58D
:100CF000D0C5BAC5C1BF0D0A0000000006E004A0BF
:100D0000FFF7DAFA4FF47A7001F04CFAF7E70000D7
:100D10006D6964646C655F7461736BD5FDD4DAD4FE
:100D2000CBD0D0A3A1A3A1A3A10D0A001DE00FA0C9
:100D3000FFF7C2FA4FF0FF311248006802F052F894
:100D400011A0FFF7B9FA4FF47A7000F0F3F815A08C
:100D5000FFF7B2FA00231A4619460A48006801F064
:100D60008BFE4FF47A7001F01DFAE0E7686967685E
:100D70005F7461736BBBF1C8A1D0C5BAC5C1BF0DAB
:100D80000A00000030000020686967685F746173C2
:100D90006BD5FDD4DAD4CBD0D0A3A1A3A1A3A10D50
:100DA0000A000000686967685F7461736BCACDB739
:100DB000C5D0C5BAC5C1BF0D0A00000010B586B0C8
:100DC0000446012144F20400FFF756FD4FF4007081
:100DD000ADF8140018208DF8170003208DF81600C8
:100DE00005A91448FFF7ADFC4FF48060ADF814007E
:100DF00004208DF8170003208DF8160005A90D4872
:100E0000FFF79FFC01940020ADF80800ADF80A0040
:100E1000ADF80C00ADF810000C20ADF80E0001A9E3
:100E2000054800F017F80121034800F007F806B064
:100E300010BD0000000801400038014021B1828946
:100E400042F40052828104E082894DF6FF731A4019
:100E5000828170472DE9F04786B005460E46002492
:100E6000A24600BFA1460027B08900B100BF2F46AF
:100E70002C8A4CF6FF700440F08804432C82AC8925
:100E80004EF6F3100440B088318908437189084355
:100E90000443AC81AC8A4FF6FF400440B089044360
:100EA000AC8201A8FFF7F8FC1F48874202D1DDF8A9
:100EB00010A001E0DDF80CA0A88900F4004040B1CA
:100EC0000AEBCA0000EB0A1031684900B0FBF1F8E8
:100ED00007E00AEBCA0000EB0A1031688900B0FB9A
:100EE000F1F86420B8FBF0F004012009642101FB53
:100EF0001089A88900F4004040B1322000EBC900FD
:100F0000B0FBF1F000F00700044308E0322000EBF2
:100F100009106421B0FBF1F000F00F0004432C81B4
:100F200006B0BDE8F08700000038014000BFFEE7D2
:100F300000BF704730B50446002504E04FF47A70D6
:100F400000F004F86D1CA542F8D330BD70B503461F
:100F500000224FF0E02675690D4E368803FB06F43B
:100F60004FF0E026B16910E04FF0E026B06988420A
:100F70000BD0884202D20E1A324402E02E1A0E44DE
:100F800032440146A24200D300E0EDE700BF70BD4D
:100F90001400002000BF054A128802F04002002A17
:100FA000F9D0C2B2014B1B1D1A80704700380140B6
:100FB0001CB50124012001F083FC1149086008469A
:100FC000006818B10FA0FFF777F902E014A0FFF74F
:100FD00073F91A48012100234022CDE9001018A11D
:100FE0001B4802F04BF80446012C03D119A0FFF76F
:100FF00063F902E01FA0FFF75FF901F0D7FA1CBD0B
:1010000030000020BBA5B3E2D0C5BAC5C1BFB4B49F
:10101000BDA8B3C9B9A6A3A1A3A1A3A10D0A0000AD
:10102000BBA5B3E2D0C5BAC5C1BFB4B4BDA8CAA7F9
:10103000B0DCA3A1A3A1A3A10D0A000034000020ED
:1010400053746172745461736B43726561746500AB
:10105000550A000853746172745461736B4372656E
:10106000617465C8CECEF1B4B4BDA8B3C9B9A62128
:101070000D0A000053746172745461736B4372659E
:10108000617465C8CECEF1B4B4BDA8CAA7B0DC21E6
:101090000D0A000010B54FF44070FFF7E3FB482045
:1010A000FFF78AFD4FF4E130FFF788FEFFF780FF7E
:1010B000002010BD2DE9F04105460E46294807687D
:1010C00000202949096881F8590027480068001D57
:1010D00000F0A6FE50B92448006890F82C100120BA
:1010E000884022490968814320480160681CD8B9BA
:1010F000D6B11F4948681C49096888601A49826846
:101100000968CA6018490968091D82685160164952
:101110000968091D8160164A134909684A61114628
:101120000968491C11601AE07C190F480068446086
:10113000BC4207D20C480168091D0E48006800F047
:1011400093FE0CE008480168091D0B48006800F098
:101150008BFE0A480068844201D208480460BDE85A
:10116000F081000058000020440000205C000020B6
:10117000D40300204C000020480000207400002010
:1011800010B5044600F096FE31480068401C304916
:1011900008603048006840B92E480460084600687E
:1011A00001280DD100F030FA0AE02B48006838B968
:1011B00028480068C06AE16A884201D8254804606E
:1011C00026480068401C254908600846006860649D
:1011D00094F82C10012088402149096808432049CF
:1011E0000860E16A01EB81011E4A02EB8101486857
:1011F000A0608268E260211D826851608160E16ABE
:1012000001EB8101174A02EB81026261E16A01EBA5
:101210008101144A52F82110491CE26A02EB820251
:10122000104B43F8221000F08FFE0B48006868B1A5
:1012300008480068C06AE16A884207D24FF08050CF
:1012400009490860BFF34F8FBFF36F8F10BD0000D7
:1012500054000020440000206000002070000020A6
:101260005C0000200401002004ED00E010B500F057
:1012700021FE10480068D0B90F4800F0E5FD0F4886
:1012800000F0E2FD0C480E4908600C480D4908606A
:1012900000221021052001F025FB064908600846C0
:1012A000006820B108A10348006800F00DFF00F0BD
:1012B0004BFE10BD8C000020E8030020FC03002042
:1012C0008400002088000020546D7251000000004E
:1012D00010B516E000F0EEFD0C48C068C468201D93
:1012E00000F09EFD0A480068401E09490860094850
:1012F0000068401E0749086000F026FE204600F006
:101300005FF8044800680028E4D110BDC003002045
:10131000540000205000002070B504460D46206C9B
:1013200070B1216CE0680144E160D4E902108842A8
:1013300001D32168E1602846226CE168FFF762F87A
:1013400070BD2DE9F04104460F4615464FF00008E8
:10135000A66B206C48B9206800282CD1A06801F049
:10136000C9FF80460020A06025E07DB93946226C87
:101370006068FFF747F8216C606808446060D4E952
:101380000101884217D32068606014E03946226C5E
:10139000E068FFF737F8216CE068411AE1602168E6
:1013A000E068884203D2216CA068411AE160022DF6
:1013B00001D106B1761E701CA0634046BDE8F081E5
:1013C00010B50446206B00F0FDFD204600F0FAFD4C
:1013D00010BD01464A6A22B10A6B1268C2F12000B0
:1013E00000E00020704700000146084A12681268B9
:1013F0000AB9012200E000220A600A6822B9034A01
:101400001268D268106800E0002070478400002055
:1014100030B54FF42053174800F007042CB1C01D1D
:1014200020F00700134C041B1B1B0246124C2260C9
:101430000024114D6C60D018083820F007000F4CC4
:10144000206000240D4D2D686C600C4D2D682C60C3
:101450001146441A4C60094C24680C60084D4C68D5
:101460002C60084D4C682C604FF00044064D2C60F9
:1014700030BD000010040020A4000020AC000020BB
:10148000B4000020B0000020C000002000BFFFF723
:101490001FFF064800680128F9D94FF08050044921
:1014A0000860BFF34F8FBFF36F8FF0E70401002098
:1014B00004ED00E010B5044654B10020A0602060A7
:1014C0000021E16000231A461946204601F0D4FAB3
:1014D00010BD2DE9F04106460D4617469846069C7C
:1014E0000DB9246000E02760E663256401212046F1
:1014F00001F042FA84F850800020A064BDE8F08139
:101500002DE9F05F82460F4690469B460A9E0C9C52
:101510004FEA8801A522206BFEF7B9FFA8F1010070
:10152000216B01EB800929F0070909F0070008B9D0
:10153000012000E0002028B94FF4587224A12EA009
:10154000FEF7BAFE87B1002507E0795D04F13400AB
:101550004155785D00B902E06D1C102DF5D300BF38
:1015600000214320015502E0002084F83400202EA1
:1015700001D2012000E0002028B940F2973214A1E6
:101580001DA0FEF799FE202E00D31F26E662E6641A
:1015900000202065201D00F064FC04F1180000F01C
:1015A00060FC2461C6F12000A061646200206065D7
:1015B00084F8580084F859005A465146484600F0CD
:1015C0001DFC20600B9808B10B980460BDE8F09FEB
:1015D0002E2E5C2E2E5C4D6964646C65776172659D
:1015E000735C4672656552544F535C7372635C74EE
:1015F00061736B732E6300004572726F723A20251F
:10160000732C2025640D0A0010B5002407E004EBBC
:1016100084010F4A02EB810000F016FC641C202CB0
:10162000F5D30C4800F010FC0B4800F00DFC0B4803
:1016300000F00AFC0A4800F007FC0A4800F004FC2D
:1016400004480949086004480849086010BD0000C2
:10165000040100208403002098030020AC03002034
:10166000C0030020D4030020480000204C000020CC
:1016700010B50146164800E0006803688B42FBD3B2
:101680000246436813448B4204D143684C682344A8
:10169000436001460A464B6813440468A34211D1D3
:1016A0000C4C03682468A34208D04B680468646843
:1016B00023444B6003681B680B6005E0054B1B6807
:1016C0000B6001E003680B60884200D0016010BD30
:1016D000A4000020AC0000202DE9F04104460D4696
:1016E00016461F464FF0000865602461B5420CD8CD
:1016F000F01BA169884202D34FF0010811E0211DBF
:101700000948006800F0B0FB0BE0BE4204D2BD42C5
:1017100002D34FF0010804E0211D0448006800F0E6
:10172000A3FB4046BDE8F081880000208400002033
:1017300070B5054600F0BEFBA86B08B9012400E0B7
:10174000002400F001FC204670BD70B5054600F095
:10175000B1FBA86BE96B884201D1012400E00024B1
:1017600000F0F2FB204670BDF1B50098846C0026B5
:101770002CB940F6D43220A129A0FEF79DFDA06B24
:10178000E16B884201D2012000E0002028B940F638
:10179000D53219A122A0FEF78FFDA06BE16B884224
:1017A00027D294F94550002269462046FFF7C9FD2B
:1017B0000646681C60B9606A08B9012000E0002094
:1017C000B0B904F1240001F095FE88B101260FE0C4
:1017D0007F2D01D0012000E0002028B940F6F5322D
:1017E00005A10FA0FEF768FD681C40B284F8450013
:1017F00000BF3046F8BD00002E2E5C2E2E5C4D69D9
:1018000064646C6577617265735C46726565525499
:101810004F535C7372635C71756575652E63000070
:101820004572726F723A2025732C2025640D0A00D0
:1018300070B505460E460E480068C068C468201D95
:1018400000F0EEFA94F8280000F0040028B13246C7
:101850002946204600F000F905E094F8280000F041
:10186000FE0084F828002046216A884770BD0000E9
:101870008400002070B586B08AE0029800280CDA57
:1018800003AE2EB940F2063247A151A0FEF714FD77
:10189000D6E90020B168904700BF0298002877DBA6
:1018A000049C606908B9012000E0002010B9201DE7
:1018B00000F0B6FA01A800F0FBF8054602980A28E5
:1018C00064D2DFE800F06305072E365306082F3791
:1018D00000BF00BF00BF94F8280040F0010084F86A
:1018E00028000398A269811803462A462046FFF77C
:1018F000F3FEA8B194F8280000F0040038B1039872
:10190000A26981182A46204600F0A6F805E094F85E
:10191000280000F0FE0084F828002046216A88474D
:1019200035E000BF94F8280000F0FE0084F828009D
:101930002DE000BF94F8280040F0010084F8280052
:101940000398A061A06908B1012000E0002028B937
:1019500040F2593214A11EA0FEF7AEFCA069411955
:101960002B462A462046FFF7B7FE10E094F82800E1
:1019700000F0020018B9204600F024FB05E094F8BE
:10198000280000F0FE0084F8280000E000BF00BF3F
:10199000002202A91248006801F062F900287FF4D1
:1019A0006CAF06B070BD00002E2E5C2E2E5C4D6913
:1019B00064646C6577617265735C467265655254E8
:1019C0004F535C7372635C74696D6572732E630050
:1019D0004572726F723A2025732C2025640D0A001F
:1019E0008C000020F8B505460C4600F043FE684622
:1019F00000F05EF80646009820BB44B9B54206D810
:101A000001F020FE31462846FFF712FF1CE03CB1F2
:101A10000E480068006808B9012000E00020044674
:101A2000A91B22460A48006800F096FB01F00AFE56
:101A300050B94FF0805007490860BFF34F8FBFF394
:101A40006F8F01E001F0FEFDF8BD0000880000206E
:101A50008C00002004ED00E070B504460D461646EB
:101A600004E0A06905442046216A8847A06941191D
:101A70002B4632462046FFF72FFE0028F1D170BDDD
:101A800009480068006808B9012000E0002020B182
:101A90004FF0FF300549086005E003480068C06862
:101AA0000068024908607047480000207400002068
:101AB00070B5044601F022FB0546074800688542E0
:101AC00004D200F00BF80120206001E0002020602B
:101AD00001480560284670BD9400002070B508E0FC
:101AE0000D480068C06804684FF0FF312046FFF7DA
:101AF0009FFE09480068006808B9012000E0002046
:101B00000028EDD0044805680448006802490860D0
:101B10000248056070BD000084000020880000209D
:101B20000B480068401C08B9012000E0002020B9E3
:101B3000CE2208A115A0FEF7BFFB00BF502080F306
:101B40001188BFF34F8FBFF36F8F00BF00BFFEE759
:101B5000980000202E2E5C2E2E5C4D6964646C650E
:101B600077617265735C4672656552544F535C7061
:101B70006F727461626C655C525644535C41524DA5
:101B80005F434D335C706F72742E63004572726FE9
:101B9000723A2025732C2025640D0A0008B500BF79
:101BA0006846FFF721FC044620460099FFF71AFF1C
:101BB000FFF760FEF4E770B5044600F07BF994F996
:101BC000455019E0A06C30B12046FFF7CDFD88B13B
:101BD00000F0CCFB0EE0606A08B9012000E00020B4
:101BE00038B904F1240001F085FC18B100F0BEFB07
:101BF00000E003E0681E45B2002DE3DC00BFFF20DB
:101C000084F8450000F0A0F900F054F994F944502C
:101C100010E0206908B9012000E0002048B904F173
:101C2000100001F067FC08B100F0A0FB681E45B28F
:101C300000E001E0002DECDC00BFFF2084F8440050
:101C400000F082F970BD00002DE9F04104464FF02C
:101C5000000800F00FFD4948006808B9FFF7D8FBFD
:101C6000474800682040002875D1002C23D004F19B
:101C70000800A0421FD9083404F0070000281BD038
:101C800004F00700C0F108002044A04211D904F07C
:101C90000700C0F10800044404F0070008B901205F
:101CA00000E0002040B99C2236A144A0FEF704FBCE
:101CB00002E0002400E00024002C4CD043480068DF
:101CC000844248D8424E3046056801E02E462D68D1
:101CD0006868A04202D228680028F7D12748006827
:101CE000854238D0306800F108082868306068689C
:101CF000001B102813D92F1907F0070008B901207D
:101D000000E0002020B9CF221EA12CA0FEF7D4FABB
:101D10006868001B78606C603846FFF7A9FC2B49A7
:101D200068680968081A294908600846006829494E
:101D30000968884203D2254800682649086010498E
:101D400068680968084368600020286022480068C5
:101D5000401C2149086001F075FC08F0070008B933
:101D6000012000E0002028B94FF4887205A113A0DB
:101D7000FEF7A2FA4046BDE8F0810000AC0000206A
:101D8000C00000202E2E5C2E2E5C4D6964646C65B4
:101D900077617265735C4672656552544F535C702F
:101DA0006F727461626C655C4D656D4D616E675CF0
:101DB000686561705F342E63000000004572726FC9
:101DC000723A2025732C2025640D0A00B0000020F3
:101DD000A4000020B4000020B800002006480068DD
:101DE00030B10549096801F15000096D491C0160D5
:101DF000014800687047000044000020001F4FF0B9
:101E000080730360001F21F001030360001F034B78
:101E1000036014380260203870470000211B00085E
:101E200001460A69D1E901309860D1E9010358609F
:101E30005068884201D188685060002008611068AD
:101E4000401E10601068704700F1080141604FF0BB
:101E5000FF31816000F10801C16001610021016072
:101E6000704700210161704710B502460B685C1C89
:101E70000CB9106907E002F1080000E0406844680E
:101E800024689C42FAD944684C604C68A160886020
:101E900041600A611468641C146010BD42684A60A5
:101EA00093688B60936859609160086103685B1C5C
:101EB0000360704710B500BF502080F31188BFF356
:101EC0004F8FBFF36F8F00BF0B480068401C0A495B
:101ED00008600846006801280DD108480068C0B2B3
:101EE00008B9012000E0002028B940F2751204A1D1
:101EF00011A0FEF7E1F910BD9800002004ED00E00C
:101F00002E2E5C2E2E5C4D6964646C657761726563
:101F1000735C4672656552544F535C706F727461A6
:101F2000626C655C525644535C41524D5F434D3385
:101F30005C706F72742E63004572726F723A202566
:101F4000732C2025640D0A0010B50B48006828B9D1
:101F50004FF4BE7209A117A0FEF7AEF9064800685B
:101F6000401E054908600846006820B9002080F33B
:101F7000118800BF00BF10BD980000202E2E5C2EDF
:101F80002E5C4D6964646C6577617265735C467242
:101F9000656552544F535C706F727461626C655C1E
:101FA000525644535C41524D5F434D335C706F72E7
:101FB000742E63004572726F723A2025732C2025AF
:101FC000640D0A0070B506463546002E3AD0083D2D
:101FD0002C461D4960680968084008B1012000E0EE
:101FE000002028B94FF4927218A126A0FEF764F9D8
:101FF000206808B9012000E0002028B940F225122D
:1020000012A120A0FEF758F90F496068096808403E
:10201000C0B12068B0B90C49606809688843606045
:1020200000F028FB1B4960680968084419490860EA
:102030002046FFF71DFB18480068401C1649086041
:1020400001F000FB70BD0000C00000202E2E5C2EB1
:102050002E5C4D6964646C6577617265735C467271
:10206000656552544F535C706F727461626C655C4D
:102070004D656D4D616E675C686561705F342E63A0
:10208000000000004572726F723A2025732C2025E3
:10209000640D0A00B0000020BC00002000204FF0BA
:1020A000E0210861886107480068C0084FF47A7130
:1020B000B0FBF1F0401E4FF0E021486103200861C1
:1020C00070470000000000202DE9F04105460F4652
:1020D00000262DB940F6C92210A11AA0FEF7ECF88F
:1020E000BFB1002412E01B4800EBC4004068A842C6
:1020F00003D1184800EBC4060AE036B9154850F879
:10210000340010B9134800EBC406641C082CEAD351
:1021100000BF0EB137607560BDE8F0812E2E5C2ED9
:102120002E5C4D6964646C6577617265735C4672A0
:10213000656552544F535C7372635C717565756568
:102140002E6300004572726F723A2025732C202591
:10215000640D0A00C40000202DE9F04105460E463A
:1021600017462C46FFF7A6FE94F94400401C10B910
:10217000002084F8440094F94500401C10B9002068
:1021800084F84500FFF7E0FEA06B28B93A463146D7
:1021900004F1240000F024F92046FFF70CFDBDE80F
:1021A000F081000070B504460025ACB10F4800680E
:1021B00008B9012000E0002028B940F249520CA1E2
:1021C00015A0FEF779F800F055FA00212046FEF739
:1021D00071FF01F037FA05463DB94FF080501249C2
:1021E0000860BFF34F8FBFF36F8F70BD800000207A
:1021F0002E2E5C2E2E5C4D6964646C657761726571
:10220000735C4672656552544F535C7372635C74C1
:1022100061736B732E6300004572726F723A2025F2
:10222000732C2025640D0A0004ED00E070B505460E
:10223000FFF740FE15B92F48006800E02846044625
:10224000201DFFF7EDFD78B9E06A00EB80002A4918
:1022500051F8200040B994F82C10012088402749FB
:102260000968814325480160A06A18B104F118008B
:10227000FFF7D6FD22480068401C214908601D4830
:102280000068844209D1211D1E48FFF707FE1E4841
:102290000068401C1C49086006E01C480068401E9D
:1022A0001A490860FFF7ECFBFFF74EFE1148006883
:1022B000844202D02046FFF783F815480068C0B179
:1022C0000C480068844214D11248006808B9012003
:1022D00000E0002028B940F2DC420FA118A0FDF771
:1022E000EBFF4FF080501A490860BFF34F8FBFF3E8
:1022F0006F8F70BD44000020040100205C000020AE
:1023000070000020C0030020500000205400002076
:1023100060000020800000202E2E5C2E2E5C4D6977
:1023200064646C6577617265735C4672656552546E
:102330004F535C7372635C7461736B732E63000044
:102340004572726F723A2025732C2025640D0A00A5
:1023500004ED00E003490968016003490968416030
:10236000704700006C000020580000200120014947
:10237000086070476800002070B504460D462CB90F
:1023800040F61C4207A111A0FDF796FF1348016813
:1023900018312046FFF768FD01212846FEF78AFE26
:1023A00070BD00002E2E5C2E2E5C4D6964646C6541
:1023B00077617265735C4672656552544F535C7306
:1023C00072635C7461736B732E6300004572726F8D
:1023D000723A2025732C2025640D0A004400002049
:1023E00070B504460E4615462CB940F6524211A16E
:1023F0001AA0FDF761FF60681C490968C8611B49A4
:10240000826809680A62194909681831826851604E
:102410001649096818318160144909688C6221687D
:10242000491C21600DB14FF0FF3629463046FEF7BA
:1024300041FE70BD2E2E5C2E2E5C4D6964646C6571
:1024400077617265735C4672656552544F535C7375
:1024500072635C7461736B732E6300004572726FFC
:10246000723A2025732C2025640D0A0044000020B8
:102470002DE9F04706460F4634464FF00109002E7D
:1024800070D0206D28B941F29F0237A140A0FDF71E
:1024900013FFE06CB84201D23D4600E0E56CE06A13
:1024A000A8425FD0206D01285CD13D48006884427D
:1024B00001D0012000E0002028B941F2BA022AA18F
:1024C00033A0FDF7F9FED4F82C80E562A06900F096
:1024D000004010B9C5F12000A06108EB8801314A25
:1024E00002EB81016069884201D1012000E00020F7
:1024F000C0B3201DFFF794FC40B994F82C100120C4
:1025000088402949096881432748016094F82C10C4
:102510000120884024490968084323490860E16A8A
:1025200001EB81011F4A02EB81014868A0608268CB
:10253000E260211D826851608160E16A01EB8101E6
:10254000184A02EB81026261E16A01EB8101154ADE
:1025500052F82110491CE26A02EB8202114B43F847
:10256000221000BFBDE8F0872E2E5C2E2E5C4D6938
:1025700064646C6577617265735C4672656552541C
:102580004F535C7372635C7461736B732E630000F2
:102590004572726F723A2025732C2025640D0A0053
:1025A00044000020040100205C0000201CB51B48F2
:1025B00000210B468022CDE9001019A11A4800F035
:1025C0005DFD0446012C02D101F00EF90446012CF8
:1025D00015D100BF502080F31188BFF34F8FBFF398
:1025E0006F8F00BF4FF0FF30104908600120104985
:1025F000086000200F49086000F0A2F80BE0601CA2
:1026000008B1012000E0002028B94FF404620AA1BB
:1026100013A0FDF751FE164800681CBD780000208D
:1026200049444C45000000008D140008740000204F
:1026300060000020580000202E2E5C2E2E5C4D697C
:1026400064646C6577617265735C4672656552544B
:102650004F535C7372635C7461736B732E63000021
:102660004572726F723A2025732C2025640D0A0082
:102670007C00002002480068401C01490860704747
:102680008000002010B51B48006818B101201A49CD
:1026900008602DE000201849086018480068B0FA6A
:1026A00080F0C0F11F0404EB8400154951F82000AC
:1026B00008B1012000E0002028B940F6024211A133
:1026C0001AA0FDF7F9FD04EB84010D4A02EB81002D
:1026D00041684968416000F1080142688A4202D1BC
:1026E0004168496841604168C968144A116000BF87
:1026F00010BD000080000020680000205C00002069
:10270000040100202E2E5C2E2E5C4D6964646C65E5
:1027100077617265735C4672656552544F535C73A2
:1027200072635C7461736B732E6300004572726F29
:10273000723A2025732C2025640D0A0044000020E5
:102740001CB53B4C204600780190FF2021460870C4
:102750000846007800909DF8000000F0F0009DF819
:102760000010884201D1012000E0002028B940F289
:102770001F1230A13DA0FDF79FFD9DF8000000F065
:1027800050003E49087007203D49086009E03C4878
:102790000068401E3A4908609DF800004006000E9F
:1027A00000909DF8000000F080008028EFD03448B1
:1027B0000068C0F10700042801D1012000E00020DA
:1027C00028B940F233121BA128A0FDF775FD2C4853
:1027D0000068C0F10700042801D1012000E00020BA
:1027E00028B94FF49E7213A120A0FDF765FD24487F
:1027F00000680002224908600846008800F4E06092
:1028000008600B49019808701E48006840F4700089
:102810001C4908600846006840F070400860FFF7F7
:102820003DFC002018490860FDF7EAFC00201CBDB3
:1028300000E400E02E2E5C2E2E5C4D6964646C6515
:1028400077617265735C4672656552544F535C7074
:102850006F727461626C655C525644535C41524DB8
:102860005F434D335C706F72742E63004572726FFC
:10287000723A2025732C2025640D0A009C0000204C
:10288000A000002020ED00E09800002010B500BF5F
:10289000502080F31188BFF34F8FBFF36F8F00BFBD
:1028A00000F032FC18B14FF080500449086000BFBE
:1028B000002080F3118800BF10BD000004ED00E08F
:1028C0002DE9F0410446012600272246002101207F
:1028D00000F008F805462846FEF7ECFD2846BDE85E
:1028E000F08100002DE9F84305460E461746002406
:1028F000E5B1601EB0FBF5F0B04217D305FB06F062
:1029000010F1550F12D805FB06F909F15400FFF735
:102910009BF904468CB1A04608F154083B46424658
:10292000314628460094FEF7D4FD06E02CB94FF45A
:10293000E37203A10CA0FDF7BFFC2046BDE8F883BD
:102940002E2E5C2E2E5C4D6964646C657761726519
:10295000735C4672656552544F535C7372635C716D
:10296000756575652E6300004572726F723A202599
:10297000732C2025640D0A002DE9F04105460E4612
:1029800001272C462CB94FF488722CA135A0FDF7F5
:1029900093FC002C42D0E06B00283FD04FF0FF3179
:1029A000E06BB1FBF0F0216C884237D3FFF782FA7D
:1029B000D4E90F12206801FB0200A0600020A06390
:1029C00020686060E06B401E226C216800FB0211F1
:1029D000E160FF2084F8440084F845009EB9206936
:1029E00008B9012000E00020A8B904F1100000F0AF
:1029F00081FD80B14FF080501E490860BFF34F8FBA
:102A0000BFF36F8F07E004F11000FFF71DFA04F128
:102A10002400FFF719FAFFF797FA00E000270FB13B
:102A2000012000E0002028B940F2451203A10DA0CA
:102A3000FDF742FC3846BDE8F08100002E2E5C2EEA
:102A40002E5C4D6964646C6577617265735C467277
:102A5000656552544F535C7372635C71756575653F
:102A60002E6300004572726F723A2025732C202568
:102A7000640D0A0004ED00E02DE9FF4782B0064630
:102A800088461D464FF0000934462CB940F22E32DC
:102A900064A16EA0FDF710FCB8F1000F01D1206C0D
:102AA00008B9012000E0002028B940F22F325DA1D2
:102AB00066A0FDF701FC022D02D1E06B012801D1D7
:102AC000012000E0002028B94FF44C7255A15FA00E
:102AD000FDF7F2FB00F002FB08B9049808B90120E9
:102AE00000E0002028B940F233324EA157A0FDF794
:102AF000E3FB00BFFFF7DEF9A06BE16B884201D377
:102B0000022D3ED1D4F838A02A4641462046FEF791
:102B100018FC0746A06C88B1022D02D1BAF1000F53
:102B200029D12046FEF720FE28B34FF080504B49B4
:102B30000860BFF34F8FBFF36F8F1CE0606A08B966
:102B4000012000E0002068B904F1240000F0D2FC6C
:102B500088B14FF0805041490860BFF34F8FBFF3F9
:102B60006F8F08E03FB14FF080503C490860BFF3E1
:102B70004F8FBFF36F8FFFF7E7F9012006B0BDE875
:102B8000F087049818B9FFF7DFF90020F6E7B9F1EC
:102B9000000F04D16846FFF7DDFB4FF00109FFF796
:102BA000D3F9FFF767FDFFF785F994F94400401C5E
:102BB00010B9002084F8440094F94500401C10B975
:102BC000002084F84500FFF7BFF904A9684600F02B
:102BD000EDF9F8B92046FEF7B8FDA8B104F11000F0
:102BE0000499FFF7C9FB2046FEF7E5FF00F02AFD38
:102BF00000287FF47FAF4FF0805018490860BFF382
:102C00004F8FBFF36F8F75E72046FEF7D4FF00F0BC
:102C100019FD6FE72046FEF7CEFF00F013FD002000
:102C2000ACE700002E2E5C2E2E5C4D6964646C6552
:102C300077617265735C4672656552544F535C737D
:102C400072635C71756575652E6300004572726F05
:102C5000723A2025732C2025640D0A0004ED00E053
:102C60002DE9F74183B005460E464FF000082C468B
:102C70002CB940F251524CA155A0FDF71DFB0EB9E5
:102C8000206C08B9012000E0002028B940F255521C
:102C900045A14FA0FDF710FB00F020FA08B90598F8
:102CA00008B9012000E0002028B940F25A523EA1A4
:102CB00047A0FDF701FB00BFFFF7FCF8A76BF7B1DA
:102CC00031462046FEF728FB781EA063206908B92C
:102CD000012000E0002060B904F1100000F00AFCBF
:102CE00038B14FF080503E490860BFF34F8FBFF3BB
:102CF0006F8FFFF729F9012006B0BDE8F081059834
:102D000018B9FFF721F90020F6E7B8F1000F04D158
:102D100001A8FFF71FFB4FF00108FFF715F9FFF7B8
:102D2000A9FCFFF7C7F894F94400401C10B9002033
:102D300084F8440094F94500401C10B9002084F840
:102D40004500FFF701F905A901A800F02FF9F0B936
:102D50002046FEF7EDFCA0B104F124000599FFF731
:102D60000BFB2046FEF727FF00F06CFC0028A3D1E8
:102D70004FF080501A490860BFF34F8FBFF36F8F39
:102D80009AE72046FEF717FF00F05CFC94E7204628
:102D9000FEF711FF00F056FC2046FEF7C9FC0028A4
:102DA0008AD00020A8E700002E2E5C2E2E5C4D69F4
:102DB00064646C6577617265735C467265655254D4
:102DC0004F535C7372635C71756575652E630000AB
:102DD0004572726F723A2025732C2025640D0A000B
:102DE00004ED00E02DE9F34182B005464FF0000804
:102DF0002C4600262CB940F2E3525DA166A0FDF7F7
:102E00005BFA206C08B9012000E0002028B940F2EC
:102E1000E75257A160A0FDF74FFA00F05FF908B93B
:102E2000039808B9012000E0002028B940F2EC52D4
:102E30004FA159A0FDF740FA00BFFFF73BF8A76B81
:102E4000FFB1781EA063206810B9FEF7C7FFA0602D
:102E5000206908B9012000E0002060B904F11000E9
:102E600000F048FB38B14FF080504F490860BFF385
:102E70004F8FBFF36F8FFFF767F8012004B0BDE8F5
:102E8000F081039870B90EB9012000E0002028B944
:102E900040F2326236A140A0FDF70EFAFFF754F877
:102EA0000020EBE7B8F1000F04D16846FFF752FAB3
:102EB0004FF00108FFF748F8FFF7DCFBFEF7FAFFD9
:102EC00094F94400401C10B9002084F8440094F99F
:102ED0004500401C10B9002084F84500FFF734F885
:102EE00003A9684600F062F840BB2046FEF720FCCC
:102EF000F0B1206838B9FEF7DDFFA06800F084FA71
:102F00000646FFF721F804F124000399FFF734FA8D
:102F10002046FEF750FE00F095FB00288DD14FF0C3
:102F2000805021490860BFF34F8FBFF36F8F84E754
:102F30002046FEF740FE00F085FB7EE72046FEF7C8
:102F40003AFE00F07FFB2046FEF7F2FB0028EED0B1
:102F50005EB1FEF7AFFF2046FEF73BFA0746394663
:102F6000A068FFF785FAFEF7EFFF002086E7000074
:102F70002E2E5C2E2E5C4D6964646C6577617265E3
:102F8000735C4672656552544F535C7372635C7137
:102F9000756575652E6300004572726F723A202563
:102FA000732C2025640D0A0004ED00E070B5064680
:102FB0000C462EB940F6FD421FA129A0FDF77CF971
:102FC0002CB940F6FE421CA125A0FDF775F9FEF7CD
:102FD00071FF274802687068131A2648006890F845
:102FE000590030B100202349096881F859000125B2
:102FF0001EE02068401C08B9002519E01E49306811
:103000000968884206D07068904203D801250020E4
:1030100020600DE02068984207D92068C01A20601F
:103020003046FFF797F9002502E0002020600125D7
:10303000FEF78AFF284670BD2E2E5C2E2E5C4D6951
:1030400064646C6577617265735C46726565525441
:103050004F535C7372635C7461736B732E63000017
:103060004572726F723A2025732C2025640D0A0078
:1030700058000020440000206C0000202DE9FF4F84
:1030800085B0804689461746DDE912ABB800FEF7E9
:10309000DBFD064656B15C20FEF7D6FD04460CB1BA
:1030A000266304E03046FEF78DFF00E000247CB18B
:1030B0000020CDE900ABCDE902403A464946404602
:1030C000089BFEF71DFA2046FEF75AF8012501E09D
:1030D0004FF0FF35284609B0BDE8F08F0549096873
:1030E00009B9012005E00449096809B9022000E096
:1030F000002070476000002080000020014908681F
:1031000070470000580000202DE9F0414FF0000802
:103110005F48006800287DD15E480068451C5D4816
:103120000560002D1DD15C480068006808B90120C9
:1031300000E0002028B940F6C72258A161A0FDF7A1
:10314000BBF8554807686348006853490860614800
:10315000076061480068401C5F490860FEF790FC0A
:1031600000BF5E480068854277D300BF4A480068C8
:10317000006808B9012000E0002020B14FF0FF30C6
:103180005649086068E044480068C068C4686668DA
:10319000B54202D2514806605EE06069D4E902128D
:1031A0008A60D4E902214A60211D42688A4201D125
:1031B000E1684160002262610168491E0160A06A05
:1031C00098B1A06AD4E907128A60D4E907214A605D
:1031D00004F1180142688A4201D1216A416000224B
:1031E000A2620168491E016000BF94F82C10012002
:1031F00088403B490968084339490860E16A01EBA6
:103200008101384A02EB81014868A0608268E2606F
:10321000211D00E033E0826851608160E16A01EBCA
:103220008101304A02EB81026261E16A01EB8101B6
:103230002C4A52F82110491CE26A02EB8202294B07
:1032400043F822102849E06A0968C96A88428DD388
:103250004FF001088AE700E000BF23480068C06A19
:1032600000EB80001F4951F82000012801D94FF0E0
:1032700001081E48006808B14FF0010804E01C482E
:103280000068401C1A4908604046BDE8F081000013
:103290008000002058000020480000202E2E5C2EC8
:1032A0002E5C4D6964646C6577617265735C46720F
:1032B000656552544F535C7372635C7461736B73D6
:1032C0002E6300004572726F723A2025732C202500
:1032D000640D0A004C0000206C00002074000020E7
:1032E0005C00002004010020440000206800002051
:1032F0006400002070B505462C460026002D5ED0E7
:1033000030480068844201D1012000E0002028B943
:1033100041F24F022CA136A0FCF7CEFF206D28B958
:1033200041F2500228A132A0FCF7C6FF206D401EDA
:103330002065E16CE06A884241D0206D00283ED1D2
:10334000201DFEF76DFD40B994F82C100120884037
:103350002B49096881432A480160E06CE062E06A19
:10336000C0F12000A06194F82C100120884024496D
:103370000968084322490860E16A01EB8101214A9A
:1033800002EB81014868A0608268E260211D8268CA
:1033900051608160E16A01EB81011A4A02EB81020E
:1033A0006261E16A01EB8101164A52F82110491C61
:1033B000E26A02EB8202134B43F8221001263046E8
:1033C00070BD0000440000202E2E5C2E2E5C4D6946
:1033D00064646C6577617265735C467265655254AE
:1033E0004F535C7372635C7461736B732E63000084
:1033F0004572726F723A2025732C2025640D0A00E5
:103400005C0000200401002070B505462C46002613
:10341000002D67D03449E06A0968C96A88425AD2E7
:10342000A06900F0004028B92F480068C06AC0F1C8
:103430002000A061E16A01EB81012C4A02EB8101CD
:103440006069884201D1012000E00020E0B3201D26
:10345000FEF7E6FC40B994F82C100120884024497E
:1034600009688143224801601F480068C06AE06221
:1034700094F82C10012088401D49096808431C4914
:103480000860E16A01EB8101184A02EB810148689A
:10349000A0608268E260211D826851608160E16AFB
:1034A00001EB8101114A02EB81026261E16A01EBE9
:1034B00081010E4A52F82110491CE26A02EB820295
:1034C0000A4B43F8221004E0FFE707480068C06A8F
:1034D000E062012606E00449E06C0968C96A884296
:1034E00000D20126304670BD4400002004010020B7
:1034F0005C00002070B50646F068C4682CB940F640
:1035000082423CA145A0FCF7D7FEA06AD4E907128D
:103510008A60D4E907214A6004F1180142688A42AE
:1035200001D1216A41600022A2620168491E016046
:103530003E48006800283DD16069D4E902128A60E3
:10354000D4E902214A60211D42688A4201D1E16822
:103550004160002262610168491E016094F82C10EC
:103560000120884032490968084331490860E16A0E
:1035700001EB81012F4A02EB81014868A06082685B
:10358000E260211D826851608160E16A01EB810186
:10359000284A02EB81026261E16A01EB8101254A5E
:1035A00052F82110491CE26A02EB8202214B43F8D7
:1035B000221010E020494868E0618268226204F12C
:1035C00018018268516081601B4AA2621146096835
:1035D000491C116000BF1949E06A0968C96A88423C
:1035E00004D9012501201649086000E0002528467D
:1035F00070BD00002E2E5C2E2E5C4D6964646C65DF
:1036000077617265735C4672656552544F535C73A3
:1036100072635C7461736B732E6300004572726F2A
:10362000723A2025732C2025640D0A0080000020AA
:103630005C00002004010020AC03002044000020B6
:103640006800002070B5002400265048006828B9A2
:1036500040F6B3024EA158A0FCF72EFEFEF72AFC5E
:103660004A480068401E494908600846006800282A
:103670007ED15548006800287AD05BE05348C06886
:10368000C468A06AD4E907128A60D4E907214A60B5
:1036900004F1180142688A4201D1216A4160002286
:1036A000A2620168491E01606069D4E902128A6061
:1036B000D4E902214A60211D42688A4201D1E168B1
:1036C0004160002262610168491E016094F82C107B
:1036D000012088403E49096808433D490860E16A85
:1036E00001EB81013B4A02EB81014868A0608268DE
:1036F000E260211D826851608160E16A01EB810115
:10370000344A02EB81026261E16A01EB8101314AD4
:1037100052F82110491CE26A02EB82022D4B43F859
:1037200022102D49E06A0968C96A884202D3012043
:103730002A4908602548006808B9012000E00020F7
:1037400000289BD00CB1FEF79BF92548056865B1B0
:1037500000BFFFF7D9FC10B10120204908606D1EA1
:10376000002DF6D100201E4908601C48006800E0CA
:1037700008E038B1012630071A490860BFF34F8FBF
:10378000BFF36F8FFEF7E0FB304670BD8000002076
:103790002E2E5C2E2E5C4D6964646C6577617265BB
:1037A000735C4672656552544F535C7372635C740C
:1037B00061736B732E6300004572726F723A20253D
:1037C000732C2025640D0A0054000020AC03002057
:1037D0005C0000200401002044000020680000205C
:1037E0006400002004ED00E01CB50024FDF73EFD60
:1037F0000B48006858B10B481F2100234FF480721A
:10380000CDE9001008A10A48FFF738FC04462CB99E
:1038100040F2191207A111A0FCF74EFD20461CBD75
:103820008C00002090000020546D722053766300BD
:103830009D1B00082E2E5C2E2E5C4D6964646C6509
:1038400077617265735C4672656552544F535C7361
:1038500072635C74696D6572732E63004572726F7A
:10386000723A2025732C2025640D0A008C3800083C
:1038700000000020C40000006C010008503900085E
:10388000C4000020AC3100008801000800A24A04F6
:103890000000000000000000010203040607080900
:1038A000000000000000000000000000010203040E
:1038B00001020304060708090204060800000000CC
:1038C00000000000000000000000000000000000F8
:1038D00000000000000000000000000000000000E8
:1038E00000000000000000000000000000000000D8
:1038F00000000000000000000000000000000000C8
:1039000000000000000000001F0000000000000098
:1039100000000000000000000000000000000000A7
:1039200000000000AAAAAAAA0000000000000000EF
:103930000000000000000000000000000000000087
:103940000000000000000000000000000000000077
:0400000508000131BD
:00000001FF
