:020000040800F2
:1000000088970020E101000815060008BF040008D9
:10001000110600088D030008850B00080000000091
:10002000000000000000000000000000490100087E
:1000300091030008000000008D0100087D09000800
:10004000FB010008FB010008FB010008FB010008A0
:10005000FB010008FB010008FB010008FB01000890
:10006000FB010008FB010008FB010008FB01000880
:10007000FB010008FB010008FB010008FB01000870
:10008000FB010008FB010008FB010008FB01000860
:10009000FB010008FB010008FB010008FB01000850
:1000A000FB010008FB010008FB010008FB01000840
:1000B000FB010008FB010008FB010008FB01000830
:1000C000FB010008FB010008FB010008FB01000820
:1000D000FB010008FB010008FB010008FB01000810
:1000E000FB010008FB010008FB010008FB01000800
:1000F000FB010008FB010008FB010008FB010008F0
:10010000FB010008FB010008FB010008FB010008DF
:10011000FB010008FB010008FB010008FB010008CF
:10012000FB010008FB010008FB010008FB010008BF
:10013000DFF810D000F07CF800480047BD0D000843
:10014000AFF3008088970020224B19680868B0E858
:10015000F00F80F30988BFF36F8F4FF0000080F33A
:1001600011884EF00D0E7047000000000648006830
:10017000006880F3088862B661B6BFF34F8FBFF3A3
:100180006F8F00DF00BF00BF08ED00E0EFF30980D4
:10019000BFF36F8F0F4B1A6820E9F00F106008B59E
:1001A0004FF0500080F31188BFF34F8FBFF36F8F74
:1001B00001F092FB4FF0000080F31188BDE8084089
:1001C00019680868B0E8F00F80F30988BFF36F8FF3
:1001D000704700BF38000020EFF305807047000033
:1001E0000648804706480047FEE7FEE7FEE7FEE7D1
:1001F000FEE7FEE7FEE7FEE7FEE7FEE78D09000803
:100200003101000830B50B460146002020220124B0
:1002100009E021FA02F59D4205D303FA02F5491BD4
:1002200004FA02F52844151EA2F10102F1DC30BDEA
:10023000064C074D06E0E06840F0010394E8070033
:1002400098471034AC42F6D3FFF776FF181F00082A
:10025000381F00081CB5012401F03CF91B4801219E
:1002600000238022CDE9001019A11D4801F0F4FB04
:100270000446012C02D11BA000F086FC214802217B
:1002800000238022CDE900101FA1234801F0E4FBE8
:100290000446012C02D121A000F076FC274803215E
:1002A00000238022CDE9001025A1284801F0D4FBCD
:1002B0000446012C02D126A000F066FC2B48006801
:1002C00001F026FA01F048F91CBD00002C000020C6
:1002D00052656365697665315F5461736B00000038
:1002E00021070008B4B4BDA852656365697665311D
:1002F0005F5461736BC8CECEF1B3C9B9A6210D0AA4
:1003000000000000300000205265636569766532A8
:100310005F5461736B00000079070008B4B4BDA896
:1003200052656365697665325F5461736BC8CECE82
:10033000F1B3C9B9A6210D0A000000003400002065
:1003400053656E645F5461736B000000D107000851
:10035000B4B4BDA853656E645F5461736BC8CECEF0
:10036000F1B3C9B9A6210D0A000000002800002041
:1003700010B54FF4407000F04FF94FF4E13000F049
:1003800035FB00F09FF800F019F910BD00BFFEE743
:1003900070472DE9F0410246002500260020002389
:1003A0000024002791F803C00CF00F0591F803C05A
:1003B0000CF0100CBCF1000F03D091F802C04CEA15
:1003C000050591F800C0BCF1000F31D01468002081
:1003D0002BE04FF0010C0CFA00F3B1F800C00CEA6E
:1003E00003069E4220D183004FF00F0C0CFA03F756
:1003F000BC4305FA03FC4CEA040491F803C0BCF1C9
:10040000280F06D14FF0010C0CFA00FCC2F814C002
:100410000AE091F803C0BCF1480F05D14FF0010C80
:100420000CFA00FCC2F810C0401C0828D1D314609C
:10043000B1F800C0BCF1FF0F34DD546800202EE09D
:1004400000F1080C4FF0010808FA0CF3B1F800C0F5
:100450000CEA03069E4221D183004FF00F0C0CFAE8
:1004600003F7BC4305FA03FC4CEA040491F803C00B
:10047000BCF1280F05D100F1080C08FA0CF8C2F8FD
:10048000148091F803C0BCF1480F07D100F1080CAB
:100490004FF0010808FA0CF8C2F81080401C082838
:1004A000CED35460BDE8F0810246002093680B4033
:1004B0000BB1012000E0002070470161704700BFD0
:1004C000FEE7000008B50121042000F0AFF801218B
:1004D000402000F0ABF81820ADF8000048208DF85F
:1004E000030069460648FFF754FF0120ADF80000FD
:1004F00028208DF8030069460248FFF74AFF08BD2F
:10050000001801400008014010B500242848007878
:10051000002837D001212748FFF7C6FF48B9082136
:100520002548FFF7C1FF20B110212348FFF7BCFF8A
:1005300008BB0A2000F024FC01211E48FFF7B4FF8D
:1005400048B908211C48FFF7AFFF20B110211A4815
:10055000FFF7AAFF78B90020154908701021164846
:10056000FFF7A2FF08B901240CE008211248FFF7A9
:100570009BFF08B9022405E001210E48FFF794FF14
:1005800000B1032401210B48FFF78EFF68B9082151
:100590000948FFF789FF40B107480830006800F0BC
:1005A000100010B1012002490870204610BD000063
:1005B00098000020000801400018014008B5012102
:1005C000082000F033F80121402000F02FF820200F
:1005D000ADF8000010208DF8030003208DF8020014
:1005E00069460948FFF7D5FE2020ADF800006946AE
:1005F0000648FFF7CEFE20210348FFF75EFF2021CB
:100600000248FFF75AFF08BD000C014000180140E6
:1006100000BFFEE77047000002490143024A116033
:10062000704700000000FA050CED00E029B1064A11
:1006300092690243044B9A6104E0034A926982433F
:10064000014B9A61704700000010024030B5002154
:100650000022002400232D4D6D6805F00C0121B10E
:10066000042905D0082923D105E0294D056022E0A1
:10067000274D05601FE0254D6D6805F47012234D70
:100680006D6805F48034022505EB92421CB9214DBA
:10069000554305600BE01D4D6D6805F400351DB137
:1006A0001C4D5543056002E0194D5543056002E0BD
:1006B000174D056000BF00BF144D6D6805F0F001D7
:1006C0000909154D6B5C0568DD4045600F4D6D688F
:1006D00005F4E061090A104D6B5C4568DD408560FA
:1006E0000A4D6D6805F46051C90A0B4D6B5C456895
:1006F000DD40C560054D6D6805F44041890B074D2F
:100700006B5CC568B5FBF3F5056130BD00100240B8
:1007100000127A0000093D0014000020240000208F
:1007200008B5012413E04FF0FF336A461946002054
:1007300001F010FB0446012C03D105A0009900F044
:1007400023FA0C48006880F020000A490860EAE7B4
:1007500052656365697665315F5461736B20C8CEFD
:10076000CEF1CDA8D6AACFFBCFA2CEAA2025642059
:100770000D0A00000C0C014008B5012413E04FF0F5
:10078000FF336A461946002001F0E4FA0446012CC2
:1007900003D105A0009900F0F7F90C48006880F03B
:1007A00020000A490860EAE75265636569766532A8
:1007B0005F5461736B20C8CECEF1CDA8D6AACFFB13
:1007C000CFA2CEAA202564200D0A00000C180140FB
:1007D00001240125022627E0FFF796FE012802D01A
:1007E00002281CD10DE00023032229460F4800688F
:1007F00001F062F90446012C02D10DA000F0C4F909
:100800000EE00023032231461548006801F054F938
:100810000446012C02D113A000F0B6F900E000BF9D
:1008200000BF1E2000F038FFD6E700002C0000209B
:1008300052656365697665315F5461736B5F4861CA
:100840006E646C6520C8CECEF1CDA8D6AACFFBCF02
:10085000A2B7A2CBCDB3C9B9A6210D0A00000000F2
:100860003000002052656365697665325F546173BC
:100870006B5F48616E646C6520C8CECEF1CDA8D6A2
:10088000AACFFBCFA2B7A2CBCDB3C9B9A6210D0A7F
:100890000000000010B500F001F810BD0CB50020FC
:1008A000019000903348006840F48030314908607E
:1008B00000BF3048006800F4003000900198401CF0
:1008C0000190009818B90198B0F5A06FF1D12948AE
:1008D000006800F4003010B10120009001E0002019
:1008E00000900098012843D12348006840F0100090
:1008F000214908600846006820F0030008600846A7
:10090000006840F0020008601A48406819494860D1
:100910000846406848600846406840F48060486087
:100920000846406820F47C1048600846406840F45F
:10093000E81048600846006840F08070086000BF1A
:100940000C48006800F000700028F9D009484068A1
:1009500020F00300074948600846406840F0020064
:10096000486000BF0348406800F00C000828F9D137
:100970000CBD0000001002400020024010B501F044
:1009800027F9012801D001F04DF810BD10B513482A
:10099000006840F0010011490860084640681049AD
:1009A00008400E494860084600680E4908400B4957
:1009B00008600846006820F4802008600846406807
:1009C00020F4FE0048604FF41F008860FFF762FFCC
:1009D0004FF000600449086010BD000000100240A4
:1009E0000000FFF8FFFFF6FE08ED00E010B586B04E
:1009F000044601210420FFF719FE01218803FFF7B7
:100A000015FE4FF40070ADF8140018208DF8170093
:100A100003208DF8160005A91348FFF7BAFC4FF420
:100A20008060ADF8140004208DF8170003208DF8C5
:100A3000160005A90C48FFF7ACFC01940020ADF8A6
:100A40000800ADF80A00ADF80C00ADF810000C205D
:100A5000ADF80E0001A9054800F024F80121034873
:100A600000F006F806B010BD000801400038014053
:100A700021B1828942F40052828104E082894DF6DC
:100A8000FF731A408281704702460020B1F5007F53
:100A900000D100BF13880B400BB1012000E0002003
:100AA000704700002DE9F04786B005460E46002449
:100AB000A24600BFA1460027B08900B100BF2F4663
:100AC0002C8A4CF6FF700440F08804432C82AC89D9
:100AD0004EF6F3100440B088318908437189084309
:100AE0000443AC81AC8A4FF6FF400440B089044314
:100AF000AC8201A8FFF7AAFD1F48874202D1DDF8AA
:100B000010A001E0DDF80CA0A88900F4004040B17D
:100B10000AEBCA0000EB0A1031684900B0FBF1F89B
:100B200007E00AEBCA0000EB0A1031688900B0FB4D
:100B3000F1F86420B8FBF0F004012009642101FB06
:100B40001089A88900F4004040B1322000EBC900B0
:100B5000B0FBF1F000F00700044308E0322000EBA6
:100B600009106421B0FBF1F000F00F0004432C8168
:100B700006B0BDE8F087000000380140C1F308026C
:100B80008280704700BFFEE70FB4054B10B503A984
:100B9000044A029800F018F810BC5DF814FB00003D
:100BA000990D00089C00002002E008C8121F08C12F
:100BB000002AFAD170477047002001E001C1121FDE
:100BC000002AFBD1704700002DE9FF4F8BB09A46F9
:100BD0000F460546002606E025280BD052460D9903
:100BE00090476D1C761C28780028F5D10FB0304650
:100BF000BDE8F08F0024A0460122604900E00443D4
:100C000015F8013F203B02FA03F00842F7D128789B
:100C10002E2817D115F8010F44F004042A280ED00D
:100C20006FF02F022878A0F1300109290AD808EBCB
:100C3000880102EB410100EB01086D1CF2E757F857
:100C4000048B6D1C287869283ED006DC0028CDD0A6
:100C500063280BD0642804D136E0732810D075289F
:100C60004BD052460D999047761C85E017F8040B3F
:100C70008DF8000000208DF80100E946012003E016
:100C800057F8049B4FF0FF3061074FF0000401D488
:100C90000AE0641C44450DDA8442FADB19F80410BA
:100CA0000029F6D106E0641C8442FCDB19F804102C
:100CB0000029F8D1264404E019F8010B52460D9999
:100CC0009047641EF8D257E001CF4FF00A0B00287E
:100CD00002DA40422D2102E0210504D52B218DF8B6
:100CE0002410012103E0E10705D02021F7E70DF1F1
:100CF000200908910CE00021F9E701CF4FF00A0B21
:100D0000F9E75946FFF77EFA01F1300209F8012DA3
:100D10000028F6D1ADEB090000F1200B600701D4EB
:100D20004FF00108D84502DDA8EB0B0000E00020E1
:100D30008046002406E009A85246005D0D999047C0
:100D4000641C761C08988442F5DB04E0302052468F
:100D50000D999047761CB8F10001A8F10108F5DC67
:100D600005E019F8010B52460D999047761CBBF12E
:100D70000001ABF1010BF4DC6D1C34E70928010024
:100D8000002100E0491C00EBC00202EB0012B1EBB5
:100D9000820FF7D37047000070B504460D46E1B2EC
:100DA0000548FFF7EBFE00BF80210348FFF76CFE0C
:100DB0000028F9D0204670BD003801401CB5012440
:100DC000FFF7D6FA0BA0FFF7DFFE0F480121002343
:100DD0008022CDE900100DA1104800F03DFE044630
:100DE000012C02D100F01CFD02E00DA0FFF7CCFEAB
:100DF00000BFFEE7D3B2BCFEB3F5CABCBBAFCDEAC1
:100E0000B3C90D0A00000000280000204170705492
:100E100061736B43726561746500000055020008E0
:100E2000C8CECEF1B4B4BDA8CAA7B0DC0D0A00008C
:100E30002DE9F04105460E461C4807681C4800682D
:100E4000001D00F0FDFA50B91948006890F82C1008
:100E50000120884017490968814316480160681CD1
:100E600038B936B112480168091D134800F026FB55
:100E70001AE07C190E4800684460BC4207D20C4856
:100E80000168091D0D48006800F0FEFA0CE00848F2
:100E90000168091D0A48006800F0F6FA0948006870
:100EA000844201D207480460BDE8F0814C00002074
:100EB0003800002050000020700300204000002077
:100EC0003C0000206800002010B5044600F002FB42
:100ED00023480068401C224908602248006840B945
:100EE000204804600846006801280DD100F036F95A
:100EF0000AE01D48006838B91A480068C06AE16A0B
:100F0000884201D81748046018480068401C1749F7
:100F1000086094F82C10012088401549096808439E
:100F200013490860E16A01EB8101124A02EB81007A
:100F3000211D00F0C3FA00F00FFB0B48006868B1F8
:100F400008480068C06AE16A884207D24FF08050C2
:100F500009490860BFF34F8FBFF36F8F10BD0000CA
:100F600048000020380000205400002064000020C9
:100F700050000020A000002004ED00E070B523E048
:100F800000F0A2FC1348006808B9012000E000202E
:100F9000054600F02FFFBDB900F09CFA0D48C0686F
:100FA000C468201D00F04CFA0B480068401E0A4936
:100FB00008600A480068401E0849086000F0CCFA42
:100FC000204600F00DF800BF044800680028D7D183
:100FD00070BD00005C030020480000204400002099
:100FE00010B50446206B00F0EDFA204600F0EAFA56
:100FF00010BD000030B54FF41043174800F007044F
:101000002CB1C01D20F00700134C041B1B1B024613
:10101000124C22600024114D6C60D018083820F06A
:1010200007000F4C206000240D4D2D686C600C4DA6
:101030002D682C601146441A4C60094C24680C60E1
:10104000084D4C682C60084D4C682C604FF00044F3
:10105000064D2C6030BD0000840300207400002089
:101060007C000020840000208000002088000020F8
:1010700000BFFFF783FF064800680128F9D94FF049
:10108000805004490860BFF34F8FBFF36F8FF0E7C4
:10109000A000002004ED00E02DE9FF5F81460E4630
:1010A0009246DDE90E7B109CAAF10100216B01EB59
:1010B000800828F0070808F0070008B9012000E0C0
:1010C000002028B940F22B321AA120A0FFF75CFDC6
:1010D000002507E0715D04F134004155705D00B9F1
:1010E00002E06D1C102DF5D300BF002143200155F7
:1010F000202F00D31F27E762201D00F0C2F904F162
:10110000180000F0BEF92461C7F12000A0616462FC
:101110000020606484F8480049464046039A00F085
:101120007DF92060BBF1000F01D0CBF80040BDE895
:10113000FF9F00002E2E5C4672656552544F535C33
:101140007372635C7461736B732E63004572726FAC
:10115000723A25732C25640D0A00000010B5002496
:1011600007E004EB84010F4A02EB810000F07CF9F8
:10117000641C202CF5D30C4800F076F90B4800F0E5
:1011800073F90B4800F070F90A4800F06DF90A484D
:1011900000F06AF9044809490860044808490860F1
:1011A00010BD0000A0000020200300203403002018
:1011B000480300205C030020700300203C00002056
:1011C0004000002010B50146164800E000680368A2
:1011D0008B42FBD30246436813448B4204D14368DD
:1011E0004C682344436001460A464B681344046834
:1011F000A34211D10C4C03682468A34208D04B6869
:101200000468646823444B6003681B680B6005E056
:10121000054B1B680B6001E003680B60884200D03F
:10122000016010BD740000207C0000200A4909689C
:10123000096809B9012100E0002121B14FF0FF3117
:10124000064A116006E004490968C968C868034A8B
:1012500041681160704700003C00002068000020D9
:101260000B480068401C08B9012000E0002020B9AC
:10127000F42208A111A0FFF787FC00BF502080F3E3
:101280001188BFF34F8FBFF36F8F00BF00BFFEE722
:101290008C0000202E2E5C4672656552544F535CC4
:1012A000706F72745C525644535C41524D5F434DB3
:1012B000335C706F72742E63000000004572726FB1
:1012C000723A25732C25640D0A0000002DE9F041C7
:1012D00004464FF0000800F0F7FA3E48006808B9ED
:1012E000FFF788FE3C480068204000285FD1A4B189
:1012F000083404F0070080B104F00700C0F10800D2
:10130000044404F0070008B9012000E0002020B9DF
:10131000BF2232A13AA0FFF737FC002C47D03C484F
:101320000068844243D83B4E3046056801E02E46B3
:101330002D686868A04202D228680028F7D12548A5
:101340000068854233D0306800F1080828683060B2
:101350006868001B102813D92F1907F0070008B977
:10136000012000E0002020B9EC221CA124A0FFF7FE
:101370000BFC6868001B78606C603846FFF722FF42
:10138000234968680968081A214908600846006806
:1013900021490968884203D21D4800681E49086037
:1013A0000D4968680968084368600020286000F0FB
:1013B00021FD08F0070008B9012000E0002028B94D
:1013C0004FF4967205A10EA0FFF7DEFB4046BDE884
:1013D000F08100007C000020880000202E2E5C465A
:1013E00072656552544F535C706F72745C4D656DDD
:1013F0004D616E675C686561705F342E630000004C
:101400004572726F723A25732C25640D0A00000034
:10141000800000207400002084000020001F4FF096
:1014200080730360001F21F001030360001F034B62
:101430000360143802602038704700006112000811
:1014400001460A69D1E901309860D1E90103586089
:101450005068884201D18868506000200861106897
:10146000401E10601068704700F1080141604FF0A5
:10147000FF31816000F10801C1600161002101605C
:10148000704700210161704710B502460B685C1C73
:101490000CB9106907E002F1080000E040684468F8
:1014A00024689C42FAD944684C604C68A16088600A
:1014B00041600A611468641C146010BD42684A608F
:1014C00093688B60936859609160086103685B1C46
:1014D0000360704710B500BF502080F31188BFF340
:1014E0004F8FBFF36F8F00BF0B480068401C0A4945
:1014F00008600846006801280DD108480068C0B29D
:1015000008B9012000E0002028B94FF4BD7204A101
:101510000DA0FFF739FB10BD8C00002004ED00E0AA
:101520002E2E5C4672656552544F535C706F727418
:101530005C525644535C41524D5F434D335C706F77
:1015400072742E63000000004572726F723A257348
:101550002C25640D0A00000010B50B48006828B95E
:1015600040F2811209A113A0FFF70EFB06480068A4
:10157000401E054908600846006820B9002080F335
:10158000118800BF00BF10BD8C0000202E2E5C46CD
:1015900072656552544F535C706F72745C5256445E
:1015A000535C41524D5F434D335C706F72742E63D8
:1015B000000000004572726F723A25732C25640D8D
:1015C0000A00000070B506463546002E35D0083DAD
:1015D0002C461A4960680968084008B1012000E0FB
:1015E000002028B94FF4A07215A11EA0FFF7CCFA75
:1015F000206808B9012000E0002028B940F241121B
:101600000FA118A0FFF7C0FA0C49606809680840EC
:1016100098B1206888B909496068096888436060A2
:1016200000F052F9134960680968084411490860DC
:101630002046FFF7C7FD00F0DDFB70BD88000020ED
:101640002E2E5C4672656552544F535C706F7274F7
:101650005C4D656D4D616E675C686561705F342ED1
:10166000630000004572726F723A25732C25640D79
:101670000A00000080000020064800684FF47A71DC
:10168000B0FBF1F0401E4FF0E021486107200861F7
:10169000704700000000002070B504460025ACB182
:1016A0000F48006808B9012000E0002028B940F286
:1016B000CF420CA111A0FFF767FA00F005F9002155
:1016C0002046FFF7B5FB00F095FB05463DB94FF00E
:1016D00080500E490860BFF34F8FBFF36F8F70BD0E
:1016E000700000202E2E5C4672656552544F535C8C
:1016F0007372635C7461736B732E63004572726FF7
:10170000723A25732C25640D0A00000004ED00E0F8
:1017100070B50546FFF7DEFE15B92D48006800E0FC
:1017200028460446201DFFF78BFE78B9E06A00EBDF
:101730008000284951F8200040B994F82C1001206D
:10174000884025490968814323480160A06A18B18F
:1017500004F11800FFF774FE20480068401C1F4980
:1017600008601B480068844209D1211D1C48FFF70E
:10177000A5FE1C480068401C1A49086009E01A4888
:101780000068401E184908602046FFF729FCFFF753
:101790004DFDFFF7E1FE15480068C0B10C48006838
:1017A000844214D11248006808B9012000E00020EA
:1017B00028B940F265420FA114A0FFF7E5F94FF0F8
:1017C000805016490860BFF34F8FBFF36F8F70BD15
:1017D00038000020A00000205000002064000020FD
:1017E0005C0300204400002048000020540000203A
:1017F000700000202E2E5C4672656552544F535C7B
:101800007372635C7461736B732E63004572726FE5
:10181000723A25732C25640D0A00000004ED00E0E7
:101820001CB5184800210B468022CDE9001016A1F6
:10183000174800F011F90446012C15D100BF5020C3
:1018400080F31188BFF34F8FBFF36F8F00BF4FF04E
:10185000FF301049086001200F49086000200F493F
:10186000086000F08FF80BE0601C08B1012000E078
:10187000002028B940F2847209A10FA0FFF784F973
:101880001CBD00006C00002049444C4500000000D5
:101890007110000868000020540000204C00002057
:1018A0002E2E5C4672656552544F535C7372635CB6
:1018B0007461736B732E63004572726F723A257395
:1018C0002C25640D0A00000002480068401C0149F4
:1018D000086070477000002010B51B48006818B100
:1018E00001201A4908602DE00020184908601848B6
:1018F0000068B0FA80F0C0F11F0404EB84001549C1
:1019000051F8200008B1012000E0002028B940F67D
:10191000F62211A116A0FFF737F904EB84010D4A56
:1019200002EB810041684968416000F108014268AA
:101930008A4202D14168496841604168C968104AD9
:10194000116000BF10BD0000700000205C0000208E
:1019500050000020A00000202E2E5C4672656552CB
:10196000544F535C7372635C7461736B732E6300CA
:101970004572726F723A25732C25640D0A000000BF
:10198000380000201CB52248014609780191FF214A
:10199000024611700146097800919DF8001001F08F
:1019A00050011C4A117007211B4A116009E01A49B5
:1019B0000968491E184A11609DF800104906090E71
:1019C00000919DF8001001F080018029EFD01249AC
:1019D00009680902104A11601146098801F4E061A2
:1019E00011600B4A019911700C48006840F47000B6
:1019F0000A4908600846006840F070400860FFF738
:101A00003BFE002006490860FEF7B0FB00201CBD2D
:101A100000E400E0900000209400002020ED00E0B1
:101A20008C00002010B500BF502080F31188BFF358
:101A30004F8FBFF36F8F00BF00F0DAF818B14FF08F
:101A400080500449086000BF002080F3118800BF67
:101A500010BD000004ED00E02DE9FF4F85B0804689
:101A600089461746DDE912ABB800FFF72FFC0646A2
:101A700056B14C20FFF72AFC04460CB1266304E063
:101A80003046FFF79FFD00E000247CB10020CDE947
:101A900000ABCDE902403A4649464046089BFFF775
:101AA000FBFA2046FFF710FA012501E04FF0FF3561
:101AB000284609B0BDE8F08F2DE9F04706460D46EF
:101AC000174698464FF0010A2EB941F2FD0232A1A5
:101AD00037A0FFF759F83446FFF7FCFCB8F1000FC8
:101AE00002D0606CC8F8000094F84890022084F896
:101AF0004800052F17D2DFE807F01503070B0D008C
:101B0000606C284360640EE0606C401C60640AE016
:101B1000656408E0B9F1020F01D0656401E04FF09F
:101B2000000A00E000BF00BFB9F1010F2ED1201D57
:101B3000FFF786FC94F82C100120884020490968A2
:101B400008431F490860E16A01EB81011D4A02EB6D
:101B50008100211DFFF7B2FCA06A08B9012000E056
:101B6000002028B941F235120BA111A0FFF70CF8A3
:101B70001549E06A0968C96A884207D94FF0805060
:101B800012490860BFF34F8FBFF36F8FFFF7E4FC7C
:101B90005046BDE8F08700002E2E5C467265655207
:101BA000544F535C7372635C7461736B732E630088
:101BB0004572726F723A25732C25640D0A0000007D
:101BC00050000020A00000203800002004ED00E0BC
:101BD0000549096809B9012005E00449096809B9FE
:101BE000022000E000207047540000207000002018
:101BF0002DE9F0414FF0000841480068002872D1FB
:101C000040480068451C3F480560EDB93E48006803
:101C1000006808B9012000E0002028B940F6D91278
:101C20003AA140A0FEF7B0FF374807684148006876
:101C3000354908603F4807603F480068401C3E49FE
:101C40000860FFF7F3FA00BF3C48006885423CD3C8
:101C500000BF2D480068006808B9012000E000209E
:101C600020B14FF0FF30354908602DE0264800686C
:101C7000C068C4686668B54202D23048066023E096
:101C8000201DFFF7DDFBA06A18B104F11800FFF773
:101C9000D7FB94F82C100120884029490968084393
:101CA00027490860E16A01EB8101264A02EB8100C5
:101CB000211DFFF703FC2449E06A0968C96A8842CC
:101CC000C7D34FF00108C4E700BF1F480068C06ACF
:101CD00000EB80001B4951F82000012801D94FF08A
:101CE000010805E0FFE719480068401C1749086033
:101CF0001748006808B14FF001084046BDE8F08180
:101D0000700000204C0000203C0000202E2E5C467D
:101D100072656552544F535C7372635C7461736B8C
:101D2000732E63004572726F723A25732C25640D11
:101D30000A00000040000020600000206800002031
:101D400050000020A0000020380000205800002093
:101D50005C0000202DE9F0410746884614461D46E8
:101D6000FFF7B8FB2148006890F84800022818D017
:101D70001E49096801F14400496CB9430160012022
:101D80001A49096881F848005DB101212846FFF72A
:101D90004FF84FF0805016490860BFF34F8FBFF3E4
:101DA0006F8FFFF7D9FBFFF795FB1CB10F48006859
:101DB000406C20600D48006890F84800012801D16F
:101DC000002608E00949096801F14400496C21EA4C
:101DD00008010160012600200449096881F84800D3
:101DE000FFF7BAFB3046BDE8F08100003800002064
:101DF00004ED00E070B5002400263448006828B9DE
:101E00004FF4FD6232A138A0FEF7BEFEFFF762FB81
:101E10002E480068401E2D490860084600680028CA
:101E20004FD13548006800284BD024E03348C068C3
:101E3000C46804F11800FFF703FB201DFFF700FB47
:101E400094F82C10012088402D49096808432C493A
:101E50000860E16A01EB81012A4A02EB8100211D41
:101E6000FFF72CFB2849E06A0968C96A884202D357
:101E70000120264908602148006808B9012000E0D7
:101E800000200028D2D00CB1FFF7D0F92048056817
:101E900065B100BFFFF7ACFE10B101201B4908601F
:101EA0006D1E002DF6D10020194908601748006802
:101EB00038B10126300717490860BFF34F8FBFF3D1
:101EC0006F8FFFF749FB304670BD000070000020A7
:101ED0002E2E5C4672656552544F535C7372635C80
:101EE0007461736B732E63004572726F723A25735F
:101EF0002C25640D0A000000480000204803002043
:101F000050000020A0000020380000205C000020CD
:101F10005800002004ED00E0381F000800000020F9
:101F2000A0000000A80B0008D81F0008A000002097
:101F3000E8960000B80B000800A24A040000000068
:101F40000000000001020304060708090000000069
:101F5000010203040102030406070809020406083B
:101F60000000000000000000000000000000000071
:101F70000000000000000000000000000000000061
:101F80000000000000000000000000000000000051
:101F90000000000000000000000000000000000041
:101FA0000000000000000000000000000000000031
:101FB0000000000000000000000000000000000021
:101FC00000000000AAAAAAAA000000000000000069
:081FD000010000000000000008
:0400000508000131BD
:00000001FF
