:020000040800F2
:100000007032002075020008F9090008F70800089E
:10001000F5090008C90700086D100008000000007D
:10002000000000000000000000000000DD010008EA
:10003000CD0700080000000021020008B10D0008F3
:100040008F0200088F0200088F0200088F0200084C
:100050008F0200088F0200088F0200088F0200083C
:100060008F0200088F0200088F0200088F0200082C
:100070008F0200088F0200088F0200088F0200081C
:100080008F0200088F0200088F0200088F0200080C
:100090008F0200088F0200088F0200088F020008FC
:1000A0008F0200088F0200088F0200088F020008EC
:1000B0008F0200088F0200088F0200088F020008DC
:1000C0008F0200088F0200088F0200088F020008CC
:1000D0008F0200088F0200088F0200088F020008BC
:1000E0008F0200088F0200088F0200088F020008AC
:1000F0008F0200088F0200088F0200088F0200089C
:100100008F0200088F0200088F0200088F0200088B
:100110008F0200088F0200088F0200088F0200087B
:100120008F0200088F0200088F0200088F0200086B
:1001300000F002F800F042F80AA090E8000C8244B7
:100140008344AAF10107DA4501D100F037F8AFF294
:10015000090EBAE80F0013F0010F18BFFB1A43F0A5
:10016000010318477C2F00009C2F0000103A24BF89
:1001700078C878C1FAD8520724BF30C830C144BF0C
:1001800004680C607047000000230024002500264E
:10019000103A28BF78C1FBD8520728BF30C148BFEA
:1001A0000B607047642900F0F180732900F026820B
:1001B000002070471FB51FBD10B510BD00F08CFAB0
:1001C0001146FFF7F7FF00F095FF00F0AAFA03B41D
:1001D000FFF7F2FF03BC00F04BFF0000224B196851
:1001E0000868B0E8F00F80F30988BFF36F8F4FF015
:1001F000000080F311884EF00D0E704700000000E3
:1002000006480068006880F3088862B661B6BFF3EC
:100210004F8FBFF36F8F00DF00BF00BF08ED00E01E
:10022000EFF30980BFF36F8F0F4B1A6820E9F00FCF
:10023000106008B54FF0500080F31188BFF34F8F66
:10024000BFF36F8F02F00EF94FF0000080F31188BA
:10025000BDE8084019680868B0E8F00F80F3098825
:10026000BFF36F8F704700BF40000020EFF30580A1
:10027000704700000948804709480047FEE7FEE74D
:10028000FEE7FEE7FEE7FEE7FEE7FEE7FEE7FEE746
:1002900004480549054A064B70470000C10D000897
:1002A00031010008702C002070320020702E0020D8
:1002B000702E0020704700000FB4044910B503AA47
:1002C000029800F09FF910BC5DF814FB3800002084
:1002D0002DE9F0410E460446002020622046E168E8
:1002E000884730B3252805D0D4E901219047206AFA
:1002F000401CF2E7E168204600278847050018D037
:10030000A5F14100192802D820354FF40067324684
:10031000294620462760FFF745FF40B1012804D059
:10032000F61D26F007060836D8E7361DD6E728461C
:10033000DAE7206ABDE8F08170B50C460546012A6F
:1003400005D02878800600D5EA69002302E0012361
:1003500005E05B1C934202D2E05C0028F9D1A86959
:10036000E618C01AA861286A184428622846AFF324
:10037000008004E0D5E9012114F8010B9047B44254
:10038000F8D32846AFF3008070BD00002DE9F0419E
:100390000646002410687529314616A510D0AFF323
:1003A0000080002802DA404213A507E031688A077E
:1003B00001D512A502E0490704D511A5012401E0E9
:1003C000AFF3008000210A2206F1240709E0B0FB08
:1003D000F2FCB0FBF2F302FB1C00303078541846FC
:1003E000491C0028F3D123462A463046BDE8F04197
:1003F00000F080B8000000002D0000002B0000007D
:1004000020000000032A40F2308010F0030C00F0BE
:10041000158011F8013BBCF1020F624498BF11F83E
:1004200001CB00F8013B38BF11F8013BA2F10402F7
:1004300098BF00F801CB38BF00F8013B11F003036F
:1004400000F0F280083AC0F0088051F8043B083A06
:1004500051F804CBA0E80810F5E7121D5CBF51F875
:10046000043B40F8043BAFF30080D20724BF11F8EF
:10047000013B11F801CB48BF11F8012B24BF00F854
:10048000013B00F801CB48BF00F8012B704702F098
:10049000FF0343EA032242EA024200F0F9B84FF0B8
:1004A000000200B5134694469646203922BFA0E8C4
:1004B0000C50A0E80C50B1F12001BFF4F7AF0907D0
:1004C00028BFA0E80C5048BF0CC05DF804EB8900C1
:1004D00028BF40F8042B08BF704748BF20F8022B04
:1004E00011F0804F18BF00F8012B7047704770471C
:1004F000704770472DE9F0470D46994692460446ED
:1005000000F124080168880604D5E06921F0100193
:10051000216000E00120A84201DD471B00E0002728
:10052000A1697A1902EB0900081AA0612078C006B7
:1005300002D42046AFF30080002608E0D4E9012170
:100540001AF806009047206A401C761C20624E452F
:10055000F4DB2078C0060AD52046AFF3008006E021
:10056000D4E9012130209047206A401C2062381EC7
:10057000A7F10107F4DC07E0D4E9012118F8050030
:100580009047206A401C2062281EA5F10105F3DC7B
:100590002046AFF300802078000602D50220BDE897
:1005A000F0870120FBE7000001694A1C026108781E
:1005B000704700B58FB0CDE90131002105910549A3
:1005C0007944CDE9031011466846FFF781FE0FB06C
:1005D00000BD0000E5FFFFFF10B5436913B1AFF3A5
:1005E000008001E0FFF7A8FE012010BD127800F1A5
:1005F00024010A7000224A700122EDE711684FF0D1
:10060000FF32E9E7074B70B50D467B44FFF7D1FF9A
:100610000446284600F05CF810B14FF0FF3070BD82
:10062000204670BDCB0A000010B5203AC0F00B8008
:10063000B1E81850203AA0E81850B1E81850A0E8E6
:100640001850BFF4F5AF5FEA027C24BFB1E8185040
:10065000A0E8185044BF18C918C0BDE810405FEAB0
:10066000827C24BF51F8043B40F8043B08BF70472C
:10067000D20728BF31F8023B48BF11F8012B28BF31
:1006800020F8023B48BF00F8012B70474FF00002F2
:100690000429C0F0128010F0030C3FF402AFCCF13B
:1006A000040CBCF1020F18BF00F8012BA8BF20F802
:1006B000022BA1EB0C01FFF7F4BE5FEAC17C24BF63
:1006C00000F8012B00F8012B48BF00F8012B704700
:1006D000007B00F080007047754600F02BF8AE46B6
:1006E00005006946534620F00700854618B020B53E
:1006F000FFF7CEFDBDE820404FF000064FF00007A9
:100700004FF000084FF0000B21F00701AC46ACE8B9
:10071000C009ACE8C009ACE8C009ACE8C0098D4626
:10072000704710B50446AFF300802046BDE8104086
:10073000FFF74DBD004870470C2C00201CB501246C
:100740000B48012100234022CDE9001009A10D48EA
:1007500002F06CF90446012C03D10BA0FFF7ACFDAD
:1007600002E011A0FFF7A8FD01F018FE1CBD00007B
:100770002800002053746172745461736B43726576
:10078000617465005D0C0008537461727454617388
:100790006B437265617465C8CECEF1B4B4BDA8B3C5
:1007A000C9B9A6210D0A00005374617274546173B3
:1007B0006B437265617465C8CECEF1B4B4BDA8CA8E
:1007C000A7B0DC210D0A000000BFFEE770472DE94D
:1007D000F0410246002500260020002300240027C7
:1007E00091F803C00CF00F0591F803C00CF0100C49
:1007F000BCF1000F03D091F802C04CEA050591F856
:1008000000C0BCF1000F31D0146800202BE04FF085
:10081000010C0CFA00F3B1F800C00CEA03069E428A
:1008200020D183004FF00F0C0CFA03F7BC4305FAFC
:1008300003FC4CEA040491F803C0BCF1280F06D174
:100840004FF0010C0CFA00FCC2F814C00AE091F859
:1008500003C0BCF1480F05D14FF0010C0CFA00FCAD
:10086000C2F810C0401C0828D1D31460B1F800C0F1
:10087000BCF1FF0F34DD546800202EE000F1080CBD
:100880004FF0010808FA0CF3B1F800C00CEA0306B7
:100890009E4221D183004FF00F0C0CFA03F7BC43AA
:1008A00005FA03FC4CEA040491F803C0BCF1280FDC
:1008B00005D100F1080C08FA0CF8C2F8148091F880
:1008C00003C0BCF1480F07D100F1080C4FF001083C
:1008D00008FA0CF8C2F81080401C0828CED35460E7
:1008E000BDE8F0810246002093680B400BB1012067
:1008F00000E00020704700BFFEE7000008B50121BE
:10090000042000F0BDF80121402000F0B9F81820C3
:10091000ADF8000048208DF8030069460648FFF74F
:1009200056FF0120ADF8000028208DF8030069462D
:100930000248FFF74CFF08BD0018014000080140C5
:1009400010B5002428480078002837D00121274816
:10095000FFF7C8FF48B908212548FFF7C3FF20B1BA
:1009600010212348FFF7BEFF08BB142000F083FBD3
:1009700001211E48FFF7B6FF48B908211C48FFF7C0
:10098000B1FF20B110211A48FFF7ACFF78B9002061
:100990001549087010211648FFF7A4FF08B9012473
:1009A0000CE008211248FFF79DFF08B9022405E07A
:1009B00001210E48FFF796FF00B1032401210B48E7
:1009C000FFF790FF68B908210948FFF78BFF40B196
:1009D00007480830006800F0100010B101200249FB
:1009E0000870204610BD00003E00002000080140B5
:1009F0000018014000BFFEE77047000070B50021FD
:100A000000230F22C47804B3154C246804F4E06476
:100A1000C4F5E064210AC1F10403CA40447804FA31
:100A200003F184781440214309010E4C0678A15546
:100A3000047804F01F050124AC4005786D11AD0069
:100A400005F1E025C5F8004109E0047804F01F0530
:100A50000124AC40044D0678761145F8264070BD5F
:100A60000CED00E000E400E080E100E00249014319
:100A7000024A1160704700000000FA050CED00E02A
:100A800029B1064A92690243044B9A6104E0034A81
:100A900092698243014B9A61704700000010024046
:100AA00030B500210022002400232D4D6D6805F093
:100AB0000C0121B1042905D0082923D105E0294DD5
:100AC000056022E0274D05601FE0254D6D6805F4A7
:100AD0007012234D6D6805F48034022505EB9242B7
:100AE0001CB9214D554305600BE01D4D6D6805F4A3
:100AF00000351DB11C4D5543056002E0194D5543AD
:100B0000056002E0174D056000BF00BF144D6D6821
:100B100005F0F0010909154D6B5C0568DD40456085
:100B20000F4D6D6805F4E061090A104D6B5C456876
:100B3000DD4085600A4D6D6805F46051C90A0B4DB2
:100B40006B5C4568DD40C560054D6D6805F440414E
:100B5000890B074D6B5CC568B5FBF3F5056130BDCE
:100B60000010024000127A0000093D00140000202D
:100B70002400002010B500F001F810BD0CB50020D5
:100B8000019000903348006840F48030314908609B
:100B900000BF3048006800F4003000900198401C0D
:100BA0000190009818B90198B0F5A06FF1D12948CB
:100BB000006800F4003010B10120009001E0002036
:100BC00000900098012843D12348006840F01000AD
:100BD000214908600846006820F0030008600846C4
:100BE000006840F0020008601A48406819494860EF
:100BF0000846406848600846406840F480604860A5
:100C00000846406820F47C1048600846406840F47C
:100C1000E81048600846006840F08070086000BF37
:100C20000C48006800F000700028F9D009484068BE
:100C300020F00300074948600846406840F0020081
:100C4000486000BF0348406800F00C000828F9D154
:100C50000CBD000000100240002002407CB505469B
:100C6000012401F0F9F82148012100234022CDE9B7
:100C700000101FA1204801F0D9FE0446012C03D129
:100C80001EA0FFF719FB02E022A0FFF715FB274883
:100C9000022100234022CDE9001025A1264801F0C1
:100CA000C5FE0446012C03D124A0FFF705FB02E09A
:100CB00028A0FFF701FB2D48032100234022CDE9A6
:100CC00000102BA12C4801F0B1FE0446012C03D1E9
:100CD0002AA0FFF7F1FA02E02EA0FFF7EDFA334861
:100CE000006801F051FA01F0FBF87CBD2C000020F7
:100CF0005461736B31000000210E00085461736B66
:100D000031C8CECEF1B4B4BDA8B3C9B9A6210D0A7D
:100D1000000000005461736B31C8CECEF1B4B4BD95
:100D2000A8CAA7B0DC210D0A000000003000002096
:100D30005461736B32000000450E00085461736B00
:100D400032C8CECEF1B4B4BDA8B3C9B9A6210D0A3C
:100D5000000000005461736B32C8CECEF1B4B4BD54
:100D6000A8CAA7B0DC210D0A000000003400002052
:100D70005461736B33000000690E00085461736B9B
:100D800033C8CECEF1B4B4BDA8B3C9B9A6210D0AFB
:100D9000000000005461736B33C8CECEF1B4B4BD13
:100DA000A8CAA7B0DC210D0A00000000280000201E
:100DB00010B501F06BFE012801D001F049FC10BD17
:100DC00010B51348006840F001001149086008465A
:100DD0004068104908400E494860084600680E49BE
:100DE00008400B4908600846006820F4802008602D
:100DF0000846406820F4FE0048604FF41F008860F9
:100E0000FFF7B8FE4FF000600449086010BD000015
:100E1000001002400000FFF8FFFFF6FE08ED00E0C2
:100E200006E004A0FFF748FA4FF4617001F070F992
:100E3000F7E70000B6AFCCACB4B4BDA8C8CECEF1D5
:100E4000310D0A0006E004A0FFF736FA4FF4617096
:100E500001F05EF9F7E70000B6AFCCACB4B4BDA8C2
:100E6000C8CECEF1320D0A00002428E0FFF768FD5D
:100E70000446012C02D0022C1CD10DE01048006861
:100E800018B10F48006801F07FF900200C49086094
:100E90000CA0FFF711FA0EE00D48006818B10C48DD
:100EA000006801F071F900200949086009A0FFF706
:100EB00003FA00E000BF00BF0A2001F029F9D5E7DE
:100EC0002C000020C9BEB3FDC8CECEF1310D0A0002
:100ED00030000020C9BEB3FDC8CECEF1320D0A00ED
:100EE00010B586B00446012144F20400FFF7C8FDA6
:100EF0004FF40070ADF8140018208DF8170003208F
:100F00008DF8160005A91B48FFF761FC4FF48060BF
:100F1000ADF8140004208DF8170003208DF816009A
:100F200005A91448FFF753FC01940020ADF8080010
:100F3000ADF80A00ADF80C00ADF810000C20ADF8CB
:100F40000E0001A90C4800F025F825208DF80000BE
:100F500003208DF801008DF8020001208DF80300B8
:100F60006846FFF74BFD0121034800F007F806B083
:100F700010BD0000000801400038014021B1828905
:100F800042F40052828104E082894DF6FF731A40D8
:100F9000828170472DE9F04786B005460E46002451
:100FA000A24600BFA1460027B08900B100BF2F466E
:100FB0002C8A4CF6FF700440F08804432C82AC89E4
:100FC0004EF6F3100440B088318908437189084314
:100FD0000443AC81AC8A4FF6FF400440B08904431F
:100FE000AC8201A8FFF75CFD1F48874202D1DDF803
:100FF00010A001E0DDF80CA0A88900F4004040B189
:101000000AEBCA0000EB0A1031684900B0FBF1F8A6
:1010100007E00AEBCA0000EB0A1031688900B0FB58
:10102000F1F86420B8FBF0F004012009642101FB11
:101030001089A88900F4004040B1322000EBC900BB
:10104000B0FBF1F000F00700044308E0322000EBB1
:1010500009106421B0FBF1F000F00F0004432C8173
:1010600006B0BDE8F08700000038014000BFFEE791
:10107000014600BF704730B50446002504E04FF438
:101080007A7000F005F86D1CA542F8D330BD000061
:1010900070B5034600224FF0E02675690D4E368884
:1010A00003FB06F44FF0E026B16910E04FF0E026B4
:1010B000B06988420BD0884202D20E1A324402E054
:1010C0002E1A0E4432440146A24200D300E0EDE75E
:1010D00000BF70BD3C00002000BF054A128802F02E
:1010E0004002002AF9D0C2B2014B1B1D1A80704782
:1010F000003801404FF44070FFF7B8FC4FF4E13086
:10110000FFF7EEFEFFF7FAFBFFF718FB00BFFEE765
:101110002DE9F04105460E46294807680020294977
:10112000096881F8590027480068001D00F04AFE50
:1011300050B92448006890F82C10012088402249BA
:101140000968814320480160681CD8B9D6B11F499D
:1011500048681C49096888601A4982680968CA6039
:1011600018490968091D8268516016490968091DF6
:101170008160164A134909684A6111460968491C89
:1011800011601AE07C190F4800684460BC4207D225
:101190000C480168091D0E48006800F037FE0CE09D
:1011A00008480168091D0B48006800F02FFE0A4836
:1011B0000068844201D208480460BDE8F081000064
:1011C000540000204000002058000020D0030020E0
:1011D00048000020440000207000002010B50446A4
:1011E00000F03AFE31480068401C30490860304841
:1011F000006840B92E4804600846006801280DD1F7
:1012000000F010FA0AE02B48006838B92848006856
:10121000C06AE16A884201D825480460264800680F
:10122000401C2549086008460068606494F82C104A
:101230000120884021490968084320490860E16A83
:1012400001EB81011E4A02EB81014868A0608268BF
:10125000E260211D826851608160E16A01EB8101D9
:10126000174A02EB81026261E16A01EB8101144AD3
:1012700052F82110491CE26A02EB8202104B43F83B
:10128000221000F02DFE0B48006868B10848006885
:10129000C06AE16A884207D24FF08050094908606D
:1012A000BFF34F8FBFF36F8F10BD000050000020C1
:1012B000400000205C0000206C000020580000204E
:1012C0000001002004ED00E010B500F0C5FD10485D
:1012D0000068D0B90F4800F089FD0F4800F086FD86
:1012E0000C480E4908600C480D4908600022102186
:1012F000052001F0C7F9064908600846006820B1DA
:1013000008A10348006800F09DFE00F0E9FD10BD53
:1013100088000020E4030020F80300208000002063
:1013200084000020546D72510000000010B516E0DA
:1013300000F092FD0C48C068C468201D00F042FD1A
:101340000A480068401E0949086009480068401EB4
:101350000749086000F0C4FD204600F05FF804482B
:1013600000680028E4D110BDBC030020500000201C
:101370004C00002070B504460D46206C70B1216C05
:10138000E0680144E160D4E90210884201D3216899
:10139000E1602846226CE168FFF734F870BD2DE962
:1013A000F04104460F4615464FF00008A66B206C2E
:1013B00048B9206800282CD1A06801F069FC80465B
:1013C0000020A06025E07DB93946226C6068FFF7F7
:1013D00019F8216C606808446060D4E90101884212
:1013E00017D32068606014E03946226CE068FFF78C
:1013F00009F8216CE068411AE1602168E0688842E0
:1014000003D2216CA068411AE160022D01D106B11E
:10141000761E701CA0634046BDE8F08110B50446FE
:10142000206B00F095FD204600F092FD10BD0000FD
:101430000146084A126812680AB9012200E0002237
:101440000A600A6822B9034A1268D268106800E08C
:10145000002070478000002030B54FF4205317481B
:1014600000F007042CB1C01D20F00700134C041B32
:101470001B1B0246124C22600024114D6C60D018D8
:10148000083820F007000F4C206000240D4D2D6817
:101490006C600C4D2D682C601146441A4C60094C50
:1014A00024680C60084D4C682C60084D4C682C601A
:1014B0004FF00044064D2C6030BD00000C040020AD
:1014C000A0000020A8000020B0000020AC000020F8
:1014D000BC00002000BFFFF729FF06480068012874
:1014E000F9D94FF0805004490860BFF34F8FBFF324
:1014F0006F8FF0E70001002004ED00E02DE9F041DE
:1015000006460D4617469846069C0DB9246000E035
:101510002760E66325640121204601F0F5F884F890
:1015200050800020A064BDE8F08100002DE9F05F4C
:1015300082460F4690469B460A9E0C9C4FEA8801C5
:10154000A522206BFEF7A3FFA8F10100216B01EBA0
:10155000800929F0070909F0070008B9012000E017
:10156000002028B94FF4587224A12AA0FEF7A4FE47
:1015700087B1002507E0795D04F134004155785DBD
:1015800000B902E06D1C102DF5D300BF00214320EF
:10159000015502E0002084F83400202E01D2012001
:1015A00000E0002028B940F2973214A119A0FEF7FC
:1015B00083FE202E00D31F26E662E664002020650D
:1015C000201D00F020FC04F1180000F01CFC246138
:1015D000C6F12000A06164620020606584F85800B4
:1015E00084F859005A465146484600F0D9FB20601D
:1015F0000B9808B10B980460BDE8F09F2E2E5C4656
:1016000072656552544F535C7372635C7461736BA3
:10161000732E63004572726F723A2025732C202559
:10162000640D0A0010B5002407E004EB84010F4AA2
:1016300002EB810000F0DAFB641C202CF5D30C488F
:1016400000F0D4FB0B4800F0D1FB0B4800F0CEFBC0
:101650000A4800F0CBFB0A4800F0C8FB04480949DF
:10166000086004480849086010BD0000000100201F
:101670008003002094030020A8030020BC03002066
:10168000D0030020440000204800002010B501468F
:10169000164800E0006803688B42FBD302464368AB
:1016A00013448B4204D143684C6823444360014691
:1016B0000A464B6813440468A34211D10C4C0368DA
:1016C0002468A34208D04B680468646823444B60D4
:1016D00003681B680B6005E0054B1B680B6001E0AD
:1016E00003680B60884200D0016010BDA00000209C
:1016F000A80000202DE9F04104460D4616461F467D
:101700004FF0000865602461B5420CD8F01BA16958
:10171000884202D34FF0010811E0211D09480068FA
:1017200000F074FB0BE0BE4204D2BD4202D34FF086
:10173000010804E0211D0448006800F067FB4046F2
:10174000BDE8F081840000208000002070B50546CF
:1017500000F082FBA86B08B9012400E0002400F02F
:10176000BFFB204670BD0000F1B50098846C0026D8
:101770002CB940F6D43220A125A0FEF79DFDA06B28
:10178000E16B884201D2012000E0002028B940F638
:10179000D53219A11EA0FEF78FFDA06BE16B884228
:1017A00027D294F94550002269462046FFF7F7FDFD
:1017B0000646681C60B9606A08B9012000E0002094
:1017C000B0B904F1240001F0E5FA88B101260FE078
:1017D0007F2D01D0012000E0002028B940F6F5322D
:1017E00005A10BA0FEF768FD681C40B284F8450017
:1017F00000BF3046F8BD00002E2E5C467265655273
:10180000544F535C7372635C71756575652E63002C
:101810004572726F723A2025732C2025640D0A00E0
:1018200070B505460E460E480068C068C468201DA5
:1018300000F0C8FA94F8280000F0040028B13246FD
:101840002946204600F0FAF805E094F8280000F058
:10185000FE0084F828002046216A884770BD0000F9
:101860008000002070B586B08AE0029800280CDA6B
:1018700003AE2EB940F2063247A14EA0FEF71CFD82
:10188000D6E90020B168904700BF0298002877DBB6
:10189000049C606908B9012000E0002010B9201DF7
:1018A00000F090FA01A800F0F5F8054602980A2821
:1018B00064D2DFE800F06305072E365306082F37A1
:1018C00000BF00BF00BF94F8280040F0010084F87A
:1018D00028000398A269811803462A462046FFF78C
:1018E00009FFA8B194F8280000F0040038B103986B
:1018F000A26981182A46204600F0A0F805E094F875
:10190000280000F0FE0084F828002046216A88475D
:1019100035E000BF94F8280000F0FE0084F82800AD
:101920002DE000BF94F8280040F0010084F8280062
:101930000398A061A06908B1012000E0002028B947
:1019400040F2593214A11BA0FEF7B6FCA069411960
:101950002B462A462046FFF7CDFE10E094F82800DB
:1019600000F0020018B9204600F0F2FA05E094F801
:10197000280000F0FE0084F8280000E000BF00BF4F
:10198000002202A90F48006800F036FF00287FF40B
:101990006CAF06B070BD00002E2E5C4672656552BD
:1019A000544F535C7372635C74696D6572732E631C
:1019B000000000004572726F723A2025732C2025BA
:1019C000640D0A0088000020F8B505460C4600F0BA
:1019D00041FD684600F05EF80646009820BB44B919
:1019E000B54206D801F076FA31462846FFF718FFCF
:1019F0001CE03CB10E480068006808B9012000E016
:101A000000200446A91B22460A48006800F05AFB41
:101A100001F060FA50B94FF0805007490860BFF3F9
:101A20004F8FBFF36F8F01E001F054FAF8BD000053
:101A3000840000208800002004ED00E070B504461A
:101A40000D46164604E0A06905442046216A8847F1
:101A5000A06941192B4632462046FFF74BFE00286D
:101A6000F1D170BD09480068006808B9012000E0A4
:101A7000002020B14FF0FF300549086005E0034821
:101A80000068C06800680249086070474400002090
:101A90007000002070B5044601F008F805460748BC
:101AA0000068854204D200F00BF80120206001E0BC
:101AB0000020206001480560284670BD900000208D
:101AC00070B508E00D480068C06804684FF0FF3149
:101AD0002046FFF7A5FE09480068006808B9012004
:101AE00000E000200028EDD00448056804480068A4
:101AF000024908600248056070BD000080000020B7
:101B0000840000200B480068401C08B9012000E058
:101B1000002020B9CE2208A112A0FEF7CDFB00BF05
:101B2000502080F31188BFF34F8FBFF36F8F00BF3A
:101B300000BFFEE7940000202E2E5C4672656552C1
:101B4000544F535C706F727461626C655C525644A2
:101B5000535C41524D5F434D335C706F72742E6322
:101B6000000000004572726F723A2025732C202508
:101B7000640D0A0008B500BF6846FFF759FC04462B
:101B800020460099FFF720FFFFF76CFEF4E770B5E1
:101B9000044600F061F994F9455019E0A06C30B1A9
:101BA0002046FFF7E1FD88B100F086FB0EE0606A99
:101BB00008B9012000E0002038B904F1240001F048
:101BC000E9F818B100F078FB00E003E0681E45B2C8
:101BD000002DE3DC00BFFF2084F8450000F080F911
:101BE00000F03AF994F9445010E0206908B9012056
:101BF00000E0002048B904F1100001F0CBF808B172
:101C000000F05AFB681E45B200E001E0002DECDC5C
:101C100000BFFF2084F8440000F062F970BD0000AE
:101C20002DE9F04104464FF0000800F013FC48484D
:101C3000006808B9FFF710FC4648006820400028FB
:101C400073D114B304F10800A0421ED9083404F083
:101C50000700D8B104F00700C0F108002044A042FA
:101C600011D904F00700C0F10800044404F0070093
:101C700008B9012000E0002040B99C2236A140A014
:101C8000FEF71AFB02E0002400E00024002C4CD0F8
:101C90003F480068844248D83E4E3046056801E01F
:101CA0002E462D686868A04202D228680028F7D125
:101CB00027480068854238D0306800F10808286855
:101CC00030606868001B102813D92F1907F007002F
:101CD00008B9012000E0002020B9CF221EA128A0D1
:101CE000FEF7EAFA6868001B78606C603846FFF718
:101CF000CDFC274968680968081A25490860084624
:101D0000006825490968884203D2214800682249B1
:101D10000860104968680968084368600020286006
:101D20001E480068401C1D49086001F0D3F808F007
:101D3000070008B9012000E0002028B94FF488729C
:101D400005A10FA0FEF7B8FA4046BDE8F0810000FB
:101D5000A8000020BC0000202E2E5C467265655253
:101D6000544F535C706F727461626C655C4D656D4D
:101D70004D616E675C686561705F342E63000000C2
:101D80004572726F723A2025732C2025640D0A006B
:101D9000AC000020A0000020B0000020B400002013
:101DA000001F4FF080730360001F21F001030360E8
:101DB000001F034B03601438026020387047000096
:101DC000051B000801460A69D1E901309860D1E994
:101DD000010358605068884201D188685060002033
:101DE00008611068401E10601068704700F108011B
:101DF00041604FF0FF31816000F10801C160016175
:101E000000210160704700210161704710B5024652
:101E10000B685C1C0CB9106907E002F1080000E0D7
:101E20004068446824689C42FAD944684C604C6815
:101E3000A160886041600A611468641C146010BD70
:101E400042684A6093688B6093685960916008614A
:101E500003685B1C0360704710B500BF502080F31F
:101E60001188BFF34F8FBFF36F8F00BF0B4800681F
:101E7000401C0A4908600846006801280DD108483E
:101E80000068C0B208B9012000E0002028B940F283
:101E9000751204A10EA0FEF70FFA10BD94000020E9
:101EA00004ED00E02E2E5C4672656552544F535C83
:101EB000706F727461626C655C525644535C41523F
:101EC0004D5F434D335C706F72742E6300000000F1
:101ED0004572726F723A2025732C2025640D0A001A
:101EE00010B50B48006828B94FF4BE7209A114A0C0
:101EF000FEF7E2F906480068401E054908600846FA
:101F0000006820B9002080F3118800BF00BF10BD19
:101F1000940000202E2E5C4672656552544F535C2F
:101F2000706F727461626C655C525644535C4152CE
:101F30004D5F434D335C706F72742E630000000080
:101F40004572726F723A2025732C2025640D0A00A9
:101F500070B506463546002E3AD0083D2C461D4940
:101F600060680968084008B1012000E0002028B935
:101F70004FF4927218A122A0FEF79EF9206808B9CA
:101F8000012000E0002028B940F2251212A11CA077
:101F9000FEF792F90F49606809680840C0B12068EF
:101FA000B0B90C49606809688843606000F052FA73
:101FB0001749606809680844154908602046FFF71A
:101FC00065FB14480068401C1249086000F082FF5D
:101FD00070BD0000BC0000202E2E5C46726565526C
:101FE000544F535C706F727461626C655C4D656DCB
:101FF0004D616E675C686561705F342E6300000040
:102000004572726F723A2025732C2025640D0A00E8
:10201000AC000020B800002000204FF0E021086153
:10202000886107480068C0084FF47A71B0FBF1F08E
:10203000401E4FF0E0214861032008617047000016
:10204000000000202DE9F04105460F4600262DB97D
:1020500040F6C92210A116A0FEF72EF9BFB1002448
:1020600012E0174800EBC4004068A84203D11448AE
:1020700000EBC4060AE036B9114850F8340010B934
:102080000F4800EBC406641C082CEAD300BF0EB155
:1020900037607560BDE8F0812E2E5C467265655232
:1020A000544F535C7372635C71756575652E630084
:1020B0004572726F723A2025732C2025640D0A0038
:1020C000C00000202DE9F04105460E4617462C467B
:1020D000FFF7C2FE94F94400401C10B9002084F8B8
:1020E000440094F94500401C10B9002084F84500D4
:1020F000FFF7F6FEA06B28B93A46314604F12400FA
:1021000000F00CF92046FFF742FDBDE8F081000029
:1021100070B504460025ACB10F48006808B901202D
:1021200000E0002028B940F249520CA111A0FEF7AE
:10213000C3F800F08FF900212046FEF7E9FF00F018
:10214000C9FE05463DB94FF080500E490860BFF307
:102150004F8FBFF36F8F70BD7C0000202E2E5C462A
:1021600072656552544F535C7372635C7461736B38
:10217000732E63004572726F723A2025732C2025EE
:10218000640D0A0004ED00E070B50546FFF764FE3B
:1021900015B92F48006800E028460446201DFFF7C7
:1021A00011FE78B9E06A00EB80002A4951F820005E
:1021B00040B994F82C1001208840274909688143D0
:1021C00025480160A06A18B104F11800FFF7FAFD74
:1021D00022480068401C214908601D48006884426C
:1021E00009D1211D1E48FFF72BFE1E480068401C28
:1021F0001C49086006E01C480068401E1A49086037
:10220000FFF730FCFFF76CFE11480068844202D0F3
:102210002046FFF703F915480068C0B10C48006874
:10222000844214D11248006808B9012000E000205F
:1022300028B940F2DC420FA114A0FEF73DF84FF0A0
:10224000805016490860BFF34F8FBFF36F8F70BD8A
:102250004000002000010020580000206C000020F9
:10226000BC0300204C000020500000205C00002037
:102270007C0000202E2E5C4672656552544F535CE4
:102280007372635C7461736B732E63004572726F5B
:10229000723A2025732C2025640D0A0004ED00E01D
:1022A00003490968016003490968416070470000FB
:1022B0006800002054000020012001490860704798
:1022C0006400002070B504460D462CB940F61C424F
:1022D00007A10DA0FDF7F0FF0F4801681831204657
:1022E000FFF794FD01212846FEF712FF70BD0000A4
:1022F0002E2E5C4672656552544F535C7372635C5C
:102300007461736B732E63004572726F723A20258D
:10231000732C2025640D0A004000002070B504468F
:102320000E4615462CB940F6524211A116A0FDF7F3
:10233000C3FF606818490968C8611749826809685D
:102340000A621549096818318268516012490968A2
:1023500018318160104909688C622168491C21602C
:102360000DB14FF0FF3629463046FEF7D1FE70BD65
:102370002E2E5C4672656552544F535C7372635CDB
:102380007461736B732E63004572726F723A20250D
:10239000732C2025640D0A00400000201CB51B484A
:1023A00000210B468022CDE9001019A11A4800F047
:1023B0003DFB0446012C02D100F056FE0446012CE0
:1023C00015D100BF502080F31188BFF34F8FBFF3AA
:1023D0006F8F00BF4FF0FF30104908600120104997
:1023E000086000200F49086000F092F80BE0601CC4
:1023F00008B1012000E0002028B94FF404620AA1CE
:102400000FA0FDF759FF124800681CBD74000020A2
:1024100049444C4500000000D5140008700000201D
:102420005C000020540000202E2E5C467265655230
:10243000544F535C7372635C7461736B732E6300EF
:102440004572726F723A2025732C2025640D0A00A4
:102450007800002002480068401C0149086070476D
:102460007C00002010B51B48006818B101201A49F3
:1024700008602DE000201849086018480068B0FA8C
:1024800080F0C0F11F0404EB8400154951F82000CE
:1024900008B1012000E0002028B940F6024211A155
:1024A00016A0FDF709FF04EB84010D4A02EB810041
:1024B00041684968416000F1080142688A4202D1DE
:1024C0004168496841604168C968104A116000BFAD
:1024D00010BD00007C000020640000205800002097
:1024E000000100202E2E5C4672656552544F535CED
:1024F0007372635C7461736B732E63004572726FE9
:10250000723A2025732C2025640D0A00400000201B
:102510001CB53B4C204600780190FF2021460870F6
:102520000846007800909DF8000000F0F0009DF84B
:102530000010884201D1012000E0002028B940F2BB
:102540001F1230A13AA0FDF7B7FE9DF8000000F081
:1025500050003B49087007203A49086009E03948B3
:102560000068401E374908609DF800004006000ED4
:1025700000909DF8000000F080008028EFD03148E6
:102580000068C0F10700042801D1012000E000200C
:1025900028B940F233121BA125A0FDF78DFE294872
:1025A0000068C0F10700042801D1012000E00020EC
:1025B00028B94FF49E7213A11DA0FDF77DFE21489E
:1025C000006800021F4908600846008800F4E060C7
:1025D00008600B49019808701B48006840F47000BF
:1025E000194908600846006840F070400860FFF72D
:1025F00013FD002015490860FDF702FE00201CBDF8
:1026000000E400E02E2E5C4672656552544F535C28
:10261000706F727461626C655C525644535C4152D7
:102620004D5F434D335C706F72742E630000000089
:102630004572726F723A2025732C2025640D0A00B2
:10264000980000209C00002020ED00E09400002075
:1026500010B500BF502080F31188BFF34F8FBFF338
:102660006F8F00BF00F028FA18B14FF08050044976
:10267000086000BF002080F3118800BF10BD00007B
:1026800004ED00E02DE9F84305460E461746002408
:10269000E5B1601EB0FBF5F0B04217D305FB06F0C4
:1026A00010F1550F12D805FB06F909F15400FFF798
:1026B000B7FA04468CB1A04608F154083B4642469E
:1026C000314628460094FEF719FF06E02CB94FF476
:1026D000E37203A108A0FDF7EFFD2046BDE8F883F3
:1026E0002E2E5C4672656552544F535C7372635C68
:1026F00071756575652E63004572726F723A20259B
:10270000732C2025640D0A002DE9F04105460E4684
:1027100001272C462CB94FF488722CA131A0FDF76B
:10272000CBFD002C42D0E06B00283FD04FF0FF31B2
:10273000E06BB1FBF0F0216C884237D3FFF78CFBE4
:10274000D4E90F12206801FB0200A0600020A06302
:1027500020686060E06B401E226C216800FB021163
:10276000E160FF2084F8440084F845009EB92069A8
:1027700008B9012000E00020A8B904F1100000F021
:1027800009FB80B14FF080501A490860BFF34F8FAA
:10279000BFF36F8F07E004F11000FFF727FB04F190
:1027A0002400FFF723FBFFF79BFB00E000270FB19E
:1027B000012000E0002028B940F2451203A109A041
:1027C000FDF77AFD3846BDE8F08100002E2E5C460C
:1027D00072656552544F535C7372635C71756575B5
:1027E000652E63004572726F723A2025732C202586
:1027F000640D0A0004ED00E02DE9F74183B00546C1
:102800000E464FF000082C462CB940F251524CA114
:1028100051A0FDF751FD0EB9206C08B9012000E070
:10282000002028B940F2555245A14BA0FDF744FDC8
:1028300000F02CF908B9059808B9012000E0002043
:1028400028B940F25A523EA143A0FDF735FD00BF22
:10285000FFF702FBA76BF7B131462046FEF78AFD72
:10286000781EA063206908B9012000E0002060B94B
:1028700004F1100000F08EFA38B14FF080503A4960
:102880000860BFF34F8FBFF36F8FFFF729FB012065
:1028900006B0BDE8F081059818B9FFF721FB0020CC
:1028A000F6E7B8F1000F04D101A8FFF7F9FC4FF0EB
:1028B0000108FFF715FBFFF7CDFDFFF7CDFA94F9FF
:1028C0004400401C10B9002084F8440094F94500ED
:1028D000401C10B9002084F84500FFF701FB05A952
:1028E00001A800F043F8F0B92046FEF72FFFA0B191
:1028F00004F124000599FFF7E5FC2046FFF747F9AE
:1029000000F0E8FA0028A3D14FF080501649086083
:10291000BFF34F8FBFF36F8F9AE72046FFF737F96A
:1029200000F0D8FA94E72046FFF731F900F0D2FA28
:102930002046FEF70BFF00288AD00020A8E7000001
:102940002E2E5C4672656552544F535C7372635C05
:1029500071756575652E63004572726F723A202538
:10296000732C2025640D0A0004ED00E070B50646C6
:102970000C462EB940F6FD421FA125A0FDF79CFC98
:102980002CB940F6FE421CA121A0FDF795FCFFF7F3
:1029900063FA234802687068131A2248006890F8A6
:1029A000590030B100201F49096881F859000125FC
:1029B0001EE02068401C08B9002519E01A4930685B
:1029C0000968884206D07068904203D8012500202B
:1029D00020600DE02068984207D92068C01A206066
:1029E0003046FFF75DFC002502E000202060012555
:1029F000FFF776FA284670BD2E2E5C46726565524A
:102A0000544F535C7372635C7461736B732E630019
:102A10004572726F723A2025732C2025640D0A00CE
:102A20005400002040000020680000202DE9FF4FE6
:102A300085B0804689461746DDE912ABB800FFF73E
:102A4000EFF8064656B15C20FFF7EAF804460CB1F1
:102A5000266304E03046FFF77BFA00E000247CB1F7
:102A60000020CDE900ABCDE902403A464946404658
:102A7000089BFEF75BFD2046FEF7B0FB012501E059
:102A80004FF0FF35284609B0BDE8F08F05490968C9
:102A900009B9012005E00449096809B9022000E0EC
:102AA000002070475C0000207C000020014908687D
:102AB00070470000540000202DE9F0414FF000085D
:102AC0005E48006800287DD15D480068451C5C4870
:102AD0000560EDB95B480068006808B9012000E0B6
:102AE000002028B940F6C72257A15DA0FDF7E4FBFE
:102AF000544807685E480068524908605C480760AF
:102B00005C480068401C5B490860FEF7ABFF00BFF3
:102B100059480068854277D300BF4A48006800687A
:102B200008B9012000E0002020B14FF0FF305249E9
:102B3000086068E043480068C068C4686668B542D9
:102B400002D24D4806605EE06069D4E902128A60F4
:102B5000D4E902214A60211D42688A4201D1E1681C
:102B60004160002262610168491E0160A06A98B15B
:102B7000A06AD4E907128A60D4E907214A6004F107
:102B8000180142688A4201D1216A41600022A26292
:102B90000168491E016000BF94F82C100120884094
:102BA00036490968084335490860E16A01EB81014B
:102BB000334A02EB81014868A0608268E260211D0F
:102BC000826800E032E051608160E16A01EB8101DE
:102BD0002B4A02EB81026261E16A01EB8101284A22
:102BE00052F82110491CE26A02EB8202244B43F89E
:102BF00022102449E06A0968C96A88428DD34FF0DF
:102C000001088AE700E000BF1E480068C06A00EBC8
:102C100080001B4951F82000012801D94FF001081C
:102C20001948006808B14FF0010804E0174800682F
:102C3000401C164908604046BDE8F0817C00002039
:102C400054000020440000202E2E5C467265655220
:102C5000544F535C7372635C7461736B732E6300C7
:102C60004572726F723A2025732C2025640D0A007C
:102C7000480000206800002070000020580000205C
:102C800000010020400000206400002060000020BF
:102C900070B505462C460026002D5ED030480068F1
:102CA000844201D1012000E0002028B941F24F0206
:102CB0002CA132A0FDF700FB206D28B941F2500293
:102CC00028A12EA0FDF7F8FA206D401E2065E16CCA
:102CD000E06A884241D0206D00283ED1201DFFF7D8
:102CE00071F840B994F82C100120884027490968F0
:102CF000814326480160E06CE062E06AC0F1200098
:102D0000A06194F82C1001208840204909680843EC
:102D10001E490860E16A01EB81011D4A02EB810155
:102D20004868A0608268E260211D8268516081600D
:102D3000E16A01EB8101164A02EB81026261E16AFC
:102D400001EB8101124A52F82110491CE26A02EBA0
:102D500082020F4B43F822100126304670BD00005E
:102D6000400000202E2E5C4672656552544F535C25
:102D70007372635C7461736B732E63004572726F60
:102D8000723A2025732C2025640D0A00580000207B
:102D90000001002070B50646F068C4682CB940F602
:102DA00082423CA141A0FDF787FAA06AD4E907124C
:102DB0008A60D4E907214A6004F1180142688A4216
:102DC00001D1216A41600022A2620168491E0160AE
:102DD0003A48006800283DD16069D4E902128A604F
:102DE000D4E902214A60211D42688A4201D1E1688A
:102DF0004160002262610168491E016094F82C1054
:102E0000012088402E49096808432D490860E16A7D
:102E100001EB81012B4A02EB81014868A0608268C6
:102E2000E260211D826851608160E16A01EB8101ED
:102E3000244A02EB81026261E16A01EB8101214ACD
:102E400052F82110491CE26A02EB82021D4B43F842
:102E5000221010E01C494868E0618268226204F197
:102E60001801826851608160174AA26211460968A0
:102E7000491C116000BF1549E06A0968C96A8842A7
:102E800004D9012501201249086000E000252846E8
:102E900070BD00002E2E5C4672656552544F535C27
:102EA0007372635C7461736B732E63004572726F2F
:102EB000723A2025732C2025640D0A007C00002026
:102EC0005800002000010020A8030020400000203E
:102ED0006400002070B5002400265048006828B91E
:102EE00040F6B3024EA154A0FDF7E6F9FEF7B4FF99
:102EF0004A480068401E49490860084600680028A2
:102F00007ED15148006800287AD05BE04F48C06805
:102F1000C468A06AD4E907128A60D4E907214A602C
:102F200004F1180142688A4201D1216A41600022FD
:102F3000A2620168491E01606069D4E902128A60D8
:102F4000D4E902214A60211D42688A4201D1E16828
:102F50004160002262610168491E016094F82C10F2
:102F6000012088403A490968084339490860E16A04
:102F700001EB8101374A02EB81014868A060826859
:102F8000E260211D826851608160E16A01EB81018C
:102F9000304A02EB81026261E16A01EB81012D4A54
:102FA00052F82110491CE26A02EB8202294B43F8D5
:102FB00022102949E06A0968C96A884202D30120BF
:102FC000264908602148006808B9012000E0002077
:102FD00000289BD00CB1FEF745FD2148056865B17E
:102FE00000BFFFF769FD10B101201C4908606D1E8C
:102FF000002DF6D100201A4908601848006800E04A
:1030000008E038B10126300716490860BFF34F8F3A
:10301000BFF36F8FFEF764FF304670BD7C00002069
:103020002E2E5C4672656552544F535C7372635C1E
:103030007461736B732E63004572726F723A202550
:10304000732C2025640D0A0050000020A8030020E6
:1030500058000020000100204000002064000020F3
:103060006000002004ED00E01CB50024FEF72CF900
:103070000B48006858B10B481F2100234FF48072A1
:10308000CDE9001008A10A48FFF7D0FC04462CB98E
:1030900040F2191207A10EA0FDF70EF920461CBD43
:1030A000880000208C000020546D7220537663004D
:1030B000751B00082E2E5C4672656552544F535C9A
:1030C0007372635C74696D6572732E630000000037
:1030D0004572726F723A2025732C2025640D0A0008
:1030E0000031000800000020C00000006C01000852
:1030F000C0310008C0000020B03100008801000885
:1031000000A24A04000000000000000001020304C5
:10311000060708090000000001020304010203047D
:10312000060708090204060800000000000000006D
:10313000000000000000000000000000000001008E
:10314000000000000000000000000000000000007F
:10315000000000000000000000000000000000006F
:10316000000000000000000000000000000000005F
:1031700000000000000000001F0000000000000030
:10318000000000000000000000000000000000003F
:1031900000000000AAAAAAAA000000000000000087
:1031A000000000000000000000000000000000001F
:1031B000000000000000000000000000000000000F
:0400000508000131BD
:00000001FF
