:020000040800F2
:1000000088970020E1010008350700082D05000849
:100010000107000811040008310B0008000000006F
:10002000000000000000000000000000490100087E
:1000300015040008000000008D01000829090008CF
:10004000FB010008FB010008FB010008FB010008A0
:10005000FB010008FB010008FB010008FB01000890
:10006000FB010008FB010008FB010008FB01000880
:10007000FB010008FB010008FB010008FB01000870
:10008000FB010008FB010008FB010008FB01000860
:10009000FB010008FB010008FB010008FB01000850
:1000A000FB010008FB010008FB010008FB01000840
:1000B000FB010008FB010008FB010008FB01000830
:1000C000FB010008FB010008FB010008FB01000820
:1000D000FB010008FB010008FB010008FB01000810
:1000E000FB010008FB010008FB010008FB01000800
:1000F000FB010008FB010008FB010008FB010008F0
:10010000FB010008FB010008FB010008FB010008DF
:10011000FB010008FB010008FB010008FB010008CF
:10012000FB010008FB010008FB010008FB010008BF
:10013000DFF810D000F08EF800480047510D00089D
:10014000AFF3008088970020224B19680868B0E858
:10015000F00F80F30988BFF36F8F4FF0000080F33A
:1001600011884EF00D0E7047000000000648006830
:10017000006880F3088862B661B6BFF34F8FBFF3A3
:100180006F8F00DF00BF00BF08ED00E0EFF30980D4
:10019000BFF36F8F0F4B1A6820E9F00F106008B59E
:1001A0004FF0500080F31188BFF34F8FBFF36F8F74
:1001B00001F0F0FC4FF0000080F31188BDE808402A
:1001C00019680868B0E8F00F80F30988BFF36F8FF3
:1001D000704700BF40000020EFF30580704700002B
:1001E0000648804706480047FEE7FEE7FEE7FEE7D1
:1001F000FEE7FEE7FEE7FEE7FEE7FEE73909000857
:100200003101000840EA01039B0703D009E008C957
:10021000121F08C0042AFAD203E011F8013B00F8CB
:10022000013B521EF9D2704730B50B460146002003
:100230002022012409E021FA02F59D4205D303FAA8
:1002400002F5491B04FA02F52844151EA2F1010229
:10025000F1DC30BD064C074D06E0E06840F00103DC
:1002600094E8070098471034AC42F6D3FFF764FFD8
:1002700018270008382700081CB5012401F0D6F91A
:10028000012001F047FD234908600846006810B1CD
:1002900021A000F04FFC00231A4619461D480068B3
:1002A00001F0C6FE2548012100238022CDE900107F
:1002B00023A1284801F0E2FF0446012C02D126A028
:1002C00000F038FC2C48022100238022CDE90010E8
:1002D0002AA12F4801F0D2FF0446012C02D12DA003
:1002E00000F028FC3348032100238022CDE90010D0
:1002F00031A1364801F0C2FF0446012C02D134A0DE
:1003000000F018FC3B48006801F0AEFA01F0D0F9AB
:100310001CBD000038000020B4B4BDA84D75785352
:10032000656D5F48616E646C65BBA5B3E2D0C5BA0C
:10033000C5C1BFB3C9B9A6210D0A00002C00002019
:100340004C6F775072696F726974795F5461736B27
:1003500000000000250600084C6F775072696F722C
:100360006974795F5461736BC8CECEF1B4B4BDA823
:10037000B3C9B9A6210D0A00300000204D696450B0
:1003800072696F726974795F5461736B0000000069
:10039000050700084D69645072696F726974795F6E
:1003A0005461736BC8CECEF1B4B4BDA8B3C9B9A6BD
:1003B000210D0A0034000020486967685072696F97
:1003C000726974795F5461736B0000003105000835
:1003D000486967685072696F726974795F546173B4
:1003E0006BC8CECEF1B4B4BDA8B3C9B9A6210D0A6D
:1003F000000000002800002010B54FF4407000F00D
:100400009BF94FF4E13000F0C7FA00F0E9F810BDB5
:1004100000BFFEE770472DE9F041024600250026A7
:10042000002000230024002791F803C00CF00F05E2
:1004300091F803C00CF0100CBCF1000F03D091F840
:1004400002C04CEA050591F800C0BCF1000F31D0A4
:10045000146800202BE04FF0010C0CFA00F3B1F807
:1004600000C00CEA03069E4220D183004FF00F0C1F
:100470000CFA03F7BC4305FA03FC4CEA040491F8B8
:1004800003C0BCF1280F06D14FF0010C0CFA00FCA0
:10049000C2F814C00AE091F803C0BCF1480F05D1BE
:1004A0004FF0010C0CFA00FCC2F810C0401C0828E8
:1004B000D1D31460B1F800C0BCF1FF0F34DD546833
:1004C00000202EE000F1080C4FF0010808FA0CF3B0
:1004D000B1F800C00CEA03069E4221D183004FF020
:1004E0000F0C0CFA03F7BC4305FA03FC4CEA0404B6
:1004F00091F803C0BCF1280F05D100F1080C08FAEF
:100500000CF8C2F8148091F803C0BCF1480F07D171
:1005100000F1080C4FF0010808FA0CF8C2F810803E
:10052000401C0828CED35460BDE8F08100BFFEE730
:10053000012423E012A000F0FDFA00235A1E194600
:100540001748006801F034FC0446012C02D115A0C4
:1005500000F0F0FA1AA000F0EDFA00231A4619464E
:100560000F48006801F064FD0446012C02D10DA083
:1005700000F0E0FA4FF4FA7001F03AF9DAE700001F
:10058000486967685072696F726974795F54617302
:100590006B20BBF1C8A1D0C5BAC5C1BF0D0A000010
:1005A00038000020486967685072696F7269747911
:1005B0005F5461736B2052756E6E696E670D0A0031
:1005C000486967685072696F726974795F546173C2
:1005D0006B20CACDB7C5D0C5BAC5C1BF0D0A0000D2
:1005E00008B50121042000F0B1F80121402000F0FD
:1005F000ADF81820ADF8000048208DF803006946DA
:100600000648FFF708FF0120ADF8000028208DF80C
:10061000030069460248FFF7FEFE08BD00180140CE
:1006200000080140012434E01AA000F083FA0023FE
:100630005A1E19461F48006801F0BAFB0446012CF7
:1006400002D11DA000F076FA0020224908600CE0DB
:100650004FF0805020490860BFF34F8FBFF36F8F7A
:100660001C480068401C1B4908601A4800681B4968
:100670008842EDD31AA000F05DFA00231A4619460D
:100680000C48006801F0D4FC04464FF4FA7001F005
:10069000AFF8C9E74C6F775072696F726974795F10
:1006A0005461736B20BBF1C8A1D0C5BAC5C1BF0DE1
:1006B0000A000000380000204C6F775072696F729A
:1006C0006974795F5461736B2052756E6E696E67E1
:1006D0000D0A00003C00002004ED00E080841E00B4
:1006E0004C6F775072696F726974795F5461736B84
:1006F00020CACDB7C5D0C5BAC5C1BF210D0A0000FB
:1007000000BFFEE706E004A000F014FA4FF4FA7010
:1007100001F06EF8F7E700004D69645072696F727E
:100720006974795F5461736B2052756E6E696E6780
:100730000D0A00007047000002490143024A11609F
:10074000704700000000FA050CED00E029B1064AF0
:1007500092690243044B9A6104E0034A926982431E
:10076000014B9A61704700000010024030B5002133
:100770000022002400232D4D6D6805F00C0121B1ED
:10078000042905D0082923D105E0294D056022E080
:10079000274D05601FE0254D6D6805F47012234D4F
:1007A0006D6805F48034022505EB92421CB9214D99
:1007B000554305600BE01D4D6D6805F400351DB116
:1007C0001C4D5543056002E0194D5543056002E09C
:1007D000174D056000BF00BF144D6D6805F0F001B6
:1007E0000909154D6B5C0568DD4045600F4D6D686E
:1007F00005F4E061090A104D6B5C4568DD408560D9
:100800000A4D6D6805F46051C90A0B4D6B5C456873
:10081000DD40C560054D6D6805F44041890B074D0D
:100820006B5CC568B5FBF3F5056130BD0010024097
:1008300000127A0000093D0014000020240000206E
:1008400010B500F001F810BD0CB50020019000902B
:100850003348006840F480303149086000BF3048B8
:10086000006800F4003000900198401C019000984E
:1008700018B90198B0F5A06FF1D12948006800F4CB
:10088000003010B10120009001E00020009000989D
:10089000012843D12348006840F010002149086036
:1008A0000846006820F0030008600846006840F031
:1008B000020008601A4840681949486008464068C4
:1008C00048600846406840F48060486008464068D8
:1008D00020F47C1048600846406840F4E810486006
:1008E0000846006840F08070086000BF0C4800684F
:1008F00000F000700028F9D00948406820F003009B
:10090000074948600846406840F00200486000BF60
:100910000348406800F00C000828F9D10CBD000025
:10092000001002400020024010B501F0D7FC012861
:1009300001D001F0D5F910BD10B51348006840F0A2
:1009400001001149086008464068104908400E49F6
:100950004860084600680E4908400B490860084690
:10096000006820F4802008600846406820F4FE00FB
:1009700048604FF41F008860FFF762FF4FF000608F
:100980000449086010BD0000001002400000FFF89C
:10099000FFFFF6FE08ED00E010B586B00446012129
:1009A0000420FFF7D3FE01218803FFF7CFFE4FF4A9
:1009B0000070ADF8140018208DF8170003208DF892
:1009C000160005A91348FFF726FD4FF48060ADF827
:1009D000140004208DF8170003208DF8160005A9D7
:1009E0000C48FFF718FD01940020ADF80800ADF8A1
:1009F0000A00ADF80C00ADF810000C20ADF80E00A8
:100A000001A9054800F024F80121034800F006F888
:100A100006B010BD000801400038014021B18289B4
:100A200042F40052828104E082894DF6FF731A403D
:100A30008281704702460020B1F5007F00D100BFDF
:100A400013880B400BB1012000E00020704700002C
:100A50002DE9F04786B005460E460024A24600BFA9
:100A6000A1460027B08900B100BF2F462C8A4CF662
:100A7000FF700440F08804432C82AC894EF6F310DA
:100A80000440B08831890843718908430443AC812C
:100A9000AC8A4FF6FF400440B0890443AC8201A801
:100AA000FFF764FE1F48874202D1DDF810A001E085
:100AB000DDF80CA0A88900F4004040B10AEBCA00A0
:100AC00000EB0A1031684900B0FBF1F807E00AEBCF
:100AD000CA0000EB0A1031688900B0FBF1F864200D
:100AE000B8FBF0F004012009642101FB1089A889FA
:100AF00000F4004040B1322000EBC900B0FBF1F03F
:100B000000F00700044308E0322000EB09106421E4
:100B1000B0FBF1F000F00F0004432C8106B0BDE8FB
:100B2000F087000000380140C1F30802828070475E
:100B300000BFFEE70FB4054B10B503A9044A0298A5
:100B400000F018F810BC5DF814FB00002D0D000833
:100B5000A000002002E008C8121F08C1002AFAD134
:100B600070477047002001E001C1121F002AFBD12D
:100B7000704700002DE9FF4F8BB09A460F4605469F
:100B8000002606E025280BD052460D9990476D1C93
:100B9000761C28780028F5D10FB03046BDE8F08FDC
:100BA0000024A0460122604900E0044315F8013FFB
:100BB000203B02FA03F00842F7D128782E2817D1FB
:100BC00015F8010F44F004042A280ED06FF02F020C
:100BD0002878A0F1300109290AD808EB880102EB36
:100BE000410100EB01086D1CF2E757F8048B6D1C06
:100BF000287869283ED006DC0028CDD063280BD0A9
:100C0000642804D136E0732810D075284BD05246A2
:100C10000D999047761C85E017F8040B8DF80000BD
:100C200000208DF80100E946012003E057F8049BFD
:100C30004FF0FF3061074FF0000401D40AE0641C5C
:100C400044450DDA8442FADB19F804100029F6D184
:100C500006E0641C8442FCDB19F804100029F8D17A
:100C6000264404E019F8010B52460D999047641E82
:100C7000F8D257E001CF4FF00A0B002802DA4042C9
:100C80002D2102E0210504D52B218DF8241001210E
:100C900003E0E10705D02021F7E70DF120090891D5
:100CA0000CE00021F9E701CF4FF00A0BF9E75946B4
:100CB000FFF7BAFA01F1300209F8012D0028F6D148
:100CC000ADEB090000F1200B600701D44FF00108E3
:100CD000D84502DDA8EB0B0000E000208046002490
:100CE00006E009A85246005D0D999047641C761CE9
:100CF00008988442F5DB04E0302052460D99904775
:100D0000761CB8F10001A8F10108F5DC05E019F83E
:100D1000010B52460D999047761CBBF10001ABF1D7
:100D2000010BF4DC6D1C34E70928010070B50446A2
:100D30000D46E1B20548FFF7F7FE00BF80210348EA
:100D4000FFF778FE0028F9D0204670BD003801403A
:100D50001CB50024FFF750FB0BA0FFF7EBFE0F487C
:100D6000012100238022CDE900100DA1104801F0DF
:100D700085FA0446012C02D100F0B0FE02E00DA07D
:100D8000FFF7D8FE00BFFEE7D3B2BCFEB3F5CABC86
:100D9000BBAFCDEAB3C90D0A000000002800002057
:100DA0004170705461736B4372656174650000003B
:100DB00079020008C8CECEF1B4B4BDA8CAA7B0DC91
:100DC0000D0A00002DE9F04105460E461C48076853
:100DD0001C480068001D00F0DFFB50B9194800688E
:100DE00090F82C1001208840174909688143164863
:100DF0000160681C38B936B112480168091D1348F2
:100E000000F008FC1AE07C190E4800684460BC42FF
:100E100007D20C480168091D0D48006800F0E0FB8E
:100E20000CE008480168091D0A48006800F0D8FB7A
:100E300009480068844201D207480460BDE8F08197
:100E400054000020400000205800002074030020BF
:100E500048000020440000207000002010B5044627
:100E600000F0E4FB23480068401C22490860224847
:100E7000006840B9204804600846006801280DD188
:100E800000F0ACF90AE01D48006838B91A4800685B
:100E9000C06AE16A884201D81748046018480068AF
:100EA000401C1749086094F82C100120884015490F
:100EB0000968084313490860E16A01EB8101124A9D
:100EC00002EB8100211D00F0A5FB00F0F1FB0B48B7
:100ED000006868B108480068C06AE16A884207D2C1
:100EE0004FF0805009490860BFF34F8FBFF36F8FF9
:100EF00010BD000050000020400000205C000020D9
:100F00006C00002058000020A400002004ED00E048
:100F100070B523E000F036FE1348006808B90120E0
:100F200000E00020054601F065FBBDB900F07EFB46
:100F30000D48C068C468201D00F02EFB0B480068F7
:100F4000401E0A4908600A480068401E08490860B7
:100F500000F0AEFB204600F060F800BF04480068D7
:100F60000028D7D170BD0000600300205000002091
:100F70004C00002070B504460D46206C70B1216C09
:100F8000E0680844E0606168E068884201D3206856
:100F9000E0602846226CE168FFF734F970BD2DE966
:100FA000F04104460F4615464FF00008A66B206C32
:100FB00040B9206860BB606801F052FA80460020AA
:100FC000606025E07DB93946226CA068FFF71AF908
:100FD000216CA0680844A060D4E90110884217D3AE
:100FE0002068A06014E03946226CE068FFF70AF937
:100FF000216CE068401AE0602168E068884203D212
:10100000216C6068401AE060022D01D106B1761EA5
:10101000701CA0634046BDE8F08110B50446206B0B
:1010200000F07CFB204600F079FB10BD30B54FF49A
:101030001043174800F007042CB1C01D20F0070032
:10104000134C041B1B1B0246124C22600024114D42
:101050006C60D018083820F007000F4C2060002486
:101060000D4D2D686C600C4D2D682C601146441A96
:101070004C60094C24680C60084D4C682C60084D8D
:101080004C682C604FF00044064D2C6030BD0000D1
:10109000880300207C000020840000208C000020B9
:1010A000880000209000002000BFFFF731FF0648B5
:1010B00000680128F9D94FF0805004490860BFF357
:1010C0004F8FBFF36F8FF0E7A400002004ED00E026
:1010D00010B504464CB1002060602060E060002341
:1010E0001A461946204600F0A3FF10BD2DE9F04135
:1010F00006460D4617469846069C0DB9246000E04A
:101100002760E66325640121204600F037FFBDE833
:10111000F08100002DE9FF5F81460F469246DDE930
:101120000E6B109CAAF10100216B01EB800828F0E6
:10113000070808F0070008B9012000E0002028B9DE
:1011400040F22B321BA121A0FFF7F4FC002507E0A1
:10115000795D04F134004155785D00B902E06D1C01
:10116000102DF5D300BF002143200155202E00D3C0
:101170001F26E66266640020A064201D00F02DFAA0
:1011800004F1180000F029FA2461C6F12000A061E2
:1011900064620020E06484F8500049464046039AA7
:1011A00000F0E8F92060BBF1000F01D0CBF800405F
:1011B000BDE8FF9F2E2E5C4672656552544F535C0E
:1011C0007372635C7461736B732E63004572726F2C
:1011D000723A25732C25640D0A00000010B5002416
:1011E00007E004EB84010F4A02EB810000F0E8F90C
:1011F000641C202CF5D30C4800F0E2F90B4800F0F9
:10120000DFF90B4800F0DCF90A4800F0D9F90A4888
:1012100000F0D6F904480949086004480849086004
:1012200010BD0000A400002024030020380300208B
:101230004C030020600300207403002044000020C1
:101240004800002010B50146164800E00068036819
:101250008B42FBD30246436813448B4204D143685C
:101260004C682344436001460A464B6813440468B3
:10127000A34211D10C4C03682468A34208D04B68E8
:101280000468646823444B6003681B680B6005E0D6
:10129000054B1B680B6001E003680B60884200D0BF
:1012A000016010BD7C0000208400002070B5054660
:1012B00000F0BCF9A86B08B9012400E0002400F09C
:1012C000F7F9204670BD70B5054600F0AFF9A86B80
:1012D000E96B884201D1012400E0002400F0E8F924
:1012E000204670BD0A490968096809B9012100E072
:1012F000002121B14FF0FF31064A116006E0044998
:101300000968C968C868034A4168116070470000ED
:1013100044000020700000200B480068401C08B901
:10132000012000E0002020B9F42208A111A0FFF75D
:1013300001FC00BF502080F31188BFF34F8FBFF333
:101340006F8F00BF00BFFEE7940000202E2E5C468A
:1013500072656552544F535C706F72745C525644A0
:10136000535C41524D5F434D335C706F72742E631A
:10137000000000004572726F723A25732C25640DCF
:101380000A00000070B5044600F050F994F9455089
:1013900010E0606A08B9012000E0002038B904F1CB
:1013A000240001F0CBF818B100F0E6FA00E003E009
:1013B000681E45B2002DECDC00BFFF2084F845001C
:1013C00000F076F900F032F994F9445010E0206909
:1013D00008B9012000E0002048B904F1100001F034
:1013E000ADF808B100F0C8FA681E45B200E001E0AF
:1013F000002DECDC00BFFF2084F8440000F058F919
:1014000070BD00002DE9F04104464FF0000800F0E7
:10141000B9FB3E48006808B9FFF708FE3C48006881
:10142000204000285FD1A4B1083404F0070080B147
:1014300004F00700C0F10800044404F0070008B9F4
:10144000012000E0002020B9BF2232A13AA0FFF71E
:1014500071FB002C47D03C480068844243D83B4E87
:101460003046056801E02E462D686868A04202D229
:1014700028680028F7D125480068854233D03068B5
:1014800000F10808286830606868001B102813D92C
:101490002F1907F0070008B9012000E0002020B94B
:1014A000EC221CA124A0FFF745FB6868001B7860B4
:1014B0006C603846FFF7C6FE234968680968081A59
:1014C000214908600846006821490968884203D21A
:1014D0001D4800681E4908600D496868096808438E
:1014E00068600020286001F085F808F0070008B95E
:1014F000012000E0002028B94FF4967205A10EA04B
:10150000FFF718FB4046BDE8F08100008400002092
:10151000900000202E2E5C4672656552544F535C3D
:10152000706F72745C4D656D4D616E675C6865616E
:10153000705F342E630000004572726F723A25733B
:101540002C25640D0A000000880000207C0000208B
:101550008C0000200648006830B10549096801F197
:101560004800896C491C0160014800687047000010
:1015700040000020001F4FF080730360001F21F027
:1015800001030360001F034B03601438026020381E
:10159000704700001913000801460A69D1E90130BB
:1015A0009860D1E9010358605068884201D1886889
:1015B0005060002008611068401E1060106870477D
:1015C00000F1080141604FF0FF31816000F1080136
:1015D000C160016100210160704700210161704715
:1015E00010B502460B685C1C0CB9106907E002F1EB
:1015F000080000E04068446824689C42FAD94468C6
:101600004C604C68A160886041600A611468641C89
:10161000146010BD42684A6093688B60936859609B
:101620009160086103685B1C0360704710B500BFE0
:10163000502080F31188BFF34F8FBFF36F8F00BF2F
:101640000B480068401C0A490860084600680128E9
:101650000DD108480068C0B208B9012000E00020A0
:1016600028B94FF4BD7204A10DA0FFF763FA10BDB5
:101670009400002004ED00E02E2E5C467265655259
:10168000544F535C706F72745C525644535C4152B9
:101690004D5F434D335C706F72742E630000000029
:1016A0004572726F723A25732C25640D0A00000092
:1016B00010B50B48006828B940F2811209A113A0A7
:1016C000FFF738FA06480068401E054908600846DA
:1016D000006820B9002080F3118800BF00BF10BD52
:1016E000940000202E2E5C4672656552544F535C68
:1016F000706F72745C525644535C41524D5F434D5F
:10170000335C706F72742E63000000004572726F5C
:10171000723A25732C25640D0A00000070B5064648
:101720003546002E35D0083D2C461A4960680968B8
:10173000084008B1012000E0002028B94FF4A07251
:1017400015A11EA0FFF7F6F9206808B9012000E0F6
:10175000002028B940F241120FA118A0FFF7EAF9C2
:101760000C4960680968084098B1206888B909493F
:10177000606809688843606000F004FA1349606893
:1017800009680844114908602046FFF75BFD00F036
:1017900031FF70BD900000202E2E5C4672656552B0
:1017A000544F535C706F72745C4D656D4D616E6724
:1017B0005C686561705F342E630000004572726F73
:1017C000723A25732C25640D0A0000008800002061
:1017D000064800684FF47A71B0FBF1F0401E4FF0FC
:1017E000E0214861072008617047000000000020E8
:1017F00070B504460025ACB10F48006808B9012057
:1018000000E0002028B940F2CF420CA111A0FFF760
:1018100091F900F0B7F900212046FFF7D3FA00F064
:10182000E9FE05463DB94FF080500E490860BFF310
:101830004F8FBFF36F8F70BD780000202E2E5C4657
:1018400072656552544F535C7372635C7461736B61
:10185000732E63004572726F723A25732C25640DE6
:101860000A00000004ED00E070B50546FFF7DEFE5B
:1018700015B92D48006800E028460446201DFFF7F2
:101880008BFE78B9E06A00EB8000284951F820000F
:1018900040B994F82C1001208840254909688143FB
:1018A00023480160A06A18B104F11800FFF774FE24
:1018B00020480068401C1F4908601B48006884429B
:1018C00009D1211D1C48FFF7A5FE1C480068401CDB
:1018D0001A49086009E01A480068401E1849086063
:1018E0002046FFF79AFBFFF7FDFCFFF7E1FE1548E6
:1018F0000068C0B10C480068844214D112480068E6
:1019000008B9012000E0002028B940F265420FA18B
:1019100014A0FFF70FF94FF0805016490860BFF38D
:101920004F8FBFF36F8F70BD40000020A4000020D8
:10193000580000206C000020600300204C000020B4
:10194000500000205C000020780000202E2E5C4615
:1019500072656552544F535C7372635C7461736B50
:10196000732E63004572726F723A25732C25640DD5
:101970000A00000004ED00E0012001490860704702
:101980006400002070B504460D462CB940F60632BE
:1019900007A10DA0FFF7CEF80F48016818312046C7
:1019A000FFF71EFE01212846FFF70CFA70BD00006C
:1019B0002E2E5C4672656552544F535C7372635CA5
:1019C0007461736B732E63004572726F723A257384
:1019D0002C25640D0A0000004000002070B505466B
:1019E0002C46002D4BD02649E06A0968C96A884216
:1019F00045D2A06900F0004028B921480068C06ABB
:101A0000C0F12000A061E16A01EB81011D4A02EBF7
:101A100081016069884201D1012000E0002050B3BB
:101A2000201DFFF7B9FD78B9E06A00EB8000154989
:101A300051F8200040B994F82C1001208840124938
:101A400009688143104801600D480068C06AE0627F
:101A500094F82C10012088400B49096808430A4972
:101A60000860E16A01EB8101064A02EB8100211D59
:101A7000FFF7D0FD03E002480068C06AE06270BD75
:101A800040000020A40000205800002010B50446AB
:101A90002CB940F6C13205A10AA0FFF74BF80D485A
:101AA000006820600C480068606010BD2E2E5C4607
:101AB00072656552544F535C7372635C7461736BEF
:101AC000732E63004572726F723A25732C25640D74
:101AD0000A00000068000020540000201CB51848CF
:101AE00000210B468022CDE9001016A1174800F016
:101AF000C5FB0446012C15D100BF502080F311888E
:101B0000BFF34F8FBFF36F8F00BF4FF0FF3010490F
:101B1000086001200F49086000200F49086000F0AC
:101B20008FF80BE0601C08B1012000E0002028B90C
:101B300040F2847209A10FA0FEF7FCFF1CBD00005B
:101B40007400002049444C4500000000A910000822
:101B5000700000205C000020540000202E2E5C4607
:101B600072656552544F535C7372635C7461736B3E
:101B7000732E63004572726F723A25732C25640DC3
:101B80000A00000002480068401C014908607047D4
:101B90007800002010B51B48006818B101201A49D0
:101BA00008602DE000201849086018480068B0FA65
:101BB00080F0C0F11F0404EB8400154951F82000A7
:101BC00008B1012000E0002028B940F6F62211A15A
:101BD00016A0FEF7AFFF04EB84010D4A02EB810073
:101BE00041684968416000F1080142688A4202D1B7
:101BF0004168496841604168C968104A116000BF86
:101C000010BD000078000020640000205800002073
:101C1000A40000202E2E5C4672656552544F535C22
:101C20007372635C7461736B732E63004572726FC1
:101C3000723A25732C25640D0A0000004000002034
:101C40001CB52248014609780191FF210246117016
:101C50000146097800919DF8001001F050011C4ADE
:101C6000117007211B4A116009E01A490968491ED1
:101C7000184A11609DF800104906090E00919DF860
:101C8000001001F080018029EFD012490968090293
:101C9000104A11601146098801F4E06111600B4A95
:101CA000019911700C48006840F470000A490860FE
:101CB0000846006840F070400860FFF789FD00208A
:101CC00006490860FEF752FA00201CBD00E400E05F
:101CD000980000209C00002020ED00E094000020EF
:101CE00010B500BF502080F31188BFF34F8FBFF3B2
:101CF0006F8F00BF00F002FB18B14FF08050044915
:101D0000086000BF002080F3118800BF10BD0000F4
:101D100004ED00E02DE9F0410446012600272246AB
:101D20000021012000F008F805462846FFF7D0F909
:101D30002846BDE8F08100002DE9F84305460E462F
:101D400090460DB1012000E0002028B94FF4C47284
:101D50000DA113A0FEF7EEFE0EB9002701E005FB72
:101D600006F707F14800FFF74DFB044644B104F1C4
:101D7000480943464A46314628460094FFF7B6F9DB
:101D80002046BDE8F88300002E2E5C467265655241
:101D9000544F535C7372635C71756575652E630097
:101DA0004572726F723A25732C25640D0A0000008B
:101DB0002DE9FF4782B005460E461F464FF0000A48
:101DC0002C462CB940F2DC4261A167A0FEF7B2FEBE
:101DD0000EB9206C08B9012000E0002028B940F2BB
:101DE000DD425BA160A0FEF7A5FE00F077FA08B91E
:101DF000049808B9012000E0002028B94FF49C6243
:101E000053A159A0FEF796FE00BFFFF70FFCD4F8D0
:101E10003890B9F1000F3DD0D4F80C8031462046FF
:101E2000FFF7A8F8DFB9A9F10100A063206810B995
:101E3000FFF790FB6060206908B9012000E00020F6
:101E400010BB04F1100000F079FBE8B14FF08050B6
:101E500049490860BFF34F8FBFF36F8F14E0C4F898
:101E60000C80606A08B9012000E0002060B904F12C
:101E7000240000F063FB38B14FF080503E49086009
:101E8000BFF34F8FBFF36F8FFFF712FC012006B037
:101E9000BDE8F087049818B9FFF70AFC0020F6E7C0
:101EA000BAF1000F04D16846FFF7F0FD4FF0010AC8
:101EB000FFF7FEFBFFF766FEFFF7B8FB94F944005F
:101EC000401C10B9002084F8440094F94500401CDF
:101ED00010B9002084F84500FFF7EAFB04A9684622
:101EE00000F07AF940BB2046FFF7E0F9F0B1206836
:101EF00030B9FFF79BFB6068FFF770FDFFF7D8FB79
:101F000004F124000499FFF73DFD2046FFF73AFA5B
:101F100000F070FB00287FF478AF4FF08050164936
:101F20000860BFF34F8FBFF36F8F6EE72046FFF758
:101F300029FA00F05FFB68E72046FFF723FA00F07C
:101F400059FB2046FFF7B2F90028EED000209EE7AB
:101F50002E2E5C4672656552544F535C7372635CFF
:101F600071756575652E63004572726F723A2573DF
:101F70002C25640D0A00000004ED00E070B5054654
:101F80000E462C462CB940F21B121EA123A0FEF7D0
:101F9000D1FDFFF74BFBD4E90F12206801FB0200D3
:101FA00060600020A0632068A060E06B401E226C8F
:101FB000216800FB0210E060FF2084F8440084F8F0
:101FC00045009EB9206908B9012000E00020A8B9A9
:101FD00004F1100000F0B2FA80B14FF080501349C4
:101FE0000860BFF34F8FBFF36F8F07E004F110005D
:101FF000FFF7E6FA04F12400FFF7E2FAFFF758FBD7
:10200000012070BD2E2E5C4672656552544F535CA4
:102010007372635C71756575652E63004572726FCE
:10202000723A25732C25640D0A00000004ED00E0CF
:102030002DE9FF4383B0064688461D464FF0000950
:1020400034462CB940F2D92258A15EA0FEF772FDA9
:10205000B8F1000F01D1206C08B9012000E0002088
:1020600028B940F2DA2251A156A0FEF763FD022DF5
:1020700002D1E06B012801D1012000E0002028B945
:1020800040F2DB2249A14FA0FEF754FD00F026F9F3
:1020900008B9059808B9012000E0002028B940F2ED
:1020A000DE2242A147A0FEF745FD00BFFFF7BEFAC2
:1020B000A06BE16B884201D3022D28D12A4641460C
:1020C0002046FEF76CFF0746606A08B9012000E071
:1020D000002068B904F1240000F030FA88B14FF014
:1020E00080503C490860BFF34F8FBFF36F8F08E00B
:1020F0003FB14FF0805037490860BFF34F8FBFF3B7
:102100006F8FFFF7D5FA012007B0BDE8F08305987F
:1021100018B9FFF7CDFA0020F6E7B9F1000F04D1A6
:1021200001A8FFF7B3FC4FF00109FFF7C1FAFFF771
:1021300029FDFFF77BFA94F94400401C10B90020F8
:1021400084F8440094F94500401C10B9002084F83C
:102150004500FFF7ADFA05A901A800F03DF8F0B978
:102160002046FFF7B0F8A0B104F110000599FFF781
:1021700009FC2046FFF706F900F03CFA002895D14B
:102180004FF0805013490860BFF34F8FBFF36F8F3C
:102190008CE72046FFF7F6F800F02CFA86E7204699
:1021A000FFF7F0F800F026FA0020ADE72E2E5C468F
:1021B00072656552544F535C7372635C71756575DB
:1021C000652E63004572726F723A25732C25640D7B
:1021D0000A00000004ED00E02DE9F04104460D4640
:1021E0002CB940F6CB3219A11EA0FEF7A3FC2DB9E5
:1021F00040F6CC3215A11BA0FEF79CFCFFF716FAA7
:102200001C4807682868401C08B9002619E01A49CC
:1022100020680968884204D06068B84201D8012665
:102220000FE06068381A2968884209D22868616816
:10223000791A401A28602046FFF728FC002600E0A3
:102240000126FFF735FA3046BDE8F0812E2E5C46B8
:1022500072656552544F535C7372635C7461736B47
:10226000732E63004572726F723A25732C25640DCC
:102270000A00000054000020680000202DE9FF4FF4
:1022800085B0804689461746DDE912ABB800FFF7F6
:10229000B9F8064656B15420FFF7B4F804460CB11D
:1022A000266304E03046FFF739FA00E000247CB1F1
:1022B0000020CDE900ABCDE902403A464946404610
:1022C000089BFEF727FF2046FEF7C8FD012501E029
:1022D0004FF0FF35284609B0BDE8F08F0549096881
:1022E00009B9012005E00449096809B9022000E0A4
:1022F000002070475C000020780000202DE9F041AC
:102300004FF0000841480068002872D1404800683A
:10231000451C3F480560EDB93E480068006808B9B3
:10232000012000E0002028B940F6D9123AA140A0CF
:10233000FEF700FC374807684148006835490860E7
:102340003F4807603F480068401C3E490860FEF770
:10235000C9FF00BF3C48006885423CD300BF2D4800
:102360000068006808B9012000E0002020B14FF0AB
:10237000FF30354908602DE026480068C068C46811
:102380006668B54202D23048066023E0201DFFF7A0
:1023900003F9A06A18B104F11800FFF7FDF894F8EA
:1023A0002C10012088402949096808432749086002
:1023B000E16A01EB8101264A02EB8100211DFFF752
:1023C00029F92449E06A0968C96A8842C7D34FF0ED
:1023D0000108C4E700BF1F480068C06A00EB800026
:1023E0001B4951F82000012801D94FF0010805E0F0
:1023F000FFE719480068401C174908601748006843
:1024000008B14FF001084046BDE8F0817800002097
:1024100054000020440000202E2E5C467265655258
:10242000544F535C7372635C7461736B732E6300FF
:102430004572726F723A25732C25640D0A000000F4
:102440004800002068000020700000205800002094
:10245000A400002040000020600000206400002054
:1024600070B505462C460026002D4BD02648006846
:10247000844201D1012000E0002028B940F6C76263
:1024800022A128A0FEF756FBA06C28B940F6C9622D
:102490001EA124A0FEF74EFBA06C401EA064616C40
:1024A000E06A88422ED0A06C60BB201DFFF774F854
:1024B00078B9E06A00EB80001E4951F8200040B96D
:1024C00094F82C10012088401B49096881431A4860
:1024D0000160606CE062E06AC0F12000A06194F8E5
:1024E0002C100120884014490968084312490860EB
:1024F000E16A01EB81010F4A02EB8100211DFFF728
:1025000089F80126304670BD400000202E2E5C4622
:1025100072656552544F535C7372635C7461736B84
:10252000732E63004572726F723A25732C25640D09
:102530000A000000A40000205800002070B50646E4
:10254000F068C4682CB940F661321AA11FA0FEF7EA
:10255000F1FA04F11800FFF71FF820480068A8B945
:10256000201DFFF719F894F82C10012088401C4911
:10257000096808431A490860E16A01EB8101194AB8
:1025800002EB8100211DFFF745F804E004F118017A
:102590001548FFF73FF81549E06A0968C96A88429B
:1025A00004D9012501201249086000E000252846D1
:1025B00070BD00002E2E5C4672656552544F535C10
:1025C0007372635C7461736B732E63004572726F18
:1025D000723A25732C25640D0A0000007800002053
:1025E00058000020A40000204C03002040000020E0
:1025F0006400002070B5002400263448006828B923
:102600004FF4FD6232A138A0FEF794FAFFF70EF8FE
:102610002E480068401E2D490860084600680028C2
:102620004FD13548006800284BD024E03348C068BB
:10263000C46804F11800FEF7AFFF201DFEF7ACFFE1
:1026400094F82C10012088402D49096808432C4932
:102650000860E16A01EB81012A4A02EB8100211D39
:10266000FEF7D8FF2849E06A0968C96A884202D3A0
:102670000120264908602148006808B9012000E0CF
:1026800000200028D2D00CB1FEF72CFE20480568AF
:1026900065B100BFFFF732FE10B101201B49086091
:1026A0006D1E002DF6D100201949086017480068FA
:1026B00038B10126300717490860BFF34F8FBFF3C9
:1026C0006F8FFEF7F5FF304670BD000078000020E8
:1026D0002E2E5C4672656552544F535C7372635C78
:1026E0007461736B732E63004572726F723A257357
:1026F0002C25640D0A000000500000204C0300202F
:1027000058000020A40000204000002064000020A9
:102710006000002004ED00E03827000800000020E1
:10272000A4000000540B0008DC270008A4000020CF
:10273000E4960000640B000800A24A0400000000B8
:102740000000000001020304060708090000000061
:102750000102030401020304060708090204060833
:102760000000000000000000000000000000000069
:102770000000000000000000000000000000000059
:102780000000000000000000000000000000000049
:102790000000000000000000000000000000000039
:1027A0000000000000000000000000000000000029
:1027B0000000000000000000000000000000000019
:1027C000000000000000000000000000AAAAAAAA61
:0C27D000000000000000000000000000FD
:0400000508000131BD
:00000001FF
