:020000040800F2
:1000000080970020E1010008B90700088304000878
:10001000B507000851030008B50B000800000000F8
:10002000000000000000000000000000490100087E
:1000300055030008000000008D010008AD0900080C
:10004000FB010008FB010008FB010008FB010008A0
:10005000FB010008FB010008FB010008FB01000890
:10006000FB010008FB010008FB010008FB01000880
:10007000FB010008FB010008FB010008FB01000870
:10008000FB010008FB010008FB010008FB01000860
:10009000FB010008FB010008FB010008FB01000850
:1000A000FB010008FB010008FB010008FB01000840
:1000B000FB010008FB010008FB010008FB01000830
:1000C000FB010008FB010008FB010008FB01000820
:1000D000FB010008FB010008FB010008FB01000810
:1000E000FB010008FB010008FB010008FB01000800
:1000F000FB010008FB010008FB010008FB010008F0
:10010000FB010008FB010008FB010008FB010008DF
:10011000FB010008FB010008FB010008FB010008CF
:10012000FB010008FB010008FB010008FB010008BF
:10013000DFF810D000F098F800480047250F0008BD
:10014000AFF3008080970020224B19680868B0E860
:10015000F00F80F30988BFF36F8F4FF0000080F33A
:1001600011884EF00D0E7047000000000648006830
:10017000006880F3088862B661B6BFF34F8FBFF3A3
:100180006F8F00DF00BF00BF08ED00E0EFF30980D4
:10019000BFF36F8F0F4B1A6820E9F00F106008B59E
:1001A0004FF0500080F31188BFF34F8FBFF36F8F74
:1001B00001F046FC4FF0000080F31188BDE80840D4
:1001C00019680868B0E8F00F80F30988BFF36F8FF3
:1001D000704700BF34000020EFF305807047000037
:1001E0000648804706480047FEE7FEE7FEE7FEE7D1
:1001F000FEE7FEE7FEE7FEE7FEE7FEE7BD090008D3
:10020000310100082DE9F05F0546002092469B462B
:1002100088460646814640241BE02846414647461C
:10022000224600F042F853465A46C01A914110D374
:1002300011461846224600F029F82D1A67EB0108EE
:100240004F4622460120002100F020F817EB00095C
:100250004E41201EA4F10104DFDC484631462A4607
:100260004346BDE8F09F0000064C074D06E0E068FD
:1002700040F0010394E8070098471034AC42F6D3ED
:10028000FFF75AFFE01E0008001F0008202A04DBC9
:10029000203A00FA02F1002070479140C2F1200399
:1002A00020FA03F3194390407047202A04DB203AD8
:1002B00021FA02F00021704721FA02F3D040C2F186
:1002C0002002914008431946704700001CB50124E4
:1002D00001F0B4F90B48032100238022CDE900107E
:1002E00009A10C4801F072FC0446012C02D10AA0BD
:1002F00000F062FC0E48006801F0BEFA01F0E0F97F
:100300001CBD00002C0000204B65795F5461736BAD
:1003100000000000810500084B65795F5461736B34
:10032000C8CECEF1B4B4BDA8B3C9B9A6210D0A0098
:100330002800002010B54FF4407000F03FFA4FF451
:10034000E13000F06BFB00F09FF800F009FA10BDFF
:1003500000BFFEE770472DE9F04102460025002668
:10036000002000230024002791F803C00CF00F05A3
:1003700091F803C00CF0100CBCF1000F03D091F801
:1003800002C04CEA050591F800C0BCF1000F31D065
:10039000146800202BE04FF0010C0CFA00F3B1F8C8
:1003A00000C00CEA03069E4220D183004FF00F0CE0
:1003B0000CFA03F7BC4305FA03FC4CEA040491F879
:1003C00003C0BCF1280F06D14FF0010C0CFA00FC61
:1003D000C2F814C00AE091F803C0BCF1480F05D17F
:1003E0004FF0010C0CFA00FCC2F810C0401C0828A9
:1003F000D1D31460B1F800C0BCF1FF0F34DD5468F4
:1004000000202EE000F1080C4FF0010808FA0CF370
:10041000B1F800C00CEA03069E4221D183004FF0E0
:100420000F0C0CFA03F7BC4305FA03FC4CEA040476
:1004300091F803C0BCF1280F05D100F1080C08FAAF
:100440000CF8C2F8148091F803C0BCF1480F07D132
:1004500000F1080C4FF0010808FA0CF8C2F81080FF
:10046000401C0828CED35460BDE8F081024600202D
:1004700093680B400BB1012000E000207047016140
:10048000704700BFFEE7000008B50121042000F01E
:100490009FF90121402000F09BF91820ADF80000E1
:1004A00048208DF8030069460648FFF754FF0120F5
:1004B000ADF8000028208DF8030069460248FFF7D8
:1004C0004AFF08BD001801400008014010B5002493
:1004D00028480078002837D001212748FFF7C6FFB9
:1004E00048B908212548FFF7C1FF20B11021234852
:1004F000FFF7BCFF08BB0A2000F0F7FC01211E48F3
:10050000FFF7B4FF48B908211C48FFF7AFFF20B13F
:1005100010211A48FFF7AAFF78B900201549087082
:1005200010211648FFF7A2FF08B901240CE00821AA
:100530001248FFF79BFF08B9022405E001210E488D
:10054000FFF794FF00B1032401210B48FFF78EFF52
:1005500068B908210948FFF789FF40B1074808300A
:10056000006800F0100010B1012002490870204618
:1005700010BD000094000020000801400018014058
:100580005BE0FFF7A3FF012802D0022850D136E03C
:100590002A48006800282ED101F0A8FA0446214616
:1005A00027A000F009FB4FF4806000F043FF2349CF
:1005B000086008460068002820D02EA000F0FCFA51
:1005C0001E4801682FA000F0F7FA01F08FFA0446E8
:1005D000214632A000F0F0FA01F038FB05462A4629
:1005E00037A11648006800F0F7FA144801683AA0ED
:1005F00000F0E2FA02E03DA000F0DEFA19E00F4858
:10060000006888B141A000F0D7FA0C48006801F0FA
:100610008DF800200949086001F068FA0446214677
:100620003DA000F0C9FA02E046A000F0C5FA00E0E3
:1006300000BF00BF1E2001F0E3F8A2E73000002059
:10064000CFB5CDB3B5B1C7B0CEB4B7D6C5E4B5C498
:10065000C4DAB4E6B4F3D0A1CEAA20256420D7D65C
:10066000BDDAA3ACBFAACABCC9EAC7EBC4DAB4E618
:100670000D0A0000C4DAB4E6C9EAC7EBB3C9B9A6EB
:100680000D0A0000C9EAC7EBB5BDB5C4C4DAB4E6CB
:10069000B5D8D6B7CEAA2523780D0A00CFB5CDB3ED
:1006A000B5B1C7B0C4DAB4E6CAA3D3E0B4E6B4F3D4
:1006B000D0A1CEAA20256420D7D6BDDA0D0A00002D
:1006C000B5B1C7B0CFB5CDB35469636B436F756E29
:1006D00074203D2025640000D0B4C8EBB5C4CAFD29
:1006E000BEDDCAC7202573200D0A0000C7EBCFC8A6
:1006F000B0B4CFC24B455931CACDB7C5C4DAB4E6A0
:10070000D4D9C9EAC7EB0D0A00000000CACDB7C5AD
:10071000C4DAB4E60D0A0000CFB5CDB3B5B1C7B0A9
:10072000C4DAB4E6B4F3D0A1CEAA20256420D7D68B
:10073000BDDAA3ACC4DAB4E6CACDB7C5CDEAB3C955
:100740000D0A0000C7EBCFC8B0B4CFC24B4559303B
:10075000C9EAC7EBC4DAB4E6D4D9CACDB7C50A0032
:1007600008B50121082000F033F80121402000F0F5
:100770002FF82020ADF8000010208DF80300032092
:100780008DF8020069460948FFF7E5FD2020ADF825
:10079000000069460648FFF7DEFD20210348FFF709
:1007A0006EFE20210248FFF76AFE08BD000C0140E2
:1007B0000018014000BFFEE77047000002490143F6
:1007C000024A1160704700000000FA050CED00E0DD
:1007D00029B1064A92690243044B9A6104E0034A34
:1007E00092698243014B9A617047000000100240F9
:1007F00030B500210022002400232D4D6D6805F046
:100800000C0121B1042905D0082923D105E0294D87
:10081000056022E0274D05601FE0254D6D6805F459
:100820007012234D6D6805F48034022505EB924269
:100830001CB9214D554305600BE01D4D6D6805F455
:1008400000351DB11C4D5543056002E0194D55435F
:10085000056002E0174D056000BF00BF144D6D68D4
:1008600005F0F0010909154D6B5C0568DD40456038
:100870000F4D6D6805F4E061090A104D6B5C456829
:10088000DD4085600A4D6D6805F46051C90A0B4D65
:100890006B5C4568DD40C560054D6D6805F4404101
:1008A000890B074D6B5CC568B5FBF3F5056130BD81
:1008B0000010024000127A0000093D0014000020E0
:1008C0002400002010B500F001F810BD0CB5002088
:1008D000019000903348006840F48030314908604E
:1008E00000BF3048006800F4003000900198401CC0
:1008F0000190009818B90198B0F5A06FF1D129487E
:10090000006800F4003010B10120009001E00020E8
:1009100000900098012843D12348006840F010005F
:10092000214908600846006820F003000860084676
:10093000006840F0020008601A48406819494860A1
:100940000846406848600846406840F48060486057
:100950000846406820F47C1048600846406840F42F
:10096000E81048600846006840F08070086000BFEA
:100970000C48006800F000700028F9D00948406871
:1009800020F00300074948600846406840F0020034
:10099000486000BF0348406800F00C000828F9D107
:1009A0000CBD0000001002400020024010B501F014
:1009B0003DF9012801D001F0EFF810BD10B5134842
:1009C000006840F00100114908600846406810497D
:1009D00008400E494860084600680E4908400B4927
:1009E00008600846006820F48020086008464068D7
:1009F00020F4FE0048604FF41F008860FFF762FF9C
:100A00004FF000600449086010BD00000010024073
:100A10000000FFF8FFFFF6FE08ED00E010B586B01D
:100A2000044601210420FFF7D3FE01218803FFF7CC
:100A3000CFFE4FF40070ADF8140018208DF81700A9
:100A400003208DF8160005A91348FFF784FC4FF426
:100A50008060ADF8140004208DF8170003208DF895
:100A6000160005A90C48FFF776FC01940020ADF8AC
:100A70000800ADF80A00ADF80C00ADF810000C202D
:100A8000ADF80E0001A9054800F024F80121034843
:100A900000F006F806B010BD000801400038014023
:100AA00021B1828942F40052828104E082894DF6AC
:100AB000FF731A408281704702460020B1F5007F23
:100AC00000D100BF13880B400BB1012000E00020D3
:100AD000704700002DE9F04786B005460E46002419
:100AE000A24600BFA1460027B08900B100BF2F4633
:100AF0002C8A4CF6FF700440F08804432C82AC89A9
:100B00004EF6F3100440B0883189084371890843D8
:100B10000443AC81AC8A4FF6FF400440B0890443E3
:100B2000AC8201A8FFF764FE1F48874202D1DDF8BE
:100B300010A001E0DDF80CA0A88900F4004040B14D
:100B40000AEBCA0000EB0A1031684900B0FBF1F86B
:100B500007E00AEBCA0000EB0A1031688900B0FB1D
:100B6000F1F86420B8FBF0F004012009642101FBD6
:100B70001089A88900F4004040B1322000EBC90080
:100B8000B0FBF1F000F00700044308E0322000EB76
:100B900009106421B0FBF1F000F00F0004432C8138
:100BA00006B0BDE8F087000000380140C1F308023C
:100BB0008280704700BFFEE70FB4054B10B503A954
:100BC000044A029800F02CF810BC5DF814FB0000F9
:100BD000010F0008980000200FB4084B10B504A9BD
:100BE00002AA039800F01CF8044602A9002000F0B5
:100BF00077F9204610BC5DF814FB0000E10E0008F8
:100C000002E008C8121F08C1002AFAD170477047D5
:100C1000002001E001C1121F002AFBD17047000033
:100C20002DE9FF4F8DB09B460F460446002606E097
:100C300025280BD05A460F999047641C761C2078C3
:100C40000028F5D111B03046BDE8F08F0025A84648
:100C50000122984900E0054314F8013F203B02FAC5
:100C600003F00842F7D120782E2817D114F8010F8D
:100C700045F004052A280ED06FF02F022078A0F14D
:100C8000300109290AD808EB880102EB410100EB89
:100C90000108641CF2E757F8048B641C20786C2868
:100CA0000DD004DC4C2812D06A2811D104E074283D
:100CB0000DD07A280CD10AE045F4001507E06178E0
:100CC00045F48015814202D1641C05F58015641C31
:100CD0002078692844D008DC0028B3D0582867D091
:100CE00063280FD0642808D13AE0702865D07328B3
:100CF00012D075285AD078285AD05A460F99904762
:100D0000761CD5E017F8040B8DF8000000208DF854
:100D10000100E946012003E057F8049B4FF0FF3043
:100D200069074FF0000501D40AE06D1C45450DDA56
:100D30008542FADB19F805100029F6D106E06D1C92
:100D40008542FCDB19F805100029F8D12E4404E097
:100D500019F8010B5A460F9990476D1EF8D2A7E07B
:100D60000A200021CDE90801C5F3025002280CD069
:100D700001CFC117021E71F100020CDA0023D0EB83
:100D8000030063EB01012D2208E0FF1D27F0070798
:100D9000F7E80201EEE72A0504D52B228DF828207A
:100DA00001223CE0EA073AD02022F7E70A2000E0DF
:100DB00010200021CDE9080107E01020002145F0B6
:100DC0000405CDE908014FF00808C5F302500228D8
:100DD00010D001CF00214FF0000A2A0720D5227839
:100DE000702A0DD0DDE908C38CF0100C5CEA030C0E
:100DF0000CD015E0FF1D27F00707F7E80201EAE72E
:100E000040228DF828204FF0010A0CE050EA01033F
:100E100006D030238DF828308DF829200222924602
:100E20002278582A04D024A20DF120090B9209E05F
:100E300026A2F9E7DDE90823FFF7E4F90B9B9B5CA9
:100E400009F8013D50EA0102F4D1ADEB0900203070
:100E50000890680701D44FF001080899884503DD20
:100E60000898A8EB000000E000208046002506E07E
:100E70000AA85A46405D0F9990476D1C761C55454F
:100E8000F6DB04E030205A460F999047761CB8F103
:100E90000001A8F10108F5DC05E019F8010B5A463C
:100EA0000F999047761C0899481E08900029F4DC99
:100EB000641CC4E60928010030313233343536373A
:100EC0003839616263646566000000003031323396
:100ED0003435363738394142434445460000000036
:100EE0000A68531C0B6010707047002100E0491C19
:100EF00000EBC00202EB0012B1EB820FF7D3704798
:100F000070B504460D46E1B20548FFF74FFE00BF3D
:100F100080210348FFF7D0FD0028F9D0204670BD9E
:100F2000003801401CB50124FFF704FA0BA0FFF7BD
:100F300043FE0F48012100238022CDE900100DA1BE
:100F4000104800F043FE0446012C02D100F01CFDC5
:100F500002E00DA0FFF730FE00BFFEE7D3B2BCFEFB
:100F6000B3F5CABCBBAFCDEAB3C90D0A000000009F
:100F7000280000204170705461736B437265617486
:100F800065000000CD020008C8CECEF1B4B4BDA803
:100F9000CAA7B0DC0D0A00002DE9F04105460E4657
:100FA0001C4807681C480068001D00F0FDFA50B995
:100FB0001948006890F82C100120884017490968EA
:100FC000814316480160681C38B936B1124801687F
:100FD000091D134800F026FB1AE07C190E48006832
:100FE0004460BC4207D20C480168091D0D480068E6
:100FF00000F0FEFA0CE008480168091D0A48006884
:1010000000F0F6FA09480068844201D207480460FB
:10101000BDE8F08148000020340000204C00002092
:101020006C0300203C0000203800002064000020F9
:1010300010B5044600F002FB23480068401C22491A
:1010400008602248006840B92048046008460068EB
:1010500001280DD100F036F90AE01D48006838B9C2
:101060001A480068C06AE16A884201D817480460DB
:1010700018480068401C1749086094F82C1001209B
:10108000884015490968084313490860E16A01EB83
:101090008101124A02EB8100211D00F0C3FA00F029
:1010A0000FFB0B48006868B108480068C06AE16A35
:1010B000884207D24FF0805009490860BFF34F8F34
:1010C000BFF36F8F10BD00004400002034000020EB
:1010D00050000020600000204C0000209C000020F8
:1010E00004ED00E070B523E000F0A2FC13480068B6
:1010F00008B9012000E00020054600F05FFEBDB900
:1011000000F09CFA0D48C068C468201D00F04CFA3D
:101110000B480068401E0A4908600A480068401EE3
:101120000849086000F0CCFA204600F00DF800BF36
:10113000044800680028D7D170BD00005803002083
:10114000440000204000002010B50446206B00F051
:10115000EDFA204600F0EAFA10BD000030B54FF479
:101160001043174800F007042CB1C01D20F0070001
:10117000134C041B1B1B0246124C22600024114D11
:101180006C60D018083820F007000F4C2060002455
:101190000D4D2D686C600C4D2D682C601146441A65
:1011A0004C60094C24680C60084D4C682C60084D5C
:1011B0004C682C604FF00044064D2C6030BD0000A0
:1011C00080030020700000207800002080000020B4
:1011D0007C0000208400002000BFFFF783FF06484A
:1011E00000680128F9D94FF0805004490860BFF326
:1011F0004F8FBFF36F8FF0E79C00002004ED00E0FD
:101200002DE9FF5F81460E469246DDE90E7B109C7C
:10121000AAF10100216B01EB800828F0070808F013
:10122000070008B9012000E0002028B940F22B3265
:101230001AA120A0FFF7C0FC002507E0715D04F1B2
:1012400034004155705D00B902E06D1C102DF5D3DE
:1012500000BF002143200155202F00D31F27E76244
:10126000201D00F0C2F904F1180000F0BEF924615D
:10127000C7F12000A06164620020606484F8480027
:1012800049464046039A00F07DF92060BBF1000F0B
:1012900001D0CBF80040BDE8FF9F00002E2E5C4639
:1012A00072656552544F535C7372635C7461736B07
:1012B000732E63004572726F723A25732C25640D8C
:1012C0000A00000010B5002407E004EB84010F4A77
:1012D00002EB810000F07CF9641C202CF5D30C4853
:1012E00000F076F90B4800F073F90B4800F070F944
:1012F0000A4800F06DF90A4800F06AF90448094903
:10130000086004480849086010BD00009C000020E7
:101310001C03002030030020440300205803002059
:101320006C030020380000203C00002010B501466E
:10133000164800E0006803688B42FBD3024643680E
:1013400013448B4204D143684C68234443600146F4
:101350000A464B6813440468A34211D10C4C03683D
:101360002468A34208D04B680468646823444B6037
:1013700003681B680B6005E0054B1B680B6001E010
:1013800003680B60884200D0016010BD700000202F
:10139000780000200A490968096809B9012100E0BC
:1013A000002121B14FF0FF31064A116006E00449E7
:1013B0000968C968C868034A41681160704700003D
:1013C00038000020640000200B480068401C08B969
:1013D000012000E0002020B9F42208A111A0FFF7AD
:1013E000EBFB00BF502080F31188BFF34F8FBFF39A
:1013F0006F8F00BF00BFFEE7880000202E2E5C46E6
:1014000072656552544F535C706F72745C525644EF
:10141000535C41524D5F434D335C706F72742E6369
:10142000000000004572726F723A25732C25640D1E
:101430000A0000002DE9F04104464FF0000800F0DA
:10144000F7FA3E48006808B9FFF788FE3C48006894
:10145000204000285FD1A4B1083404F0070080B117
:1014600004F00700C0F10800044404F0070008B9C4
:10147000012000E0002020B9BF2232A13AA0FFF7EE
:101480009BFB002C47D03C480068844243D83B4E2D
:101490003046056801E02E462D686868A04202D2F9
:1014A00028680028F7D125480068854233D0306885
:1014B00000F10808286830606868001B102813D9FC
:1014C0002F1907F0070008B9012000E0002020B91B
:1014D000EC221CA124A0FFF76FFB6868001B78605A
:1014E0006C603846FFF722FF234968680968081ACC
:1014F000214908600846006821490968884203D2EA
:101500001D4800681E4908600D496868096808435D
:1015100068600020286000F051FC08F0070008B95E
:10152000012000E0002028B94FF4967205A10EA01A
:10153000FFF742FB4046BDE8F08100007800002044
:10154000840000202E2E5C4672656552544F535C19
:10155000706F72745C4D656D4D616E675C6865613E
:10156000705F342E630000004572726F723A25730B
:101570002C25640D0A0000007C0000207000002073
:1015800080000020001F4FF080730360001F21F0D7
:1015900001030360001F034B03601438026020380E
:1015A00070470000C913000801460A69D1E90130FB
:1015B0009860D1E9010358605068884201D1886879
:1015C0005060002008611068401E1060106870476D
:1015D00000F1080141604FF0FF31816000F1080126
:1015E000C160016100210160704700210161704705
:1015F00010B502460B685C1C0CB9106907E002F1DB
:10160000080000E04068446824689C42FAD94468B5
:101610004C604C68A160886041600A611468641C79
:10162000146010BD42684A6093688B60936859608B
:101630009160086103685B1C0360704710B500BFD0
:10164000502080F31188BFF34F8FBFF36F8F00BF1F
:101650000B480068401C0A490860084600680128D9
:101660000DD108480068C0B208B9012000E0002090
:1016700028B94FF4BD7204A10DA0FFF79DFA10BD6B
:101680008800002004ED00E02E2E5C467265655255
:10169000544F535C706F72745C525644535C4152A9
:1016A0004D5F434D335C706F72742E630000000019
:1016B0004572726F723A25732C25640D0A00000082
:1016C00010B50B48006828B940F2811209A113A097
:1016D000FFF772FA06480068401E05490860084690
:1016E000006820B9002080F3118800BF00BF10BD42
:1016F000880000202E2E5C4672656552544F535C64
:10170000706F72745C525644535C41524D5F434D4E
:10171000335C706F72742E63000000004572726F4C
:10172000723A25732C25640D0A00000070B5064638
:101730003546002E35D0083D2C461A4960680968A8
:10174000084008B1012000E0002028B94FF4A07241
:1017500015A11EA0FFF730FA206808B9012000E0AB
:10176000002028B940F241120FA118A0FFF724FA77
:101770000C4960680968084098B1206888B909492F
:10178000606809688843606000F052F91349606836
:1017900009680844114908602046FFF7C7FD00F0BA
:1017A0000DFB70BD840000202E2E5C4672656552D4
:1017B000544F535C706F72745C4D656D4D616E6714
:1017C0005C686561705F342E630000004572726F63
:1017D000723A25732C25640D0A0000007C0000205D
:1017E000064800684FF47A71B0FBF1F0401E4FF0EC
:1017F000E0214861072008617047000000000020D8
:1018000070B504460025ACB10F48006808B9012046
:1018100000E0002028B940F2CF420CA111A0FFF750
:10182000CBF900F005F900212046FFF7B5FB00F0E9
:10183000C5FA05463DB94FF080500E490860BFF328
:101840004F8FBFF36F8F70BD6C0000202E2E5C4653
:1018500072656552544F535C7372635C7461736B51
:10186000732E63004572726F723A25732C25640DD6
:101870000A00000004ED00E070B50546FFF7DEFE4B
:1018800015B92D48006800E028460446201DFFF7E2
:101890008BFE78B9E06A00EB8000284951F82000FF
:1018A00040B994F82C1001208840254909688143EB
:1018B00023480160A06A18B104F11800FFF774FE14
:1018C00020480068401C1F4908601B48006884428B
:1018D00009D1211D1C48FFF7A5FE1C480068401CCB
:1018E0001A49086009E01A480068401E1849086053
:1018F0002046FFF729FCFFF74DFDFFF7E1FE1548F5
:101900000068C0B10C480068844214D112480068D5
:1019100008B9012000E0002028B940F265420FA17B
:1019200014A0FFF749F94FF0805016490860BFF343
:101930004F8FBFF36F8F70BD340000209C000020DC
:101940004C000020600000205803002040000020D0
:1019500044000020500000206C0000202E2E5C4629
:1019600072656552544F535C7372635C7461736B40
:10197000732E63004572726F723A25732C25640DC5
:101980000A00000004ED00E01CB5184800210B46D9
:101990008022CDE9001016A1174800F017F904467F
:1019A000012C15D100BF502080F31188BFF34F8F59
:1019B000BFF36F8F00BF4FF0FF3010490860012068
:1019C0000F49086000200F49086000F095F80BE00F
:1019D000601C08B1012000E0002028B940F28472A8
:1019E00009A10FA0FFF7E8F81CBD00006800002067
:1019F00049444C4500000000D91100086400002053
:101A000050000020480000202E2E5C467265655272
:101A1000544F535C7372635C7461736B732E630019
:101A20004572726F723A25732C25640D0A0000000E
:101A300002480068401C0149086070476C000020A3
:101A400010B51B48006818B101201A4908602DE044
:101A500000201849086018480068B0FA80F0C0F10A
:101A60001F0404EB8400154951F8200008B101203F
:101A700000E0002028B940F6F62211A116A0FFF7D9
:101A80009BF804EB84010D4A02EB81004168496830
:101A9000416000F1080142688A4202D14168496808
:101AA00041604168C968104A116000BF10BD000064
:101AB0006C000020580000204C0000209C000020FA
:101AC0002E2E5C4672656552544F535C7372635C94
:101AD0007461736B732E63004572726F723A257373
:101AE0002C25640D0A000000340000200148006825
:101AF000704700007C0000201CB522480146097890
:101B00000191FF21024611700146097800919DF86C
:101B1000001001F050011C4A117007211B4A11608E
:101B200009E01A490968491E184A11609DF8001019
:101B30004906090E00919DF8001001F080018029EE
:101B4000EFD0124909680902104A1160114609884C
:101B500001F4E06111600B4A019911700C480068B2
:101B600040F470000A4908600846006840F0704080
:101B70000860FFF735FE002006490860FEF7F6FA18
:101B800000201CBD00E400E08C000020900000203C
:101B900020ED00E08800002010B500BF502080F349
:101BA0001188BFF34F8FBFF36F8F00BF00F054F861
:101BB00018B14FF080500449086000BF002080F346
:101BC000118800BF10BD000004ED00E02DE9FF4FBB
:101BD00085B0804689461746DDE912ABB800FFF7AD
:101BE00029FC064656B14C20FFF724FC04460CB1F4
:101BF000266304E03046FFF799FD00E000247CB145
:101C00000020CDE900ABCDE902403A4649464046C6
:101C1000089BFFF7F5FA2046FFF70AFA012501E0D5
:101C20004FF0FF35284609B0BDE8F08F0549096837
:101C300009B9012005E00449096809B9022000E05A
:101C400000207047500000206C0000200149086807
:101C500070470000480000202DE9F0414FF00008D7
:101C600041480068002872D140480068451C3F4840
:101C70000560EDB93E480068006808B9012000E041
:101C8000002028B940F6D9123AA140A0FEF794FFEF
:101C90003748076841480068354908603F48076091
:101CA0003F480068401C3E490860FFF773FB00BFD7
:101CB0003C48006885423CD300BF2D48006800685E
:101CC00008B9012000E0002020B14FF0FF30354975
:101CD00008602DE026480068C068C4686668B542A0
:101CE00002D23048066023E0201DFFF75DFCA06AA9
:101CF00018B104F11800FFF757FC94F82C100120DC
:101D0000884029490968084327490860E16A01EBCE
:101D10008101264A02EB8100211DFFF783FC244943
:101D2000E06A0968C96A8842C7D34FF00108C4E76E
:101D300000BF1F480068C06A00EB80001B4951F8D3
:101D40002000012801D94FF0010805E0FFE71948FC
:101D50000068401C174908601748006808B14FF038
:101D600001084046BDE8F0816C00002048000020DA
:101D7000380000202E2E5C4672656552544F535C2D
:101D80007372635C7461736B732E63004572726F60
:101D9000723A25732C25640D0A0000003C000020D7
:101DA0005C000020640000204C0000209C0000200B
:101DB00034000020540000205800002070B500249A
:101DC00000263448006828B94FF4FD6232A138A0DB
:101DD000FEF7F2FEFFF732FC2E480068401E2D4948
:101DE00008600846006800284FD135480068002880
:101DF0004BD024E03348C068C46804F11800FFF7F2
:101E0000D3FB201DFFF7D0FB94F82C100120884055
:101E10002D49096808432C490860E16A01EB8101FA
:101E20002A4A02EB8100211DFFF7FCFB2849E06AEA
:101E30000968C96A884202D30120264908602148FE
:101E4000006808B9012000E000200028D2D00CB1C1
:101E5000FFF7A0FA2048056865B100BFFFF7FCFE58
:101E600010B101201B4908606D1E002DF6D1002025
:101E7000194908601748006838B10126300717492A
:101E80000860BFF34F8FBFF36F8FFFF719FC304629
:101E900070BD00006C0000202E2E5C4672656552FD
:101EA000544F535C7372635C7461736B732E630085
:101EB0004572726F723A25732C25640D0A0000007A
:101EC00044000020440300204C0000209C0000201F
:101ED00034000020580000205400002004ED00E0F1
:101EE000001F0008000000209C000000000C0008FB
:101EF0009C1F00089C000020E4960000100C0008C5
:101F000000A24A04000000000000000001020304D7
:101F1000060708090000000001020304010203048F
:101F2000060708090204060800000000000000007F
:101F300000000000000000000000000000000000A1
:101F40000000000000000000000000000000000091
:101F50000000000000000000000000000000000081
:101F60000000000000000000000000000000000071
:101F70000000000000000000000000000000000061
:101F80000000000000000000AAAAAAAA00000000A9
:0C1F900000000000010000000000000044
:0400000508000131BD
:00000001FF
